:020000040800F2
:10000000F8100020010100088F370008092F0008B0
:100010008D3700085D090008C1400008000000009D
:100020000000000000000000000000008F38000801
:10003000BB09000800000000913700089138000853
:100040001B0100081B0100081B0100081B01000820
:100050001B0100081B010008BD090008C3090008B6
:100060001B010008C90900081B01000861090008FC
:100070006D0900081B0100087909000885090008BE
:100080001B0100081B0100081B0100081B010008E0
:100090001B0100081B0100081B0100081B010008D0
:1000A0001B0100081B0100081B0100081B010008C0
:1000B0001B0100081B0100081B0100081B010008B0
:1000C0001B0100081B0100081B0100081B010008A0
:1000D0001B010008A9400008B54000081B010008EA
:1000E0001B0100081B0100081B010008DFF80CD0F1
:1000F00000F02CFA004800470D4C0008F8100020D2
:100100000648804706480047FEE7FEE7FEE7FEE7B1
:10011000FEE7FEE7FEE7FEE7FEE7FEE785390008BB
:10012000ED000008202A04DB203A21FA02F0002129
:10013000704721FA02F3D040C2F1200291400843F7
:100140001946704740EA01039B0703D009E008C93C
:10015000121F08C0042AFAD203E011F8013B00F88C
:10016000013B521EF9D27047D2B201E000F8012BD8
:10017000491EFBD270470022F6E710B513460A4627
:1001800004461946FFF7F0FF204610BD421C10F848
:10019000011B0029FBD1801A704730B505460020AD
:1001A000034600E05B1C934205D2EC5CC85C201A5D
:1001B00001D1002CF6D130BDF0B480EA0102D40F99
:1001C0004200B2EB410F02D20246084611464A00F5
:1001D00042D0C30DDDB2C1F3C752AD1A202D35DABE
:1001E000C1F3160141F4000204B15242C5F12006E8
:1001F00002FA06F12A411044B3EBD05F23D0C4B118
:10020000012DA0EBC35009DCF0BC4FF0004202EA24
:10021000C352DBB200F5000000F004B9400000F169
:10022000807000EBC350A0F1807040EAD1704900AB
:1002300009E0490841EAC071A0EBC35000F5000095
:10024000400800EBC350F0BC00F0E3B8614201226B
:1002500002EB4101001BF6E7F0BC704781F0004162
:10026000AAE780F00040A7E780EA010210B502F09B
:100270000043400022D04A001FD0010E01EB126162
:10028000C0F35600C2F3560240F4000042F40002EC
:10029000A0FB022000047F39140400D0401C50EA67
:1002A000124001D44000491EC2B20C0604EBD0102B
:1002B000401C4008802A02D003E0002010BD20F03E
:1002C0000100002900DA0020184310BD30B480EA94
:1002D000010202F0004530F0004221F0004013D04E
:1002E00090B1C30DD40DC2F31601C0F31600E41A89
:1002F00041F4000140F400027D34914201D3641CBA
:1003000000E04900002C02DA30BC002070474FF4B6
:1003100000000023914201D3891A034340084FEAA9
:100320004101F7D151B1914202D14FF0004105E0B6
:1003300002D24FF0010101E06FF0010103EBC45064
:10034000284430BC00F065B8420005D0C0F3C75265
:100350005242914201DC0020704700EBC1507047CF
:1003600096230022114600F05DB820F00040C10D38
:10037000C0F3160040F400007F2901DA0020704726
:10038000962903DCC1F19601C84070479639884030
:1003900070472DE9F05F0546002092469B4688464F
:1003A0000646814640241BE02846414647462246F1
:1003B000FFF7B8FE53465A46C01A914110D3114672
:1003C0001846224600F016F82D1A67EB01084F4632
:1003D00022460120002100F00DF817EB00094E41E4
:1003E000201EA4F10104DFDC484631462A4643467C
:1003F000BDE8F09F202A04DB203A00FA02F1002039
:1004000070479140C2F1200320FA03F31943904052
:1004100070470029A8BF7047401C490008BF20F062
:100420000100704710B4B0FA80FC00FA0CF050EAFA
:10043000010404BF10BC704749B1CCF1200421FA7B
:1004400004F411FA0CF118BF012121430843A3EB76
:100450000C01CB1D4FEA00614FEA102042BF002083
:1004600010BC704700EBC35010440029A4BF10BC5F
:100470007047401C490008BF20F0010010BC7047C5
:10048000F0B4002802DCF0BC00207047C0F3C75174
:10049000C0F3160040F40000CA0701D14000491E15
:1004A0003F2202EB6105002211464FF4000626FAB6
:1004B00001F31344D418844201D8001B1A464000AB
:1004C000491C1729F3DD5100814202D24FF0FF3160
:1004D00000E0002102EBC550F0BCFFF79ABF10B559
:1004E00041000CD0C0F3C751962908DC7E2909DCF5
:1004F00006DB410204D000F0004040F07E5010BD09
:10050000002010BDC1F19604C4F1200100FA01F1F0
:10051000E040FFF77EFFA04010BD00F0004220F059
:100520000040C10DC0F3160040F400007F2901DA3D
:1005300000207047962903DCC1F19601C84001E014
:1005400096398840002AF4D040427047064C074D47
:1005500006E0E06840F0010394E807009847103493
:10056000AC42F6D3FFF7C6FDA0620008C0620008E7
:10057000C10F80EAE0700844CA0796230021FFF704
:1005800051BF000070B5044600688168C943C907BF
:1005900017D1816821F00101816000F0C7FE054696
:1005A0000AE000BF00F0C2FE401B022804D9206808
:1005B0008068C043C00706D020688068C043C00779
:1005C000F0D0002070BDA06A40F01000A062E06A88
:1005D00040F00100E062012070BD10B50146406AA4
:1005E000826A12F0500F05D0006A026BBDE810401D
:1005F00008461047816A41F4007181620168896888
:10060000C1F3424107290CD1017B51B9816A21F420
:1006100080718162816AC90403D4816A41F0010159
:10062000816200F055FA10BD10B5406A816A41F050
:1006300040018162C16A41F00401C16200F04AFADE
:1006400010BD10B5406A00F044FA10BDF8B50026A0
:100650000446009600688168C943C9072DD08168A7
:1006600041F001018160164816490068B0FBF1F0C5
:1006700000E0401E00900028FBD100F057FE054628
:1006800016E000BF00F052FE401B022810D920687F
:100690008068C043C0070BD0A06A40F01000A06281
:1006A000E06A40F00100E06284F824600120F8BDB7
:1006B00020688068C043C007E4D10020F8BD000076
:1006C0000000002040420F0070B5064C002540217C
:1006D00004F8405F0348FFF74EFD65700820A070E6
:1006E00070BD0000E40300202DE9F04100271C4EFE
:1006F0003C4600BF06EB04152846FFF747FD0246BF
:1007000029461848FFF749FD00B3641CE4B2082CE1
:10071000F0D31A2114A000F00DF9152119A000F052
:1007200009F9002406EB04152846FFF72FFD81B2D6
:10073000284600F0FFF8022111A000F0FBF8641C2D
:10074000E4B2082CEED33846BDE8F0810548012715
:10075000122180F8424011A000F0ECF8F3E700000D
:1007600028000020E4030020546865726520697346
:10077000206E6F207375636820636F6D6D616E64AA
:100780000D0A000056616C696420636F6D6D616EC7
:100790006473206172653A0D0A000000436F6D6D4D
:1007A000616E642069732076616C69640D0A0000D3
:1007B00070B504000AD000F0C9F8082538B1FFF779
:1007C00093FF20B1034890F84200207070BD25705F
:1007D00070BD0000E403002010B5384802F0DEF8D8
:1007E000FFF772FF364C00220221204600F098FDF0
:1007F000642000F077FC40223249304802F08EF845
:1008000000284ED101220221204600F089FD6420FB
:1008100000F068FC04212CA000F08CF8002840D1E6
:10082000642000F05FFC162129A000F083F8002866
:1008300037D1642000F056FC10212BA000F07AF88C
:1008400000282ED1642000F04DFC0B212BA000F0DD
:1008500071F830BB642000F045FC10212AA000F0A4
:1008600069F8F0B9642000F03DFC0A212BA000F0EB
:1008700061F8B0B9642000F035FC0A212AA000F02C
:1008800059F870B9642000F02DFC0C4802F086F88D
:10089000642000F027FC40220A49084802F03EF894
:1008A00008B1012010BD00220221204600F038FDD1
:1008B000642000F017FC002010BD0000FC020020A6
:1008C00000080140E403002041540D0A000000002C
:1008D00041542B4E414D453D42545F4445534B5F7F
:1008E0004C414D500D0A000041542B505357443D8C
:1008F0003132333435360D0A0000000041542B529A
:100900004F4C453D300D0A0041542B554152543D4A
:10091000393630302C302C300D0A000041542B5029
:10092000534156450D0A000041542B52455345543E
:100930000D0A000028B121B10A460146024802F022
:10094000A5BA012070470000FC02002002490022E5
:1009500011F8410F0A707047E4030020FEE7000021
:10096000014800F0AFBA0000F0000020014800F09C
:10097000A9BA000070020020014800F0A3BA0000EC
:1009800088030020014800F09DBA000044030020C5
:1009900030B590F840500124AC40C56B6C600468E1
:1009A00063604368102B036803D099600068C260DD
:1009B00030BD9A600068C16030BD7047012000F012
:1009C000B3BB022000F0B0BB082000F0ADBB72B694
:1009D000FEE70000F8B50024009490F82420254696
:1009E000012A12D0012280F824204A681F23072AF6
:1009F0000DD20668776B521E02EB820293409F4332
:100A00000B6893401F43776319E00220F8BD066826
:100A10000D2A0AD2376BD21F02EB820293409F430A
:100A20000B6893401F43376309E0F76A0D3A02EB06
:100A3000820293409F430B6893401F43F7620A680A
:100A4000072306680A2A0AD3F7680A3A02EB420229
:100A500093409F438B6893401F43F76008E03769DA
:100A600002EB420293409F438B6893401F433761E0
:100A70000A68102A01D0112A20D1124B02689A422A
:100A800017D193681B0219D4936843F40003936051
:100A90000968102912D10C490C4A0968B1FBF2F11E
:100AA00001EB8101490000E0491E00910029FBD1C2
:100AB00004E0816A41F020018162012480F8245021
:100AC0002046F8BD002401400000002040420F00F5
:100AD00070477047704700002DE9F0414FF0000764
:100AE00004003D467ED0A06A002628B9E66284F85C
:100AF0002460204600F07EF82046FFF743FDA16AFF
:100B000001F01001014304D0A06A40F01000A0627F
:100B100068E0A16A21F4885141F00201A162626893
:100B2000E169237B0A4347EA43010A43A1684FF482
:100B30008077B94208D0012906D0002194F814C06A
:100B4000BCF1010F02D00AE03946F7E7F3B1A36A1E
:100B500043F02003A362E36A43F00103E3622368E6
:100B6000D3F804C02CF4694C4CEA010CC3F804C05F
:100B700023689968DFF870C001EA0C01114399609D
:100B8000A168B9420BD0012909D00CE0DFF85CC0A4
:100B9000A3690CEB43330B4343F40061DFE7218A85
:100BA0000D05A5F580152168CB6A23F470032B434E
:100BB000CB62216889680E4B1940914208D1E662E8
:100BC000A16A21F0020141F00101A162BDE8F081BA
:100BD000A06A20F0020040F01000A062E06A40F03D
:100BE0000100E0620120F1E7FDF7E1FF00E0FFFF17
:100BF000FE0E1FFF70B586B00026054600960196D2
:100C00000296039600681A4988422FD119498869CB
:100C100040F400708861886900F40070049088696D
:100C200040F0040088618869694600F0040004907F
:100C300001200090032001900F4800F081FA104C31
:100C40000E48C4E900068020C4E90260400020612B
:100C5000800060612020A061C001E061204600F0BA
:100C6000DBF908B1FFF7B3FE2C62656206B070BD18
:100C7000002401400010024000080140080002402A
:100C8000F00000202DE9F047894604463B49006802
:100C90003B4F0E1D9046884201D0B84207D13068C4
:100CA00010F4702F03D001252846BDE8F08794F892
:100CB000240001280CD0012084F824002046FFF7EE
:100CC000C5FC05004FF0000004D084F82400EBE7D9
:100CD0000220EAE7A16A40F60162914341F4807183
:100CE000A1622168B94218D1326812F4702F14D071
:100CF000A16A41F48011A1623168490505D5A16A54
:100D000021F4005141F48051A162A16AC9040AD5BD
:100D1000E16A21F00601E16206E0A26A22F4801293
:100D2000A2624968E9E7E06284F82400216A154874
:100D30008862216A1448C862216A144808632168DD
:100D40006FF0020008602068816841F48071816062
:100D5000216843464A464C31206A00F08BF92068EE
:100D60008168C1F342410729816803D041F48011B1
:100D7000816099E741F4A001FAE7000000240140F6
:100D800000280140DB05000843060008290600088A
:100D900010B5044690F82400012807D0012084F8FB
:100DA00024002046FFF7EEFB10B113E0022010BD37
:100DB00021688A6822F480728A60216A91F8212071
:100DC000022A07D1084600F00EF8A16A30B141F0BE
:100DD0004001A162002184F8241010BD21F4885143
:100DE00041F00101F5E710B590F821100022022929
:100DF00005D00421816380F82020012010BD016806
:100E00000B6823F00E030B6001680B6823F00103ED
:100E10000B6090F84030C46B012101FA03F363606A
:100E200080F8211080F82020104610BD10B590F8F1
:100E300021100024022903D00421816301243DE014
:100E400001680A6822F00E020A6001680A6822F04E
:100E500001020A601A4A0168914201D1012121E090
:100E6000174A1432914201D110211BE0144A283252
:100E7000914201D1891515E0114A3C32914201D1CC
:100E800089140FE00E4A5032914202D14FF4803162
:100E900008E00B4A6432914202D14FF4801101E024
:100EA0004FF08071064A083A5160012180F8211004
:100EB000002180F82010416B01B18847204610BD09
:100EC000080002402DE9F05FC16B0C6801680B68F7
:100ED000D0F840C0042202FA0CF2494DDFF824A1F8
:100EE000494E4A4FDFF828B1DFF828E122422CD0E2
:100EF0005A072AD50A68920603D40A6822F0040227
:100F00000A600168A94201D1042219E0514501D1CA
:100F1000402215E0B14202D14FF4806210E0B942A4
:100F200002D14FF480420BE0594502D14FF48022A8
:100F300006E0714502D14FF4800201E04FF080627B
:100F40002F4908394A60C16A3BE04FF0020808FAAD
:100F50000CF818EA040F4FF000094FF0010235D0E9
:100F60005FEA837832D50B689B0605D40B6823F0C3
:100F70000A030B6080F821200168A94201D10222F6
:100F800019E0514501D1202215E0B14202D14FF4C0
:100F9000007210E0B94202D14FF400520BE0594503
:100FA00002D14FF4003206E0714502D14FF4001235
:100FB00001E04FF00072124908394A6080F8209031
:100FC000816A00291AD0BDE8F05F0847082505FAB4
:100FD0000CF5254212D01B0710D50B6823F00E0329
:100FE0000B6090F84010C36B02FA01F15960826304
:100FF00080F8212080F82090016BE2E7BDE8F09FA7
:10100000080002401C000240300002404400024040
:10101000580002406C00024030B528B308C813499C
:1010200014221944B1FBF2F18900C16310498163B4
:10103000022141771A6843F6F0718A43D0E900141F
:101040002143D0E902452C432143046921434469EB
:101050002143846921431143196000214163012226
:1010600042770177084630BD012030BDF8FFFDBF53
:101070000000024070B5044690F8200000250128C9
:101080000CD0012084F8200094F821600020012E6B
:1010900006D084F820000225284670BD022070BDCD
:1010A000022684F82160A0632068066826F0010605
:1010B00006602046FFF76CFCE06A002820680168A3
:1010C00002D041F00E0106E021F004010160206829
:1010D000016841F00A0101602068016841F00101E6
:1010E0000160D9E770B5044600F020F90546601CA0
:1010F00002D004480078044400F018F9401BA042D4
:10110000FAD370BDB00000200121064A012805D0A5
:10111000022805D0082800D19170704711707047DF
:1011200051707047A8000020044910B50A680242B7
:1011300002D00860FFF7E8FF10BD00001404014072
:101140002DE9F84FDFF8B8910024A9F1040B2346EC
:101150000F2709F1040AABF1040EC9E00125A540EF
:101160002A40AA427DD1674ED1F804C0ACEB0608F4
:10117000B44532D014DCBCF1030F3AD009DCBCF129
:10118000000F2AD0BCF1010F1CD0BCF1020F31D1ED
:101190001DE0BCF1110F17D0BCF1120F2AD119E0DC
:1011A000B8F5881F19D006DCB8F5803F15D0B8F522
:1011B000801F1FD111E0B8F5001F0ED0B8F5041F35
:1011C00018D10AE0CB6815E0CB681B1D12E0CB6894
:1011D00008330FE0CB680C330CE08B682BB1012B8C
:1011E0004FF0080303D0456104E0042302E00561E9
:1011F00000E00023FF2A01D8064601E000F10406C2
:101200004FEA840501D9A5F12005D6F8008007FA38
:1012100005FC28EA0C0803FA05F548EA0508C6F8B3
:1012200000804D68ED0062D5374DAE6946F001068D
:10123000AE61AD6924F0030605F001050095334D5C
:1012400006EB050CDCF80850A607360F07FA06F87F
:1012500025EA0805DFF8B880404503D14FF00008C3
:1012600017E044E0DFF8AC80404502D14FF00108C0
:101270000FE0DFF8A480404502D14FF0020808E0FB
:10128000DFF89880404502D14FF0030801E04FF0AD
:10129000040808FA06F848EA0508CCF808804D6802
:1012A000D9F80060ED024D4601D5164300E09643A3
:1012B0002E604D68DAF80060AD02554601D5164340
:1012C00000E096432E604D68DBF80060AD035D469C
:1012D00001D5164300E096432E604D68DEF80060AD
:1012E000ED03754601D5164300E096432E60641C5D
:1012F0000D682A46E5407FF431AFBDE8F88F000065
:1013000008040140000011100010024000000140DC
:1013100000080140000C0140001001400014014091
:101320000AB1016170470904FBE7000001488068C9
:1013300070470000B000002070B5040025D094F87C
:101340003D00002520B984F83C50204600F076FA94
:10135000242084F83D002068016821F0010101602B
:101360002068016841F4004101602068016821F4AF
:101370000041016000F034FC4D4A6168914201D89F
:101380004C4900E04C49884201D2012070BD4B49D4
:101390002368B0FBF1F15E6826F03F060E435E6005
:1013A0006368934206D94FF4967359434FF47A73A6
:1013B000B1FBF3F12368491C1E6A26F03F06314356
:1013C00019626168914210D84900401EB0FBF1F2E9
:1013D000521CC2F30B02042A01D2042022E0B0FB0B
:1013E000F1F0401CC0F30B001CE0A268F2B301EB6B
:1013F000C10303EB0116431EB3FBF6F35B1C43F47E
:1014000080431B0549D092B301EBC10202EB0111ED
:10141000401EB0FBF1F0401CC0F30B0040F48040D4
:1014200040F400402168CA694CF6FF739A431043A8
:10143000C861D4E9071001432068026822F0C002A5
:1014400011430160D4E9030101432068826848F236
:10145000FF339A4311438160D4E9050108432168B1
:10146000CA6822F0FF021043C86001E00EE016E0F7
:101470002068016841F0010101602564202084F8A2
:101480003D00256384F83E50002070BD01EB41060D
:10149000431EB3FBF6F35B1CB3E70120C2E701EB8D
:1014A0004101401EB0FBF1F0401CC0F30B00B7E758
:1014B000A086010080841E0000093D0040420F000C
:1014C0002DE9F84F0025DDF82890984617468A4602
:1014D00004460095FFF72AFF064694F83D002028B1
:1014E0007AD11923012286492046009601F042FE56
:1014F0000028F5D194F83C0001286DD0012084F833
:101500003C0020680168C90703D1016841F001016E
:1015100001602068016821F400610160222084F8E4
:101520003D00102084F83E0025646762A4F82A80FC
:10153000608D20857348E06233464A465146204616
:1015400001F010FD00287CD1208DDFF8BC81202720
:1015500068B1012814D00228206801681ED041F427
:10156000806101602068416980690090BBE020686B
:10157000416981690091016841F400710160B2E044
:101580002068016821F48061016072B620684169B9
:1015900081690091016841F400710AE041F4006141
:1015A000016072B62068416981690091016821F487
:1015B0008061016062B696E0032865D801280CD0EE
:1015C00002284B464FF000024146204600960BD0C1
:1015D00001F0D0FDA8BB0CE090E032464946204621
:1015E00001F06EFE68BB71E001F0C4FD48BB72B64D
:1015F00033E02068016821F48061016072B62068E0
:101600000069616A0870606A401C6062208D401E3B
:101610002085608D401E60853C4846F2A811006818
:10162000B0FBF1F0C0EBC00000EB80000090401E6A
:10163000009007D020684069C04340070DD500984E
:10164000F5E727E044F8305F6773A573206940F041
:101650002000206162B625731CE02068016841F417
:101660000071016020680069616A0870606A401C4E
:101670006062218D491E2185618D491E618562B69A
:1016800021680969017025E032464946204601F08B
:1016900017FE10B10120BDE8F88F20680069616A6B
:1016A0000870606A401C6062208D401E81B22185F6
:1016B000608D401E608520684269D243520712D473
:1016C000032903D1016821F4806101602068006969
:1016D000616A0870606A401C6062208D401E20852F
:1016E000608D401E6085208D00287FF465AF84F8F2
:1016F0003D7084F83E5084F83C50CCE70220CAE7A5
:10170000020010000000FFFF0400010000000020A4
:101710002DE9F84F1F4690468A460446DDF828908A
:10172000FFF704FE054694F83D0020287FD11923D9
:10173000012240492046009501F01CFD002876D189
:1017400094F83C00012872D0012084F83C00206805
:101750000168C90703D1016841F0010101602068F7
:10176000016821F400610160212084F83D0010200F
:1017700084F83E0000262664C4F824806785608DC6
:1017800020852D48E0622B464A465146204601F00E
:101790005FFC90B9206841698069009036E02A4674
:1017A0004946204601F0C4FD50B1206C042804D104
:1017B0002068016841F4007101600120BDE8F88FE4
:1017C000606A216800780861606A401C6062618D0F
:1017D000491E6185218D491E89B221852268536980
:1017E000DB435B070BD451B100781061606A401C89
:1017F0006062608D401E6085208D401E20852A46D7
:101800004946204601F08BFC0028CED1208D0028CF
:10181000C5D154F83D0B016841F4007101602020EE
:1018200004F81E09E67766770020C7E7FFE7022085
:10183000C4E70000020010000000FFFF10B586B0F2
:101840000021009101910291039100680F498842A3
:101850001AD10F4CA06940F00800A061A069694648
:1018600000F008000490C020009012200190032096
:1018700003900848FFF764FCE06940F40010E06161
:10188000E06900F40010049006B010BD0054004060
:1018900000100240000C01400248816802781144A7
:1018A00081607047B0000020074810B5016841F022
:1018B00010010160032000F075F80F2000F006F819
:1018C00000F024F8002010BD0020024070B50D4D3E
:1018D00004464FF47A712878B1FBF0F00A490968A0
:1018E000B1FBF0F000F097FC48B9102C07D20022B1
:1018F0002146501E00F036F800206C6070BD0120BB
:1019000070BD0000B0000020000000200C4808B5A9
:10191000816941F001018161816901F0010100915A
:10192000C16941F08051C161C06900F080500090F0
:101930000448416821F0E06141F00071416008BD58
:101940000010024000000140002809DB00F01F02E7
:10195000012191404009800000F1E020C0F8001111
:1019600070470000F0B40E4B1B680C46C3F3022313
:10197000C3F10705042D00D90425191D072901D23B
:10198000002300E0DB1E012606FA05F1491E214076
:1019900099409E40761E16403143F0BC02F0A6BB33
:1019A0000CED00E0064900F0070208684FF6FF035F
:1019B000184040EA0220034A1043086070470000C4
:1019C0000CED00E00000FA052DE9F843054600782B
:1019D000354CC00754D0E0690026C00008D4E06947
:1019E00040F08050E061E069012600F080500090F6
:1019F0002E480168C90512D40168804641F48071FF
:101A00000160FFF793FC074605E000BFFFF78EFC7F
:101A1000C01B642823D8D8F80000C005F6D5206A7A
:101A200010F4407021D0A98801F4407181421CD08B
:101A3000206A1F49012220F440700A6000220A60D7
:101A40002062C00711D0FFF771FC074641F28838C9
:101A500008E000BFFFF76AFCC11B414502D9032023
:101A6000BDE8F883206A8007F4D5206A696820F40D
:101A70004070084320621EB1E06920F08050E061B0
:101A80002878800705D56068A96820F4404008439D
:101A900060602878C00605D56068E96820F4800099
:101AA000084360600020DBE7001002400070004047
:101AB000400442422DE9F0470F46050061D0434EF5
:101AC000306800F00700B84209D2306820F0070003
:101AD00038433060306800F00700B84251D12868C0
:101AE0003B4C810712D5400703D5606840F4E060A5
:101AF00060602878000703D5606840F4605060603B
:101B00006068A96820F0F000084360602878C0078A
:101B100028D06868012810D02168022810D08907D1
:101B200000292EDA616821F0030101436160FFF7AB
:101B3000FDFB804641F288390DE021688903EFE71B
:101B40008901EDE7FFF7F2FBA0EB0801494502D957
:101B50000320BDE8F0876068696800F00C00B0EB16
:101B6000810FEFD1306800F00700B8420BD9306820
:101B700020F0070038433060306800F00700B842BA
:101B800001D00120E5E72878400705D56068E968BD
:101B900020F4E060084360602878000706D560689C
:101BA000296920F4605040EAC100606000F038F814
:101BB0006168084AC1F30311515CC84006490860D6
:101BC00006480068FFF782FE0020C2E700200240BE
:101BD00000100240705B000800000020B4000020EC
:101BE0000448054900684968044AC1F30221515C70
:101BF000C84070470000002000100240805B0008D1
:101C00000448054900684968044AC1F3C221515C8F
:101C1000C84070470000002000100240805B0008B0
:101C20000E4A51680E4801F00C03042B11D0082B0A
:101C30000FD10C48C1F38343C903C05C0AD5516876
:101C4000084AC1F34041921E515C054A5043B0FB23
:101C5000F1F070470449484370470000001002400B
:101C600000127A002262000800093D002DE9F84FB9
:101C7000040070D02078C04DC00749D06868C0F318
:101C80008100012807D06868C0F38100022809D1CB
:101C90006868C00306D52868800339D560680028C5
:101CA000E7D035E06068B0F5803F0BD010B1B0F5FB
:101CB000A02F11D0286820F480302860286820F4F4
:101CC000802002E0286840F480302860606890B18D
:101CD000FFF72CFB06460AE0286840F480202860C5
:101CE000F0E700BFFFF722FB801B642873D8286849
:101CF0008003F7D50CE0FFF719FB064605E000BFAF
:101D0000FFF714FB801B6428F0D828688003F7D401
:101D100020789A4E80074FF001094FF0000839D51E
:101D2000686810F00C0F07D06868C0F381000228C3
:101D300009D16868C00306D42868800714D52069D3
:101D4000012808D110E02069B0B1C6F80090FFF773
:101D5000EDFA074605E00AE1FFF7E8FAC01B0228A2
:101D6000C4D828688007F7D52868616920F0F80092
:101D700040EAC10028600DE0C6F80080FFF7D6FAFF
:101D8000074604E0FFF7D2FAC01B022823D82868D0
:101D90008007F7D4207800072CD57948A169D9B1FC
:101DA000C0F80090FFF7C2FA074604E0FFF7BEFA5A
:101DB000C01B02280FD8686A8007F7D571484FF416
:101DC000FA510068B0FBF1F0009000BF0098411E8E
:101DD0000091FAD20EE080E0C0F80080FFF7A6FA8A
:101DE000074604E0FFF7A2FAC01B022875D8686A0C
:101DF0008007F7D42078400760D5E8690027C00045
:101E000008D4E86940F08050E861E869012700F0F3
:101E1000805000905C480168C90513D4016883466E
:101E200041F480710160FFF781FA824606E000BF4D
:101E3000FFF77CFAA0EB0A0064284ED8DBF800001C
:101E4000C005F5D5E06801280AD008B1052813D0EF
:101E5000286A20F001002862286A20F0040002E0CD
:101E6000286A40F001002862E06841F2883B98B19E
:101E7000FFF75CFA82460BE0286A40F00400286213
:101E8000EEE700BFFFF752FAA0EB0A0159455AD816
:101E9000286A8007F6D50CE0FFF748FA824605E08D
:101EA000FFF744FAA0EB0A0159454CD8286A80078D
:101EB000F6D41FB1E86920F08050E861E06988B38A
:101EC0006968C1F38101022944D00228C6F8608004
:101ED00004D0FFF72BFA044638E034E0FFF726FA87
:101EE000074604E0FFF722FAC01B02282BD8286817
:101EF0008001F7D4206AB0F5803F05D16868A168F9
:101F000020F4003008436860D4E908010843696898
:101F100021F4741108436860C6F86090FFF706FA70
:101F2000044606E025E000BFFFF700FA001B022888
:101F300009D828688001F7D51BE000BFFFF7F6F944
:101F4000001B022802D90320BDE8F88F2868800111
:101F5000F4D40EE00128F7D06868226A00F48031DA
:101F6000914204D1616A00F47010884201D00120CE
:101F7000EAE70020E8E700000010024000004242CB
:101F800080044242000000200070004070B5040050
:101F900009D0606A002540B125616561A56294F8A9
:101FA000510040B10CE0012070BD6068B0F5827F47
:101FB000F4D0E561F2E784F85050204600F040F894
:101FC000022084F851002068016821F0400101607E
:101FD000A088218900F4827001F404410843A1899A
:101FE00001F400610843217C01F002010843217DD6
:101FF00001F001010843218B01F400710843217FA6
:1020000001F03801084394F8201001F080010843E2
:10201000218D01F40051084321680860A069042162
:1020200001EA1040216848602068C16921F400611C
:10203000C1616565012084F85100002070BD000079
:1020400030B585B000240094019402940394006894
:102050001449884223D11448816941F48051816137
:10206000816901F480510491816941F00401816129
:1020700080690E4D00F004000490A0200090022022
:1020800001900320039069462846FFF759F8402045
:10209000CDE90004694628460294FFF751F805B0DF
:1020A00030BD000000300140001002400008014037
:1020B0002DE9F84F984616468A460446FFF736F94A
:1020C000814694F8510001281ED1BAF1000F73D057
:1020D000002E71D094F85000012815D0012784F803
:1020E0005070032084F8510000256565C4F830A0C5
:1020F000A686E686A563A587E58765642564A0684E
:10210000B0F5004F03D00CE00220BDE8F88F206846
:10211000016821F0400101602068016841F48041BC
:10212000016020680168490603D4016841F040015C
:102130000160E068B0F5006F606803D048B3012E1D
:1021400027D047E008B1012E1FD1206B21680088FD
:10215000C86006E020688168890709D5216B098875
:10216000C160206B801C2063E08E401EE0860CE086
:10217000FFF7DCF8A0EB0901414503D3B8F1FF3FBD
:1021800003D035E0B8F1000F32D0E08E0028E1D165
:1021900023E0206B21680078087306E020688168DE
:1021A00089070AD5216B09780173206B401C2063D5
:1021B000E08E401EE0860DE02BE0FFF7B7F8A0EBC5
:1021C0000901414503D3B8F1FF3F03D010E0B8F156
:1021D000000F0DD0E08E0028E0D14A46414620464F
:1021E00001F0D7FA08B120206065A06830B109E09D
:1021F00084F8517084F85050032086E72068C16845
:102200008068009084F8517004F8505F606800287E
:10221000F3D0012079E710B5401EB0F1807F01D3E3
:10222000012010BD4FF0E02460610F21601701F024
:102230005DFF0020A06107202061002010BD10B5C7
:1022400090F83C20012A22D0012280F83C20CA6864
:102250008C6822F4407222434C6822F4806222434C
:102260000C6822F4006222430C6922F4805222435B
:102270004C6922F400522243C969002322F48042AF
:102280000A4301684A6480F83C30002010BD0220F7
:1022900010BD000070B590F83C20012A26D0012422
:1022A00080F83C40022280F83D2003685A689D680F
:1022B00022F070060A6832435A600D4B02689A4257
:1022C00008D0B2F1804F05D00A4B9A4202D00A4B97
:1022D0009A4204D1496825F080031943916080F83F
:1022E0003D40002180F83C10084670BD022070BDC2
:1022F000002C0140000400400008004010B504001C
:1023000003D094F83D0010B107E0012010BD00207B
:1023100084F83C00204600F01FF8022084F83D00BD
:10232000211D206801F030FB012084F8460084F86C
:102330003E0084F83F0084F8400084F8410084F8AF
:10234000420084F8430084F8440084F8450084F88F
:102350003D00002010BD000038B505460068184A51
:10236000184990421FD1886940F4006088618869EB
:10237000164C00F40060009013482060102060604C
:1023800000208021C4E90201490021618900C4E9DB
:102390000510E0612046FEF73FFE08B1FEF717FB8F
:1023A0006C62656238BD0A4A9042FBD1C86940F050
:1023B0000200C861C86900F00200009038BD00004A
:1023C000002C0140001002401C000240700200205E
:1023D0000004004090F83D10012901D00120704711
:1023E000022180F83D1000680B49884208D0B0F106
:1023F000804F05D00949884202D00949884204D15A
:10240000816801F00701062903D0016841F001014C
:102410000160002070470000002C014000040040D3
:102420000008004001680A6A41F211131A4207D1FC
:102430000A6A9B101A4203D10A6822F001020A605C
:10244000012180F83D100020704770B5044690F8D7
:102450003C000025012817D0012684F83C600220AA
:1024600084F83D002068826822F0770222F47F42DF
:1024700082600868502838D00DDC20284FD005DC59
:1024800090B3102811D14AE0022070BD302846D008
:1024900040280AD13BE060282FD070280DD0B0F53D
:1024A000805F03D0B0F5005F12D0012584F83D6055
:1024B000002084F83C00284670BDCB68D1E901219A
:1024C000206801F01FFB2068816841F0770109E076
:1024D000CB68D1E90121206801F014FB20688168F4
:1024E00041F480418160E1E719E0CA6849682068E9
:1024F00001F0BCFB5021206806E0CA6849682068EA
:1025000001F0C5FB6021206801F006FBCEE7CA6838
:102510004968206801F0AAFB40212068F4E722689E
:1025200001461046F0E7704700B585B000210091E4
:1025300001910291039100680B49884212D10B4826
:10254000816941F0040181618069694600F00400FD
:1025500004904FF480700090022001900390044892
:10256000FEF7EEFD05B000BD002C0140001002405A
:102570000008014070B5044690F83C0000260D4666
:1025800001280FD0012084F83C006AB1042A1DD034
:10259000082A2FD00C2A3FD00126002084F83C00C6
:1025A000304670BD022070BD206801F0BDFA206881
:1025B000816941F0080181612068816921F004018D
:1025C0008161206881692A69114311E0206801F066
:1025D000D3FA2068816941F40061816120688169D2
:1025E00021F480618161206881692A6941EA0221C0
:1025F0008161D2E7206801F0EBFA2068C16941F0FF
:102600000801C1612068C16921F00401C16120682D
:10261000C1692A69114311E0206801F005FB2068B7
:10262000C16941F40061C1612068C16921F4806120
:10263000C1612068C1692A6941EA0221C161ACE730
:1026400010B5040003D094F83D0010B107E001205C
:1026500010BD002084F83C00204600F01EF8022047
:1026600084F83D00211D206801F08EF9012084F8D6
:10267000460084F83E0084F83F0084F8400084F867
:10268000410084F8420084F8430084F8440084F850
:10269000450084F83D00002010BD704706490068E1
:1026A0000968884207D10549002081F89800014651
:1026B000014800F0D1B87047E00100205C0C002018
:1026C000704700002DE9F04117460D0004464FF019
:1026D00000060CD0042D11D0082D16D094F841001E
:1026E000022819D094F84100012818D07CE094F811
:1026F0003E00022810D094F83E00F5E794F83F0021
:10270000022809D094F83F00EEE794F84000022830
:1027100002D094F84000E7E70220BDE8F081002FE6
:1027200062D0002B60D04649464ADFF81CC1022027
:102730004DB1042D18D0082D27D084F841000C2D60
:1027400044D0012679E084F83E00606A8162606AC4
:102750003946C262606AC0F830C02268606A3432AA
:10276000FEF788FC88BB21E084F83F00A06A816204
:10277000A06A3946C262A06AC0F830C02268A06A66
:102780003832FEF777FC00BB15E084F84000E06AC1
:102790008162E06A3946C262E06AC0F830C02268ED
:1027A000E06A3C32FEF766FC78B909E02068C1684F
:1027B00041F400711EE02068C16841F4806119E0B5
:1027C0002068C16841F4006114E00DE0206B816273
:1027D000206B3946C262206BC0F830C02268206B83
:1027E0004032FEF747FC08B1012096E72068C16837
:1027F00041F48051C16001222946206801F000F9AE
:1028000012492068884203D1426C42F4004242647B
:102810002068884208D0B0F1804F05D00C4988422A
:1028200002D00C49884204D1816801F007010629D1
:1028300003D0016841F00101016030466DE70000FE
:102840001B3A0008793A0008B13A0008002C014010
:10285000000400400008004070B50D0004464FF031
:10286000000607D0042D0CD0082D11D00C2D16D049
:10287000012645E02068C16821F40071C160606AEA
:1028800013E02068C16821F48061C160A06A0CE097
:102890002068C16821F40061C160E06A05E0206839
:1028A000C16821F48051C160206BFEF7BFFA00229D
:1028B0002946206801F0A4F8174B41F21111206855
:1028C0008A10984209D1036A0B4206D1036A134267
:1028D00003D1436C23F4004343642068036A0B4232
:1028E00006D1016A114203D1016821F001010160A2
:1028F00001203DB1042D08D0082D09D084F84100F5
:10290000304670BD84F83E00FAE784F83F00F7E7F0
:1029100084F84000F4E70000002C014038B504467C
:1029200090F84200202801D0022038BD51B14AB1B0
:102930000120206300206063204601F051FB216BE1
:10294000012901D0012038BD21680A684968009139
:1029500021680C3151E8002F42F0100241E80023B9
:10296000002BF5D138BD000010B50A4A0068126886
:1029700090420ED172B6402900D94021064840222B
:1029800000F8401F0121417003490248FFF7C6FFCC
:1029900062B610BDFC020020E403002010B504461E
:1029A0000068406994F84110C0F3C010212911D18A
:1029B00080B12068143050E8001F21F0800140E809
:1029C0000012002AF5D1A06B08B1FEF70CFA2046E0
:1029D00001F03BFA2068406994F84210C0F380107F
:1029E000222911D180B12068143050E8001F21F055
:1029F000400140E80012002AF5D1E06B08B1FEF773
:102A0000F2F9204601F0FAF9002010BD70470000ED
:102A1000F8B5016804460868CA684B6910F00F0FE2
:102A20004FF000055AD003F0010602F490773743C7
:102A300065D0C10705D0D10503D5616C41F0010116
:102A40006164410705D5D90703D0616C41F00201EB
:102A50006164810705D5D90703D0616C41F0040199
:102A60006164010707D502F02001314303D0616C96
:102A700041F008016164616C00293BD0800604D5F7
:102A8000900602D5204601F0EEF920684069616C9D
:102A9000C0F3801001F00801014320462BD001F063
:102AA000ADF920684069400621D52068143050E80F
:102AB000001F21F0400140E80012002AF5D1E06B30
:102AC000A8B16D494163E06BFEF7B0F9002811D061
:102AD000E06B416B01B0BDE8F040084783060ED5BE
:102AE00093060CD52046BDE8F84001F0BCB920465D
:102AF000FFF78CFFF8BDFFF789FF6564F8BD266B13
:102B00002023012E7CD1C6067AD5D60678D5086852
:102B10004868009048694FF00206400640D5E16BD6
:102B2000086840680004000CE8D0A28D8242E5D914
:102B3000E085886920282DD020680C3050E8001FDF
:102B400021F4807140E80012002AF5D12168143187
:102B500051E8000F20F0010041E80002002AF5D101
:102B60002068143050E8001F21F0400140E80012B6
:102B7000002AF5D184F84230256320680C3050E8F3
:102B8000001F21F0100140E80012002AF5D1E06B8F
:102B9000FEF729F96663A08DE18D401A81B22AE023
:102BA000A08DE18D401A81B2E08D0028A6D00029C9
:102BB000A4D022680C3252E8000F20F4907042E852
:102BC0000007002FF5D12068143050E8002F22F0C4
:102BD000010240E80027002FF5D184F84230256338
:102BE00020680C3050E8002F22F0100240E800234B
:102BF000002BF5D166632046FFF7B6FEF8BDFFE770
:102C000005062BD5150629D594F841002128F5D1C4
:102C1000A068B0F5805F01D12069B0B1206A411C85
:102C20002162216800784860E08C401E0004000C9E
:102C3000E084E3D12068C16821F08001C160206890
:102C4000C16841F04001C160D8E7206A0088C0F344
:102C500008004860206A801C2062E5E74006CDD568
:102C60005006CBD5CA68204622F04002CA6084F8DC
:102C7000413000F047F9C1E7B33C000870B50400EB
:102C800004D094F84100002510B106E0012070BD89
:102C900084F84050204600F023F8242084F84100B6
:102CA0002068C16821F40051C160204601F03CF960
:102CB0002068016921F4904101612068416921F097
:102CC0002A0141612068C16841F40051C160656416
:102CD000202084F8410084F842006563002070BD24
:102CE000F0B585B000240094019402940394064644
:102CF000434F0368434802210322434DBB4251D155
:102D0000836943F480438361836903F480430493BC
:102D1000836943F0040383618069039200F0040037
:102D200004900802CDE9000169462846FEF708FA3A
:102D30002815CDE90004694628460294FEF700FAFA
:102D4000334D32488027C5E90004C5E902472020F9
:102D50002C61C5E905400002E8612846FEF75CF9F0
:102D600008B1FDF734FEF5636E62294D27484435FE
:102D7000143801C5102091C5000245F810496C6156
:102D8000C5E9064022484430FEF746F908B1FDF790
:102D90001EFEB5630022114625206E62FEF7E2FD9D
:102DA000252028E01B4EB34227D1C36943F40033EA
:102DB000C361C36903F400330493836943F00403DC
:102DC00083618069039200F0040004900420CDE93F
:102DD000000169462846FEF7B3F90820CDE9000452
:102DE000694628460294FEF7ABF9002211462620D8
:102DF000FEF7B8FD2620FEF7A7FD05B0F0BD0000E8
:102E00000038014000100240000801405800024014
:102E1000440300200044004090F84230202B01D0B1
:102E20000220704721B11AB10023036301F020B9D9
:102E30000120704710B512490068096888421DD109
:102E400072B610480178AA290ED1417855290BD1C4
:102E500001790D2908D18178C278491EC9B28A4208
:102E600002D10121017301E001F084FC62B6052268
:102E7000BDE8104003490248FFF7CEBF10BD000077
:102E8000B4020020100000207047000070B5044616
:102E900090F84100202801D0022070BD49B342B310
:102EA0002162A284E28400206064212384F84130FE
:102EB000A56B114BAB62A56B104BEB62A56B104B76
:102EC0002B63A36B5863256813462A1DA06BFEF77E
:102ED000D1F821686FF0400008602068143050E895
:102EE000001F41F0800140E80012002AF5D10020C7
:102EF00070BD012070BD0000B13D0008F33D000829
:102F0000C33C000870477047FEE701688A69D243F6
:102F100092070ED40A6822F001020A60202180F88C
:102F20003D100021016341850068016841F0010105
:102F30000160704701684A69D24352050FD46FF4AB
:102F400080624A61002140F8301F20224273817361
:102F5000026942F0040202610173012070470020FF
:102F6000704700002DE9F84F0446C06A1E4693469C
:102F70000D4621680A6842F480620A60082807D07A
:102F8000012805D010F5803F02D0206B112804D114
:102F90002068016841F4807101604FF001195B46BF
:102FA000002249462046009600F0E4F84FF40078ED
:102FB00040B120680068C00501D5C4F840800320F6
:102FC000BDE8F88F2069DFF884A0B0F5804F0FD0FE
:102FD0000620216800EAD51747F0F0000861334663
:102FE0005A460AF10601204600F00CF958BB03E0EE
:102FF000E8B240F001001CE02168E8B20861334605
:103000005A465146204600F0FDF8E0B92068416973
:1030100081690091016841F4807101605B46002282
:1030200049462046009600F0A5F80028C1D147F097
:10303000F1002168086133465A465146204600F0A7
:10304000E1F80028BCD00120BAE70000020001002E
:10305000F8B50446C06A1E460D461746082807D034
:10306000012805D010F5803F02D0206B122804D132
:103070002068016841F480710160134600224FF01E
:1030800001112046009600F075F840B120680068F4
:10309000C00502D54FF4007020640320F8BD2069FC
:1030A000B0F5804F0ED00620216800EAD51040F020
:1030B000F000086133463A460B49204600F0A2F87A
:1030C00078B902E005F0FE0000E0E8B2216808618E
:1030D000054933463A46891F204600F093F80028F8
:1030E000DCD00120F8BD000008000100F8B51C4646
:1030F00015460F46060010D07DB174B1FFF705FFED
:103100006420009023462A4639463046FEF7D8F917
:10311000002803D03046FFF7F8FE0120F8BD70B557
:1031200016460D4604461EE02046FFF703FF08B191
:10313000012070BD681C16D0FEF7F8F8801BA8426D
:1031400000D885B920684069C04340070BD50020EE
:1031500044F8300F20216173A073216941F02001F0
:1031600021612073E4E720684069C0434007DBD455
:10317000002070BD2DE9F047984617460D460446DD
:10318000C1F30746DDF820902AE000BFB8F1FF3F09
:1031900026D0FEF7CBF8A0EB0901414502D8B8F1E3
:1031A000000F1DD12068012E16D0806925EA00008D
:1031B0000004000C12D00020B84211D1002044F8C5
:1031C000300F20216173A073216941F0200121613A
:1031D00020730120BDE8F0874069E7E70120EBE7B5
:1031E0002068012E0AD0806925EA00000004000C46
:1031F00006D00020B842C9D00020EBE74069F3E7D1
:103200000120F7E72DE9F047984616460D4604469B
:103210004FF000094FF0200AC1F3074723E0206870
:103220004069C043400515D42068016841F400712D
:10323000016021686FF480604861C4F8309084F8C0
:103240003DA084F83E90216C41F00401216484F893
:103250003C9021E0701C06D0FEF768F8A0EB080057
:10326000B04203D816B1012F1FD021E02068012FF2
:1032700015D0806925EA00000004000C18D000BFBA
:1032800044F8309F84F80DA084F80E90216941F035
:103290002001216184F80C900120BDE8F08740698D
:1032A00025EA00000004000CEAD12068406901E032
:1032B0002068806925EA00000004000CAFD1ECE72B
:1032C0002DE9F041002590460E460446202728E0CF
:1032D0004069C043C0060CD454F8301B6FF0100096
:1032E000486144F810596777A577206A20622577EE
:1032F00014E0FEF71BF8A0EB0800B04200D886B936
:1033000020684069C04340060BD544F8305F6773BE
:10331000A573206940F02000206125730120BDE8DD
:10332000F08120684169C9434906D1D40020F6E7FD
:1033300070B516460D4604461EE02046FFF7FAFD1E
:1033400008B1012070BD681C16D0FDF7EFFF801B8F
:10335000A84200D885B920684069C04300060BD553
:10336000002044F8300F20216173A073216941F0DF
:10337000200121612073E4E720684069C043000612
:10338000DBD4002070BDF8B51C4615460F4606007C
:103390000DD065B15CB1FFF7B8FD64200090234605
:1033A0002A4639463046FEF7B3F9002800D00120FE
:1033B000F8BD00003EB50024114800940194029429
:1033C0000E498460016004730475012505614FF4A2
:1033D00000214460C161FDF77FFB08B1FDF7F7FAFA
:1033E00007200094CDE9015069460548FDF7F2FA3F
:1033F000002801D0FDF7EBFA3EBD0000002401409B
:10340000C0000020154808B5416941F00101416143
:103410004069002200F00100009011460B20FEF7E9
:10342000A1FA0B20FEF790FA002211460C20FEF7BD
:1034300099FA0C20FEF788FA002211460E20FEF7BA
:1034400091FA0E20FEF780FA002211460F20FEF7B7
:1034500089FABDE808400F20FEF776BA0010024056
:103460002DE9F04186B000243B4800940194029479
:103470000394816941F020018161816901F020019B
:103480000491816941F004018161816901F00401C5
:103490000491816941F00801816180692F4F00F03A
:1034A00008000490002202213846FDF739FF01226E
:1034B00010213846FDF734FFDFF8A48001224FF4D5
:1034C000A0514046FDF72CFF00224CF6201140464B
:1034D000FDF726FF122001250226CDE90005CDE9E2
:1034E000024669463846FDF72BFE0B2000901D482A
:1034F000CDE9010569464046FDF722FE4DF6205014
:10350000CDE90005CDE9024669464046FDF718FEC3
:103510004FF40850CDE90004694640460294FDF797
:103520000FFE002211460620FEF71CFA0620FEF7C9
:103530000BFA002211460720FEF714FA0720FEF7C7
:1035400003FA002211460920FEF70CFA0920FEF7C3
:10355000FBF906B0BDE8F081001002400008014010
:10356000000C0140000021100D4810B50B4901600E
:103570000C49416000214FF480428160C0E9031290
:1035800041618161C1610162FDF7D6FE002803D06F
:10359000BDE81040FDF71BBA10BD0000005400400C
:1035A00034010020A0860100104810B50E490160CA
:1035B0004FF48271416000218160C1604FF400725C
:1035C0000161C0E905120822C0E907214162816258
:1035D0000A21C162FEF7DAFC002803D0BDE81040E2
:1035E000FDF7F5B910BD0000003001408801002052
:1035F00010B596B000240F94109411941294139463
:103600001C2108A81494FCF7B6FD20216846FCF79D
:10361000B2FD27482549C0E900145921C0E90241FB
:10362000046144618461FEF769FE08B1FDF7CFF9DA
:103630004FF480500F900FA91D48FEF706FF08B108
:10364000FDF7C5F91A48FEF7FBFF08B1FDF7BFF912
:10365000139413A916481494FEF71CFE08B1FDF745
:10366000B6F96020CDE908040A940B940C940D94EB
:10367000002208A90E480E94FEF77CFF08B1FDF762
:10368000A6F900944FF40050CDE90440029401944F
:103690000394694606480794FEF7D1FD08B1FDF78B
:1036A00096F90348FEF740FF16B010BD002C01400C
:1036B000E001002000B587B000211748009101917A
:1036C000029103910491134A059102604722C0E9D7
:1036D00001216322C0E903218161FEF70FFE08B1D9
:1036E000FDF775F94FF48050009069460A48FEF7DF
:1036F000ACFE08B1FDF76BF9202004908020059006
:1037000004A90548FEF7C6FD002801D0FDF75FF9C2
:1037100007B000BD00040040280200200C4810B58E
:103720000A4901604FF416514160002181600C226A
:10373000C160C0E904128161C161FFF79FFA0028EE
:1037400003D0BDE81040FDF742B910BD003801407C
:10375000B40200200C4810B50A4901604FF416511C
:103760004160002181600C22C160C0E904128161C6
:10377000C161FFF783FA002803D0BDE81040FDF7D0
:1037800026B910BD00440040FC020020FEE7FEE721
:103790007047F8B515460E460B46009204460122C6
:1037A000022100F011F840B9334600228021204662
:1037B000009500F009F8002804D0606D40F020006A
:1037C00060650320F8BD00002DE9F8431E469146D0
:1037D00088460446089DFDF7A9FD401B351AFDF7F4
:1037E000A5FD074625480068C0F3CB30684338E0A4
:1037F000701C37D0FDF79AFDC01BA84203D215B14B
:10380000009860B32CE02068416821F0E00141603D
:103810006068B0F5827F0BD1A068B0F5004F02D090
:10382000B0F5806F04D12068016821F0400101608B
:10383000A06AB0F5005F09D12068016821F4005149
:1038400001602068016841F400510160012084F8A2
:103850005100002084F850000320BDE8F8830025C3
:10386000401E00902068816838EA010004D00021E1
:103870004945BDD10020F0E70121F9E70000002013
:1038800013B56423012201A9FEF712FC1CBD704789
:1038900010B5FEF701F8BDE8104000F0C1BF000010
:1038A00010B5194C2178032907D0082817D2DFE872
:1038B00000F0160A0E12171B202500280FD1BDE8B4
:1038C000104001F069BDBDE8104001F051BD01F0AC
:1038D00003FD002002E001F0D1FC0120207010BDAA
:1038E00001F014FD0220F9E7601DBDE8104001F071
:1038F00007BC201DBDE8104001F0D4BB201DBDE871
:10390000104001F0BBBB0000CC03002030B593B0E9
:1039100028216846FCF72FFC14210AA8FCF72BFC91
:10392000002501200F9510951195010412958DE841
:10393000230004904FF4E010CDE90810022407940E
:103940006846FEF793F908B172B6FEE70AA90F20A0
:1039500081E831004FF48060CDE90D0502210AA80D
:10396000FEF7A8F808B172B6FEE74FF400401190D8
:103970000F940FA8FEF728F8002801D072B6FEE7D2
:1039800013B030BD70470000F0B50268194B1A4CF7
:103990001A4D4FF08047984205D0B84203D0A0425C
:1039A00001D0A84203D122F070064A6832439842FF
:1039B00005D0B84203D0A04201D0A84203D122F4DE
:1039C0004074CA6822434C6922F08002224302609C
:1039D0008A68C2620A688262984201D109690163F9
:1039E000012141610169C90703D0016921F0010189
:1039F0000161F0BD002C01400004004000080040BF
:103A000010B501F01F030121046A99408C43046240
:103A1000016A9A401143016210BD10B5446A012148
:103A2000626A824205D121778069F8B984F83E1034
:103A30001CE0A26A824206D1022222778069A8B9DC
:103A400084F83F1012E0E26A824206D10422227713
:103A5000806958B984F8401008E0226B824205D191
:103A600008222277806908B984F841102046FEF7C1
:103A700015FE0020207710BD10B5446A616A8142AE
:103A800001D101200DE0A16A814201D1022008E0AC
:103A9000E16A814201D1042003E0216B814201D11E
:103AA000082020772046FEF70BFE0020207710BD6F
:103AB00010B5446A0121626A824203D1217784F8F9
:103AC0003E1019E0A26A824204D10220207784F8D5
:103AD0003F1011E0E26A824204D10420207784F88A
:103AE000401009E0226B824204D10820207784F83C
:103AF000411001E084F83D102046FEF714FD00203F
:103B0000207710BD10B5846842EA032224F47F4474
:103B10000A432243826010BD826822F070020A4389
:103B200042F007018160704730B5036A026A22F0F3
:103B3000010202624268846924F073050C682C4318
:103B400023F002058B682B430A4DA8420BD123F0CA
:103B50000805CB6822F440722B434D6923F004031F
:103B600015438A692A43426084614968416303625C
:103B700030BD0000002C014030B5026A036A23F01A
:103B800010030362436884690D6824F4E64444EA40
:103B900005248D6822F0200242EA05120B4DA8424E
:103BA0000ED1CD6822F0800242EA05124D6923F45D
:103BB000406343EA85038D6922F0400243EA8503AE
:103BC0004360846149688163026230BD002C01401A
:103BD00030B5036A026A22F4807202624268C469E4
:103BE00023F4007324F073050C682C438D6843EABA
:103BF00005230C4DA8420ED1CD6823F4006343EA9F
:103C000005234D6922F4405242EA05128D6923F4DE
:103C1000806342EA05124260C4614968C16303627D
:103C200030BD0000002C014030B5046A026A22F465
:103C3000805202624268C3690D6823F4E64343EA96
:103C400005238D6824F4005444EA0534064DA84247
:103C500004D14D6922F4804242EA85124260C36178
:103C600049680164046230BD002C014010B5036A4C
:103C7000046A24F001040462846924F0F00444EA34
:103C8000021423F00A020A438461026210BD10B5D7
:103C9000036A046A24F010040462846923F0A00318
:103CA00024F4704444EA023243EA01118261016261
:103CB00010BD10B5406A0021C185C184FEF7A6FE83
:103CC00010BD70B5446A2068406994F84110C0F393
:103CD000C0100025212904D118B1E584204600F048
:103CE000B4F82068406994F84210C0F3801022298B
:103CF00004D118B1E585204600F080F8606C40F0F2
:103D0000100060642046FEF781FE70BD10B50146CC
:103D1000406A096809684FF0000289062ED4C285FE
:103D200001680C3151E8003F23F4807341E800340E
:103D3000002CF5D10168143151E8003F23F0010354
:103D400041E80034002CF5D10168143151E8003FFE
:103D500023F0400341E80034002CF5D1202180F805
:103D60004210016B012909D101680C3151E8003F73
:103D700023F0100341E80034002CF5D14263016BBD
:103D8000012902D0FFF756F810BD818DFEF7ECFD3A
:103D900010BD10B5406A01214163016B012902D0B9
:103DA000FFF772F810BD818D4908FEF7DDFD10BDEB
:103DB00010B50146406A09680968890616D40021D1
:103DC000C1840168143151E8002F22F0800241E8DB
:103DD0000023002BF5D101680C3151E8002F42F08F
:103DE000400241E80023002BF5D110BDFFF78AF80F
:103DF00010BD10B5406AFFF786F810BD01680C31A0
:103E000051E8002F22F4907241E80023002BF5D1F5
:103E10000168143151E8002F22F0010241E800232B
:103E2000002BF5D1016B012909D101680C3151E852
:103E3000002F22F0100241E80023002BF5D12021B1
:103E400080F8421000210163704701680C3151E88D
:103E5000002F22F0C00241E80023002BF5D12021E1
:103E600080F84110704708B590F84210222901D01F
:103E7000022008BD82684FF480539A4201D1016943
:103E800021B1816A9A421BD04AB10AE00268816A74
:103E90005268C2F308020A80816A891C08E002693C
:103EA00072B10268526802F07F020A70816A491C8E
:103EB0008162C18D491E0904090CC18503D01BE034
:103EC00002685268F1E70168CA6822F02002CA60FD
:103ED0000168CA6822F48072CA6001684A6922F0E7
:103EE00001024A61202180F8421000214163026BE7
:103EF000012A03D0FEF79EFF002008BD0163016880
:103F00000C3151E8002F22F0100241E80023002B71
:103F1000F5D101680A68D20602D50A68496800919D
:103F2000818DFEF721FDE7E770B504460068016961
:103F3000E26821F44051114301612169A0680843FE
:103F4000616908432168CA6841F20C639A430243DD
:103F5000CA6020684169A26921F44071114341613E
:103F60001E492068884202D1FDF74AFE01E0FDF7B4
:103F700037FE00EBC00101EB001260686421800095
:103F8000B2FBF0F3B3FBF1F36FF018067343B2FB2F
:103F9000F0F5B2FBF0F605EB8305322303EB0515D4
:103FA000B5FBF1F5B6FBF1F605F0F00505EB0615EE
:103FB000B2FBF0F6B2FBF0F0B0FBF1F06FF01802DC
:103FC000504306EB800003EB0010B0FBF1F02168DA
:103FD00000F00F002844886070BD000000380140E8
:103FE00038B581620446828500201346606422222F
:103FF00084F84220E56B1B4AAA62E56B1A4AEA6222
:10400000E56B1A4A2A63E26B50630A462168E06B4B
:10401000091DFDF72FF820680168406800902069AD
:1040200048B120680C3050E8001F41F4807140E82E
:104030000012002AF5D12068143050E8001F41F02A
:10404000010140E80012002AF5D12068143050E840
:10405000001F41F0400140E80012002AF5D1002085
:1040600038BD00000D3D0008933D0008C33C00082A
:1040700081628285C28500214164222180F842103C
:10408000016921B10168CA6842F48072CA6001689E
:104090004A6942F001024A610068C16841F02001AA
:1040A000C1600020704700000148FEF7B1BC00006D
:1040B000B40200200148FEF7ABBC0000FC02002067
:1040C000FEE700000FB4084B10B504A902AA03983C
:1040D00000F0EEF8044602A9002000F01AFB20468A
:1040E00010BC5DF814FB0000134700080907090E17
:1040F000002804DB00F1E02080F80014704700F095
:104100000F0000F1E02080F8141D70470121FCF73A
:104110001BB900210846FCF7D9B800002DE9F04D85
:104120000D4614464FF07F41B1EB440F9EBF4FF058
:10413000FF312960BDE8F08D4FF0004040EA0421D6
:10414000C4F3C750783810F01F024A4B4FEA601C86
:10415000C2F120067B44C4F3C750A0F178004FEAB7
:10416000601003EB800053F82C3008BFD0E901C683
:1041700012D0D0F804C093402CFA06F73B4387686E
:104180000CFA02FC27FA06F8C06807FA02F2F040BF
:104190004CEA080C42EA0006A3FB0132ACFB01C06A
:1041A000A6FB016101EB0C068E4234BF4FF0010CFF
:1041B0004FF0000CC1186144BCF1000F02D08142E5
:1041C00002D903E0814201D2012000E00020104426
:1041D00000F120024FEA92188006CA0C40EA4230F1
:1041E0004F03C5F80080FCF7C3F982463846FCF758
:1041F000B7F86FF01201FCF7A7F807463046FCF756
:10420000AFF86FF02501FCF79FF88346394650461A
:10421000FBF7D2FF5946FBF7CFFF00F500666FF3BF
:104220000B0651463046FCF719F83946FCF716F8EC
:104230005946FCF716F81049FCF716F807460F49DF
:104240003046FCF711F83946FBF7B6FF07460C4934
:104250003046FCF709F83946FBF7AEFF14F0004F83
:1042600008BFBDE8F08DC8F1805180F000402960A2
:10427000BDE8F08DDC200000DB0FC92F22AAFD294C
:104280000000C92F02E008C8121F08C1002AFAD195
:1042900070477047002001E001C1121F002AFBD1C6
:1042A000704700000149086070470000BC00002012
:1042B0002DE9FF4F8DB00F460546002606E0252864
:1042C0000BD0DDE90F1290476D1C761C2878002872
:1042D000F5D111B03046BDE8F08F0024A246A146CA
:1042E0000122EC4900E0044315F8013F203B02FAAB
:1042F00003F00842F7D128782A2810D06FF02F0257
:104300002878A0F13001092914D80AEB8A0102EBC0
:10431000410144F0020400EB010A6D1CF0E701CFFB
:104320005FEA000A03D544F40054CAF1000A44F0DD
:1043300002046D1C28782E2817D115F8010F44F0BF
:1043400004042A280ED06FF02F022878A0F1300143
:1043500009290AD809EB890102EB410100EB0109A7
:104360006D1CF2E757F8049B6D1C28786C280FD061
:1043700006DC4C2817D068280DD06A2814D104E038
:10438000742810D07A280FD10DE044F400140AE00C
:1043900044F4801401E044F440146978814202D16D
:1043A00004F580146D1C6D1C2A786E2A1FD00CDC5D
:1043B000632A31D004DC002A8BD0582A11D1A3E023
:1043C000642A68D0692A0CD165E0732A2ED004DCF7
:1043D0006F2A73D0702A04D19BE0752A6FD0782A97
:1043E0006ED01046DDE90F129047761C50E1C4F301
:1043F0000250022806D0032809D0042801CF09D092
:10440000066045E101CFF117C0E9006140E101CF4D
:1044100006803DE106703BE117F8040B8DF80000C3
:1044200000208DF80100EB46012003E057F804BBA3
:104430004FF0FF3061074FF0000102D40DE008F1AA
:104440000101884649450FDA8045F8DB1BF8081062
:104450000029F4D108E008F1010188468142FADB25
:104460001BF808100029F6D1DDE90F23AAEB08009C
:104470008146214600F036F9304400EB080604E09E
:10448000DDE90F121BF8010B9047B8F10108F7D2D4
:1044900021464846F7E00A21C4F302534FF0000BCF
:1044A0000891022B04D001CFC117032B09D00AE0D9
:1044B000FF1D27F00707F7E8020108E032E01FE0E0
:1044C00020E000B2C117042B01D140B2C117031E76
:1044D00071F1000307DA4FF0000CD0EB0C006CEB2D
:1044E00001012D2302E0230504D52B238DF8243070
:1044F000012303E0E30701D02023F7E7984658E0C3
:104500000A2110E010210EE010204FF0000B08905F
:104510000CE010214FF0000B44F004044FF00809A8
:10452000089103E008214FF0000B0891C4F30253F7
:10453000022B04D001CF0021032B06D006E0FF1D83
:1045400027F00707F7E8020103E080B2042B00D14F
:10455000C0B24FF0000823072BD5702A07D0DDF832
:1045600020C08CF0100C5CEA0B0C05D00EE0402350
:104570008DF82430012308E050EA010306D03023EF
:104580008DF824308DF8252002239846DDF820C0D0
:104590008CF0080C5CEA0B0C0BD150EA010301D142
:1045A000630706D530238DF824304FF00108A9F1B8
:1045B0000109582A04D038A20B9208AA0A920BE0EB
:1045C0003AA2F9E75B46089AFBF7E3FE0B9B9B5C7C
:1045D0000A9A521E0A92137050EA0102F2D10A9806
:1045E000ADEB000000F1200B600702D524F480340D
:1045F00001E04FF00109D94502DDA9EB0B0000E015
:10460000002000EB0B0141440890AAEB010AE003F3
:1046100006D4DDE90F232146504600F063F8064436
:104620004FF0000908E009A911F80900DDE90F12AF
:10463000904709F10109761CC145F4DBE0030CD574
:10464000DDE90F232146504600F04CF8064404E013
:10465000DDE90F1230209047761C0899481E08901B
:104660000029F5DC08E00A980A990078491C0A91AB
:10467000DDE90F129047761CBBF10001ABF1010B95
:10468000F1DC21465046DDE90F2300F019F806441D
:104690006D1C1BE6092801003031323334353637C2
:1046A000383961626364656600000000303132337E
:1046B000343536373839414243444546000000001E
:1046C0002DE9F041044600251E461746880404D40F
:1046D00005E039462020B0476D1C641EF9D52846F8
:1046E000BDE8F0812DE9F041044600251E469046C4
:1046F000C80301D5302700E02027880404D505E051
:1047000041463846B0476D1C641EF9D52846BDE8C1
:10471000F0810A68531C0B601070704710B5FCF7ED
:1047200005FE0A494FF000030A69541C06D0821A9C
:10473000B2F5FA6F02D20B73002010BD08610B7343
:10474000887888720120C87210BD00001000002017
:1047500010B50A210648FBF70EFD054808218172B5
:1047600000210173C1724A1E0261017510BD000073
:104770001000002010B5064C207D401CC0B22075F2
:10478000032803D300F01CF80020207510BD0000A2
:104790001000002070B504000CD0084D0826287BBE
:1047A00048B1FFF7BBFF30B100F04AF8A87A20709B
:1047B0000020E87270BD267070BD0000100000205F
:1047C00010B50B4C002210212046FCF7A9FD7820E3
:1047D000FCF788FC012210212046FCF7A1FD4FF4D4
:1047E000FA70FCF77FFCBDE81040FFF7B1BF000096
:1047F00000080140002220210148FCF791BD000083
:10480000000C014004480178044809B1012200E08D
:1048100000222021FCF784BDAB000020000C0140E9
:1048200006480178002908D04178491CC9B2417076
:10483000322902D30021417001707047AB00002083
:10484000024801210170002141707047AB00002037
:1048500008B50020622380221E21009001F04CF850
:1048600008BD00002DE9F843044602464F4869465A
:10487000B0EB420F09D94FF0E640B0EB420F94BFC6
:1048800000204FF0FF30009030E0494B22F0004014
:10489000834271D947492046FBF7E6FCFBF71FFE30
:1048A0008046FBF73AFE00F0030000904249404684
:1048B000FBF7DAFC054641494046FBF7D5FC0646C6
:1048C0003F494046FBF7D0FC07463E494046FBF7D0
:1048D000CBFC2146FBF7C5FC3946FBF7BFFC314654
:1048E000FBF7BCFC2946FBF7B9FC04462546009CB7
:1048F000002C45DB294614F0010F08461CD0FBF7BD
:10490000B3FC06463049FBF7AFFC3049FBF7A9FC86
:104910003146FBF7A9FC2E49FBF74EFC3146FBF76D
:10492000A3FC2946FBF7A0FC2946FBF745FC14F045
:10493000020F1CD0BDE8F883FBF796FC054625491D
:10494000FBF792FC2449FBF737FC2946FBF78CFC6C
:104950002249FBF731FC2946FBF786FC4FF07E51DC
:10496000FBF72AFC14F0020F08BFBDE8F88380F0C3
:104970000040BDE8F883FFE71046FFF7CFFBB4E740
:104980006800B0F17F4F3CBF4FF07E50BDE8F88328
:1049900007D14FF00100FFF785FCBDE8F843FFF7B2
:1049A000B8BB2846BDE8F843FFF7B0BBB61F927E00
:1049B000490E494683F9223F1A61342C0020A23364
:1049C00000A0FD390000C93F336D4C39DA82083C44
:1049D000A0AA2ABEB93AB2BACA9F2A3DDDFFFFBEDD
:1049E00038B505464FF6FF7401237D221946022093
:1049F000009400F025FF0020009023462A460C2159
:104A0000042000F0EBFE1B237D22194602200094B7
:104A100000F016FF38BD10B5FFF7ECFEBDE8104002
:104A200000F020B810B50E49002220B1012807D0AF
:104A300002280DD109E00878012809D10A700CE09C
:104A40004878012804D14A7005E08878012801D00F
:104A5000002010BD8A70FFF7F3FE012010BD00009A
:104A6000A800002010B5074C00224FF4004120465A
:104A7000FCF756FC20460122BDE810409103FCF7EC
:104A80004FBC0000000C0140084B4FF4004150B1F6
:104A9000012804D04910022805D0032805D100229E
:104AA0001846FCF73DBC0122FAE77047000C0140B4
:104AB00010B520B119B10A781AB1012A0CD0012021
:104AC00010BD00680C4A904214DC01200870782068
:104AD000FCF708FB012009E00068084A904209DB66
:104AE000002008707820FCF7FDFA0020BDE8104097
:104AF00000F06BB8002010BD0000204100007041A4
:104B000038B50C4605001CD0DCB12878032818D82D
:104B1000002000900221684600F040F888B9BDF8F6
:104B2000000040BAFBF71CFC2A780A49012A0AD087
:104B3000FBF7CCFB206029462046FFF7B9FF002891
:104B400000D0012038BDFBF7C1FB4FF0FF31FBF770
:104B5000FBFBEFE79A99993F10B5002000F04CF865
:104B6000002800D0012010BD10B5012000F044F84D
:104B700068B90A20FCF7B6FA072000F03DF830B912
:104B80000A20FCF7AFFA102000F036F808B1012037
:104B900010BD7820FCF7A6FA002010BD0B46024697
:104BA00046210148FEF7A2BA3401002010B50720C3
:104BB00000F022F80A20FCF795FA102000F01CF80B
:104BC000BDE810407820FCF78DBA10B530B101284F
:104BD00006D0022806D0032806D00AE0102004E000
:104BE000112002E0132000E0202000F005F800284A
:104BF00000D0012010BD000001B501236A46462106
:104C00000148FEF7C0FB08BD34010020FCF74CFE54
:104C1000FEF77CFEFEF724FCFEF7F4FBFEF7A4FC97
:104C2000FEF7C2FCFEF77AFDFEF794FDFEF7C2FB2D
:104C3000FEF740FDFEF7DCFC00F092FB00F0ACFB61
:104C400000F0C2FBFCE700002DE9F0410027114D08
:104C50003E46002405EB8400D0F800040146FBF733
:104C600003FB3946FBF7A8FA641C0746FF2CF1DD6D
:104C7000761CF6B2032EECD30749FBF727FB6FF047
:104C80000701FBF761FBC5F82408012085F8280817
:104C9000BDE8F081280400200000404010B54FF42A
:104CA000806421460B48FBF766FA21460A48FBF769
:104CB00062FA20210948FBF75EFA0649002081F8D4
:104CC0002008C1F8240881F82808C1F82C08C1F888
:104CD000300810BD2804002028080020280C0020DF
:104CE000002803D00249D1F8301801607047000055
:104CF000280400200148006800F052F8E05B00083A
:104D000010B50448FDF78EFBBDE810400248FCF7E3
:104D10003FB8000028020020C000002010B5FFF7B7
:104D2000BDFF0948FDF756FB4FF48072074908485C
:104D3000FBF7A8FF0549012081F82008BDE81040D5
:104D40006420FCF7CFB900002802002028040020CE
:104D5000C000002010B500F00DF8054890F82808B4
:104D600008B1FFF7C7FFBDE81040FFF76DBF0000B7
:104D70002804002070B5094D002400BF55F8240018
:104D8000A0F50060FBF7ECFA05EB8401641CA4B20B
:104D9000C1F80004FF2CF1D970BD000028040020E8
:104DA0000821FBF7D1FA0B49FBF790FA4FF07C5141
:104DB000FBF702FAFBF7D9FA80B2FBF7D1FA064902
:104DC000FBF752FA6FF00701FBF7BEFAFFF74AFD57
:104DD000FEE7000000401C46DA0FC9402DE9F04113
:104DE0001C4615000E46074610D0FBF7B9FA0F49CE
:104DF000D1F82C18FBF738FA0D49FBF767FAFBF7E7
:104E0000B4FAC0B22870B84202D92F70BDE8F08160
:104E1000B04201D22E70F9E7A042F7D200EB400079
:104E2000A04200D804462C70F0E7000028040020BF
:104E300000401C4610B5FFF7EEFDFBF7CDFC00F07F
:104E400049F8BDE8104000F093BD00002DE9F041A5
:104E5000114C1249A5682069FBF738FA00F0C6F931
:104E60000F49FBF701FA064629464FF07E50FBF743
:104E7000F5F93146FBF7F8F90A4F06462846396836
:104E8000FBF7F2F93146FBF797F93860FBF76DFA5B
:104E90002071BDE8F0810000CC0300200000C84371
:104EA00000003443040000200020064A014600BFF1
:104EB00042F82010401C10F0FF00F9D082F8981042
:104EC000704700005C0C00200A2801D200F0BAB83C
:104ED0007047000010B500224FF480710448FCF7C1
:104EE0001FFAFFF7E1FFBDE8104000F04DB80000E9
:104EF00000080140F8B5002000906846FFF7F0FE7A
:104F0000009810F0FF4F35D01B49884202DC1B4946
:104F1000C81C09E01A49884203DC1849891DC81CCD
:104F200002E016490C31C81C0D7802784B78521BF0
:104F3000D4B2427880788F78D21A1249C01BC6B298
:104F400091F89A00D2B24443424303EB12227043D9
:104F500005EB1424120607EB1020E4B2C3B2120AC8
:104F6000002042EA04221A4341F82020401C10F09D
:104F7000FF00F9D0F8BD000000004843005C0008C5
:104F80000000FA445C0C002002480021016000F09F
:104F900021B800005C0C002010B50B460446FFF75A
:104FA00083FF19462046FFF78FFFBDE8104000F051
:104FB00011B808B500208DF800004D236A46142171
:104FC000FF20FFF70BFF684600F0D0F8FFF792FFD5
:104FD00008BD0000F0B4002301243C26174A1946FE
:104FE0001E27172052F821C004FA00F51CEA050F0D
:104FF00002EB430501D0AE8000E0AF805B1C401E99
:1050000040B29BB20028EDDA491C11F0FF01E8D054
:105010000020014602EB43055B1C401CA9809BB2AB
:105020003228F7DB92F898000028FDD182F89840EA
:10503000F0BC00210248121DFDF744BB5C0C0020AF
:10504000E001002070B5064607480D46002400F830
:10505000996F41702A463146204600F065F8641C7D
:1050600014F0FF04F6D070BD5C0C0020014602482D
:1050700090F89900FFF7E6BF5C0C002000280DD0E7
:1050800001782839C9B20170142901D214210170A4
:10509000C8B2034981F89A00FFF7E8BF70470000E3
:1050A0005C0C002000280DD001782831C9B20170B5
:1050B000B42901D9B4210170C8B2034981F89A001A
:1050C000FFF7D4BF704700005C0C002000280CD014
:1050D0000178B42901D3142100E028310170C8B24D
:1050E000024981F89A00FFF7C1BF70475C0C0020AD
:1050F000024991F89A10FFF7A5BF00005C0C002050
:1051000000280DD00178491CC9B201700A2901D3C9
:1051100000210170C8B2034981F89900FFF7E8BF88
:10512000704700005C0C0020002819D1142A01D21D
:10513000142202E0B42A00D9B42201EB4103094948
:10514000C85C0B44504359789B785143000A090AC4
:105150005343000440EA0120034940EA1320086059
:1051600070470000125C00085C0C00202DE9F04143
:1051700000282CD0174C0078174D94F89A70174ED1
:10518000C11B11F0FF0F0ED0FBF7EAF801461448DF
:10519000FBF76AF806463846FBF7E2F82946FBF7C4
:1051A00063F831460DE0FBF7DBF801460D48FBF7ED
:1051B0005BF805463846FBF7D3F83146FBF754F861
:1051C0002946FAF7F9FFFBF7D0F884F89A00BDE812
:1051D000F08100005C0C00209A99193F9A99593F80
:1051E000CCCCCC3E9899193EFFF7F4BE70B505467D
:1051F000FBF746F9044620F00040C0F1FF40C00F25
:1052000008D025F00040C0F1FF40C00F04BF0120CE
:10521000FFF748F8204670BD70B50220FFF702FC8A
:10522000144D20B1681DFFF76BFFFFF7DDFF124C37
:105230006078401CC0B26070142810D30D4900265D
:1052400010316670081FFFF75BFC48B12078401CE6
:10525000C0B22070052802D3FFF7A8FC267070BDED
:10526000FFF7F4FD29796879FFF72EFEFFF7BCFF01
:10527000F4E70000CC03002008000020074810B528
:10528000002101730649016101794079FFF784FE2D
:10529000FFF76AFCBDE81040FFF732BDCC030020E9
:1052A0000000484210B50120FFF7BCFB094C18B1C3
:1052B000201DFFF70BFF07E00220FFF7B3FB0028DC
:1052C00006D0601DFFF71CFFBDE81040FFF78CBF44
:1052D00010BD0000CC03002010B500F0F5F9054822
:1052E00001794079FFF758FEFFF736FCBDE8104022
:1052F000FFF706BDCC03002010B5FFF72BFDFFF72D
:1053000058FEBDE81040FFF76FBF000010B500F079
:10531000DBF9054801794079FFF73EFEFFF71CFCF9
:10532000BDE81040FFF7FABCCC03002010B500F038
:105330006BF80A48FBF73CFA084C143C207D08281F
:1053400006D104F11500FFF725FA607D082803D087
:10535000BDE81040FEF7A4BA10BD0000E003002035
:1053600010B500F0B1F9BDE81040FFF763BD0000D3
:10537000084910B5032008700120FFF785FBFFF7EF
:1053800003FE00F02DFBFFF7E7FBBDE81040FFF741
:10539000B7BC0000CC03002010B50020FFF774FB61
:1053A0000320FFF771FB00F08FF906480021017020
:1053B00001794079FFF7F0FD00F01AFBBDE81040DD
:1053C00000F086B8CC03002010B5FFF7AFFF0D4802
:1053D000007820B1012805D0022808D105E0FFF7A8
:1053E00061FF04E0FFF718FF01E0FFF785FFFFF71B
:1053F00009FAFFF79BFF00F01DF8BDE810400A20F6
:10540000FBF770BECC03002010B50020FFF70AFBAD
:1054100000280BD006480078032803D0BDE81040D0
:10542000FFF7A6BFBDE81040FFF7B6BF10BD0000F4
:10543000CC03002070B5164C2078032827D0154DDA
:10544000A97888420FD0002000F054F92078A87085
:1054500098B1012813D0022813D00FA0FFF7C0FA8B
:10546000FF2028706870207868B101280BD00228CE
:105470000DD1BDE8704000F0E7B80AA0EEE70DA03E
:10548000ECE70FA0EAE7BDE8704000F037B870BD68
:10549000CC0300200A000020204D4F44453A202D27
:1054A0002D2D2D00204D4F44453A204D414E554164
:1054B0004C000000204D4F44453A204155544F00C8
:1054C000204D4F44453A204D5553494300000000BC
:1054D00010B5002000F00EF903A0FFF781FA06488E
:1054E000FF210170417010BD204D4F44453A204DC1
:1054F000414E55414C0000000A000020F0B54A48DA
:10550000642295B0017945795143B422B1FBF2F19F
:105510004648CCB201788C4202D141788D427DD090
:1055200004704570FFF794F9224641A110A8FEF7D8
:10553000C9FD00274FF6FF76334610AA2321042029
:10554000009700F04BF947F6EF30009008236422F3
:105550003421022000F0D0F964204443B4FBF0F27F
:10556000642A01D9642200E02AB1082334210220F0
:10557000009600F0C1F92822304901A8FAF7E2FDAF
:1055800001A82FA150F825200BA8FEF79BFD34465B
:1055900033460BAA46210420009700F01FF94FF66E
:1055A000E0704FF61F010A2D16D2DFE805F005085E
:1055B0000B151616130D10134FF478400DE04FF431
:1055C000FC600AE01F2008E040F2FF7005E04FF6A3
:1055D000205002E0084600E02046192300901A46B9
:1055E0004421622000F088F944237A22194662207F
:1055F000009400F025F95D237A2219466220009478
:1056000000F01EF962225D2344211046009400F050
:1056100017F97A225D234421104600E002E000944D
:1056200000F00EF915B0F0BDCC0300200A000020F8
:105630004252493A2025642525000000A05B00085D
:10564000434F4C3A202573002DE9F04387B0FFF714
:10565000FFF8002000904FF6FF7317A22D211C20A9
:1056600000F0BCF8174801AC0DF110090EC884E831
:105670000E0007C889E807000025A04640F2FF7623
:1056800039F8150038F81540C0F1640087B2224699
:10569000632339461046009600F0D2F8641CA2B28B
:1056A000A0B263233946009600F0CAF86D1C052DA0
:1056B000E6DB07B0BDE8F083454E4A4F59204D5513
:1056C00053494300C85B000800B587B018216846FD
:1056D000FAF751FD182205496846FAF733FD1822FA
:1056E00069460348FAF72EFD07B000BD885B000845
:1056F000CC03002038B5010A8DF800108DF80100A8
:105700007F2300211A46084600F07AF900244FF45E
:1057100080456423022269460648FCF7C9FC641CE4
:10572000A4B2AC42F5D3012291020348FBF7F8FD85
:1057300038BD000088010020000C01402DE9FC4725
:1057400080460A988A46B8F1800F3ED2BAF1800F9F
:105750003BD2A2F120015F2937D21D49002401EB81
:105760000211A1F50079190A8DF80010010A8DF8CF
:1057700004108DF801308DF8050080260AEB040333
:1057800019F80470194608F10702404600F038F98C
:105790005FF0000526FA05F038424FF064034FF041
:1057A000020201D0694600E001A90A48FCF780FC2A
:1057B0006D1CEDB2082DEDD3012291020648FBF7D6
:1057C000AFFD641CE4B2102CD8D3BDE8FC87000008
:1057D000305C000888010020000C01402DE9F843EE
:1057E00099461746064605460C46DDF820801AE025
:1057F000A2F120005F2819D205F10800802804D901
:105800001034E4B23546802C10D80A2A10D00D2A64
:1058100014D04B4621462846CDF80080FFF78EFF76
:105820000835EDB27F1C3A78002AE1D1BDE8F88353
:105830001034E4B23546802CF8D8F3E73546F1E76A
:105840002DE9FC5F07469A4690460E46D41B00D5CC
:105850006442BAEB060000D54042C0F100094FF0A7
:10586000FF30474501D2012100E001460191564534
:1058700000D201208346C9F1000004EB0905009025
:10588000314638460C9A00F017F8474501D1564585
:105890000FD000996800884204DD0199A5EB090545
:1058A00039448FB2A042EBDA06EB0B00254486B2F6
:1058B000E6E7BDE8FC9F000038B51446802815D205
:1058C000802913D20B46024600F09AF8200A8DF880
:1058D00000008DF801406423022269460448FCF769
:1058E000E7FB012291020348FBF71AFD38BD0000D7
:1058F00088010020000C0140F8B51D46069E1446A4
:1059000080282FD280292DD20219802A02D9C0F1F5
:10591000800294B24A19802A02D9C1F1800295B25C
:10592000002C1FD0002D1DD04A19521E93B202190F
:10593000521E92B200F064F8300A8DF800008DF823
:10594000016000266C4306E0642302226946064893
:10595000FCF7AEFB761CB442F6D801229102034854
:10596000FBF7DEFCF8BD000088010020000C0140C0
:1059700070B51A4D4FF48054002221462846FBF79B
:10598000CFFC1420FBF7AEFB012221462846FBF793
:10599000C7FC7820FBF7A6FB112000F0CBF878209D
:1059A000FBF7A0FB3A2000F0C5F8052000F0A4F8B2
:1059B000362000F0BFF8C82000F09EF8132000F059
:1059C000B9F8292000F0B6F80020FFF793FE28462A
:1059D000BDE8704001221102FBF7A2BC000C01409F
:1059E00000224FF480710148FBF79ABC000C014083
:1059F000012211020148FBF793BC0000000C01409A
:105A00002DE9F8431C4615460E46074680286CD201
:105A1000802E6AD2802D68D2802C66D2AF4264D8A4
:105A2000A64262D8DFF8C88000224FF48061404669
:105A3000FBF776FC4FF40069002249464046FBF72D
:105A40006FFC2A208DF80000642301226946294852
:105A5000FCF72EFB012249464046FBF761FC380A61
:105A60008DF800008DF80170280A8DF802008DF87D
:105A700003506423042269461E48FCF719FB0022E8
:105A800049464046FBF74CFC2B208DF80000642370
:105A9000012269461748FCF70BFB012249464046A4
:105AA000FBF73EFC300A8DF800008DF80160200AFB
:105AB0008DF802008DF803406423042269460D48E6
:105AC000FCF7F6FA002249464046FBF729FC2C2059
:105AD0008DF800006423012269460648FCF7E8FAC5
