:020000040800F2
:10000000F01000200101000857370008292F0008D0
:1000100055370008ED090008B9400008000000004D
:100020000000000000000000000000006738000829
:100030004B0A000800000000593700086938000822
:100040001B0100081B0100081B0100081B01000820
:100050001B0100081B0100084D0A0008530A000894
:100060001B010008590A00081B010008F1090008DB
:10007000FD0900081B010008090A0008150A00080C
:100080001B0100081B0100081B0100081B010008E0
:100090001B0100081B0100081B0100081B010008D0
:1000A0001B0100081B0100081B0100081B010008C0
:1000B0001B0100081B0100081B0100081B010008B0
:1000C0001B0100081B0100081B0100081B010008A0
:1000D0001B010008A1400008AD4000081B010008FA
:1000E0001B0100081B0100081B010008DFF80CD0F1
:1000F00000F032FB00480047D5480008F01000200F
:100100000648804706480047FEE7FEE7FEE7FEE7B1
:10011000FEE7FEE7FEE7FEE7FEE7FEE77D390008C3
:10012000ED000008202A04DB203A21FA02F0002129
:10013000704721FA02F3D040C2F1200291400843F7
:100140001946704740EA01039B0703D009E008C93C
:10015000121F08C0042AFAD203E011F8013B00F88C
:10016000013B521EF9D27047D2B201E000F8012BD8
:10017000491EFBD270470022F6E710B513460A4627
:1001800004461946FFF7F0FF204610BD421C10F848
:10019000011B0029FBD1801A704730B505460020AD
:1001A000034600E05B1C934205D2EC5CC85C201A5D
:1001B00001D1002CF6D130BDF0B480EA0102D40F99
:1001C0004200B2EB410F02D20246084611464A00F5
:1001D00042D0C30DDDB2C1F3C752AD1A202D35DABE
:1001E000C1F3160141F4000204B15242C5F12006E8
:1001F00002FA06F12A411044B3EBD05F23D0C4B118
:10020000012DA0EBC35009DCF0BC4FF0004202EA24
:10021000C352DBB200F5000000F08AB9400000F1E3
:10022000807000EBC350A0F1807040EAD1704900AB
:1002300009E0490841EAC071A0EBC35000F5000095
:10024000400800EBC350F0BC00F069B961420122E4
:1002500002EB4101001BF6E7F0BC704781F0004162
:10026000AAE780F00040A7E780EA010210B502F09B
:100270000043400022D04A001FD0010E01EB126162
:10028000C0F35600C2F3560240F4000042F40002EC
:10029000A0FB022000047F39140400D0401C50EA67
:1002A000124001D44000491EC2B20C0604EBD0102B
:1002B000401C4008802A02D003E0002010BD20F03E
:1002C0000100002900DA0020184310BD30B480EA94
:1002D000010202F0004530F0004221F0004013D04E
:1002E00090B1C30DD40DC2F31601C0F31600E41A89
:1002F00041F4000140F400027D34914201D3641CBA
:1003000000E04900002C02DA30BC002070474FF4B6
:1003100000000023914201D3891A034340084FEAA9
:100320004101F7D151B1914202D14FF0004105E0B6
:1003300002D24FF0010101E06FF0010103EBC45064
:10034000284430BC00F0EBB8420005D0C0F3C752DF
:100350005242914201DC0020704700EBC1507047CF
:100360002DE9FE4F81EA030404F0004421F000412E
:1003700000944FF0000B23F0004350EA01045ED0DC
:1003800052EA03045BD0C3F30A54C1F30A552C4468
:10039000A4F2F3340194A0FB0254C1F3130141F41D
:1003A0008011C3F3130343F4801301FB024400FBE9
:1003B000034E840A970A44EA815447EA8357A4FB10
:1003C000076802958D0A05FB07854FEA932C04FB0D
:1003D0000C542705029D4FEA065847EA1637B5EB3D
:1003E00008056EEB070C870E920E47EA811742EA6A
:1003F0008312A7FB0201B6EB0B0164EB00042B0D8B
:1004000043EA0C335E1844EB1C50DA465146E7FBD6
:100410000201C5F313044FEA0B3343EA14534FEAC6
:100420000432019C43EA0603A4F10C040294009CEC
:10043000CDE900B400F0D7F803B0BDE8F08F00209C
:100440000146F9E796230022114600F071B820F02A
:100450000040C10DC0F3160040F400007F2901DA0E
:1004600000207047962903DCC1F19601C84070470F
:1004700096398840704700F0004230F000400AD0C2
:10048000C10D01F56071C0F3160042EA0151C208C6
:1004900040071143704700200146704701F00043B8
:1004A00030B421F0004150EA010206D00A0DA2F555
:1004B0006072C1F31301002A02DC30BC00207047D7
:1004C000440F44EAC104C100E01830BC00EBC25044
:1004D00000F025B830B50B4601460020202201244B
:1004E00009E021FA02F59D4205D303FA02F5491B02
:1004F00004FA02F52844151EA2F10102F1DC30BD18
:10050000202A04DB203A00FA02F1002070479140D3
:10051000C2F1200320FA03F31943904070470029E9
:10052000A8BF7047401C490008BF20F00100704779
:1005300010B4B0FA80FC00FA0CF050EA010404BFD9
:1005400010BC704749B1CCF1200421FA04F411FA2F
:100550000CF118BF012121430843A3EB0C01CB1D73
:100560004FEA00614FEA102042BF002010BC7047E4
:1005700000EBC35010440029A4BF10BC7047401CBE
:10058000490008BF20F0010010BC704710B54100C1
:100590000CD0C0F3C751962908DC7E2909DC06DBA4
:1005A000410204D000F0004040F07E5010BD002019
:1005B00010BDC1F19604C4F1200100FA01F1E04040
:1005C000FFF7ADFFA04010BD10B5141E73F100047D
:1005D00008DA401C41F1000192185B411A4301D135
:1005E00020F0010010BD2DE9F04D92469B4611B15F
:1005F000B1FA81F202E0B0FA80F220329046FFF7C1
:100600007FFF04460F4640EA0A0041EA0B015346C9
:100610005A46084313D0114653EA010019D0C8F1D5
:1006200040025046FFF77EFD05460E4650465946AD
:100630004246FFF765FF084305D0012004E020464D
:100640003946BDE8F08D0020054346EAE0762C43AC
:1006500037430A986305E40AA0EB08000022FD0A6C
:1006600044EA47540A3002D500200146E9E7010573
:1006700010196941DDE9084500196941BDE8F04DEF
:10068000A2E72DE9F04D00231A461B1A8A4103DB2D
:1006900000200146BDE8F08DC1F30A52C1F31301F9
:1006A00041F480154FF0000BD10702D100186D41C5
:1006B000521E0027044640F2FF11384601EB620A41
:1006C0003E468046024600204FF48011FFF72AFD87
:1006D000C2197141BB1846EB0100B4EB030C75EB7A
:1006E000000C04D3E41A65EB000517460E462419E6
:1006F00008F101006D4180463428E3DDF91946EB2D
:100700000600091BA84103D24FF0FF32134601E057
:10071000002213461BEB070046EB0A51BDE8F04DE3
:10072000FFF752BF00F0004220F00040C10DC0F3BF
:10073000160040F400007F2901DA00207047962956
:1007400003DCC1F19601C84001E096398840002AD7
:10075000F4D0404270470000064C074D06E0E068C8
:1007600040F0010394E8070098471034AC42F6D3F8
:10077000FFF7C0FCCC590008EC590008C10F80EA13
:10078000E0700844CA0796230021FFF7D1BE00009D
:1007900070B5044600688168C943C90717D18168EC
:1007A00021F00101816000F009FE05460AE000BF6A
:1007B00000F004FE401B022804D920688068C04372
:1007C000C00706D020688068C043C007F0D0002072
:1007D00070BDA06A40F01000A062E06A40F0010025
:1007E000E062012070BD10B50146406A826A12F0D5
:1007F000500F05D0006A026BBDE810400846104754
:10080000816A41F40071816201688968C1F34241E3
:1008100007290CD1017B51B9816A21F48071816271
:10082000816AC90403D4816A41F00101816200F048
:1008300097F910BD10B5406A816A41F040018162AC
:10084000C16A41F00401C16200F08CF910BD10B51D
:10085000406A00F086F910BDF8B5002604460096FF
:1008600000688168C943C9072DD0816841F0010142
:100870008160164816490068B0FBF1F000E0401EA8
:1008800000900028FBD100F099FD054616E000BF5E
:1008900000F094FD401B022810D920688068C043F6
:1008A000C0070BD0A06A40F01000A062E06A40F0E0
:1008B0000100E06284F824600120F8BD20688068AF
:1008C000C043C007E4D10020F8BD000004000020B0
:1008D00040420F002DE9F04100271C4E3C4600BF6E
:1008E00006EB04152846FFF751FC02462946184836
:1008F000FFF753FC00B3641CE4B2082CF0D31A21B8
:1009000014A000F05FF8152119A000F05BF8002496
:1009100006EB04152846FFF739FC81B2284600F0A3
:1009200051F8022111A000F04DF8641CE4B2082C2B
:10093000EED33846BDE8F08105480127122180F842
:10094000424011A000F03EF8F3E700002400002030
:10095000DC0300205468657265206973206E6F2087
:100960007375636820636F6D6D616E640D0A0000BE
:1009700056616C696420636F6D6D616E6473206194
:1009800072653A0D0A000000436F6D6D616E642060
:1009900069732076616C69640D0A000070B504000B
:1009A0000AD000F01BF8082538B1FFF793FF20B1FB
:1009B000034890F84200207070BD257070BD0000A3
:1009C000DC03002028B121B10A460146024802F0AA
:1009D0006DBA012070470000F40200200249002295
:1009E00011F8410F0A707047DC030020FEE7000099
:1009F000014800F0AFBA0000E8000020014800F014
:100A0000A9BA000068020020014800F0A3BA000063
:100A100080030020014800F09DBA00003C03002044
:100A200030B590F840500124AC40C56B6C60046850
:100A300063604368102B036803D099600068C2604C
:100A400030BD9A600068C16030BD7047012000F081
:100A5000B3BB022000F0B0BB082000F0ADBB72B603
:100A6000FEE70000F8B50024009490F82420254605
:100A7000012A12D0012280F824204A681F23072A65
:100A80000DD20668776B521E02EB820293409F43A1
:100A90000B6893401F43776319E00220F8BD066896
:100AA0000D2A0AD2376BD21F02EB820293409F437A
:100AB0000B6893401F43376309E0F76A0D3A02EB76
:100AC000820293409F430B6893401F43F7620A687A
:100AD000072306680A2A0AD3F7680A3A02EB420299
:100AE00093409F438B6893401F43F76008E037694A
:100AF00002EB420293409F438B6893401F43376150
:100B00000A68102A01D0112A20D1124B02689A4299
:100B100017D193681B0219D4936843F400039360C0
:100B20000968102912D10C490C4A0968B1FBF2F18D
:100B300001EB8101490000E0491E00910029FBD131
:100B400004E0816A41F020018162012480F8245090
:100B50002046F8BD002401400400002040420F0060
:100B600070477047704700002DE9F0414FF00007D3
:100B700004003D467ED0A06A002628B9E66284F8CB
:100B80002460204600F07EF82046FFF701FEA16AAF
:100B900001F01001014304D0A06A40F01000A062EF
:100BA00068E0A16A21F4885141F00201A162626803
:100BB000E169237B0A4347EA43010A43A1684FF4F2
:100BC0008077B94208D0012906D0002194F814C0DA
:100BD000BCF1010F02D00AE03946F7E7F3B1A36A8E
:100BE00043F02003A362E36A43F00103E362236856
:100BF000D3F804C02CF4694C4CEA010CC3F804C0CF
:100C000023689968DFF870C001EA0C01114399600C
:100C1000A168B9420BD0012909D00CE0DFF85CC013
:100C2000A3690CEB43330B4343F40061DFE7218AF4
:100C30000D05A5F580152168CB6A23F470032B43BD
:100C4000CB62216889680E4B1940914208D1E66257
:100C5000A16A21F0020141F00101A162BDE8F08129
:100C6000A06A20F0020040F01000A062E06A40F0AC
:100C70000100E0620120F1E7FDF7E1FF00E0FFFF86
:100C8000FE0E1FFF70B586B0002605460096019641
:100C90000296039600681A4988422FD1194988693B
:100CA00040F400708861886900F4007004908869DD
:100CB00040F0040088618869694600F004000490EF
:100CC00001200090032001900F4800F081FA104CA1
:100CD0000E48C4E900068020C4E90260400020619B
:100CE000800060612020A061C001E061204600F02A
:100CF000DBF908B1FFF7B3FE2C62656206B070BD88
:100D00000024014000100240000801400800024099
:100D1000E80000202DE9F047894604463B49006879
:100D20003B4F0E1D9046884201D0B84207D1306833
:100D300010F4702F03D001252846BDE8F08794F801
:100D4000240001280CD0012084F824002046FFF75D
:100D500083FD05004FF0000004D084F82400EBE789
:100D60000220EAE7A16A40F60162914341F48071F2
:100D7000A1622168B94218D1326812F4702F14D0E0
:100D8000A16A41F48011A1623168490505D5A16AC3
:100D900021F4005141F48051A162A16AC9040AD52D
:100DA000E16A21F00601E16206E0A26A22F4801203
:100DB000A2624968E9E7E06284F82400216A1548E4
:100DC0008862216A1448C862216A1448086321684D
:100DD0006FF0020008602068816841F480718160D2
:100DE000216843464A464C31206A00F08BF920685E
:100DF0008168C1F342410729816803D041F4801121
:100E0000816099E741F4A001FAE700000024014065
:100E100000280140E70700084F08000835080008CF
:100E200010B5044690F82400012807D0012084F86A
:100E300024002046FFF7ACFC10B113E0022010BDE7
:100E400021688A6822F480728A60216A91F82120E0
:100E5000022A07D1084600F00EF8A16A30B141F02D
:100E60004001A162002184F8241010BD21F48851B2
:100E700041F00101F5E710B590F821100022022998
:100E800005D00421816380F82020012010BD016875
:100E90000B6823F00E030B6001680B6823F001035D
:100EA0000B6090F84030C46B012101FA03F36360DA
:100EB00080F8211080F82020104610BD10B590F861
:100EC00021100024022903D00421816301243DE084
:100ED00001680A6822F00E020A6001680A6822F0BE
:100EE00001020A601A4A0168914201D1012121E000
:100EF000174A1432914201D110211BE0144A2832C2
:100F0000914201D1891515E0114A3C32914201D13B
:100F100089140FE00E4A5032914202D14FF48031D1
:100F200008E00B4A6432914202D14FF4801101E093
:100F30004FF08071064A083A5160012180F8211073
:100F4000002180F82010416B01B18847204610BD78
:100F5000080002402DE9F05FC16B0C6801680B6866
:100F6000D0F840C0042202FA0CF2494DDFF824A167
:100F7000494E4A4FDFF828B1DFF828E122422CD051
:100F80005A072AD50A68920603D40A6822F0040296
:100F90000A600168A94201D1042219E0514501D13A
:100FA000402215E0B14202D14FF4806210E0B94214
:100FB00002D14FF480420BE0594502D14FF4802218
:100FC00006E0714502D14FF4800201E04FF08062EB
:100FD0002F4908394A60C16A3BE04FF0020808FA1D
:100FE0000CF818EA040F4FF000094FF0010235D059
:100FF0005FEA837832D50B689B0605D40B6823F033
:101000000A030B6080F821200168A94201D1022265
:1010100019E0514501D1202215E0B14202D14FF42F
:10102000007210E0B94202D14FF400520BE0594572
:1010300002D14FF4003206E0714502D14FF40012A4
:1010400001E04FF00072124908394A6080F82090A0
:10105000816A00291AD0BDE8F05F0847082505FA23
:101060000CF5254212D01B0710D50B6823F00E0398
:101070000B6090F84010C36B02FA01F15960826373
:1010800080F8212080F82090016BE2E7BDE8F09F16
:10109000080002401C0002403000024044000240B0
:1010A000580002406C00024030B528B308C813490C
:1010B00014221944B1FBF2F18900C1631049816324
:1010C000022141771A6843F6F0718A43D0E900148F
:1010D0002143D0E902452C4321430469214344695B
:1010E0002143846921431143196000214163012296
:1010F00042770177084630BD012030BDF8FFFDBFC3
:101100000000024070B5044690F820000025012838
:101110000CD0012084F8200094F821600020012EDA
:1011200006D084F820000225284670BD022070BD3C
:10113000022684F82160A0632068066826F0010674
:1011400006602046FFF76CFCE06A00282068016812
:1011500002D041F00E0106E021F004010160206898
:10116000016841F00A0101602068016841F0010155
:101170000160D9E770B5044600F020F90546601C0F
:1011800002D004480078044400F018F9401BA04243
:10119000FAD370BDA80000200121064A012805D01D
:1011A000022805D0082800D191707047117070474F
:1011B00051707047A4000020044910B50A6802422B
:1011C00002D00860FFF7E8FF10BD000014040140E2
:1011D0002DE9F84FDFF8B8910024A9F1040B23465C
:1011E0000F2709F1040AABF1040EC9E00125A5405F
:1011F0002A40AA427DD1674ED1F804C0ACEB060864
:10120000B44532D014DCBCF1030F3AD009DCBCF198
:10121000000F2AD0BCF1010F1CD0BCF1020F31D15C
:101220001DE0BCF1110F17D0BCF1120F2AD119E04B
:10123000B8F5881F19D006DCB8F5803F15D0B8F591
:10124000801F1FD111E0B8F5001F0ED0B8F5041FA4
:1012500018D10AE0CB6815E0CB681B1D12E0CB6803
:1012600008330FE0CB680C330CE08B682BB1012BFB
:101270004FF0080303D0456104E0042302E0056158
:1012800000E00023FF2A01D8064601E000F1040631
:101290004FEA840501D9A5F12005D6F8008007FAA8
:1012A00005FC28EA0C0803FA05F548EA0508C6F823
:1012B00000804D68ED0062D5374DAE6946F00106FD
:1012C000AE61AD6924F0030605F001050095334DCC
:1012D00006EB050CDCF80850A607360F07FA06F8EF
:1012E00025EA0805DFF8B880404503D14FF0000833
:1012F00017E044E0DFF8AC80404502D14FF0010830
:101300000FE0DFF8A480404502D14FF0020808E06A
:10131000DFF89880404502D14FF0030801E04FF01C
:10132000040808FA06F848EA0508CCF808804D6871
:10133000D9F80060ED024D4601D5164300E0964312
:101340002E604D68DAF80060AD02554601D51643AF
:1013500000E096432E604D68DBF80060AD035D460B
:1013600001D5164300E096432E604D68DEF800601C
:10137000ED03754601D5164300E096432E60641CCC
:101380000D682A46E5407FF431AFBDE8F88F0000D4
:10139000080401400000111000100240000001404C
:1013A00000080140000C0140001001400014014001
:1013B0000AB1016170470904FBE700000148806839
:1013C00070470000A800002070B5040025D094F8F4
:1013D0003D00002520B984F83C50204600F076FA04
:1013E000242084F83D002068016821F0010101609B
:1013F0002068016841F4004101602068016821F41F
:101400000041016000F034FC4D4A6168914201D80E
:101410004C4900E04C49884201D2012070BD4B4943
:101420002368B0FBF1F15E6826F03F060E435E6074
:101430006368934206D94FF4967359434FF47A7315
:10144000B1FBF3F12368491C1E6A26F03F063143C5
:1014500019626168914210D84900401EB0FBF1F258
:10146000521CC2F30B02042A01D2042022E0B0FB7A
:10147000F1F0401CC0F30B001CE0A268F2B301EBDA
:10148000C10303EB0116431EB3FBF6F35B1C43F4ED
:1014900080431B0549D092B301EBC10202EB01115D
:1014A000401EB0FBF1F0401CC0F30B0040F4804044
:1014B00040F400402168CA694CF6FF739A43104318
:1014C000C861D4E9071001432068026822F0C00215
:1014D00011430160D4E9030101432068826848F2A6
:1014E000FF339A4311438160D4E905010843216821
:1014F000CA6822F0FF021043C86001E00EE016E067
:101500002068016841F0010101602564202084F811
:101510003D00256384F83E50002070BD01EB41067C
:10152000431EB3FBF6F35B1CB3E70120C2E701EBFC
:101530004101401EB0FBF1F0401CC0F30B00B7E7C7
:10154000A086010080841E0000093D0040420F007B
:101550002DE9F84F0025DDF82890984617468A4671
:1015600004460095FFF72AFF064694F83D00202820
:101570007AD11923012286492046009601F0E8FD20
:101580000028F5D194F83C0001286DD0012084F8A2
:101590003C0020680168C90703D1016841F00101DE
:1015A00001602068016821F400610160222084F854
:1015B0003D00102084F83E0025646762A4F82A806C
:1015C000608D20857348E06233464A465146204686
:1015D00001F0C2FC00287CD1208DDFF8BC812027DF
:1015E00068B1012814D00228206801681ED041F497
:1015F000806101602068416980690090BBE02068DB
:10160000416981690091016841F400710160B2E0B3
:101610002068016821F48061016072B62068416928
:1016200081690091016841F400710AE041F40061B0
:10163000016072B62068416981690091016821F4F6
:101640008061016062B696E0032865D801280CD05D
:1016500002284B464FF000024146204600960BD030
:1016600001F076FDA8BB0CE090E0324649462046EA
:1016700001F014FE68BB71E001F06AFD48BB72B670
:1016800033E02068016821F48061016072B620684F
:101690000069616A0870606A401C6062208D401EAB
:1016A0002085608D401E60853C4846F2A811006888
:1016B000B0FBF1F0C0EBC00000EB80000090401EDA
:1016C000009007D020684069C04340070DD50098BE
:1016D000F5E727E044F8305F6773A573206940F0B1
:1016E0002000206162B625731CE02068016841F487
:1016F0000071016020680069616A0870606A401CBE
:101700006062218D491E2185618D491E618562B609
:1017100021680969017025E032464946204601F0FA
:10172000BDFD10B10120BDE8F88F20680069616A35
:101730000870606A401C6062208D401E81B2218565
:10174000608D401E608520684269D243520712D4E2
:10175000032903D1016821F48061016020680069D8
:10176000616A0870606A401C6062208D401E20859E
:10177000608D401E6085208D00287FF465AF84F861
:101780003D7084F83E5084F83C50CCE70220CAE714
:10179000020010000000FFFF040001000400002010
:1017A0002DE9F84F1F4690468A460446DDF82890FA
:1017B000FFF704FE054694F83D0020287FD1192349
:1017C000012240492046009501F0C2FC002876D154
:1017D00094F83C00012872D0012084F83C00206875
:1017E0000168C90703D1016841F001010160206867
:1017F000016821F400610160212084F83D0010207F
:1018000084F83E0000262664C4F824806785608D35
:1018100020852D48E0622B464A465146204601F07D
:1018200011FC90B9206841698069009036E02A4631
:101830004946204601F06AFD50B1206C042804D1CD
:101840002068016841F4007101600120BDE8F88F53
:10185000606A216800780861606A401C6062618D7E
:10186000491E6185218D491E89B2218522685369EF
:10187000DB435B070BD451B100781061606A401CF8
:101880006062608D401E6085208D401E20852A4646
:101890004946204601F030FC0028CED1208D00289A
:1018A000C5D154F83D0B016841F40071016020205E
:1018B00004F81E09E67766770020C7E7FFE70220F5
:1018C000C4E70000020010000000FFFF10B586B062
:1018D0000021009101910291039100680F49884213
:1018E0001AD10F4CA06940F00800A061A0696946B8
:1018F00000F008000490C020009012200190032006
:1019000003900848FFF764FCE06940F40010E061D0
:10191000E06900F40010049006B010BD00540040CF
:1019200000100240000C0140024881680278114416
:1019300081607047A8000020074810B5016841F099
:1019400010010160032000F075F80F2000F006F888
:1019500000F024F8002010BD0020024070B50D4DAD
:1019600004464FF47A712878B1FBF0F00A4909680F
:10197000B1FBF0F000F097FC48B9102C07D2002220
:101980002146501E00F036F800206C6070BD01202A
:1019900070BD0000A8000020040000200C4808B51D
:1019A000816941F001018161816901F001010091CA
:1019B000C16941F08051C161C06900F08050009060
:1019C0000448416821F0E06141F00071416008BDC8
:1019D0000010024000000140002809DB00F01F0257
:1019E000012191404009800000F1E020C0F8001181
:1019F00070470000F0B40E4B1B680C46C3F3022383
:101A0000C3F10705042D00D90425191D072901D2AA
:101A1000002300E0DB1E012606FA05F1491E2140E5
:101A200099409E40761E16403143F0BC02F05ABBEE
:101A30000CED00E0064900F0070208684FF6FF03CE
:101A4000184040EA0220034A104308607047000033
:101A50000CED00E00000FA052DE9F843054600789A
:101A6000354CC00754D0E0690026C00008D4E069B6
:101A700040F08050E061E069012600F08050009065
:101A80002E480168C90512D40168804641F480716E
:101A90000160FFF793FC074605E000BFFFF78EFCEF
:101AA000C01B642823D8D8F80000C005F6D5206AEA
:101AB00010F4407021D0A98801F4407181421CD0FB
:101AC000206A1F49012220F440700A6000220A6047
:101AD0002062C00711D0FFF771FC074641F2883839
:101AE00008E000BFFFF76AFCC11B414502D9032093
:101AF000BDE8F883206A8007F4D5206A696820F47D
:101B00004070084320621EB1E06920F08050E0611F
:101B10002878800705D56068A96820F4404008430C
:101B200060602878C00605D56068E96820F4800008
:101B3000084360600020DBE70010024000700040B6
:101B4000400442422DE9F0470F46050061D0434E64
:101B5000306800F00700B84209D2306820F0070072
:101B600038433060306800F00700B84251D128682F
:101B70003B4C810712D5400703D5606840F4E06014
:101B800060602878000703D5606840F460506060AA
:101B90006068A96820F0F000084360602878C007FA
:101BA00028D06868012810D02168022810D0890741
:101BB00000292EDA616821F0030101436160FFF71B
:101BC000FDFB804641F288390DE021688903EFE78B
:101BD0008901EDE7FFF7F2FBA0EB0801494502D9C7
:101BE0000320BDE8F0876068696800F00C00B0EB86
:101BF000810FEFD1306800F00700B8420BD9306890
:101C000020F0070038433060306800F00700B84229
:101C100001D00120E5E72878400705D56068E9682C
:101C200020F4E060084360602878000706D560680B
:101C3000296920F4605040EAC100606000F038F883
:101C40006168084AC1F30311515CC8400649086045
:101C500006480068FFF782FE0020C2E7002002402D
:101C6000001002400455000804000020AC000020D1
:101C70000448054900684968044AC1F30221515CDF
:101C8000C8407047040000200010024014550008AE
:101C90000448054900684968044AC1F3C221515CFF
:101CA000C84070470400002000100240145500088E
:101CB0000E4A51680E4801F00C03042B11D0082B7A
:101CC0000FD10C48C1F38343C903C05C0AD55168E6
:101CD000084AC1F34041921E515C054A5043B0FB93
:101CE000F1F070470449484370470000001002407B
:101CF00000127A009A59000800093D002DE9F84FBA
:101D0000040070D02078C04DC00749D06868C0F387
:101D10008100012807D06868C0F38100022809D13A
:101D20006868C00306D52868800339D56068002834
:101D3000E7D035E06068B0F5803F0BD010B1B0F56A
:101D4000A02F11D0286820F480302860286820F463
:101D5000802002E0286840F480302860606890B1FC
:101D6000FFF72CFB06460AE0286840F48020286034
:101D7000F0E700BFFFF722FB801B642873D82868B8
:101D80008003F7D50CE0FFF719FB064605E000BF1E
:101D9000FFF714FB801B6428F0D828688003F7D471
:101DA00020789A4E80074FF001094FF0000839D58E
:101DB000686810F00C0F07D06868C0F38100022833
:101DC00009D16868C00306D42868800714D5206943
:101DD000012808D110E02069B0B1C6F80090FFF7E3
:101DE000EDFA074605E00AE1FFF7E8FAC01B022812
:101DF000C4D828688007F7D52868616920F0F80002
:101E000040EAC10028600DE0C6F80080FFF7D6FA6E
:101E1000074604E0FFF7D2FAC01B022823D828683F
:101E20008007F7D4207800072CD57948A169D9B16B
:101E3000C0F80090FFF7C2FA074604E0FFF7BEFAC9
:101E4000C01B02280FD8686A8007F7D571484FF485
:101E5000FA510068B0FBF1F0009000BF0098411EFD
:101E60000091FAD20EE080E0C0F80080FFF7A6FAF9
:101E7000074604E0FFF7A2FAC01B022875D8686A7B
:101E80008007F7D42078400760D5E8690027C000B4
:101E900008D4E86940F08050E861E869012700F063
:101EA000805000905C480168C90513D401688346DE
:101EB00041F480710160FFF781FA824606E000BFBD
:101EC000FFF77CFAA0EB0A0064284ED8DBF800008C
:101ED000C005F5D5E06801280AD008B1052813D05F
:101EE000286A20F001002862286A20F0040002E03D
:101EF000286A40F001002862E06841F2883B98B10E
:101F0000FFF75CFA82460BE0286A40F00400286282
:101F1000EEE700BFFFF752FAA0EB0A0159455AD885
:101F2000286A8007F6D50CE0FFF748FA824605E0FC
:101F3000FFF744FAA0EB0A0159454CD8286A8007FC
:101F4000F6D41FB1E86920F08050E861E06988B3F9
:101F50006968C1F38101022944D00228C6F8608073
:101F600004D0FFF72BFA044638E034E0FFF726FAF6
:101F7000074604E0FFF722FAC01B02282BD8286886
:101F80008001F7D4206AB0F5803F05D16868A16868
:101F900020F4003008436860D4E908010843696808
:101FA00021F4741108436860C6F86090FFF706FAE0
:101FB000044606E025E000BFFFF700FA001B0228F8
:101FC00009D828688001F7D51BE000BFFFF7F6F9B4
:101FD000001B022802D90320BDE8F88F2868800181
:101FE000F4D40EE00128F7D06868226A00F480314A
:101FF000914204D1616A00F47010884201D001203E
:10200000EAE70020E8E7000000100240000042423A
:1020100080044242040000200070004070B50400BB
:1020200009D0606A002540B125616561A56294F818
:10203000510040B10CE0012070BD6068B0F5827FB6
:10204000F4D0E561F2E784F85050204600F040F803
:10205000022084F851002068016821F040010160ED
:10206000A088218900F4827001F404410843A18909
:1020700001F400610843217C01F002010843217D45
:1020800001F001010843218B01F400710843217F15
:1020900001F03801084394F8201001F08001084352
:1020A000218D01F40051084321680860A0690421D2
:1020B00001EA1040216848602068C16921F400618C
:1020C000C1616565012084F85100002070BD0000E9
:1020D00030B585B000240094019402940394006804
:1020E0001449884223D11448816941F480518161A7
:1020F000816901F480510491816941F00401816199
:1021000080690E4D00F004000490A0200090022091
:1021100001900320039069462846FFF759F84020B4
:10212000CDE90004694628460294FFF751F805B04E
:1021300030BD0000003001400010024000080140A6
:102140002DE9F84F984616468A460446FFF736F9B9
:10215000814694F8510001281ED1BAF1000F73D0C6
:10216000002E71D094F85000012815D0012784F872
:102170005070032084F8510000256565C4F830A034
:10218000A686E686A563A587E58765642564A068BD
:10219000B0F5004F03D00CE00220BDE8F88F2068B6
:1021A000016821F0400101602068016841F480412C
:1021B000016020680168490603D4016841F04001CC
:1021C0000160E068B0F5006F606803D048B3012E8D
:1021D00027D047E008B1012E1FD1206B216800886D
:1021E000C86006E020688168890709D5216B0988E5
:1021F000C160206B801C2063E08E401EE0860CE0F6
:10220000FFF7DCF8A0EB0901414503D3B8F1FF3F2C
:1022100003D035E0B8F1000F32D0E08E0028E1D1D4
:1022200023E0206B21680078087306E0206881684D
:1022300089070AD5216B09780173206B401C206344
:10224000E08E401EE0860DE02BE0FFF7B7F8A0EB34
:102250000901414503D3B8F1FF3F03D010E0B8F1C5
:10226000000F0DD0E08E0028E0D14A4641462046BE
:1022700001F073FA08B120206065A06830B109E070
:1022800084F8517084F85050032086E72068C168B4
:102290008068009084F8517004F8505F60680028EE
:1022A000F3D0012079E710B5401EB0F1807F01D353
:1022B000012010BD4FF0E02460610F21601701F094
:1022C00011FF0020A06107202061002010BD10B583
:1022D00090F83C20012A22D0012280F83C20CA68D4
:1022E0008C6822F4407222434C6822F480622243BC
:1022F0000C6822F4006222430C6922F480522243CB
:102300004C6922F400522243C969002322F480421E
:102310000A4301684A6480F83C30002010BD022066
:1023200010BD000070B590F83C20012A26D0012491
:1023300080F83C40022280F83D2003685A689D687E
:1023400022F070060A6832435A600D4B02689A42C6
:1023500008D0B2F1804F05D00A4B9A4202D00A4B06
:102360009A4204D1496825F080031943916080F8AE
:102370003D40002180F83C10084670BD022070BD31
:10238000002C0140000400400008004010B504008B
:1023900003D094F83D0010B107E0012010BD0020EB
:1023A00084F83C00204600F01FF8022084F83D002D
:1023B000211D206801F0E4FA012084F8460084F829
:1023C0003E0084F83F0084F8400084F8410084F81F
:1023D000420084F8430084F8440084F8450084F8FF
:1023E0003D00002010BD000038B505460068184AC1
:1023F000184990421FD1886940F40060886188695B
:10240000164C00F4006000901348206010206060BB
:1024100000208021C4E90201490021618900C4E94A
:102420000510E0612046FEF73FFE08B1FEF717FBFE
:102430006C62656238BD0A4A9042FBD1C86940F0BF
:102440000200C861C86900F00200009038BD0000B9
:10245000002C0140001002401C00024068020020D5
:102460000004004090F83D10012901D00120704780
:10247000022180F83D1000680B49884208D0B0F175
:10248000804F05D00949884202D00949884204D1C9
:10249000816801F00701062903D0016841F00101BC
:1024A0000160002070470000002C01400004004043
:1024B0000008004001680A6A41F211131A4207D16C
:1024C0000A6A9B101A4203D10A6822F001020A60CC
:1024D000012180F83D100020704770B5044690F847
:1024E0003C000025012817D0012684F83C6002201A
:1024F00084F83D002068826822F0770222F47F424F
:1025000082600868502838D00DDC20284FD005DCC8
:1025100090B3102811D14AE0022070BD302846D077
:1025200040280AD13BE060282FD070280DD0B0F5AC
:10253000805F03D0B0F5005F12D0012584F83D60C4
:10254000002084F83C00284670BDCB68D1E9012109
:10255000206801F0D3FA2068816841F0770109E032
:10256000CB68D1E90121206801F0C8FA20688168B0
:1025700041F480418160E1E719E0CA684968206858
:1025800001F070FB5021206806E0CA6849682068A5
:1025900001F079FB6021206801F0BAFACEE7CA6841
:1025A0004968206801F05EFB40212068F4E722685A
:1025B00001461046F0E7704700B585B00021009154
:1025C00001910291039100680B49884212D10B4896
:1025D000816941F0040181618069694600F004006D
:1025E00004904FF480700090022001900390044802
:1025F000FEF7EEFD05B000BD002C014000100240CA
:102600000008014070B5044690F83C0000260D46D5
:1026100001280FD0012084F83C006AB1042A1DD0A3
:10262000082A2FD00C2A3FD00126002084F83C0035
:10263000304670BD022070BD206801F071FA20683C
:10264000816941F0080181612068816921F00401FC
:102650008161206881692A69114311E0206801F0D5
:1026600087FA2068816941F400618161206881698D
:1026700021F480618161206881692A6941EA02212F
:102680008161D2E7206801F09FFA2068C16941F0BA
:102690000801C1612068C16921F00401C16120689D
:1026A000C1692A69114311E0206801F0B9FA206874
:1026B000C16941F40061C1612068C16921F4806190
:1026C000C1612068C1692A6941EA0221C161ACE7A0
:1026D00010B5040003D094F83D0010B107E00120CC
:1026E00010BD002084F83C00204600F01EF80220B7
:1026F00084F83D00211D206801F042F9012084F892
:10270000460084F83E0084F83F0084F8400084F8D6
:10271000410084F8420084F8430084F8440084F8BF
:10272000450084F83D00002010BD70470649006850
:102730000968884207D10549002081F898000146C0
:10274000014800F0D1B87047D8010020540C002097
:10275000704700002DE9F04117460D0004464FF088
:1027600000060CD0042D11D0082D16D094F841008D
:10277000022819D094F84100012818D07CE094F880
:102780003E00022810D094F83E00F5E794F83F0090
:10279000022809D094F83F00EEE794F840000228A0
:1027A00002D094F84000E7E70220BDE8F081002F56
:1027B00062D0002B60D04649464ADFF81CC1022097
:1027C0004DB1042D18D0082D27D084F841000C2DD0
:1027D00044D0012679E084F83E00606A8162606A34
:1027E0003946C262606AC0F830C02268606A34321A
:1027F000FEF788FC88BB21E084F83F00A06A816274
:10280000A06A3946C262A06AC0F830C02268A06AD5
:102810003832FEF777FC00BB15E084F84000E06A30
:102820008162E06A3946C262E06AC0F830C022685C
:10283000E06A3C32FEF766FC78B909E02068C168BE
:1028400041F400711EE02068C16841F4806119E024
:102850002068C16841F4006114E00DE0206B8162E2
:10286000206B3946C262206BC0F830C02268206BF2
:102870004032FEF747FC08B1012096E72068C168A6
:1028800041F48051C16001222946206801F0B4F86A
:1028900012492068884203D1426C42F400424264EB
:1028A0002068884208D0B0F1804F05D00C4988429A
:1028B00002D00C49884204D1816801F00701062941
:1028C00003D0016841F00101016030466DE700006E
:1028D000133A0008713A0008A93A0008002C014098
:1028E000000400400008004070B50D0004464FF0A1
:1028F000000607D0042D0CD0082D11D00C2D16D0B9
:10290000012645E02068C16821F40071C160606A59
:1029100013E02068C16821F48061C160A06A0CE006
:102920002068C16821F40061C160E06A05E02068A8
:10293000C16821F48051C160206BFEF7BFFA00220C
:102940002946206801F058F8174B41F21111206810
:102950008A10984209D1036A0B4206D1036A1342D6
:1029600003D1436C23F4004343642068036A0B42A1
:1029700006D1016A114203D1016821F00101016011
:1029800001203DB1042D08D0082D09D084F8410064
:10299000304670BD84F83E00FAE784F83F00F7E760
:1029A00084F84000F4E70000002C014038B50446EC
:1029B00090F84200202801D0022038BD51B14AB120
:1029C0000120206300206063204601F005FB216B9D
:1029D000012901D0012038BD21680A6849680091A9
:1029E00021680C3151E8002F42F0100241E8002329
:1029F000002BF5D138BD000010B50A4A00681268F6
:102A000090420ED172B6402900D94021064840229A
:102A100000F8401F0121417003490248FFF7C6FF3B
:102A200062B610BDF4020020DC03002070470000F5
:102A3000F8B5016804460868CA684B6910F00F0FC2
:102A40004FF000055AD003F0010602F490773743A7
:102A500065D0C10705D0D10503D5616C41F00101F6
:102A60006164410705D5D90703D0616C41F00201CB
:102A70006164810705D5D90703D0616C41F0040179
:102A80006164010707D502F02001314303D0616C76
:102A900041F008016164616C00293BD0800604D5D7
:102AA000900602D5204601F0DAF920684069616C91
:102AB000C0F3801001F00801014320462BD001F043
:102AC00099F920684069400621D52068143050E803
:102AD000001F21F0400140E80012002AF5D1E06B10
:102AE000A8B16D494163E06BFEF7E8F9002811D009
:102AF000E06B416B01B0BDE8F040084783060ED59E
:102B000093060CD52046BDE8F84001F0A8B9204650
:102B1000FFF78CFFF8BDFFF789FF6564F8BD266BF2
:102B20002023012E7CD1C6067AD5D60678D5086832
:102B30004868009048694FF00206400640D5E16BB6
:102B4000086840680004000CE8D0A28D8242E5D9F4
:102B5000E085886920282DD020680C3050E8001FBF
:102B600021F4807140E80012002AF5D12168143167
:102B700051E8000F20F0010041E80002002AF5D1E1
:102B80002068143050E8001F21F0400140E8001296
:102B9000002AF5D184F84230256320680C3050E8D3
:102BA000001F21F0100140E80012002AF5D1E06B6F
:102BB000FEF761F96663A08DE18D401A81B22AE0CB
:102BC000A08DE18D401A81B2E08D0028A6D00029A9
:102BD000A4D022680C3252E8000F20F4907042E832
:102BE0000007002FF5D12068143050E8002F22F0A4
:102BF000010240E80027002FF5D184F84230256318
:102C000020680C3050E8002F22F0100240E800232A
:102C1000002BF5D166632046FFF7EEFEF8BDFFE717
:102C200005062BD5150629D594F841002128F5D1A4
:102C3000A068B0F5805F01D12069B0B1206A411C65
:102C40002162216800784860E08C401E0004000C7E
:102C5000E084E3D12068C16821F08001C160206870
:102C6000C16841F04001C160D8E7206A0088C0F324
:102C700008004860206A801C2062E5E74006CDD548
:102C80005006CBD5CA68204622F04002CA6084F8BC
:102C9000413000F047F9C1E7AB3C000870B50400D3
:102CA00004D094F84100002510B106E0012070BD69
:102CB00084F84050204600F023F8242084F8410096
:102CC0002068C16821F40051C160204601F028F954
:102CD0002068016921F4904101612068416921F077
:102CE0002A0141612068C16841F40051C1606564F6
:102CF000202084F8410084F842006563002070BD04
:102D0000F0B585B000240094019402940394064623
:102D1000434F0368434802210322434DBB4251D134
:102D2000836943F480438361836903F4804304939C
:102D3000836943F0040383618069039200F0040017
:102D400004900802CDE9000169462846FEF740FAE2
:102D50002815CDE90004694628460294FEF738FAA2
:102D6000334D32488027C5E90004C5E902472020D9
:102D70002C61C5E905400002E8612846FEF794F998
:102D800008B1FDF76CFEF5636E62294D27484435A6
:102D9000143801C5102091C5000245F810496C6136
:102DA000C5E9064022484430FEF77EF908B1FDF738
:102DB00056FEB5630022114625206E62FEF71AFE0C
:102DC000252028E01B4EB34227D1C36943F40033CA
:102DD000C361C36903F400330493836943F00403BC
:102DE00083618069039200F0040004900420CDE91F
:102DF000000169462846FEF7EBF90820CDE90004FA
:102E0000694628460294FEF7E3F90022114626207F
:102E1000FEF7F0FD2620FEF7DFFD05B0F0BD000057
:102E200000380140001002400008014058000240F4
:102E30003C0300200044004090F84230202B01D099
:102E40000220704721B11AB10023036301F00CB9CD
:102E50000120704710B512490068096888421DD1E9
:102E600072B610480178AA290ED1417855290BD1A4
:102E700001790D2908D18178C278491EC9B28A42E8
:102E800002D10121017301E001F01CFB62B60522B1
:102E9000BDE8104003490248FFF7CEBF10BD000057
:102EA000AC0200200C0000207047000070B5044602
:102EB00090F84100202801D0022070BD49B342B3F0
:102EC0002162A284E28400206064212384F84130DE
:102ED000A56B114BAB62A56B104BEB62A56B104B56
:102EE0002B63A36B5863256813462A1DA06BFEF75E
:102EF00009F921686FF0400008602068143050E83C
:102F0000001F41F0800140E80012002AF5D10020A6
:102F100070BD012070BD0000A93D0008EB3D000818
:102F2000BB3C000870477047FEE701684A69D2431E
:102F300052050FD46FF480624A61002140F8301FBF
:102F4000202242738173026942F00402026101731C
:102F500001207047002070472DE9F84F0446C06AF1
:102F60001E4693460D4621680A6842F480620A6054
:102F7000082807D0012805D010F5803F02D0206B2B
:102F8000112804D12068016841F4807101604FF07C
:102F900001195B46002249462046009600F0D8F809
:102FA0004FF4007840B120680068C00501D5C4F82E
:102FB00040800320BDE8F88F2069DFF884A0B0F5D9
:102FC000804F0FD00620216800EAD51747F0F000A7
:102FD000086133465A460AF10601204600F000F91E
:102FE00058BB03E0E8B240F001001CE02168E8B201
:102FF000086133465A465146204600F0F1F8E0B9E0
:103000002068416981690091016841F48071016023
:103010005B46002249462046009600F099F80028B9
:10302000C1D147F0F1002168086133465A46514644
:10303000204600F0D5F80028BCD00120BAE70000F7
:1030400002000100F8B50446C06A1E460D46174648
:10305000082807D0012805D010F5803F02D0206B4A
:10306000122804D12068016841F480710160134680
:1030700000224FF001112046009600F069F840B19F
:1030800020680068C00502D54FF40070206403205A
:10309000F8BD2069B0F5804F0ED00620216800EA07
:1030A000D51040F0F000086133463A460B492046FF
:1030B00000F096F878B902E005F0FE0000E0E8B212
:1030C00021680861054933463A46891F204600F0C9
:1030D00087F80028DCD00120F8BD000008000100BE
:1030E00038B538B132B12BB164240094FEF730FA10
:1030F000002800D0012038BD70B516460D460446A4
:103100001EE02046FFF711FF08B1012070BD681CCA
:1031100016D0FEF753F9801BA84200D885B9206865
:103120004069C04340070BD5002044F8300F2021F0
:103130006173A073216941F0200121612073E4E7EC
:1031400020684069C0434007DBD4002070BD000008
:103150002DE9F047984617460D460446C1F3074649
:10316000DDF820902AE000BFB8F1FF3F26D0FEF73F
:1031700025F9A0EB0901414502D8B8F1000F1DD196
:103180002068012E16D0806925EA00000004000C9A
:1031900012D00020B84211D1002044F8300F202175
:1031A0006173A073216941F0200121612073012026
:1031B000BDE8F0874069E7E70120EBE72068012ED2
:1031C0000AD0806925EA00000004000C06D0002027
:1031D000B842C9D00020EBE74069F3E70120F7E7E8
:1031E0002DE9F047984616460D4604464FF0000973
:1031F0004FF0200AC1F3074723E020684069C0432D
:10320000400515D42068016841F40071016021680F
:103210006FF480604861C4F8309084F83DA084F871
:103220003E90216C41F00401216484F83C9021E03F
:10323000701C06D0FEF7C2F8A0EB0800B04203D81D
:1032400016B1012F1FD021E02068012F15D0806911
:1032500025EA00000004000C18D000BF44F8309F9D
:1032600084F80DA084F80E90216941F020012161BD
:1032700084F80C900120BDE8F087406925EA000041
:103280000004000CEAD12068406901E020688069F0
:1032900025EA00000004000CAFD1ECE72DE9F04175
:1032A000002590460E460446202728E04069C0438A
:1032B000C0060CD454F8301B6FF01000486144F87D
:1032C00010596777A577206A2062257714E0FEF70A
:1032D00075F8A0EB0800B04200D886B920684069B4
:1032E000C04340060BD544F8305F6773A57320696F
:1032F00040F02000206125730120BDE8F0812068A6
:103300004169C9434906D1D40020F6E770B5164695
:103310000D4604461EE02046FFF707FE08B10120D7
:1033200070BD681C16D0FEF749F8801BA84200D873
:1033300085B920684069C04300060BD5002044F8D9
:10334000300F20216173A073216941F020012161B8
:103350002073E4E720684069C0430006DBD4002006
:1033600070BD38B538B132B12BB164240094FEF78A
:1033700017FA002800D0012038BD00003EB5002417
:1033800011480094019402940E4984600160047312
:103390000475012505614FF400214460C161FDF70A
:1033A000E3FB08B1FDF75BFB07200094CDE901507A
:1033B00069460548FDF756FB002801D0FDF74FFB95
:1033C0003EBD000000240140B8000020154808B5AB
:1033D000416941F0010141614069002200F00100B2
:1033E000009011460B20FEF705FB0B20FEF7F4FAC8
:1033F000002211460C20FEF7FDFA0C20FEF7ECFA35
:10340000002211460E20FEF7F5FA0E20FEF7E4FA30
:10341000002211460F20FEF7EDFABDE808400F200C
:10342000FEF7DABA001002402DE9F04186B0002420
:103430003B480094019402940394816941F0200177
:103440008161816901F020010491816941F00401E9
:103450008161816901F004010491816941F00801F1
:10346000816180692F4F00F0080004900022022142
:103470003846FDF79DFF012210213846FDF798FFE1
:10348000DFF8A48001224FF4A0514046FDF790FFE1
:1034900000224CF620114046FDF78AFF122001253C
:1034A0000226CDE90005CDE9024669463846FDF71A
:1034B0008FFE0B2000901D48CDE90105694640466E
:1034C000FDF786FE4DF62050CDE90005CDE9024618
:1034D00069464046FDF77CFE4FF40850CDE90004F4
:1034E000694640460294FDF773FE0022114606200D
:1034F000FEF780FA0620FEF76FFA00221146072039
:10350000FEF778FA0720FEF767FA00221146092035
:10351000FEF770FA0920FEF75FFA06B0BDE8F08109
:103520000010024000080140000C01400000211082
:103530000D4810B50B4901600C49416000214FF462
:1035400080428160C0E9031241618161C161016211
:10355000FDF73AFF002803D0BDE81040FDF77FBA21
:1035600010BD0000005400402C010020A086010086
:10357000104810B50E4901604FF48271416000217E
:103580008160C1604FF400720161C0E90512082238
:10359000C0E90721416281620A21C162FEF73EFD56
:1035A000002803D0BDE81040FDF759BA10BD000057
:1035B000003001408001002010B596B000240F9427
:1035C00010941194129413941C2108A81494FCF7DD
:1035D000D2FD20216846FCF7CEFD27482549C0E9E9
:1035E00000145921C0E90241046144618461FEF77D
:1035F000CDFE08B1FDF733FA4FF480500F900FA9BC
:103600001D48FEF76AFF08B1FDF729FA1A48FFF7CF
:103610005FF808B1FDF723FA139413A91648149420
:10362000FEF780FE08B1FDF71AFA6020CDE9080424
:103630000A940B940C940D94002208A90E480E9441
:10364000FEF7E0FF08B1FDF70AFA00944FF40050CE
:10365000CDE9044002940194039469460648079416
:10366000FEF735FE08B1FDF7FAF90348FEF7A4FFAF
:1036700016B010BD002C0140D801002000B587B065
:103680000021174800910191029103910491134A7E
:10369000059102604722C0E901216322C0E90321AC
:1036A0008161FEF773FE08B1FDF7D9F94FF4805040
:1036B000009069460A48FEF710FF08B1FDF7CFF900
:1036C000202004908020059004A90548FEF72AFEDA
:1036D000002801D0FDF7C3F907B000BD0004004089
:1036E000200200200C4810B50A4901604FF4165121
:1036F0004160002181600C22C160C0E90412816137
:10370000C161FFF7CBFA002803D0BDE81040FDF7F8
:10371000A6B910BD00380140AC0200200C4810B51D
:103720000A4901604FF416514160002181600C226A
:10373000C160C0E904128161C161FFF7AFFA0028DE
:1037400003D0BDE81040FDF78AB910BD0044004029
:10375000F4020020FEE7FEE77047F8B515460E4676
:103760000B46009204460122022100F011F840B9F4
:103770003346002280212046009500F009F80028F9
:1037800004D0606D40F0200060650320F8BD0000AB
:103790002DE9F8431E46914688460446089DFDF7EC
:1037A0000DFE401B351AFDF709FE07462548006847
:1037B000C0F3CB30684338E0701C37D0FDF7FEFD16
:1037C000C01BA84203D215B1009860B32CE020685A
:1037D000416821F0E00141606068B0F5827F0BD163
:1037E000A068B0F5004F02D0B0F5806F04D120681A
:1037F000016821F040010160A06AB0F5005F09D1C5
:103800002068016821F4005101602068016841F4DA
:1038100000510160012084F85100002084F850001C
:103820000320BDE8F8830025401E009020688168D1
:1038300038EA010004D000214945BDD10020F0E75D
:103840000121F9E70400002013B56423012201A936
:10385000FEF776FC1CBD20B119B112B16423FEF74E
:103860006FBC01207047704710B5FEF75DF800F09F
:1038700071FE00280CD007480188491C89B20180DC
:10388000C82905D300210180BDE8104000F076BEB4
:1038900010BD00000000002010B5194C217803294C
:1038A00007D0082817D2DFE800F0160A0E12171BFF
:1038B000202500280FD1BDE8104001F0D3BBBDE8A2
:1038C000104001F0BBBB01F06DFB002002E001F0F5
:1038D0003FFB0120207010BD01F07EFB0220F9E7C4
:1038E000601DBDE8104001F06FBA201DBDE810401A
:1038F00001F03CBA201DBDE8104001F023BA0000E1
:10390000C403002030B593B028216846FCF733FC8F
:1039100014210AA8FCF72FFC002501200F95109513
:103920001195010412958DE8230004904FF4E010E6
:10393000CDE90810022407946846FEF7DFF908B1C4
:1039400072B6FEE70AA90F2081E831004FF48060CB
:10395000CDE90D0502210AA8FEF7F4F808B172B608
:10396000FEE74FF4004011900F940FA8FEF774F893
:10397000002801D072B6FEE713B030BD70470000DA
:10398000F0B50268194B1A4C1A4D4FF08047984217
:1039900005D0B84203D0A04201D0A84203D122F002
:1039A00070064A683243984205D0B84203D0A0421C
:1039B00001D0A84203D122F44074CA6822434C6962
:1039C00022F08002224302608A68C2620A68826230
:1039D000984201D109690163012141610169C90767
:1039E00003D0016921F001010161F0BD002C01400B
:1039F000000400400008004010B501F01F03012141
:103A0000046A99408C430462016A9A40114301623E
:103A100010BD10B5446A0121626A824205D1217746
:103A20008069F8B984F83E101CE0A26A824206D18F
:103A3000022222778069A8B984F83F1012E0E26A76
:103A4000824206D104222277806958B984F8401056
:103A500008E0226B824205D108222277806908B9EA
:103A600084F841102046FEF761FE0020207710BD4B
:103A700010B5446A616A814201D101200DE0A16A5A
:103A8000814201D1022008E0E16A814201D1042093
:103A900003E0216B814201D1082020772046FEF708
:103AA00057FE0020207710BD10B5446A0121626ADC
:103AB000824203D1217784F83E1019E0A26A824243
:103AC00004D10220207784F83F1011E0E26A82429C
:103AD00004D10420207784F8401009E0226B824250
:103AE00004D10820207784F8411001E084F83D10CB
:103AF0002046FEF760FD0020207710BD10B58468D9
:103B000042EA032224F47F440A432243826010BD28
:103B1000826822F070020A4342F007018160704718
:103B200030B5036A026A22F00102026242688469C7
:103B300024F073050C682C4323F002058B682B439B
:103B40000A4DA8420BD123F00805CB6822F440723D
:103B50002B434D6923F0040315438A692A434260CD
:103B6000846149684163036230BD0000002C01405C
:103B700030B5026A036A23F0100303624368846964
:103B80000D6824F4E64444EA05248D6822F02002FE
:103B900042EA05120B4DA8420ED1CD6822F08002F8
:103BA00042EA05124D6923F4406343EA85038D69B7
:103BB00022F0400243EA85034360846149688163DF
:103BC000026230BD002C014030B5036A026A22F463
:103BD000807202624268C46923F4007324F07305A2
:103BE0000C682C438D6843EA05230C4DA8420ED186
:103BF000CD6823F4006343EA05234D6922F4405263
:103C000042EA05128D6923F4806342EA051242609C
:103C1000C4614968C163036230BD0000002C0140EB
:103C200030B5046A026A22F4805202624268C369B3
:103C30000D6823F4E64343EA05238D6824F4005419
:103C400044EA0534064DA84204D14D6922F480426D
:103C500042EA85124260C36149680164046230BD72
:103C6000002C014010B5036A046A24F001040462C8
:103C7000846924F0F00444EA021423F00A020A439F
:103C80008461026210BD10B5036A046A24F0100456
:103C90000462846923F0A00324F4704444EA0232ED
:103CA00043EA01118261016210BD10B5406A002132
:103CB000C185C184FEF7BAFE10BD70B5446A2068A4
:103CC000406994F84110C0F3C0100025212904D1A7
:103CD00018B1E584204600F0B4F82068406994F8F3
:103CE0004210C0F38010222904D118B1E585204686
:103CF00000F080F8606C40F0100060642046FEF731
:103D000095FE70BD10B50146406A096809684FF01C
:103D1000000289062ED4C28501680C3151E8003FAB
:103D200023F4807341E80034002CF5D1016814318C
:103D300051E8003F23F0010341E80034002CF5D1A5
:103D40000168143151E8003F23F0400341E800349A
:103D5000002CF5D1202180F84210016B012909D1F6
:103D600001680C3151E8003F23F0100341E80034B2
:103D7000002CF5D14263016B012902D0FFF76AF8EC
:103D800010BD818DFEF738FE10BD10B5406A0121CF
:103D90004163016B012902D0FFF786F810BD818DC8
:103DA0004908FEF729FE10BD10B50146406A0968B2
:103DB0000968890616D40021C1840168143151E8CC
:103DC000002F22F0800241E80023002BF5D101688A
:103DD0000C3151E8002F42F0400241E80023002B53
:103DE000F5D110BDFFF79EF810BD10B5406AFFF782
:103DF0009AF810BD01680C3151E8002F22F490723E
:103E000041E80023002BF5D10168143151E8002F5F
:103E100022F0010241E80023002BF5D1016B0129BA
:103E200009D101680C3151E8002F22F0100241E85D
:103E30000023002BF5D1202180F8421000210163DE
:103E4000704701680C3151E8002F22F0C00241E8B0
:103E50000023002BF5D1202180F84110704708B5D0
:103E600090F84210222901D0022008BD82684FF448
:103E700080539A4201D1016921B1816A9A421BD0D3
:103E80004AB10AE00268816A5268C2F308020A80F5
:103E9000816A891C08E0026972B10268526802F006
:103EA0007F020A70816A491C8162C18D491E090422
:103EB000090CC18503D01BE002685268F1E7016874
:103EC000CA6822F02002CA600168CA6822F48072BF
:103ED000CA6001684A6922F001024A61202180F823
:103EE000421000214163026B012A03D0FEF7B2FFAA
:103EF000002008BD016301680C3151E8002F22F059
:103F0000100241E80023002BF5D101680A68D206AF
:103F100002D50A6849680091818DFEF76DFDE7E7DB
:103F200070B5044600680169E26821F4405111430C
:103F300001612169A0680843616908432168CA6872
:103F400041F20C639A430243CA6020684169A26946
:103F500021F44071114341611E492068884202D119
:103F6000FDF796FE01E0FDF783FE00EBC00101EBDB
:103F70000012606864218000B2FBF0F3B3FBF1F340
:103F80006FF018067343B2FBF0F5B2FBF0F605EBE9
:103F90008305322303EB0515B5FBF1F5B6FBF1F60E
:103FA00005F0F00505EB0615B2FBF0F6B2FBF0F0FC
:103FB000B0FBF1F06FF01802504306EB800003EB0A
:103FC0000010B0FBF1F0216800F00F002844886079
:103FD00070BD00000038014038B58162044682851A
:103FE000002013466064222284F84220E56B1B4ABD
:103FF000AA62E56B1A4AEA62E56B1A4A2A63E26B27
:1040000050630A462168E06B091DFDF77BF82068C4
:10401000016840680090206948B120680C3050E881
:10402000001F41F4807140E80012002AF5D1206899
:10403000143050E8001F41F0010140E80012002A4E
:10404000F5D12068143050E8001F41F0400140E8ED
:104050000012002AF5D1002038BD0000053D0008FF
:104060008B3D0008BB3C000881628285C28500212F
:104070004164222180F84210016921B10168CA68B7
:1040800042F48072CA6001684A6942F001024A61E2
:104090000068C16841F02001C16000207047000045
:1040A0000148FEF7C5BC0000AC0200200148FEF745
:1040B000BFBC0000F4020020FEE700000FB4084B74
:1040C00010B504A902AA039800F0EEF8044602A96C
:1040D000002000F0C5F9204610BC5DF814FB00007C
:1040E000614400080907090E002804DB00F1E02004
:1040F00080F80014704700F00F0000F1E02080F815
:10410000141D70470121FCF71FB900210846FCF778
:10411000DDB800002DE9F04D0D4614464FF07F410B
:10412000B1EB440F9EBF4FF0FF312960BDE8F08D29
:104130004FF0004040EA0421C4F3C750783810F033
:104140001F024A4B4FEA601CC2F120067B44C4F3B5
:10415000C750A0F178004FEA601003EB800053F8DD
:104160002C3008BFD0E901C612D0D0F804C093406B
:104170002CFA06F73B4387680CFA02FC27FA06F88C
:10418000C06807FA02F2F0404CEA080C42EA000666
:10419000A3FB0132ACFB01C0A6FB016101EB0C06E5
:1041A0008E4234BF4FF0010C4FF0000CC118614437
:1041B000BCF1000F02D0814202D903E0814201D25A
:1041C000012000E00020104400F120024FEA921884
:1041D0008006CA0C40EA42304F03C5F80080FCF765
:1041E000CDFA82463846FCF72DF96FF01201FCF744
:1041F000ABF807463046FCF725F96FF02501FCF7D0
:10420000A3F8834639465046FBF7D6FF5946FBF7DD
:10421000D3FF00F500666FF30B0651463046FCF7FE
:104220001DF83946FCF71AF85946FCF71AF81049F8
:10423000FCF71AF807460F493046FCF715F83946DF
:10424000FBF7BAFF07460C493046FCF70DF8394634
:10425000FBF7B2FF14F0004F08BFBDE8F08DC8F1C6
:10426000805180F000402960BDE8F08D5C180000AE
:10427000DB0FC92F22AAFD290000C92F02E008C8C0
:10428000121F08C1002AFAD170477047002001E0D0
:1042900001C1121F002AFBD17047000001490860CC
:1042A00070470000B40000202DE9FF4F8BB09A4604
:1042B0000F460546002606E025280BD052460D99EC
:1042C00090476D1C761C28780028F5D10FB0304639
:1042D000BDE8F08F0024A0460122604900E00443BD
:1042E00015F8013F203B02FA03F00842F7D1287885
:1042F0002E2817D115F8010F44F004042A280ED0F7
:104300006FF02F022878A0F1300109290AD808EBB4
:10431000880102EB410100EB01086D1CF2E757F840
:10432000048B6D1C287869283ED006DC0028CDD08F
:1043300063280BD0642804D136E0732810D0752888
:104340004BD052460D999047761C85E017F8040B28
:104350008DF8000000208DF80100E946012003E0FF
:1043600057F8049B4FF0FF3061074FF0000401D471
:104370000AE0641C44450DDA8442FADB19F80410A3
:104380000029F6D106E0641C8442FCDB19F8041015
:104390000029F8D1264404E019F8010B52460D9982
:1043A0009047641EF8D257E001CF4FF00A0B002867
:1043B00002DA40422D2102E0210504D52B218DF89F
:1043C0002410012103E0E10705D02021F7E70DF1DA
:1043D000200908910CE00021F9E701CF4FF00A0B0A
:1043E000F9E75946FCF776F801F1300209F8012D9A
:1043F0000028F6D1ADEB090000F1200B600701D4D5
:104400004FF00108D84502DDA8EB0B0000E00020CA
:104410008046002406E009A85246005D0D999047A9
:10442000641C761C08988442F5DB04E03020524678
:104430000D999047761CB8F10001A8F10108F5DC50
:1044400005E019F8010B52460D999047761CBBF117
:104450000001ABF1010BF4DC6D1C34E7092801000D
:104460000A68531C0B6010707047000010B5FCF711
:10447000A5FF0A494FF000030A69541C06D0821AAE
:10448000B2F5FA6F02D20B73002010BD08610B73F6
:10449000887888720120C87210BD00000C000020CE
:1044A00010B50A210648FBF766FE0548082181720F
:1044B00000210173C1724A1E0261017510BD000026
:1044C0000C00002010B5064C207D401CC0B22075A9
:1044D000032803D300F01CF80020207510BD000055
:1044E0000C00002070B504000CD0084D0826287B75
:1044F00048B1FFF7BBFF30B100F046F8A87A207052
:104500000020E87270BD267070BD00000C00002015
:1045100010B50B4C002210212046FCF749FF7820F3
:10452000FCF728FE012210212046FCF741FF4FF442
:10453000FA70FCF71FFEBDE81040FFF7B1BF0000A6
:1045400000080140002220210148FCF731BF000093
:10455000000C01400148007870470000A7000020CF
:1045600004480178044809B1012200E0002220211A
:10457000FCF71EBFA7000020000C014001490020ED
:1045800008707047A700002001490120087070479B
:10459000A70000202DE9F843044602464F4869462B
:1045A000B0EB420F09D94FF0E640B0EB420F94BF99
:1045B00000204FF0FF30009030E0494B22F00040E7
:1045C000834271D947492046FBF74EFEFBF7DEFFD9
:1045D0008046FCF7A7F800F00300009042494046EF
:1045E000FBF742FE054641494046FBF73DFE0646C5
:1045F0003F494046FBF738FE07463E494046FBF739
:1046000033FE2146FBF72DFE3946FBF727FE3146E8
:10461000FBF724FE2946FBF721FE04462546009CB5
:10462000002C45DB294614F0010F08461CD0FBF78F
:104630001BFE06463049FBF717FE3049FBF711FE1B
:104640003146FBF711FE2E49FBF7B6FD3146FBF76D
:104650000BFE2946FBF708FE2946FBF7ADFD14F0DB
:10466000020F1CD0BDE8F883FBF7FEFD0546254987
:10467000FBF7FAFD2449FBF79FFD2946FBF7F4FD04
:104680002249FBF799FD2946FBF7EEFD4FF07E51DD
:10469000FBF792FD14F0020F08BFBDE8F88380F02D
:1046A0000040BDE8F883FFE71046FFF733FDB4E7AD
:1046B0006800B0F17F4F3CBF4FF07E50BDE8F883FB
:1046C00007D14FF00100FFF7E9FDBDE8F843FFF720
:1046D0001CBD2846BDE8F843FFF714BDB61F927E07
:1046E000490E494683F9223F1A61342C0020A23337
:1046F00000A0FD390000C93F336D4C39DA82083C17
:10470000A0AA2ABEB93AB2BACA9F2A3DDDFFFFBEAF
:1047100010B5FFF717FFBDE8104000F021B800000A
:1047200010B50E49002220B1012807D002280DD172
:1047300009E00878012809D10A700CE048780128BE
:1047400004D14A7005E08878012801D0002010BD0E
:104750008A70FFF719FF012010BD0000A40000209F
:1047600010B5074C00224FF400412046FCF720FE14
:1047700020460122BDE810409103FCF719BE00005D
:10478000000C0140084B4FF4004150B1012804D007
:104790004910022805D0032805D100221846FCF74D
:1047A00007BE0122FAE77047000C014020B119B1A1
:1047B0000A781AB1012A08D0012070470068084A17
:1047C00090420ADC0120087005E00068054A90422A
:1047D00003DB0020087000F05CB800207047000088
:1047E000000020410000704138B50C4605000AD099
:1047F0004CB12878032806D8002000900221684692
:1048000000F036F808B1012038BDBDF8000040BA0C
:10481000FBF718FE2A780949012A08D0FBF756FD54
:10482000206029462046FFF7C1FF002038BDFBF776
:104830004DFD4FF0FF31FBF787FDF1E79A99993F66
:10484000002000F03DB810B5012000F039F80A2032
:10485000FCF790FC022000F033F80A20FCF78AFCF9
:10486000102000F02DF8BDE810407820FCF782BC45
:104870000B46024646210148FEF732BC2C010020BF
:1048800010B5022000F01CF8BDE810400A20FCF72B
:1048900071BC10B530B1012806D0022806D003281B
:1048A00006D00AE0102004E0112002E0132000E00E
:1048B000202000F005F8002800D0012010BD0000E5
:1048C00001B501236A4646210148FEF74AFD08BDAD
:1048D0002C010020FDF730F8FFF714F8FEF7A4FDD7
:1048E000FEF774FDFEF724FEFEF742FEFEF7FAFE29
:1048F000FEF714FFFEF742FDFEF7C0FEFEF75CFE7A
:1049000000F094FB00F0AEFB00F0BEFBFCE7000003
:104910002DE9F0410027114D3E46002405EB8400AF
:10492000D0F800040146FBF79FFC3946FBF744FC36
:10493000641C0746FF2CF1DD761CF6B2032EECD387
:104940000749FBF7C3FC6FF00701FBF7FDFCC5F857
:104950002408012085F82808BDE8F0812004002003
:104960000000404010B54FF4806421460B48FBF72F
:1049700002FC21460A48FBF7FEFB20210948FBF711
:10498000FAFB0649002081F82008C1F8240881F8C4
:104990002808C1F82C08C1F8300810BD20040020F8
:1049A00020080020200C0020002803D00249D1F864
:1049B00030180160704700002004002001480068A2
:1049C00000F052F89855000810B50448FDF772FD44
:1049D000BDE810400248FCF723BA00002002002086
:1049E000B800002010B5FFF7BDFF0948FDF73AFDFC
:1049F0004FF4807207490848FCF78CF905490120FB
:104A000081F82008BDE810406420FCF7B3BB00002B
:104A10002002002020040020B800002010B500F083
:104A20000DF8054890F8280808B1FFF7C7FFBDE862
:104A30001040FFF76DBF00002004002070B5094D45
:104A4000002400BF55F82400A0F50060FBF7FAFC35
:104A500005EB8401641CA4B2C1F80004FF2CF1D959
:104A600070BD0000200400200821FBF76DFC0B49FD
:104A7000FBF72CFC4FF07C51FBF79EFBFBF7E7FCB0
:104A800080B2FBF7DFFC0649FBF7EEFB6FF0070196
:104A9000FBF75AFCFFF77EFDFEE7000000401C46D6
:104AA000DA0FC9402DE9F0411C4615000E460746B5
:104AB00010D0FBF7C7FC0F49D1F82C18FBF7D4FB3B
:104AC0000D49FBF703FCFBF7C2FCC0B22870B842EB
:104AD00002D92F70BDE8F081B04201D22E70F9E703
:104AE000A042F7D200EB4000A04200D804462C7050
:104AF000F0E700002004002000401C4610B5FFF73E
:104B000007FEBDE8104000F049B800002DE9F04173
:104B1000144C15492779A6682069FBF7D7FBFBF7EA
:104B2000AAFC00F0C7F90022104BFBF719FCFBF7B9
:104B3000B5FC054631464FF07E50FBF78FFB29460A
:104B4000FBF792FB05463846FBF77CFC3146FBF74A
:104B50008BFB2946FBF730FBFBF779FC2071BDE8A6
:104B6000F0810000C40300200000C84300806640BC
:104B70000020064A014600BF42F82010401C10F0F9
:104B8000FF00F9D082F8981070470000540C002004
:104B90000A2801D200F0BAB87047000010B5002210
:104BA0004FF480710448FCF703FCFFF7E1FFBDE818
:104BB000104000F04DB8000000080140F8B500209A
:104BC00000906846FFF7F0FE009810F0FF4F35D0D8
:104BD0001B49884202DC1B49C81C09E01A4988426B
:104BE00003DC1849891DC81C02E016490C31C81C99
:104BF0000D7802784B78521BD4B2427880788F7847
:104C0000D21A1249C01BC6B291F89A00D2B24443DC
:104C1000424303EB1222704305EB1424120607EB08
:104C20001020E4B2C3B2120A002042EA04221A435E
:104C300041F82020401C10F0FF00F9D0F8BD000022
:104C400000004843B85500080000FA44540C002006
:104C500002480021016000F021B80000540C00203F
:104C600010B50B460446FFF783FF19462046FFF7B1
:104C70008FFFBDE8104000F011B808B500208DF896
:104C800000004D236A461421FF20FFF70BFF684602
:104C900000F0D0F8FFF792FF08BD0000F0B4002349
:104CA00001243C26174A19461E27172052F821C016
:104CB00004FA00F51CEA050F02EB430501D0AE80B3
:104CC00000E0AF805B1C401E40B29BB20028EDDAD2
:104CD000491C11F0FF01E8D00020014602EB43051A
:104CE0005B1C401CA9809BB23228F7DB92F898002D
:104CF0000028FDD182F89840F0BC00210248121D26
:104D0000FDF728BD540C0020D801002070B50646E0
:104D100007480D46002400F8996F41702A46314635
:104D2000204600F065F8641C14F0FF04F6D070BD56
:104D3000540C00200146024890F89900FFF7E6BFA6
:104D4000540C002000280DD001782839C9B2017018
:104D5000142901D214210170C8B2034981F89A00C4
:104D6000FFF7E8BF70470000540C002000280DD06A
:104D700001782831C9B20170B42901D9B421017078
:104D8000C8B2034981F89A00FFF7D4BF704700000A
:104D9000540C002000280CD00178B42901D3142130
:104DA00000E028310170C8B2024981F89A00FFF78B
:104DB000C1BF7047540C0020024991F89A10FFF7C8
:104DC000A5BF0000540C002000280DD00178491C1C
:104DD000C9B201700A2901D300210170C8B2034988
:104DE00081F89900FFF7E8BF70470000540C0020DD
:104DF000002819D1142A01D2142202E0B42A00D9C1
:104E0000B42201EB41030949C85C0B445043597873
:104E10009B785143000A090A5343000440EA0120E9
:104E2000034940EA1320086070470000CA55000893
:104E3000540C00202DE9F04100282CD0174C0078AC
:104E4000174D94F89A70174EC11B11F0FF0F0ED03A
:104E5000FBF7F8FA01461448FBF706FA064638460F
:104E6000FBF7F0FA2946FBF7FFF931460DE0FBF7B7
:104E7000E9FA01460D48FBF7F7F905463846FBF716
:104E8000E1FA3146FBF7F0F92946FBF795F9FBF714
:104E9000DEFA84F89A00BDE8F0810000540C00208E
:104EA0009A99193F9A99593FCCCCCC3E9899193E82
:104EB000FFF7F4BE2DE9F04106460F46FBF7E1FB94
:104EC000041E0D4618BF0120284320F00040C0F109
:104ED0007F6000F1E040C00F0ED0301C18BF0120F1
:104EE000384320F00040C0F17F6000F1E040C00F87
:104EF00004BF0120FFF7D2F920462946BDE8F08122
:104F000010B50220FFF70CFC0F4C10B1601DFFF72D
:104F10005BFF0D491031081FFFF766FC58B10B4CC1
:104F20002078401CC0B22070052803D3FFF7A8FCEE
:104F30000020207010BDFFF7E9FD21796079BDE800
:104F40001040FFF725BE0000C40300200800002029
:104F500010B500F07DF9054801794079FFF780FE32
:104F6000FFF771FCBDE81040FFF72EBDC403002021
:104F700010B50120FFF7D4FB094C18B1201DFFF735
:104F800009FF07E00220FFF7CBFB002806D0601DD9
:104F9000FFF71AFFBDE81040FFF78ABF10BD000001
:104FA000C403002010B500F053F905480179407999
:104FB000FFF756FEFFF744FCBDE81040FFF704BDC5
:104FC000C403002010B5FFF729FDFFF756FEBDE82A
:104FD0001040FFF76DBF000010B500F039F905482B
:104FE00001794079FFF73CFEFFF72AFCBDE810404D
:104FF000FFF7F8BCC403002010B500F065F80A48BC
:10500000FBF7CCFC084C143C207D082806D104F1A9
:105010001500FFF767FA607D082803D0BDE810404F
:10502000FEF73ABC10BD0000D803002010B500F018
:105030000FF9BDE81040FFF761BD0000084910B549
:10504000032008700120FFF79DFBFFF701FE00F031
:10505000E5F9FFF7F5FBBDE81040FFF7B5BC000030
:10506000C403002010B50020FFF78CFB00F0F0F81F
:1050700004480021017001794079BDE81040FFF734
:10508000EFBD0000C403002010B5FFF7B5FFFFF728
:1050900067FA0C48007820B1012805D0022808D111
:1050A00005E0FFF765FF04E0FFF72AFF01E0FFF7E7
:1050B00089FFFFF7A1FF00F01DF8BDE810400A20AE
:1050C000FCF758B8C403002010B50020FFF728FBF8
:1050D00000280BD006480078032803D0BDE8104014
:1050E000FFF7ACBFBDE81040FFF7BCBF10BD00002C
:1050F000C403002038B51D4C2078032835D01C4D42
:105100002978884223D0002000F0B8F82078287051
:1051100000214FF6FF7520B1012806D0022808D0E3
:105120000EE02B4613A2009106E02B4615A200913B
:1051300002E02B4616A200910221084600F0E8F892
:105140000623F02219460220009500F013F920787A
:1051500038B1012805D0022807D1BDE8384000F059
:1051600063B8BDE8384000F01BB838BDC403002068
:10517000090000204D6F6465203A204D616E756115
:105180006C0000004D6F6465203A204175746F001B
:105190004D6F6465203A204D75736963000000000F
:1051A00070B5A8B06422164901A8FAF7CBFF154DD7
:1051B000642128794843B421B0FBF1F212A11AA866
:1051C000FEF77CFF00244FF6FF7633461AAA0A2129
:1051D0000220009400F09CF8687901A900EB80009F
:1051E00001EB40020DA122A8FEF768FF334622AA78
:1051F00014210220009400F08BF828B070BD00004C
:1052000034550008C40300204272696768746E65F3
:105210007373203A2025642525000000436F6C6FCE
:1052200072203A202573000008B5002000904FF648
:10523000FF7303A21421022000F06AF808BD0000E9
:10524000456E6A6F79204D75736963210000000017
:1052500000B587B018216846FAF78DFF1822054976
:105260006846FAF76FFF182269460348FAF76AFFA3
:1052700007B000BD1C550008C403002070B50646E9
:105280007F2300211A46084600F0D0F800240025AC
:10529000304600F015F96D1CADB2802DF8D3641CBA
:1052A000A4B2802CF3D370BD2DE9FF5F8B468046FE
:1052B000802829D2BBF1800F26D2A2F120005F28DE
:1052C00022D21248002500EB0210A0F5007A4FF020
:1052D000800900BF1AF8057000240BEB050600BF1B
:1052E00029FA04F03842314608EB040001D0039A51
:1052F00000E00E9A00F082F8641CE4B2082CEFD3B0
:105300006D1CEDB2102DE5D3BDE8FF9FE8550008F8
:105310002DE9F84399461746064605460C46DDF842
:1053200020801AE0A2F120005F2819D205F10800C0
:10533000802804D91034E4B23546802C10D80A2ACB
:1053400010D00D2A14D04B4621462846CDF80080B7
:10535000FFF7AAFF0835EDB27F1C3A78002AE1D1A9
:10536000BDE8F8831034E4B23546802CF8D8F3E772
:105370003546F1E72DE9FC5F0646901B00B29A46E0
:1053800090460D46002800DA404207B2AAEB05001D
:1053900000B2002800DA40420FFA80F94FF0FF30E7
:1053A000464501D2012100E001460191554500D258
:1053B00001208346A7EB090004B2C9F10000009068
:1053C000294630460C9A00F019F8464501D155455A
:1053D00012D06000009900B2884205DDA4EB0901FB
:1053E0000CB2019931448EB2B842E9DAE01904B244
:1053F00005EB0B0085B2E3E7BDE8FC9F10B5144652
:1054000080280AD2802908D20B46024600F00EF806
:105410002046BDE8104000F053B810BD00224FF404
:1054200080710148FBF7C4BF000C01402DE9F04139
:105430001C4615460E460746802820D2802E1ED2D6
:10544000802D1CD2802C1AD2AF4218D8A64216D872
:105450002A2000F017F8384600F032F8284600F00D
:105460002FF82B2000F00EF8304600F029F82046E7
:1054700000F026F8BDE8F0412C2000F003B8BDE8AC
:10548000F081000070B50C4D044600224FF400611D
:105490002846FBF78DFF2E15002231462846FBF7E4
:1054A00087FF21460548FEF7CFF931462846BDE87B
:1054B00070400122FBF77CBF000C014080010020FE
:1054C00038B5010A8DF800100C4C8DF8010001224E
:1054D000D1022046FBF76CFF251500222946204605
:1054E000FBF766FF022269460548FEF7B4F9012280
:1054F00029462046FBF75CFF38BD0000000C014048
:1055000080010020000000000000000001020304F0
:105510000607080900000000010203040300000060
:105520003C0000003333333F0000000000004842DD
:105530000000000052656400000000000000477297
:1055400065656E0000000000426C7565000000009B
:105550000000576869746500000000005761726DB3
:1055600057686974650059656C6C6F7700000000BE
:10557000507572706C65000000004379616E000028
:10558000000000004F72616E676500000000506906
:105590006E6B0000000000000000A04200001643F7
:1055A000000096430000164400007A440000FA44CC
:1055B00000C05A4500A08C45400000FFA5000080B7
:1055C00000FFFF0000008080008000FF00FF00005F
:1055D0000000FFFFFFFFFFDFBAFFFF0000FFFFFF3C
:1055E00000FF80FF003CFFB400000000000000004E
:1055F0000000000000000000000000000000183C57
:105600003C181800181800000000000066662424EA
:1056100000000000000000000000000024247E24A0
:1056200024247E242400000000000000083E2A2AD2
:105630003E081824241800000000000060640810D0
:1056400020504C0C00000000000000001028281022
:105650002A241A28443A000000000000000018180C
:1056600008100000000000000000000000000C18FE
:10567000303030180C00000000000000000030182E
:105680000C0C0C183000000000000000000000446A
:105690002810284400000000000000000000001056
:1056A000107C10100000000000000000000000004E
:1056B000000000181810200000000000000000008A
:1056C000007C00000000000000000000000000005E
:1056D0000000000018180000000000000020301832
:1056E0000C060602000000000000000000183C66E6
:1056F0006666663C1800000000000000000C1C0CF0
:105700000C0C0C1E0000000000000000003C6606AF
:105710000C18307E0000000000000000003C66060F
:105720001C06663C000000000000000000060E168B
:1057300026467E060000000000000000007E607C1F
:105740000606663C0000000000000000001C3060FF
:105750007C66663C0000000000000000007E660CD5
:10576000181818180000000000000000003C6666D1
:105770003C66663C0000000000000000003C6666DD
:105780003E060C3800000000000000000000001879
:1057900018000018180000000000000000000018A9
:1057A0001800001818102000000000000000060C6F
:1057B0001830180C06000000000000000000000077
:1057C0007E007E000000000000000000000060304D
:1057D000180C18306000000000000000003C660655
:1057E0000C1818001800000000000000003C666E55
:1057F0006A6E603C000000000000000000183C667B
:10580000667E66660000000000000000007C6666A0
:105810007C66667C0000000000000000003C6660C2
:105820006060663C000000000000000000786C66CC
:1058300066666C780000000000000000007E60607A
:105840007C60607E0000000000000000007E606060
:105850007C6060600000000000000000003C6660AA
:105860006E66663C00000000000000000066666690
:105870007E6666660000000000000000003C18180C
:105880001818183C0000000000000000001E0C0C5E
:105890000C0C6C38000000000000000000666C7802
:1058A00070786C660000000000000000006060601E
:1058B0006060607E00000000000000000063777FF1
:1058C0006B63636300000000000000000066767EEA
:1058D0007E6E66660000000000000000003C666608
:1058E0006666663C0000000000000000007C666602
:1058F0007C6060600000000000000000003C666604
:1059000066663C1E0000000000000000007C666629
:105910007C6C66660000000000000000003C6660D1
:105920003C06663C0000000000000000007E1818E5
:1059300018181818000000000000000000666666D5
:105940006666663C000000000000000000666666B7
:10595000663C3C1800000000000000000063636328
:105960006B7F776300000000000000000066663C6B
:10597000183C666600000000000000000066663CFF
:10598000181818180000000000000000007E060C27
:105990001830607E000000000102020304050607C3
:1059A00008090A0B0C0D0E0F10100000000000007B
:1059B0006E83F9A22915444ED15727FCC0DD34F57A
:1059C000999562DB4190433CAB6351FEEC59000872
:1059D00000000020B80000007C420008A45A000823
:1059E000B8000020381000008C42000800000000C1
:1059F00000127A000000000000000000000000001B
:105A000000000000FF000000000000000000000097
:105A1000706F7765726F6E0000000000000000007C
:105A2000706F7765726F666600000000000000000E
:105A30006D616E75616C6D6F646500000000000043
:105A40006175746F6D6F64650000000000000000F8
:105A50006D757369636D6F64650000000000000080
:105A60006368616E6765636F6C6F720000000000B1
:105A70006C696768746F6E00000000000000000031
:105A80006C696768746F66660000000000000000C3
:105A900000000000010000001000000000000000F5
:045AA0000000000002
:04000005080000ED02
:00000001FF
