:020000040800F2
:100000009805002001010008271800088515000840
:10001000251800086D0100086D1D00080000000093
:10002000000000000000000000000000511800085F
:100030006F0100080000000029180008531800088C
:100040001B0100081B0100081B0100081B01000820
:100050001B0100081B01000871010008770100085E
:100060001B0100087D0100081B0100081B0100089E
:100070001B0100081B0100081B0100081B010008F0
:100080001B0100081B0100081B0100081B010008E0
:100090001B0100081B0100081B0100081B010008D0
:1000A0001B0100081B0100081B0100081B010008C0
:1000B0001B0100081B0100081B0100081B010008B0
:1000C0001B0100081B0100081B0100081B010008A0
:1000D0001B0100081B010008611D00081B0100082E
:1000E0001B0100081B0100081B010008DFF80CD0F1
:1000F00000F02AF800480047AD1D000898050020D0
:100100000648804706480047FEE7FEE7FEE7FEE7B1
:10011000FEE7FEE7FEE7FEE7FEE7FEE7B5180008AC
:10012000ED000008D2B201E000F8012B491EFBD21D
:1001300070470022F6E710B513460A4604461946F2
:10014000FFF7F0FF204610BD064C074D06E0E068C3
:1001500040F0010394E8070098471034AC42F6D30E
:10016000FFF7C8FFF81D0008181E0008FEE77047DB
:10017000012000F087B8022000F084B8082000F0C9
:1001800081B872B6FEE710B590F82110002202295E
:1001900005D00421816380F82020012010BD016872
:1001A0000B6823F00E030B6001680B6823F001035A
:1001B0000B6090F84030C46B012101FA03F36360D7
:1001C00080F8211080F82020104610BD10B50024C2
:1001D00090F82110022903D00421816301243DE01D
:1001E00001680A6822F00E020A6001680A6822F0BB
:1001F00001020A601A4A0168914201D1012121E0FD
:10020000174A1432914201D110211BE0144A2832BE
:10021000914201D1891515E0114A3C32914201D138
:1002200089140FE00E4A5032914202D14FF48031CE
:1002300008E00B4A6432914202D14FF4801101E090
:100240004FF08071064A083A5160012180F8211070
:10025000002180F82010416B01B18847204610BD75
:10026000080002400121064A012805D0022805D0D5
:10027000082800D191707047117070475170704715
:100280001000002010B504490A68024202D008603C
:10029000FFF7E8FF10BD0000140401402DE9F84FFE
:1002A00000240023DFF8C4914FF00F08A9F1040BDC
:1002B00009F1040AABF1040ED1E00127A7403A404E
:1002C000BA4275D1DFF8A8C14D68A5EB0C066545AB
:1002D0002BD00DDC032D34D005DC35B3012D19D026
:1002E000022D2FD11BE0112D16D0122D2AD119E08D
:1002F000B6F5881F19D006DCB6F5803F15D0B6F5E7
:10030000801F1FD111E0B6F5001F0ED0B6F5041FF7
:1003100018D10AE0CB6815E0CB681B1D12E0CB6852
:1003200008330FE0CB680C330CE08B6823B1012B52
:1003300004D00823476105E0042303E00823076194
:1003400000E00023FF2A01D8054601E000F1040582
:1003500002D84FEA840603E0A4F108064FEA8606B5
:100360002F6808FA06FC27EA0C0703FA06F647EAA4
:1003700006072F604D68ED0070D53E4DAE6946F022
:100380000106AE61AD6905F0010500953A4D24F016
:1003900003067719BE68A5072D0F08FA05FC26EAA3
:1003A0000C06DFF8D8C0604503D14FF0000C17E011
:1003B00054E0DFF8CCC0604502D14FF0010C0FE0F3
:1003C000DFF8C0C0604502D14FF0020C08E0DFF852
:1003D000B8C0604502D14FF0030C01E04FF0040CAF
:1003E0000CFA05FC4CEA060CC7F808C04D68ED0293
:1003F00005D5D9F800501543C9F8005004E0D9F8E4
:1004000000509543C9F800504D68AD0205D5DAF8A3
:1004100000501543CAF8005004E0DAF80050954344
:10042000CAF800504D68AD0305D5DBF80050154300
:10043000CBF8005004E0DBF800509543CBF80050B7
:100440004D68ED0305D5DEF800501543CEF8005099
:1004500004E0DEF800509543CEF80050641C0A68B2
:1004600032FA04F57FF429AFBDE8F88F08040140A3
:10047000000011100010024000000140000801407F
:10048000000C01400010014000140140002A01D07E
:1004900001617047090401617047000001488068EC
:1004A000704700000000002070B50446002C04D006
:1004B00094F83D00002510B106E0012070BD84F8DD
:1004C0003C50204600F0BCF8242084F83D00206811
:1004D000016821F0010101602068016841F40041D8
:1004E00001602068016821F40041016000F020FAF9
:1004F0004F4B6168994203D84E49884203D304E0C8
:100500004D49884201D2012070BD4C49B0FBF1F148
:100510002268566826F03F060E43566062689A428B
:1005200001D8491C07E04FF4967251434FF47A7298
:10053000B1FBF2F1491C2268166A26F03F063143EE
:1005400011626168994210D84900401EB0FBF1F277
:10055000521CC2F30B02042A01D2042022E0B0FB99
:10056000F1F0401CC0F30B001CE0A268F2B301EBF9
:10057000C10303EB0116431EB3FBF6F35B1C43F40C
:1005800080431B0549D092B301EBC10202EB01117C
:10059000401EB0FBF1F0401CC0F30B0040F4804063
:1005A00040F400402168CA694CF6FF739A43104337
:1005B000C861D4E9071001432068026822F0C00234
:1005C00011430160D4E9030101432068826848F2C5
:1005D000FF339A4311438160D4E905100143206839
:1005E000C26822F0FF021143C16001E00EE016E094
:1005F0002068016841F0010101602564202084F831
:100600003D00256384F83E50002070BD01EB41069B
:10061000431EB3FBF6F35B1CB3E70120C2E701EB1B
:100620004101401EB0FBF1F0401CC0F30B00B7E7E6
:10063000A086010080841E0000093D0040420F009A
:1006400010B586B0002102910391049105910068D4
:100650000F4988421AD10F4CA06940F00800A061F0
:10066000A06900F008000190C020029012200390C1
:100670000320059002A90848FFF710FEE06940F446
:100680000010E061E06900F40010019006B010BDB8
:100690000054004000100240000C014002488168F4
:1006A00002781144816070470000002010B50748AF
:1006B000016841F010010160032000F077F80F207D
:1006C00000F006F800F026F8002010BD00200240DF
:1006D00070B504460D4D4FF47A712878B1FBF0F0F7
:1006E0000B490968B1FBF0F000F0BCFB08B1012038
:1006F00070BD102C07D200222146501E00F036F8A3
:100700006C60002070BD012070BD00000000002062
:100710000C00002008B50C48816941F0010181619D
:10072000816901F001010091C16941F08051C1610D
:10073000C06900F0805000900449486820F0E060F3
:1007400040F00070486008BD001002400000014009
:10075000002809DB00F01F020121914040098000C0
:1007600000F1E020C0F8001170470000F0B40D4621
:100770000D4B1B68C3F30223C3F10704042C00D9FB
:100780000424191D072901D2002300E0DB1E0126E5
:1007900006FA04F1491E294099409E40761E1640F3
:1007A0003143F0BC01F0E3BA0CED00E000F00701CA
:1007B000054A10684FF6FF03184040EA012003493C
:1007C00008431060704700000CED00E00000FA05DF
:1007D0002DE9F04704460D46002C17D0DFF8308194
:1007E000D8F8000000F00700A84211D2D8F80000A5
:1007F00020F007002843C8F80000D8F8000000F0F7
:100800000700A84204D00120BDE8F0870120FBE7E3
:100810002068404E810712D5400703D5706840F428
:10082000E06070602078000703D5706840F4605085
:1008300070607068A16820F0F00008437060207854
:10084000C0072CD06068012806D0022809D0316882
:1008500089070BD40120D7E73168890306D401202A
:10086000D2E73168890101D40120CDE7716821F018
:10087000030101437160FFF711FE074641F2883919
:1008800006E0FFF70BFEC01B484501D90320BBE77C
:100890007068616800F00C00B0EB810FF1D1D8F8FE
:1008A000000000F00700A8420ED9D8F8000020F0A0
:1008B00007002843C8F80000D8F8000000F007003F
:1008C000A84201D001209FE72078400705D5706835
:1008D000E16820F4E060084370602078000706D5E6
:1008E0007068216920F4605040EAC100706000F037
:1008F0003FF87168084AC1F30311515CC8400749C9
:10090000086007480068FFF7E3FE00207CE700006E
:100910000020024000100240E01D00080C000020F2
:100920000400002001480068704700000C0000200F
:1009300000B5FFF7F7FF04494968044AC1F30221F3
:10094000515CC84000BD000000100240F01D0008CE
:1009500000B5FFF7E7FF04494968044AC1F3C22123
:10096000515CC84000BD000000100240F01D0008AE
:100970000E4B59680E4801F00C02042A11D0082AC7
:100980000FD10C48C1F38342805CC9030AD5596872
:10099000084AC1F34041921E515C054A5043B0FBE6
:1009A000F1F07047044948437047000000100240CE
:1009B00000127A00D01D000800093D002DE9F84F13
:1009C0000446002C0ED02078D94DC0075ED0686850
:1009D000C0F3810001280BD06868C0F381000228B1
:1009E00003D00CE00120BDE8F88F6868C00306D58D
:1009F000286880034AD56068A8BB0120F3E76068D7
:100A0000B0F5803F11D0A8B1B0F5A02F1BD0286859
:100A100020F480302860286820F4802028606068F6
:100A200030B3FFF73BFD06461EE0286840F48030F7
:100A30002860F4E7286820F480302860286820F4D3
:100A400080202860EBE7286840F480202860286830
:100A500040F480302860E2E7FFF720FD801B642827
:100A600002D90320BFE711E028688003F4D50DE028
:100A7000FFF714FD064606E0FFF710FD801B642813
:100A800001D90320AFE728688003F5D42078DFF888
:100A9000A48280074FF0010A4FF0000945D568682D
:100AA00010F00C0F07D06868C0F38100022812D143
:100AB0006868C0030FD42868800704D5206901281E
:100AC00001D001208FE72868616920F0F80040EA32
:100AD000C100286029E02069B8B1C8F800A0FFF77C
:100AE000DDFC064606E0FFF7D9FC801B022801D991
:100AF000032078E728688007F5D52868616920F029
:100B0000F80040EAC10028600FE0C8F80090FFF745
:100B1000C5FC064606E0FFF7C1FC801B022801D990
:100B2000032060E728688007F5D42078000726D5E1
:100B30008148A16999B1C0F800A0FFF7AFFC064653
:100B400006E0FFF7ABFC801B022801D903204AE72F
:100B5000686A8007F5D5012000F068FE0FE0C0F854
:100B60000090FFF79BFC064606E0FFF797FC801B12
:100B7000022801D9032036E7686A8007F5D4207877
:100B8000400773D50026E869C00008D4E86940F042
:100B90008050E861E86900F0805000900126DFF89D
:100BA0009CB1DBF80000C00514D4DBF8000040F471
:100BB0008070CBF80000FFF771FC074606E0FFF7F6
:100BC0006DFCC01B642801D903200CE7DBF8000092
:100BD000C005F4D5E068012812D0B0B105281DD0B9
:100BE000286A20F001002862286A20F004002862A8
:100BF000E06841F2883B28B3FFF750FC07461DE050
:100C0000286A40F001002862F2E7286A20F001001B
:100C10002862286A20F004002862E9E7286A40F088
:100C200004002862286A40F001002862E0E7FFF72C
:100C300035FCC01B584501D90320D4E6286A80073B
:100C4000F5D50DE0FFF72AFC074606E0FFF726FC86
:100C5000C01B584501D90320C5E6286A8007F5D492
:100C6000012E03D1E86920F08050E861E069A0B36B
:100C70006968C1F38101022946D0022805D0C8F86D
:100C80006090FFF70BFC04463AE0C8F86090FFF76D
:100C900005FC064606E0FFF701FC801B022801D98F
:100CA0000320A0E628688001F5D4206AB0F5803FD3
:100CB00005D16868A16820F4003008436860D4E971
:100CC00008010843696821F4741108436860C8F892
:100CD00060A0FFF7E3FB044607E026E0FFF7DEFB3A
:100CE000001B022801D903207DE628688001F5D584
:100CF0001BE0FFF7D3FB001B022801D9032072E69B
:100D000028688001F5D410E001280CD06868226AB8
:100D100000F48031914204D1616A00F4701088427D
:100D200003D001205FE601205DE600205BE60000C5
:100D30000010024000004242800442420070004025
:100D400070B50446002C09D0606A002540B12561C9
:100D50006561A56294F8510040B10CE0012070BDBE
:100D60006068B0F5827FF4D0E561F2E784F8505016
:100D7000204600F03FF8022084F851002068016806
:100D800021F040010160A088218900F4827001F403
:100D900004410843A18901F400610843217C01F06A
:100DA00002010843217D01F001010843218B01F478
:100DB00000710843217F01F03801084394F82010A6
:100DC00001F080010843218D01F40051084321689E
:100DD0000860A069042101EA104021684860206889
:100DE000C16921F40061C1616565012084F8510089
:100DF000002070BD30B585B00024019402940394A6
:100E0000049400681449884223D11448816941F44C
:100E100080518161816901F480510091816941F0C3
:100E200004018161806900F004000090A02001901D
:100E30000220029003200490094D01A92846FFF7E3
:100E40002DFA402101910294039401A92846FFF74D
:100E500025FA05B030BD000000300140001002400E
:100E60000008014010B5401EB0F1807F01D3012081
:100E700010BD4FF0E02460610F21601700F077FF94
:100E80000020A06107202061002010BD10B590F85F
:100E90003C20012A22D0012280F83C20CA6800238D
:100EA0008C6822F4407222434C6822F48062224310
:100EB0000C6822F4006222430C6922F4805222431F
:100EC0004C6922F400522243C96922F480420A4349
:100ED00001684A6480F83C30002010BD022010BD3B
:100EE00070B590F83C20012A25D0012680F83C609E
:100EF000022280F83D2002685468936824F070054F
:100F00000C682C4354600D4C0268A24208D0B2F128
:100F1000804F05D00A4CA24202D00A4CA24204D112
:100F200023F080034968194391603C3046700021EA
:100F30000170002070BD022070BD0000002C014037
:100F4000000400400008004010B50446002C03D007
:100F500094F83D0010B107E0012010BD002084F896
:100F60003C00204600F016F8022084F83D00211DC8
:100F7000206800F0A1FC01203D3460726070A07018
:100F8000E07020716071A071E0712072207000200B
:100F900010BD000008B500680649884208D106481F
:100FA000816941F400618161806900F40060009012
:100FB00008BD0000002C01400010024070B504463E
:100FC000002594F83C00012817D0012684F83C60E5
:100FD000022084F83D002068826822F0770222F423
:100FE0007F4282600868502838D00DDC202853D01A
:100FF00005DC90B3102811D14EE0022070BD3028DE
:101000004AD040280AD13DE0602831D070280CD069
:10101000B0F5805F03D0B0F5005F12D001253C34FD
:10102000667000202070284670BDCB68D1E9012190
:10103000206800F07DFC2068816841F077018160C4
:10104000EDE7CB68D1E90121206800F071FC206850
:10105000816841F480418160E1E71DE0CA68496828
:10106000206800F02DFD5021206800F06BFCD6E7D1
:10107000CA684968206800F034FD6021206800F0EB
:1010800061FCCCE7CA684968206800F019FD40217E
:10109000206800F057FCC2E722680146104600F0C5
:1010A00051FCBCE700B585B000210191029103918C
:1010B000049100680C49884213D10C48816941F0C1
:1010C00004018161806900F0040000904FF4807099
:1010D0000190022002900320049001A90448FFF728
:1010E000DDF805B000BD0000002C014000100240FA
:1010F0000008014070B504460D46002694F83C00F7
:1011000001280FD0012084F83C006AB1042A1FD0C6
:10111000082A32D00C2A44D00126002084F83C0052
:10112000304670BD022070BD2946206800F012FCD8
:101130002068816941F0080181612068816921F09E
:1011400004018161206881692A6911438161E4E7B2
:101150002946206800F02EFC2068816941F4006176
:1011600081612068816921F48061816120688169E1
:101170002A6941EA02218161CFE72946206800F00F
:101180004BFC2068C16941F00801C1612068C16958
:1011900021F00401C1612068C1692A691143C1615C
:1011A000BBE72946206800F067FC2068C16941F46C
:1011B0000061C1612068C16921F48061C16120685A
:1011C000C1692A6941EA0221C161A6E710B5044656
:1011D000002C03D094F83D0010B107E0012010BDB1
:1011E000002084F83C00204600F015F8022084F826
:1011F0003D00211D206800F05FFB01203D3460723E
:101200006070A070E07020716071A071E071207258
:101210002070002010BD704770477047F8B5044635
:1012200022681068D168536900F00F06002E08D1BB
:10123000850606D58D0604D52046BDE8F84000F0A9
:101240009EBC0025002E67D003F0010601F49077C4
:10125000374361D0C20705D0CA0503D5626C42F09E
:1012600001026264420705D5DA0703D0626C42F0DE
:1012700002026264820705D5DA0703D0626C42F08D
:1012800004026264020707D501F02002324303D052
:10129000626C42F008026264626C002A32D08006FE
:1012A00004D5880602D5204600F069FC2068406914
:1012B000C0F38010616C01F00801014327D0204683
:1012C00000F029FC2068406940061CD520681430D5
:1012D00050E8001F21F0400140E80012002AF5D13B
:1012E000E06B60B158494163E06BFEF76FFF002887
:1012F00008D0E06B416B01B0BDE8F04008472046E4
:10130000FFF78BFFF8BD2046FFF787FFF8BD2046AB
:10131000FFF783FF6564F8BD236B012B7ED1C30605
:101320007CD5CB067ED510685068009050694FF090
:10133000200340064FF0020643D5E16B0868406881
:1013400080B20028E7D0A28D8242E4D9E085886986
:1013500020282DD020680C3050E8001F21F4807127
:1013600040E80012002AF5D12068143050E8001F30
:1013700021F0010140E80012002AF5D12068143064
:1013800050E8001F21F0400140E80012002AF5D18A
:1013900084F84230256320680C3050E8001F21F0AB
:1013A000100140E80012002AF5D1E06BFEF7EBFED9
:1013B0006663A08DE18D401A81B22046FFF72CFFB5
:1013C000F8BDA08DE18D401A81B2E08D0028F7D0E4
:1013D0000029F5D020680C3050E8002F22F49072DC
:1013E00040E80027002FF5D12068143050E8002F86
:1013F00022F0010240E80027002FF5D184F84230A6
:10140000256320680C3050E8002F22F0100240E8DD
:101410000023002BF5D16663204600E002E0FFF7D1
:10142000FBFEF8BD020606D50A0604D52046BDE837
:10143000F84000F065BC4006F3D54806F1D52046DB
:10144000BDE8F84000F08EBB071B000870B50446ED
:10145000002C04D094F84100002510B106E00120D2
:1014600070BD84F84050204600F024F8242084F811
:1014700041002068C16821F40051C160204600F09D
:10148000E3FB2068016921F4904101612068416912
:1014900021F02A0141612068C16841F40051C16016
:1014A0006564202084F8410084F8420065630020D0
:1014B00070BD000070B586B00024029403940494BB
:1014C00005942B4E02682B49022003232A4DB24279
:1014D00021D18A6942F480428A618A6902F4804299
:1014E00001928A6942F004028A61896901F004016B
:1014F0000191010202910390059302A92846FEF78B
:10150000CDFE291502910394049402A92846FEF702
:10151000C5FE06B070BD194EB242FAD1CA6942F496
:101520000032CA61CA6902F4003201928A6942F04B
:1015300004028A61896901F0040101910421029188
:101540000390059302A92846FEF7A8FE0821029100
:101550000394049402A92846FEF7A0FE0022114637
:101560002620FFF703F92620FFF7F2F8D1E7000065
:1015700000380140001002400008014000440040D3
:1015800070477047FEE70000F0B585B00024019475
:101590000294039404942F48816941F020018161F1
:1015A000816901F020010091816941F004018161AC
:1015B000816901F004010091816941F008018161B4
:1015C000806900F008000090234F4DF6205600225D
:1015D00031463846FEF75AFF122001900294012549
:1015E000039501A91D48FEF759FE0B2001901C48E8
:1015F0000290039501A93846FEF750FE0196029528
:1016000003940220049001A93846FEF747FE6802C1
:1016100001900294039501A93846FEF73FFE00228F
:1016200011460620FFF7A2F80620FFF791F80022E6
:1016300011460720FFF79AF80720FFF789F80022E4
:1016400011460920FFF792F80920FFF781F805B04D
:10165000F0BD000000100240000C014000080140F5
:101660000000211010B50D480B4901600C49416084
:1016700000218160C1604FF480420261416181615B
:10168000C1610162FEF710FF002803D0BDE81040E1
:10169000FEF777BD10BD000000540040140000208C
:1016A000A086010010B510480E4901604FF4827108
:1016B000416000218160C160016141614FF40072AD
:1016C00082613022C2610162416281620A21C1628B
:1016D000FFF736FB002803D0BDE81040FEF751BDF0
:1016E00010BD0000003001406800002010B596B029
:1016F00000241294139414941594109411941C21A2
:1017000009A8FEF716FD202101A8FEF712FD2848C2
:10171000264901604721416084604FF6FF71C16036
:10172000046144618461FFF70FFC08B1FEF729FDF5
:101730004FF48050129012A91D48FFF73FFC08B1EA
:10174000FEF71FFD1A48FFF741FD08B1FEF719FD2E
:101750001094119410A91648FFF7C2FB08B1FEF7C8
:1017600010FD602009900A940B940C940D940E9433
:101770000F94002209A90E48FFF7BCFC08B1FEF740
:1017800000FD019402940394049405944FF40050D6
:101790000690089401A90648FFF778FB08B1FEF708
:1017A000F0FC0348FFF77EFC16B010BD002C014092
:1017B000C000002010B50C480A4901604FF4E13127
:1017C000416000218160C16001610C224261816140
:1017D000C161FFF73BFE002803D0BDE81040FEF7D3
:1017E000D0BC10BD003801400801002010B50C48E5
:1017F0000A4901604FF4E131416000218160C1601C
:1018000001610C2242618161C161FFF71FFE002866
:1018100003D0BDE81040FEF7B4BC10BD004400404A
:1018200050010020FEE7FEE77047000008B50749B9
:101830004FF4FA520968B1FBF2F14143009100BF45
:101840000098411E0091FAD208BD00000C00002053
:101850007047FEF723BF30B58FB0282105A8FEF7EB
:1018600068FC14216846FEF764FC01210591080418
:10187000069000240794099102250C950D904FF4D1
:10188000E0100E9005A8FFF799F808B1FEF779FC73
:101890000F200090019502944FF48060039004940F
:1018A00002216846FEF794FF002801D0FEF769FC8C
:1018B0000FB030BD70470000F0B50268194C1A4DEA
:1018C0001A4E4FF08047A04205D0B84203D0A8423C
:1018D00001D0B04203D122F070034A681A43A042FB
:1018E00005D0B84203D0A84201D0B04203D122F4BF
:1018F0004073CA681A434B6922F080021A4302609F
:101900008A68C2620A688262A04201D109690163E1
:10191000012141610169C90703D0016921F0010179
:101920000161F0BD002C01400004004000080040AF
:1019300010B5846824F47F4442EA03220A43224318
:10194000826010BD826822F070020A4342F00701F3
:101950008160704730B5026A036A23F001030362B5
:101960004368846924F0700424F003050C682C4358
:1019700022F002058A682A430D4DA84206D122F0C2
:101980000802CD6845EA020525F0040209D123F4D6
:10199000807323F400734D6945EA03058B6943EABC
:1019A00005034360846149684163026230BD000001
:1019B000002C014030B5036A026A22F01002026274
:1019C0004268846924F4E04424F440740D6844EAD5
:1019D000052423F020038D6843EA05130D4DA8422A
:1019E00006D123F08003CD6843EA051323F04003BA
:1019F00009D122F4806222F400624D6942EA850234
:101A00008D6942EA850242608461496881630362AC
:101A100030BD0000002C014030B5026A036A23F497
:101A2000807303624368C46924F0700424F00305E2
:101A30000C682C4322F400728D6842EA05220D4D99
:101A4000A84206D122F40062CD6842EA052222F4BF
:101A5000806209D123F4805323F400534D6943EA93
:101A600005138D6943EA05134360C4614968C16386
:101A7000026230BD002C014030B5036A026A22F4D4
:101A8000805202624268C46924F4E04424F4407441
:101A90000D6844EA052423F400538D6843EA0533B6
:101AA000064DA84204D122F480424D6942EA8512D3
:101AB0004260C46149680164036230BD002C01408A
:101AC00010B5036A046A24F001040462846924F0F6
:101AD000F00444EA021423F00A020A438461026219
:101AE00010BD10B5036A046A24F01004046284690E
:101AF00024F4704444EA023223F0A00343EA0111C3
:101B00008261016210BD10B5406A0021C185C184A7
:101B1000FFF783FB10BD01680C3151E8002F22F460
:101B2000907241E80023002BF5D10168143151E88F
:101B3000002F22F0010241E80023002BF5D1016BB8
:101B4000012909D101680C3151E8002F22F010025F
:101B500041E80023002BF5D1202180F8421000211C
:101B60000163704710B50168CA6822F04002CA607C
:101B7000202180F84110FFF704FD002010BD08B5BA
:101B800090F84210222901D0022008BD82684FF44B
:101B900080539A4201D1016921B1816A9A421DD0D4
:101BA00052B10BE0816A02685268C2F308020A80EF
:101BB000816A891C816209E002697AB1026852680F
:101BC00002F07F020A70816A491C8162C18D491E40
:101BD0000904090CC18505D0002008BD02685268BF
:101BE0000A70F0E70168CA6822F02002CA60016842
:101BF000CA6822F48072CA6001684A6922F0010250
:101C00004A61202180F8421000214163026B012AC1
:101C100003D0FFF7B5FC002008BD016301680C315B
:101C200051E8002F22F0100241E80023002BF5D1EB
:101C300001680A68D20602D50A6849680091818D58
:101C4000FFF7EAFAE7E7000070B50446206801698B
:101C5000E26821F4405111430161A1682069014308
:101C6000606901432068C26841F20C639A430A43E9
:101C7000C26020684169A26921F440711143416149
:101C80001E492068884202D1FEF762FE01E0FEF79D
:101C90004FFE00EBC00101EB001061686422890077
:101CA000B0FBF1F3B3FBF2F36FF018067343B0FB34
:101CB000F1F5B0FBF1F605EB8305322303EB0515D7
:101CC000B5FBF2F5B6FBF2F605F0F00505EB0615EF
:101CD000B0FBF1F6B0FBF1F0B0FBF2F06FF01801E1
:101CE000484306EB800003EB0010B0FBF2F02168E4
:101CF00000F00F002844886070BD000000380140EB
:101D000090F84110212901D0022070478168B1F577
:101D1000805F01D1016961B1016A4A1C02620268F7
:101D200009785160C18C491E0904090CC1840AD08C
:101D300013E0016A02680988C1F308015160016A71
:101D4000891C0162EEE70168CA6822F08002CA605D
:101D50000068C16841F04001C16000207047000088
:101D60000148FFF75BBA000050010020FEE70907B9
:101D7000090E002804DB00F1E02080F80014704711
:101D800000F00F0000F1E02080F8141D704702E021
:101D900008C8121F08C1002AFAD1704770470020F6
:101DA00001E001C1121F002AFBD17047FEF77EFC43
:101DB000FFF751FDFFF7E8FBFFF754FCFFF772FC5C
:101DC000FFF794FCFFF7F6FCFFF710FDFEE70102BA
:101DD00002030405060708090A0B0C0D0E0F10106C
:101DE00000000000000000000102030406070809CB
:101DF0000000000001020304181E0008000000207B
:101E0000140000008E1D00082C1E00081400002085
:101E1000840500009E1D0008010000001000000065
:0C1E20000000000000127A00000000002A
:04000005080000ED02
:00000001FF
