:020000040800F2
:10000000401000200101000847360008692E000852
:1000100045360008850B0008F93D00080000000087
:100020000000000000000000000000009137000800
:10003000D90B00080000000049360008933700087B
:100040001B0100081B0100081B0100081B01000820
:100050001B0100081B010008DB0B0008E10B000876
:100060001B010008E70B00081B010008890B0008B2
:100070001B0100081B010008950B0008A10B0008DC
:100080001B0100081B0100081B0100081B010008E0
:100090001B0100081B0100081B0100081B010008D0
:1000A0001B0100081B0100081B0100081B010008C0
:1000B0001B0100081B0100081B0100081B010008B0
:1000C0001B0100081B0100081B0100081B010008A0
:1000D0001B010008E13D0008ED3D00081B01000880
:1000E0001B0100081B0100081B010008DFF80CD0F1
:1000F00000F032FB004800479D46000840100020F9
:100100000648804706480047FEE7FEE7FEE7FEE7B1
:10011000FEE7FEE7FEE7FEE7FEE7FEE783380008BE
:10012000ED000008202A04DB203A21FA02F0002129
:10013000704721FA02F3D040C2F1200291400843F7
:100140001946704740EA01039B0703D009E008C93C
:10015000121F08C0042AFAD203E011F8013B00F88C
:10016000013B521EF9D27047D2B201E000F8012BD8
:10017000491EFBD270470022F6E710B513460A4627
:1001800004461946FFF7F0FF204610BD421C10F848
:10019000011B0029FBD1801A704730B505460020AD
:1001A000034600E05B1C934205D2EC5CC85C201A5D
:1001B00001D1002CF6D130BDF0B480EA0102D40F99
:1001C0004200B2EB410F02D20246084611464A00F5
:1001D00042D0C30DDDB2C1F3C752AD1A202D35DABE
:1001E000C1F3160141F4000204B15242C5F12006E8
:1001F00002FA06F12A411044B3EBD05F23D0C4B118
:10020000012DA0EBC35009DCF0BC4FF0004202EA24
:10021000C352DBB200F5000000F08AB9400000F1E3
:10022000807000EBC350A0F1807040EAD1704900AB
:1002300009E0490841EAC071A0EBC35000F5000095
:10024000400800EBC350F0BC00F069B961420122E4
:1002500002EB4101001BF6E7F0BC704781F0004162
:10026000AAE780F00040A7E780EA010210B502F09B
:100270000043400022D04A001FD0010E01EB126162
:10028000C0F35600C2F3560240F4000042F40002EC
:10029000A0FB022000047F39140400D0401C50EA67
:1002A000124001D44000491EC2B20C0604EBD0102B
:1002B000401C4008802A02D003E0002010BD20F03E
:1002C0000100002900DA0020184310BD30B480EA94
:1002D000010202F0004530F0004221F0004013D04E
:1002E00090B1C30DD40DC2F31601C0F31600E41A89
:1002F00041F4000140F400027D34914201D3641CBA
:1003000000E04900002C02DA30BC002070474FF4B6
:1003100000000023914201D3891A034340084FEAA9
:100320004101F7D151B1914202D14FF0004105E0B6
:1003300002D24FF0010101E06FF0010103EBC45064
:10034000284430BC00F0EBB8420005D0C0F3C752DF
:100350005242914201DC0020704700EBC1507047CF
:100360002DE9FE4F81EA030404F0004421F000412E
:1003700000944FF0000B23F0004350EA01045ED0DC
:1003800052EA03045BD0C3F30A54C1F30A552C4468
:10039000A4F2F3340194A0FB0254C1F3130141F41D
:1003A0008011C3F3130343F4801301FB024400FBE9
:1003B000034E840A970A44EA815447EA8357A4FB10
:1003C000076802958D0A05FB07854FEA932C04FB0D
:1003D0000C542705029D4FEA065847EA1637B5EB3D
:1003E00008056EEB070C870E920E47EA811742EA6A
:1003F0008312A7FB0201B6EB0B0164EB00042B0D8B
:1004000043EA0C335E1844EB1C50DA465146E7FBD6
:100410000201C5F313044FEA0B3343EA14534FEAC6
:100420000432019C43EA0603A4F10C040294009CEC
:10043000CDE900B400F0D7F803B0BDE8F08F00209C
:100440000146F9E796230022114600F071B820F02A
:100450000040C10DC0F3160040F400007F2901DA0E
:1004600000207047962903DCC1F19601C84070470F
:1004700096398840704700F0004230F000400AD0C2
:10048000C10D01F56071C0F3160042EA0151C208C6
:1004900040071143704700200146704701F00043B8
:1004A00030B421F0004150EA010206D00A0DA2F555
:1004B0006072C1F31301002A02DC30BC00207047D7
:1004C000440F44EAC104C100E01830BC00EBC25044
:1004D00000F025B830B50B4601460020202201244B
:1004E00009E021FA02F59D4205D303FA02F5491B02
:1004F00004FA02F52844151EA2F10102F1DC30BD18
:10050000202A04DB203A00FA02F1002070479140D3
:10051000C2F1200320FA03F31943904070470029E9
:10052000A8BF7047401C490008BF20F00100704779
:1005300010B4B0FA80FC00FA0CF050EA010404BFD9
:1005400010BC704749B1CCF1200421FA04F411FA2F
:100550000CF118BF012121430843A3EB0C01CB1D73
:100560004FEA00614FEA102042BF002010BC7047E4
:1005700000EBC35010440029A4BF10BC7047401CBE
:10058000490008BF20F0010010BC704710B54100C1
:100590000CD0C0F3C751962908DC7E2909DC06DBA4
:1005A000410204D000F0004040F07E5010BD002019
:1005B00010BDC1F19604C4F1200100FA01F1E04040
:1005C000FFF7ADFFA04010BD10B5141E73F100047D
:1005D00008DA401C41F1000192185B411A4301D135
:1005E00020F0010010BD2DE9F04D92469B4611B15F
:1005F000B1FA81F202E0B0FA80F220329046FFF7C1
:100600007FFF04460F4640EA0A0041EA0B015346C9
:100610005A46084313D0114653EA010019D0C8F1D5
:1006200040025046FFF77EFD05460E4650465946AD
:100630004246FFF765FF084305D0012004E020464D
:100640003946BDE8F08D0020054346EAE0762C43AC
:1006500037430A986305E40AA0EB08000022FD0A6C
:1006600044EA47540A3002D500200146E9E7010573
:1006700010196941DDE9084500196941BDE8F04DEF
:10068000A2E72DE9F04D00231A461B1A8A4103DB2D
:1006900000200146BDE8F08DC1F30A52C1F31301F9
:1006A00041F480154FF0000BD10702D100186D41C5
:1006B000521E0027044640F2FF11384601EB620A41
:1006C0003E468046024600204FF48011FFF72AFD87
:1006D000C2197141BB1846EB0100B4EB030C75EB7A
:1006E000000C04D3E41A65EB000517460E462419E6
:1006F00008F101006D4180463428E3DDF91946EB2D
:100700000600091BA84103D24FF0FF32134601E057
:10071000002213461BEB070046EB0A51BDE8F04DE3
:10072000FFF752BF00F0004220F00040C10DC0F3BF
:10073000160040F400007F2901DA00207047962956
:1007400003DCC1F19601C84001E096398840002AD7
:10075000F4D0404270470000064C074D06E0E068C8
:1007600040F0010394E8070098471034AC42F6D3F8
:10077000FFF7C0FC4059000860590008C10F80EA2B
:10078000E0700844CA0796230021FFF7D1BE70B578
:10079000044620688168C943C90716D1816821F0E1
:1007A0000101816000F000FF054609E000F0FCFE59
:1007B000401B022804D920688068C043C00706D0C7
:1007C00020688068C043C007F0D0002070BDA06AD8
:1007D00040F01000A062E06A40F00100E0620120F9
:1007E00070BD10B50146486A826A12F0500F05D0FC
:1007F000006A026BBDE8104008461047816A41F468
:100800000071816201688968C1F3424107290CD1F6
:10081000017B51B9816A21F480718162816AC904C6
:1008200003D4816A41F00101816200F065FA10BDD4
:1008300010B5406A816A41F040018162C16A41F0AD
:100840000401C16200F05AFA10BD10B5406A00F010
:1008500054FA10BDF8B50446002600962068816859
:10086000C943C9072FD0816841F001018160174851
:1008700017490068B0FBF1F0009002E00098401EBC
:10088000009000980028F9D100F08EFE054615E092
:1008900000F08AFE401B022810D920688068C043FF
:1008A000C0070BD0A06A40F01000A062E06A40F0E0
:1008B0000100E06284F824600120F8BD20688068AF
:1008C000C043C007E4D10020F8BD000000000020B4
:1008D00040420F0070B5064C002525704021A4F160
:1008E0004000FFF748FC65700820A07070BD000054
:1008F0008C0300202DE9F041002700241B4E06EB5D
:1009000004100546FFF742FC024629461848FFF747
:1009100044FC58B1641CE4B2082CF0D35FB112213E
:1009200014A000F01BF93846BDE8F081104880F8AB
:1009300042400127F2E71A2113A000F00FF9152118
:1009400018A000F00BF9002406EB04100546FFF791
:100950001DFC81B2284600F001F9022109A000F037
:10096000FDF8641CE4B2082CEED3DCE72000002084
:100970004C030020436F6D6D616E642069732076B7
:10098000616C69640D0A00005468657265206973C2
:10099000206E6F207375636820636F6D6D616E6488
:1009A0000D0A000056616C696420636F6D6D616EA5
:1009B0006473206172653A0D0A00000070B5044648
:1009C000002C0AD000F0D6F8082548B1FFF792FFB6
:1009D00020B1044890F84200207070BD257070BDB1
:1009E000257070BD4C03002010B53E4801F09CFFFF
:1009F000FFF770FF3C4C00220221204600F0CCFDA6
:100A0000642000F09FFC40223849364801F049FF3D
:100A100008B1012010BD01220221204600F0BCFDDA
:100A2000642000F08FFC042131A000F097F808B199
:100A3000012010BD642000F085FC16212EA000F0DE
:100A40008DF808B1012010BD642000F07BFC10215E
:100A50002FA000F083F808B1012010BD642000F041
:100A600071FC0B212FA000F079F808B1012010BD16
:100A7000642000F067FC10212DA000F06FF808B191
:100A8000012010BD642000F05DFC0A212DA000F0C3
:100A900065F808B1012010BD642000F053FC0A2164
:100AA0002BA000F05BF808B1012010BD642000F01D
:100AB00049FC0C4801F038FF642000F043FC402260
:100AC0000A49084801F0EDFE08B1012010BD0022DE
:100AD0000221204600F060FD642000F033FC00207D
:100AE00010BD000064020020000801404C030020FB
:100AF00041540D0A0000000041542B4E414D453D2C
:100B000042545F4445534B5F4C414D500D0A000029
:100B100041542B505357443D3132333435360D0A4E
:100B20000000000041542B524F4C453D300D0A004F
:100B300041542B554152543D393630302C302C30F5
:100B40000D0A000041542B50534156450D0A000038
:100B500041542B52455345540D0A0000002805D03E
:100B600021B10A460146024802F03EB90120704711
:100B7000640200200249087800220A7070470000D1
:100B80008D030020FEE70000014800F0BBBA000022
:100B9000E4000020014800F0B5BA0000F002002097
:100BA000014800F0AFBA0000AC02002030B590F868
:100BB00040500124AC40C56B6C60046863604368BE
:100BC000102B04D0036899600068C26030BD0368D0
:100BD0009A600068C16030BD7047012000F0D8BB4A
:100BE000022000F0D5BB082000F0D2BB72B6FEE7B1
:100BF000F8B500230025009590F82420012A12D092
:100C0000012280F824204A681F26072A0DD2046892
:100C1000676B521E02EB82029640B7430E68964005
:100C2000374367631AE00220F8BD0D2A0BD204682F
:100C3000276BD21F02EB82029640B7430E689640A4
:100C4000374327630AE00468E76A0D3A02EB820241
:100C50009640B7430E6896403743E7620A68072616
:100C60000A2A0BD30468E7680A3A02EB420296406C
:100C7000B7438E6896403743E76009E00468276908
:100C800002EB42029640B7438E6896403743276195
:100C90000A68102A01D0112A23D1144C0268A242FA
:100CA0001AD1946824021CD4946844F4000494601B
:100CB0000968102915D10E490E4A0968B1FBF2F1F5
:100CC00001EB81014900009102E00099491E009169
:100CD00000990029F9D104E0816A41F02001816284
:100CE000012380F824501846F8BD0000002401407C
:100CF0000000002040420F0070477047704700001E
:100D00002DE9F041044600270025002C03D0A06AFD
:100D1000002618B108E00120BDE8F081E66284F801
:100D20002460204600F07AF82046FFF730FDA16AE3
:100D300001F01001014305D0A06A40F01000A0624C
:100D40000120E9E7A16A21F4885141F00201A16282
:100D50006268E169237B0A4347EA43010A43A168C9
:100D60004FF48077B94208D0012906D0002194F8C9
:100D700014C0BCF1010F02D00AE03946F7E7F3B125
:100D8000A36A43F02003A362E36A43F00103E36232
:100D90002368D3F804C02CF4694C4CEA010CC3F866
:100DA00004C021688B68DFF86CC003EA0C031343AE
:100DB0008B60A168B94209D0012907D009E0A36975
:100DC0005B1E41EA433141F40061E1E7218A491E9B
:100DD0000D052168CB6A23F470032B43CB62216895
:100DE00089680D4B1940914207D1E662A16A21F052
:100DF000020141F00101A1628EE7A06A20F0020029
:100E000040F01000A062E06A40F00100E0620120C2
:100E100082E70000FDF7E1FFFE0E1FFF70B586B010
:100E20000646002402940394049405941A493068F9
:100E300088422FD11949886940F400708861886917
:100E400000F400700190886940F0040088618869AE
:100E500000F004000190012002900320039002A9F9
:100E60000F4800F0A1FA104D0E4828606C60AC608D
:100E70008020E86040002861800068612020A8612F
:100E8000C001E861284600F0F1F908B1FFF7AEFEB5
:100E900035626E6206B070BD002401400010024051
:100EA0000008014008000240E40000202DE9F0475E
:100EB000044689469246DFF8008120683F4F08F1DA
:100EC0000406404501D0B84207D1306810F4702FB5
:100ED00003D001252846BDE8F08794F824000128B6
:100EE0000BD0012084F824002046FFF7B3FC054610
:100EF000002125B184F82410ECE70220EBE7A06A7A
:100F000040F60162904340F48070A0622068B842CD
:100F100018D1326812F4702F14D0A26A42F48012F1
:100F2000A2623068400505D5A06A20F4005040F464
:100F30008050A062A06AC00412D5E06A20F00600CA
:100F4000E0620EE0A26A22F48012A26240684005CC
:100F5000F0D5A06A20F4005040F48050A062E9E788
:100F6000E16284F82410216A15488862216A1548D4
:100F7000C862216A1448086321686FF002000860A3
:100F80002068816841F480718160216853464C314A
:100F90004A46206A00F09CF920688168C1F342410A
:100FA000072904D0816841F48011816092E781684B
:100FB00041F4A00181608DE7002401400028014038
:100FC000E30700084B0800083108000810B5044684
:100FD00094F82400012807D0012084F8240020463A
:100FE000FFF7D5FB10B113E0022010BD21688A681D
:100FF00022F480728A60216A91F82120022A07D1A6
:10100000084600F010F838B1A16A41F04001A16231
:10101000002184F8241010BDA16A21F4885141F008
:101020000101A162F4E710B590F821100022022915
:1010300005D00421816380F82020012010BD0168C3
:101040000B6823F00E030B6001680B6823F00103AB
:101050000B6090F84030C46B012101FA03F3636028
:1010600080F8211080F82020104610BD10B5002413
:1010700090F82110022903D00421816301243DE06E
:1010800001680A6822F00E020A6001680A6822F00C
:1010900001020A601A4A0168914201D1012121E04E
:1010A000174A1432914201D110211BE0144A283210
:1010B000914201D1891515E0114A3C32914201D18A
:1010C00089140FE00E4A5032914202D14FF4803120
:1010D00008E00B4A6432914202D14FF4801101E0E2
:1010E0004FF08071064A083A5160012180F82110C2
:1010F000002180F82010416B01B18847204610BDC7
:10110000080002402DE9F05FC16B0A6801680B68B6
:10111000046C4FF0040A0AFA04FA4E4D4E4E4F4F3B
:10112000DFF83CC1DFF83C81DFF83C911AEA020F9E
:1011300031D05FEA437A2ED50A68920603D40A6852
:1011400022F004020A600168A94201D1042119E0D9
:10115000B14201D1402115E0B94202D14FF4806182
:1011600010E0614502D14FF480410BE0414502D1CE
:101170004FF4802106E0494502D14FF4800101E09F
:101180004FF08061334A083A5160C16A00295FD04C
:10119000BDE8F05F08474FF0020E0EFA04FE1EEAAB
:1011A000020F4FF0000A4FF0010B35D05FEA837E4B
:1011B00032D50A68920605D40A6822F00A020A604B
:1011C00080F821B00168A94201D1022119E0B142A1
:1011D00001D1202115E0B94202D14FF4007110E095
:1011E000614502D14FF400510BE0414502D14FF46B
:1011F000003106E0494502D14FF4001101E04FF003
:101200000071144A083A516080F820A0816A0029D0
:101210001ED0BDE8F05F08470825A540154217D04D
:101220001A0715D50A6822F00E020A6090F84010DD
:10123000C26B0BFA01F15160C0F838B080F821B0F0
:1012400080F820A0016B002902D0BDE8F05F0847BC
:10125000BDE8F09F080002401C0002403000024040
:1012600044000240580002406C00024030B50028A3
:1012700027D0001D144A50F8041C14230A44B2FB62
:10128000F3F29200C263114A8263022242770A6833
:1012900043F6F0739A43D0E900342343D0E9024582
:1012A0002C43234304692343446923438469234330
:1012B00013430B6000214163012242770177002034
:1012C00030BD012030BD0000F8FFFDBF000002402E
:1012D00070B50446002594F8200001280CD00120A8
:1012E00084F8200094F821600020012E06D084F8B4
:1012F00020000225284670BD022070BD022684F819
:101300002160A0632068066826F00106066020467A
:10131000FFF74CFCE06A28B12068016841F00E013B
:10132000016009E02068016821F004010160206883
:10133000016841F00A0101602068016841F0010183
:101340000160D7E770B5044600F02EF90546601C31
:1013500002D004480078044400F026F9401BA04263
:10136000FAD370BDA400002072B60121074A0128FB
:1013700004D0022804D0082804D004E0117002E050
:10138000517000E0917062B670470000A00000202C
:1013900010B504490A68024202D00860FFF7E4FF72
:1013A00010BD0000140401402DE9F84F0024002373
:1013B000DFF8C4914FF00F08A9F1040B09F1040AFA
:1013C000ABF1040ED1E00127A7403A40BA4275D1F3
:1013D000DFF8A8C14D68A5EB0C0665452BD00DDCE8
:1013E000032D34D005DC35B3012D19D0022D2FD1BA
:1013F0001BE0112D16D0122D2AD119E0B6F5881F49
:1014000019D006DCB6F5803F15D0B6F5801F1FD188
:1014100011E0B6F5001F0ED0B6F5041F18D10AE092
:10142000CB6815E0CB681B1D12E0CB6808330FE0DA
:10143000CB680C330CE08B6823B1012B04D008235C
:10144000476105E0042303E00823076100E000236F
:10145000FF2A01D8054601E000F1040502D84FEA51
:10146000840603E0A4F108064FEA86062F6808FA0E
:1014700006FC27EA0C0703FA06F647EA06072F6080
:101480004D68ED0070D53E4DAE6946F00106AE6187
:10149000AD6905F0010500953A4D24F00306771972
:1014A000BE68A5072D0F08FA05FC26EA0C06DFF832
:1014B000D8C0604503D14FF0000C17E054E0DFF8CE
:1014C000CCC0604502D14FF0010C0FE0DFF8C0C086
:1014D000604502D14FF0020C08E0DFF8B8C060456B
:1014E00002D14FF0030C01E04FF0040C0CFA05FCA4
:1014F0004CEA060CC7F808C04D68ED0205D5D9F8CE
:1015000000501543C9F8005004E0D9F80050954345
:10151000C9F800504D68AD0205D5DAF80050154302
:10152000CAF8005004E0DAF800509543CAF80050B9
:101530004D68AD0305D5DBF800501543CBF80050DE
:1015400004E0DBF800509543CBF800504D68ED0304
:1015500005D5DEF800501543CEF8005004E0DEF863
:1015600000509543CEF80050641C0A6832FA04F526
:101570007FF429AFBDE8F88F080401400000111086
:10158000001002400000014000080140000C014032
:101590000010014000140140002A01D00161704791
:1015A000090401617047000001488068704700002D
:1015B000A400002070B50446002C04D094F83D002F
:1015C000002510B106E0012070BD84F83C50204693
:1015D00000F0D0FA242084F83D002068016821F052
:1015E000010101602068016841F400410160206848
:1015F000016821F40041016000F0BAFC4F4B6168C2
:10160000994203D84E49884203D304E04D498842A9
:1016100001D2012070BD4C49B0FBF1F1226856683F
:1016200026F03F060E43566062689A4201D8491C74
:1016300007E04FF4967251434FF47A72B1FBF2F126
:10164000491C2268166A26F03F0631431162616820
:10165000994210D84900401EB0FBF1F2521CC2F36F
:101660000B02042A01D2042022E0B0FBF1F0401C5E
:10167000C0F30B001CE0A268F2B301EBC10303EB63
:101680000116431EB3FBF6F35B1C43F480431B05BA
:1016900049D092B301EBC10202EB0111401EB0FB35
:1016A000F1F0401CC0F30B0040F4804040F40040D7
:1016B0002168CA694CF6FF739A431043C861D4E9A4
:1016C000071001432068026822F0C0021143016044
:1016D000D4E9030101432068826848F2FF339A434A
:1016E00011438160D4E9051001432068C26822F0EB
:1016F000FF021143C16001E00EE016E020680168BE
:1017000041F0010101602564202084F83D0025633B
:1017100084F83E50002070BD01EB4106431EB3FB30
:10172000F6F35B1CB3E70120C2E701EB4101401E69
:10173000B0FBF1F0401CC0F30B00B7E7A08601003E
:1017400080841E0000093D0040420F002DE9FC4747
:101750000446DDF828908A461746984600260196EA
:10176000FFF722FF054694F83D00202802D0022012
:10177000BDE8FC8719230122A8492046009501F005
:10178000A9FC08B10220F3E794F83C00012807D037
:10179000012084F83C0020680168C90702D005E0F8
:1017A0000220E5E7016841F001010160206801685D
:1017B00021F400610160222084F83D00102084F8AB
:1017C0003E0026646762A4F82A80608D20859448D4
:1017D000E0622B464A465146204601F05DFB08B1C7
:1017E0000120C5E7208D80B1012817D0022825D01F
:1017F0002068016841F48061016020684169806966
:1018000000902027DFF81C82FFE020684169816991
:101810000091016841F400710160F2E720680168FD
:1018200021F48061016072B620684169816900918C
:10183000016841F40071016062B6E2E72068016866
:1018400041F40061016072B62068416981690091CC
:10185000016821F48061016062B6D2E703287DD877
:1018600001280BD002281FD04B46002241462046BB
:10187000009501F02FFCE8B3012079E72A4649469C
:10188000204601F0E1FC08B1012071E72068006901
:10189000616A0870606A401C6062208D401E20856D
:1018A000608D401E6085B0E04B46002241462046D8
:1018B000009501F00FFC08B1012059E772B62068CD
:1018C000016841F40071016020680069616A087074
:1018D000606A401C6062218D491E2185618D491E10
:1018E000618562B6216809690170606A401C6062A6
:1018F000208D00E005E0401E2085608D401E608543
:1019000083E02068016821F48061016072B620687C
:101910000069616A0870606A401C6062208D401E28
:101920002085608D401E60853F4846F2A811006802
:10193000B0FBF1F0C0EBC00000EB8000019001981B
:10194000401E0190019830B320684069C0434007B1
:10195000F5D42068016841F4007100E027E00160DF
:1019600020680069616A0870606A401C6062218DAD
:10197000491E2185618D491E618562B6216809690C
:101980000170606A401C6062208D401E2085608D61
:10199000401E608539E044F8306F6773A673206994
:1019A00040F02000206162B626730120E0E62A465E
:1019B0004946204601F048FC08B10120D8E62068DD
:1019C0000069616A0870606A401C6062208D401E78
:1019D00081B22185608D401E608520684269D243B6
:1019E000520712D4032903D1016821F480610160F8
:1019F00020680069616A0870606A401C6062208D1E
:101A0000401E2085608D401E6085208D00287FF45B
:101A100025AF3C346770A6702670A9E6020010005E
:101A20000000FFFF04000100000000202DE9F84F36
:101A300004468A4615469946DDF82880FFF7B4FD2E
:101A4000064694F83D00202802D00220BDE8F88F19
:101A50001923012245492046009601F03BFB08B1BD
:101A60000220F3E794F83C00012807D0012084F815
:101A70003C0020680168C90702D005E00220E5E7C4
:101A8000016841F0010101602068016821F40061F2
:101A90000160212084F83D00102084F83E000027DA
:101AA00027646562A4F82A90608D20853048E06242
:101AB000334642465146204601F078FA08B10120EB
:101AC000C4E720684169806900903EE032464146A3
:101AD000204601F0F4FB48B1206C042804D12068B2
:101AE000016841F4007101600120AFE7606A21687C
:101AF00000780861656A6D1C6562608D401E6085B6
:101B0000208D401E80B2208522685169C943490753
:101B10000BD450B128781061606A401C6062608DFF
:101B2000401E6085208D401E20853246414620465D
:101B300001F0A4FA48B1206C042804D1206801689F
:101B400041F400710160012080E7208D0028BDD1A3
:101B50001F3454F81F0C016841F40071016020200B
:101B6000A077E7776777002070E700000200100099
:101B70000000FFFF10B586B000210291039104918F
:101B8000059100680F4988421AD10F4CA06940F0B6
:101B90000800A061A06900F008000190C020029038
:101BA000122003900320059002A90848FFF7FCFBD0
:101BB000E06940F40010E061E06900F40010019079
:101BC00006B010BD0054004000100240000C01405F
:101BD000024881680278114481607047A4000020A7
:101BE00010B50748016841F010010160032000F0C2
:101BF00077F80F2000F006F800F026F8002010BD5E
:101C00000020024070B504460D4D4FF47A712878DB
:101C1000B1FBF0F00B490968B1FBF0F000F00BFDEF
:101C200008B1012070BD102C07D200222146501EA1
:101C300000F036F86C60002070BD012070BD00001F
:101C4000A40000200000002008B50C48816941F084
:101C500001018161816901F001010091C16941F0D7
:101C60008051C161C06900F080500090044948680B
:101C700020F0E06040F00070486008BD00100240B5
:101C800000000140002809DB00F01F020121914003
:101C90004009800000F1E020C0F80011704700000A
:101CA000F0B40D460D4B1B68C3F30223C3F10704C8
:101CB000042C00D90424191D072901D2002300E0B7
:101CC000DB1E012606FA04F1491E294099409E4078
:101CD000761E16403143F0BC02F0A4B80CED00E0D3
:101CE00000F00701054A10684FF6FF03184040EA6C
:101CF0000120034908431060704700000CED00E02C
:101D00000000FA052DE9F8430446DFF8F880207852
:101D1000C0075FD00027D8F81C00C0000BD4D8F84B
:101D20001C0040F08050C8F81C00D8F81C0000F0DF
:101D3000805000900127344D2868C00512D42868CF
:101D400040F480702860FFF72FFC064607E0FFF79D
:101D50002BFC801B642802D90320BDE8F883286887
:101D6000C005F4D5D8F8200000F4407010B3A18865
:101D700001F4407181421DD0D8F8200020F4407059
:101D8000224901220A6000220A60C8F82000C00728
:101D900010D0FFF709FC054641F2883606E0FFF750
:101DA00003FC401BB04201D90320D6E7D8F820003D
:101DB0008007F4D5D8F82000616820F4407008430B
:101DC000C8F82000012F05D1D8F81C0020F0805061
:101DD000C8F81C002078800707D5D8F80400A1684F
:101DE00020F440400843C8F804002078C00607D516
:101DF000D8F80400E16820F480000843C8F8040023
:101E00000020AAE700100240007000404004424257
:101E10002DE9F04704460D46002C17D0DFF830813D
:101E2000D8F8000000F00700A84211D2D8F800004E
:101E300020F007002843C8F80000D8F8000000F0A0
:101E40000700A84204D00120BDE8F0870120FBE78D
:101E50002068404E810712D5400703D5706840F4D2
:101E6000E06070602078000703D5706840F460502F
:101E700070607068A16820F0F000084370602078FE
:101E8000C0072CD06068012806D0022809D031682C
:101E900089070BD40120D7E73168890306D40120D4
:101EA000D2E73168890101D40120CDE7716821F0C2
:101EB000030101437160FFF777FB074641F2883960
:101EC00006E0FFF771FBC01B484501D90320BBE7C3
:101ED0007068616800F00C00B0EB810FF1D1D8F8A8
:101EE000000000F00700A8420ED9D8F8000020F04A
:101EF00007002843C8F80000D8F8000000F00700E9
:101F0000A84201D001209FE72078400705D57068DE
:101F1000E16820F4E060084370602078000706D58F
:101F20007068216920F4605040EAC100706000F0E0
:101F30003FF87168084AC1F30311515CC840074972
:101F4000086007480068FFF75DFE00207CE700009E
:101F500000200240001002407854000800000020D9
:101F6000A800002001480068704700000000002021
:101F700000B5FFF7F7FF04494968044AC1F302219D
:101F8000515CC84000BD00000010024088540008A9
:101F900000B5FFF7E7FF04494968044AC1F3C221CD
:101FA000515CC84000BD0000001002408854000889
:101FB0000E4B59680E4801F00C02042A11D0082A71
:101FC0000FD10C48C1F38342805CC9030AD559681C
:101FD000084AC1F34041921E515C054A5043B0FB90
:101FE000F1F0704704494843704700000010024078
:101FF00000127A000E59000800093D002DE9F84F43
:102000000446002C0ED02078D94DC0075ED06868F9
:10201000C0F3810001280BD06868C0F3810002285A
:1020200003D00CE00120BDE8F88F6868C00306D536
:10203000286880034AD56068A8BB0120F3E7606880
:10204000B0F5803F11D0A8B1B0F5A02F1BD0286803
:1020500020F480302860286820F4802028606068A0
:1020600030B3FFF7A1FA06461EE0286840F480303E
:102070002860F4E7286820F480302860286820F47D
:1020800080202860EBE7286840F4802028602868DA
:1020900040F480302860E2E7FFF786FA801B64286E
:1020A00002D90320BFE711E028688003F4D50DE0D2
:1020B000FFF77AFA064606E0FFF776FA801B6428F7
:1020C00001D90320AFE728688003F5D42078DFF832
:1020D000A48280074FF0010A4FF0000945D56868D7
:1020E00010F00C0F07D06868C0F38100022812D1ED
:1020F0006868C0030FD42868800704D520690128C8
:1021000001D001208FE72868616920F0F80040EADB
:10211000C100286029E02069B8B1C8F800A0FFF725
:1021200043FA064606E0FFF73FFA801B022801D972
:10213000032078E728688007F5D52868616920F0D2
:10214000F80040EAC10028600FE0C8F80090FFF7EF
:102150002BFA064606E0FFF727FA801B022801D972
:10216000032060E728688007F5D42078000726D58B
:102170008148A16999B1C0F800A0FFF715FA064699
:1021800006E0FFF711FA801B022801D903204AE775
:10219000686A8007F5D5012001F058FA0FE0C0F811
:1021A0000090FFF701FA064606E0FFF7FDF9801BF5
:1021B000022801D9032036E7686A8007F5D4207821
:1021C000400773D50026E869C00008D4E86940F0EC
:1021D0008050E861E86900F0805000900126DFF847
:1021E0009CB1DBF80000C00514D4DBF8000040F41B
:1021F0008070CBF80000FFF7D7F9074606E0FFF73D
:10220000D3F9C01B642801D903200CE7DBF80000D8
:10221000C005F4D5E068012812D0B0B105281DD062
:10222000286A20F001002862286A20F00400286251
:10223000E06841F2883B28B3FFF7B6F907461DE096
:10224000286A40F001002862F2E7286A20F00100C5
:102250002862286A20F004002862E9E7286A40F032
:1022600004002862286A40F001002862E0E7FFF7D6
:102270009BF9C01B584501D90320D4E6286A800782
:10228000F5D50DE0FFF790F9074606E0FFF78CF96A
:10229000C01B584501D90320C5E6286A8007F5D43C
:1022A000012E03D1E86920F08050E861E069A0B315
:1022B0006968C1F38101022946D0022805D0C8F817
:1022C0006090FFF771F904463AE0C8F86090FFF7B4
:1022D0006BF9064606E0FFF767F9801B022801D973
:1022E0000320A0E628688001F5D4206AB0F5803F7D
:1022F00005D16868A16820F4003008436860D4E91B
:1023000008010843696821F4741108436860C8F83B
:1023100060A0FFF749F9044607E026E0FFF744F91B
:10232000001B022801D903207DE628688001F5D52D
:102330001BE0FFF739F9001B022801D9032072E6E0
:1023400028688001F5D410E001280CD06868226A62
:1023500000F48031914204D1616A00F47010884227
:1023600003D001205FE601205DE600205BE600006F
:1023700000100240000042428004424200700040CF
:1023800070B50446002C09D0606A002540B1256173
:102390006561A56294F8510040B10CE0012070BD68
:1023A0006068B0F5827FF4D0E561F2E784F85050C0
:1023B000204600F03FF8022084F8510020680168B0
:1023C00021F040010160A088218900F4827001F4AD
:1023D00004410843A18901F400610843217C01F014
:1023E00002010843217D01F001010843218B01F422
:1023F00000710843217F01F03801084394F8201050
:1024000001F080010843218D01F400510843216847
:102410000860A069042101EA104021684860206832
:10242000C16921F40061C1616565012084F8510032
:10243000002070BD30B585B000240194029403944F
:10244000049400681449884223D11448816941F4F6
:1024500080518161816901F480510091816941F06D
:1024600004018161806900F004000090A0200190C7
:102470000220029003200490094D01A92846FEF78E
:1024800093FF402101910294039401A92846FEF78D
:102490008BFF05B030BD000000300140001002404D
:1024A000000801402DE9F84F04468A4617461D46AC
:1024B000FFF77AF8064694F85100012802D002206E
:1024C000BDE8F88FBAF1000F23D0380021D094F87E
:1024D000500001281FD04FF0010984F850900320CC
:1024E00084F851004FF00008C4F85480C4F830A0BC
:1024F000A786E786C4F83880A4F83C80A4F83E801C
:10250000C4F84480C4F84080A068B0F5004F04D0FF
:102510000DE00120D4E70220D2E72068016821F015
:10252000400101602068016841F480410160206839
:102530000168490603D4016841F040010160E06888
:10254000B0F5006F04D0606888B3012F30D050E040
:10255000606808B1012F20D1206B21680088C86015
:10256000206B801C2063E08E401EE08615E0206812
:102570008168890709D5216B0988C160206B801C9F
:102580002063E08E401EE08607E0FFF70DF8801B19
:10259000A84201D3681C04D11DB1E08E0028E6D109
:1025A0002AE084F8519084F85080032088E7FFE700
:1025B000206B216800780873206B401C2063E08E3C
:1025C000401EE08615E020688168890709D5216BE7
:1025D00009780173206B401C2063E08E401EE0866A
:1025E00007E0FEF7E1FF801BA84201D3681C0ED173
:1025F0006DB1E08E0028E6D132462946204601F032
:1026000037F808B120206065A06830B109E084F88F
:10261000519084F85080032052E72068C168806898
:10262000009084F8519084F85080606D08B10120CA
:1026300046E7002044E710B5401EB0F1807F01D38B
:10264000012010BD4FF0E02460610F21601701F000
:10265000E9FB0020A06107202061002010BD0000E0
:1026600070B590F83C20012A25D0012680F83C6006
:10267000022280F83D2002685468936824F07005B7
:102680000C682C4354600D4C0268A24208D0B2F191
:10269000804F05D00A4CA24202D00A4CA24204D17B
:1026A00023F080034968194391603C304670002153
:1026B0000170002070BD022070BD0000002C0140A0
:1026C000000400400008004010B50446002C03D070
:1026D00094F83D0010B107E0012010BD002084F8FF
:1026E0003C00204600F016F8022084F83D00211D31
:1026F000206801F0C7F801203D3460726070A0705E
:10270000E07020716071A071E07120722070002073
:1027100010BD000008B500680649884208D1064887
:10272000C16941F00201C161C06900F0020000907E
:1027300008BD0000000400400010024090F83D1069
:10274000012901D001207047022180F83D10006866
:102750000D49884208D0B0F1804F05D00B4988421E
:1027600002D00B49884209D1816801F0070106298E
:1027700008D0016841F00101016003E0016841F007
:102780000101016000207047002C0140000400405E
:102790000008004001680A6A41F211131A4207D189
:1027A0000A6A9B101A4203D10A6822F001020A60E9
:1027B000012180F83D100020704770B504460025C7
:1027C00094F83C00012817D0012684F83C600220D0
:1027D00084F83D002068826822F0770222F47F426C
:1027E00082600868502838D00DDC202853D005DCE2
:1027F00090B3102811D14EE0022070BD30284AD08D
:1028000040280AD13DE0602831D070280CD0B0F5C6
:10281000805F03D0B0F5005F12D001253C346670B4
:1028200000202070284670BDCB68D1E901212068C6
:1028300001F064F82068816841F077018160EDE77C
:10284000CB68D1E90121206801F058F8206881683F
:1028500041F480418160E1E71DE0CA684968206871
:1028600001F05EF85021206801F052F8D6E7CA68FE
:102870004968206801F065F86021206801F048F897
:10288000CCE7CA684968206801F04AF8402120680E
:1028900001F03EF8C2E722680146104601F038F820
:1028A000BCE738B5044694F84200202801D0022045
:1028B00038BD71B16AB101202063002060632046F9
:1028C00001F0F8F90346206B012804D001231846D3
:1028D00038BD012038BD206801684068009020683C
:1028E0000C3050E8001F41F0100140E80012002AAF
:1028F000F5D1ECE710B50A4A0068126890420ED193
:1029000072B6402900D9402106480170012141706A
:10291000A0F1400140220248FFF7C3FF62B610BD9C
:10292000640200208C03002010B504462068406932
:10293000C0F3C01094F84110212911D180B1206852
:10294000143050E8001F21F0800140E80012002AF6
:10295000F5D1A06B08B1FEF766FB204601F0DCF86C
:1029600020684069C0F3801094F84210222911D1E8
:1029700080B12068143050E8001F21F0400140E889
:102980000012002AF5D1E06B08B1FEF74CFB20469F
:1029900001F08EF8002010BD70470000F8B5044625
:1029A00022681068D168536900F00F06002E08D124
:1029B000850606D58D0604D52046BDE8F84001F011
:1029C000B9B80025002E67D003F0010601F4907716
:1029D000374361D0C20705D0CA0503D5626C42F007
:1029E00001026264420705D5DA0703D0626C42F047
:1029F00002026264820705D5DA0703D0626C42F0F6
:102A000004026264020707D501F02002324303D0BA
:102A1000626C42F008026264626C002A32D0800666
:102A200004D5880602D5204601F084F82068406964
:102A3000C0F38010616C01F00801014327D02046EB
:102A400001F036F82068406940061CD52068143033
:102A500050E8001F21F0400140E80012002AF5D1A3
:102A6000E06B60B158494163E06BFEF7FFFA002864
:102A700008D0E06B416B01B0BDE8F040084720464C
:102A8000FFF78AFFF8BD2046FFF786FFF8BD204616
:102A9000FFF782FF6564F8BD236B012B7ED1C3066F
:102AA0007CD5CB067ED510685068009050694FF0F9
:102AB000200340064FF0020643D5E16B08684068EA
:102AC00080B20028E7D0A28D8242E4D9E0858869EF
:102AD00020282DD020680C3050E8001F21F4807190
:102AE00040E80012002AF5D12068143050E8001F99
:102AF00021F0010140E80012002AF5D120681430CD
:102B000050E8001F21F0400140E80012002AF5D1F2
:102B100084F84230256320680C3050E8001F21F013
:102B2000100140E80012002AF5D1E06BFEF77BFAB5
:102B30006663A08DE18D401A81B22046FFF7DAFE70
:102B4000F8BDA08DE18D401A81B2E08D0028F7D04C
:102B50000029F5D020680C3050E8002F22F4907244
:102B600040E80027002FF5D12068143050E8002FEE
:102B700022F0010240E80027002FF5D184F842300E
:102B8000256320680C3050E8002F22F0100240E846
:102B90000023002BF5D16663204600E002E0FFF73A
:102BA000A9FEF8BD020606D50A0604D52046BDE8F2
:102BB000F84001F0E5B84006F3D54806F1D52046C7
:102BC000BDE8F84000F09BBF6739000870B50446C7
:102BD000002C04D094F84100002510B106E001203B
:102BE00070BD84F84050204600F024F8242084F87A
:102BF00041002068C16821F40051C160204600F006
:102C0000FDFF2068016921F490410161206841695C
:102C100021F02A0141612068C16841F40051C1607E
:102C20006564202084F8410084F842006563002038
:102C300070BD0000F0B585B00446002501950295F1
:102C400003950495444F2168444802220323444ECF
:102C5000B94254D1816941F480418161816901F4B3
:102C600080410091816941F004018161806900F037
:102C700004000090100201900292049301A93046D2
:102C8000FEF792FB301501900295039501A930469D
:102C9000FEF78AFB344E334830607560B56080279C
:102CA000F760356175612020B0610002F061304647
:102CB000FEF7DCFA08B1FDF799FFE6637462294874
:102CC000294E14384436306010207060B560F760CB
:102CD00035617561B5610002F0613046FEF7C6FAF4
:102CE00008B1FDF783FFA663746200221146252018
:102CF000FEF7D6FF2520FEF7C5FF05B0F0BD1B4C43
:102D0000A142FAD1C16941F40031C161C16901F444
:102D100000310091816941F004018161806900F016
:102D200004000090042001900292049301A930460F
:102D3000FEF73AFB082101910295039501A930465F
:102D4000FEF732FB002211462620FEF7A9FF2620BF
:102D5000FEF798FFD1E70000003801400010024064
:102D60000008014058000240AC020020004400402E
:102D700090F84230202B01D00220704721B11AB1C7
:102D80000023036300F0E0BF0120704710B5134932
:102D900000680968884220D172B611490878AA28CB
:102DA00005D14878552802D108790D2809D001F0BD
:102DB00029FA62B60522BDE8104009490748FFF725
:102DC000D7BF8878401EC0B2CA78824202D10120A3
:102DD0000873EEE701F016FAEBE710BD1C020020C5
:102DE000080000207047000037B5044694F8410001
:102DF000202801D002203EBD019959B352B321626F
:102E0000A284E28400206064212384F84130A56B11
:102E1000114BAB62A56B114BEB62A56B104B2B6397
:102E2000A36B586320681346001DA56B0246284615
:102E3000FEF74EFA21686FF04000086020681430F9
:102E400050E8001F41F0800140E80012002AF5D14F
:102E500000203EBD01203EBD653A0008A73A0008AB
:102E60007739000870477047FEE701684A69D24326
:102E700052050FD46FF480624A61002140F8301F80
:102E8000202242738173026942F0040202610173DD
:102E900001207047002070472DE9F84F04468B460B
:102EA00092461D46E06A21680A6842F480620A6020
:102EB000082808D0012806D010F5803F03D0206BE9
:102EC000112806D00AE02068016841F48071016091
:102ED00004E02068016841F4807101604FF001183E
:102EE0005346002241462046009500F0F3F84FF487
:102EF000007738B120680068C00500D5276403203A
:102F0000BDE8F88F2069DFF8A090B0F5804F10D0B1
:102F100021680BF44076F02040EAD61008612B4679
:102F2000524609F10601204600F02AF940B101207D
:102F3000E6E721680BF0FF0040F00100086128E09F
:102F400021680BF0FF0008612B4652464946204697
:102F500000F016F908B10120D2E7206841698169C3
:102F60000091016841F4807101605346002241469E
:102F70002046009500F0AEF830B120680068C0052A
:102F800000D527640320BBE72168F12040EAD61072
:102F900008612B4652464946204600F0F1F808B138
:102FA0000120ADE70020ABE702000100F8B50446C0
:102FB0000D4617461E46E06A082808D0012806D0AC
:102FC00010F5803F03D0206B122806D00AE020685D
:102FD000016841F48071016004E02068016841F4F7
:102FE000807101603B4600224FF00111204600969F
:102FF00000F070F840B120680068C00502D54FF4B9
:10300000007020640320F8BD2069B0F5804F0FD018
:1030100005F44070F02141EAD01021680861334680
:103020003A460D49204600F0ABF830B10120F8BD1A
:10303000216805F0FE00086102E02168E8B208613D
:10304000054933463A46891F204600F099F808B1F1
:103050000120F8BD0020F8BD0800010038B50028A7
:1030600008D03AB133B164240094FEF76FFB18B175
:10307000012038BD012038BD002038BD70B50446A0
:103080000D4616461FE02046FFF7EFFE08B101206F
:1030900070BD681C17D0FEF787FA801BA84200D8C5
:1030A0008DB920684069C04340070CD5002044F822
:1030B000300F20216173A073216941F0200121614B
:1030C0002073012070BD20684069C0434007DAD4F6
:1030D000002070BD2DE9F0470446DDF820900D4634
:1030E00090461E46C5F307472FE0701C2DD0FEF713
:1030F0005BFAA0EB0900B04200D836BB012F17D015
:103100002068806925EA00000004000C1BD0002024
:1031100040451AD1002044F8300F20216173A0737C
:10312000216941F02001216120730120BDE8F08771
:103130002068406925EA00000004000C01D000204E
:10314000E6E70120E4E70120E2E7012F0BD0206849
:10315000806925EA00000004000C0FD000204045E3
:10316000C3D00020E2E72068406925EA000000049F
:10317000000C01D00020F2E70120F0E70120EEE78B
:103180002DE9F04704460D46164698464FF00009D3
:103190004FF0200AC5F3074743E020684069C04369
:1031A000400517D42068016841F40071016021686E
:1031B0006FF480604861C4F8309084F83DA084F8D2
:1031C0003E90206C40F00400206484F83C90012084
:1031D000BDE8F087701C24D0FEF7E6F9A0EB0800EC
:1031E000B04200D8EEB9012F14D02068806925EADA
:1031F00000000004000C14D0C4F8309084F83DA006
:1032000084F83E90206C40F02000206484F83C90CC
:103210000120DDE72068406925EA00000004000C79
:10322000EAD1012F08D02068806925EA0000000457
:10323000000CB2D10020CBE72068406925EA0000ED
:103240000004000CF6D0A8E72DE9F04104460D4635
:10325000164600274FF020082AE04069C043C00608
:103260000FD421686FF010004861276384F83D8017
:1032700084F83E70206C206484F83C700120BDE826
:10328000F081FEF791F9801BA84200D885B920682B
:103290004069C04340060BD544F8307F84F80D8068
:1032A000A773206940F02000206127730120E6E722
:1032B00020684169C9434906CFD40020DFE770B5D3
:1032C00004460D4616461FE02046FFF7CEFD08B126
:1032D000012070BD681C17D0FEF766F9801BA8425C
:1032E00000D88DB920684069C04300060CD5002085
:1032F00044F8300F20216173A073216941F020014F
:1033000021612073012070BD20684069C043000620
:10331000DAD4002070BD38B5002808D03AB133B1F6
:1033200064240094FEF782FB18B1012038BD01200F
:1033300038BD002038BD00003EB500240094019443
:10334000029410480E4901608460047304754FF4C0
:103350000021C161446001250561FDF7D1FC08B180
:10336000FDF744FC0094019507200290694605484A
:10337000FDF73EFC002801D0FDF738FC3EBD000003
:1033800000240140B400002008B51148416941F013
:1033900001014161406900F00100009000221146E6
:1033A0000B20FEF77DFC0B20FEF76CFC0022114683
:1033B0000E20FEF775FC0E20FEF764FC002211467D
:1033C0000F20FEF76DFCBDE808400F20FEF75ABC49
:1033D000001002402DE9F04186B0002402940394CD
:1033E000049405943A48816941F020018161816922
:1033F00001F020010191816941F00401816181693D
:1034000001F004010191816941F008018161806945
:1034100000F008000190DFF8BC8000224FF48171B9
:103420004046FEF7B9F8012210214046FEF7B4F8F5
:10343000294F01224FF4A0513846FEF7ADF8002283
:103440004CF620113846FEF7A7F84FF48970029029
:103450000125039504940226059602A94046FDF72E
:10346000A3FF0B2002901D480390049502A9384643
:10347000FDF79AFF4DF620500290039504940596AF
:1034800002A93846FDF790FF4FF4085002900394CC
:10349000049402A93846FDF787FF00221146062052
:1034A000FEF7FEFB0620FEF7EDFB0022114607208B
:1034B000FEF7F6FB0720FEF7E5FB00221146092088
:1034C000FEF7EEFB0920FEF7DDFB06B0BDE8F0815C
:1034D0000010024000080140000C014000002110D3
:1034E00010B50D480B4901600C4941600021816015
:1034F000C1604FF48042026141618161C16101623A
:10350000FEF758F8002803D0BDE81040FDF76EBB69
:1035100010BD00000054004028010020A0860100DA
:1035200010B510480E4901604FF4827141600021CE
:103530008160C160016141614FF4007282610822C3
:10354000C2610162416281620A21C162FEF718FF15
:10355000002803D0BDE81040FDF748BB10BD0000B7
:10356000003001407C01002000B587B000200390AE
:10357000049005900690019002901549134A0A6044
:1035800047224A6088606322CA60086188610846F1
:10359000FFF79AF808B1FDF729FB4FF4805003902C
:1035A00003A90B48FFF709F908B1FDF71FFB20201D
:1035B00001908020029001A90548FFF751F80028EA
:1035C00001D0FDF713FB07B000BD00000004004070
:1035D000D401002010B50C480A4901604FF416517F
:1035E000416000218160C16001610C224261816102
:1035F000C161FFF7EBFA002803D0BDE81040FDF7EA
:10360000F5BA10BD003801401C02002010B50C486E
:103610000A4901604FF41651416000218160C16088
:1036200001610C2242618161C161FFF7CFFA00287C
:1036300003D0BDE81040FDF7D9BA10BD00440040EA
:1036400064020020FEE7FEE77047000008B5074966
:103650004FF4FA520968B1FBF2F14143009100BF07
:103660000098411E0091FAD208BD00000000002021
:10367000F8B504460E46154633460122022120467F
:10368000009500F017F828B1606D40F020006065EB
:103690000320F8BD3346002280212046009500F02B
:1036A00009F828B1606D40F0200060650320F8BD86
:1036B0000020F8BD2DE9F84304460F4691461E460A
:1036C000089DFDF771FF401B351AFDF76DFF804621
:1036D00026480068C0F3CB30684300903AE0701C85
:1036E00038D0FDF761FFA0EB0800A84203D215B166
:1036F000009858B32BE02068416821F0E001416058
:103700006068B0F5827F0BD1A068B0F5004F02D0A1
:10371000B0F5806F04D12068016821F0400101609C
:10372000A06AB0F5005F09D12068016821F400515A
:1037300001602068016841F40051016001205034AB
:103740006070002020700320BDE8F88300250098F9
:10375000401E00902068806837EA000004D00020F6
:103760004845BCD10020EFE70120F9E70000002028
:1037700013B56423012201A9FEF794FE1CBD0028A5
:1037800004D019B112B16423FEF78CBE012070473A
:103790007047FEF71DBA000010B51A4C21780329B6
:1037A00007D0082813D2DFE800F0120A0E13181D04
:1037B000222700280BD1BDE8104001F083BBBDE8F3
:1037C000104001F06BBB01F01BFB0020207010BD0E
:1037D00001F0EEFA0120207010BD01F029FB02205B
:1037E000207010BD601DBDE8104001F0BFB9201D64
:1037F000BDE8104001F084B9201DBDE8104001F083
:103800006BB900003403002030B593B0282109A81B
:10381000FCF7B1FC142104A8FCF7ADFC00240094D3
:103820000194029403940121099108040A900B94D5
:103830000D910225109511904FF4E010129009A8F7
:10384000FEF7DCFB08B1FDF7D1F90F2004900595D8
:1038500006944FF4806007900894022104A8FEF7B4
:10386000D7FA08B1FDF7C2F900954FF40040029075
:103870006846FEF747FA002801D0FDF7B7F913B004
:1038800030BD7047F0B50268194C1A4D1A4E4FF012
:103890008047A04205D0B84203D0A84201D0B04230
:1038A00003D122F070034A681A43A04205D0B842FF
:1038B00003D0A84201D0B04203D122F44073CA68B9
:1038C0001A434B6922F080021A4302608A68C2627E
:1038D0000A688262A04201D1096901630121416144
:1038E0000169C90703D0016921F001010161F0BD3F
:1038F000002C0140000400400008004010B584681E
:1039000024F47F4442EA03220A432243826010BD2A
:10391000826822F070020A4342F00701816070471A
:1039200010B5036A046A24F001040462846924F077
:10393000F00444EA021423F00A020A43846102629A
:1039400010BD10B5036A046A24F01004046284698F
:1039500024F4704444EA023223F0A00343EA011144
:103960008261016210BD10B5406A0021C185C18429
:10397000FFF712F810BD70B5446A20684069C0F3C3
:10398000C01094F841100025212904D118B1E58414
:10399000204600F0C1F820684069C0F3801094F818
:1039A0004210222904D118B1E585204600F080F8A4
:1039B000606C40F0100060642046FEF7EDFF70BDC3
:1039C00010B50146486A096809684FF00003890686
:1039D0002ED4C38501680C3151E8002F22F4807287
:1039E00041E80024002CF5D10168143151E8002F82
:1039F00022F0010241E80024002CF5D101681431C5
:103A000051E8002F22F0400241E80024002CF5D1BB
:103A1000202180F84210016B012909D101680C3185
:103A200051E8002F22F0100241E80024002CF5D1CB
:103A30004363016B012902D0FFF7A8F910BD818D06
:103A4000FEF758FF10BD10B5406A01214163016BBC
:103A5000012902D0FFF7C6F910BD818D4908FEF794
:103A600049FF10BD10B50146486A09680968890612
:103A700016D40021C1840168143151E8002F22F0CE
:103A8000800241E80023002BF5D101680C3151E898
:103A9000002F42F0400241E80023002BF5D110BD79
:103AA000FFF7E0F910BD10B5406AFFF7DCF910BD73
:103AB00001680C3151E8002F22F4907241E8002394
:103AC000002BF5D10168143151E8002F22F00102DA
:103AD00041E80023002BF5D1016B012909D10168D0
:103AE0000C3151E8002F22F0100241E80023002B96
:103AF000F5D1202180F8421000210163704710B5F4
:103B00000168CA6822F04002CA60202180F8411092
:103B1000FFF7A8F9002010BD01680C3151E8002F13
:103B200022F0C00241E80023002BF5D1202180F8CB
:103B30004110704708B590F84210222901D00220A8
:103B400008BD82684FF480539A4201D1016921B1C6
:103B5000816A9A421DD052B10BE0816A02685268B4
:103B6000C2F308020A80816A891C816209E0026945
:103B70007AB10268526802F07F020A70816A491CB9
:103B80008162C18D491E0904090CC18505D0002040
:103B900008BD026852680A70F0E70168CA6822F03E
:103BA0002002CA600168CA6822F48072CA60016893
:103BB0004A6922F001024A61202180F84210002166
:103BC0004163026B012A03D0FFF7E0F8002008BD33
:103BD000016301680C3151E8002F22F0100241E826
:103BE0000023002BF5D101680A68D20602D50A68C5
:103BF00049680091818DFEF77DFEE7E770B50446C8
:103C000020680169E26821F4405111430161A16813
:103C100020690143606901432068C26841F20C6376
:103C20009A430A43C26020684169A26921F4407145
:103C3000114341611E492068884202D1FEF7A8F96C
:103C400001E0FEF795F900EBC00101EB001061689F
:103C500064228900B0FBF1F3B3FBF2F36FF01806B6
:103C60007343B0FBF1F5B0FBF1F605EB83053223AE
:103C700003EB0515B5FBF2F5B6FBF2F605F0F00522
:103C800005EB0615B0FBF1F6B0FBF1F0B0FBF2F07E
:103C90006FF01801484306EB800003EB0010B0FB07
:103CA000F2F0216800F00F002844886070BD000029
:103CB0000038014037B582B004461346039AA26229
:103CC000A38500206064222184F84210E56B1B4923
:103CD000A962E56B1A49E962E56B1A492963E16B50
:103CE00048632168E06B091DFDF7F2FA206801685E
:103CF00040680190206948B120680C3050E8001FEE
:103D000041F4807140E80012002AF5D12068143097
:103D100050E8001F41F0010140E80012002AF5D1EF
:103D20002068143050E8001F41F0400140E80012C4
:103D3000002AF5D105B0002030BD0000C1390008CF
:103D4000473A00087739000881628285C2850021E0
:103D50004164222180F842100169002904D00168E1
:103D6000CA6842F48072CA6001684A6942F001027E
:103D70004A610068C16841F02001C16000207047BD
:103D800090F84110212901D0022070478168B1F5D7
:103D9000805F01D1016961B1016A4A1C0262026857
:103DA00009785160C18C491E0904090CC1840AD0EC
:103DB00013E0016A02680988C1F308015160016AD1
:103DC000891C0162EEE70168CA6822F08002CA60BD
:103DD0000068C16841F04001C160002070470000E8
:103DE0000148FEF7DBBD00001C0200200148FEF781
:103DF000D5BD000064020020FEE700000FB4084BB0
:103E000010B504A902AA039800F0EEF8044602A92E
:103E1000002000F0C5F9204610BC5DF814FB00003E
:103E2000A14100080907090E002804DB00F1E02089
:103E300080F80014704700F00F0000F1E02080F8D7
:103E4000141D70470121FCF77FBA00210846FCF7DA
:103E50003DBA00002DE9F04D0D4614464FF07F416C
:103E6000B1EB440F9EBF4FF0FF312960BDE8F08DEC
:103E70004FF0004040EA0421C4F3C750783810F0F6
:103E80001F024A4B4FEA601CC2F120067B44C4F378
:103E9000C750A0F178004FEA601003EB800053F8A0
:103EA0002C3008BFD0E901C612D0D0F804C093402E
:103EB0002CFA06F73B4387680CFA02FC27FA06F84F
:103EC000C06807FA02F2F0404CEA080C42EA000629
:103ED000A3FB0132ACFB01C0A6FB016101EB0C06A8
:103EE0008E4234BF4FF0010C4FF0000CC1186144FA
:103EF000BCF1000F02D0814202D903E0814201D21D
:103F0000012000E00020104400F120024FEA921846
:103F10008006CA0C40EA42304F03C5F80080FCF727
:103F20002DFC82463846FCF78DFA6FF01201FCF743
:103F30000BFA07463046FCF785FA6FF02501FCF7CF
:103F400003FA834639465046FCF736F95946FCF7E2
:103F500033F900F500666FF30B0651463046FCF767
:103F60007DF93946FCF77AF95946FCF77AF9104998
:103F7000FCF77AF907460F493046FCF775F93946E0
:103F8000FCF71AF907460C493046FCF76DF939463B
:103F9000FCF712F914F0004F08BFBDE8F08DC8F12E
:103FA000805180F000402960BDE8F08D901A00003B
:103FB000DB0FC92F22AAFD290000C92F02E008C883
:103FC000121F08C1002AFAD170477047002001E093
:103FD00001C1121F002AFBD170470000014908608F
:103FE00070470000B00000202DE9FF4F8BB09A46CB
:103FF0000F460546002606E025280BD052460D99AF
:1040000090476D1C761C28780028F5D10FB03046FB
:10401000BDE8F08F0024A0460122604900E004437F
:1040200015F8013F203B02FA03F00842F7D1287847
:104030002E2817D115F8010F44F004042A280ED0B9
:104040006FF02F022878A0F1300109290AD808EB77
:10405000880102EB410100EB01086D1CF2E757F803
:10406000048B6D1C287869283ED006DC0028CDD052
:1040700063280BD0642804D136E0732810D075284B
:104080004BD052460D999047761C85E017F8040BEB
:104090008DF8000000208DF80100E946012003E0C2
:1040A00057F8049B4FF0FF3061074FF0000401D434
:1040B0000AE0641C44450DDA8442FADB19F8041066
:1040C0000029F6D106E0641C8442FCDB19F80410D8
:1040D0000029F8D1264404E019F8010B52460D9945
:1040E0009047641EF8D257E001CF4FF00A0B00282A
:1040F00002DA40422D2102E0210504D52B218DF862
:104100002410012103E0E10705D02021F7E70DF19C
:10411000200908910CE00021F9E701CF4FF00A0BCC
:10412000F9E75946FCF7D6F901F1300209F8012DFB
:104130000028F6D1ADEB090000F1200B600701D497
:104140004FF00108D84502DDA8EB0B0000E000208D
:104150008046002406E009A85246005D0D9990476C
:10416000641C761C08988442F5DB04E0302052463B
:104170000D999047761CB8F10001A8F10108F5DC13
:1041800005E019F8010B52460D999047761CBBF1DA
:104190000001ABF1010BF4DC6D1C34E709280100D0
:1041A0000A68531C0B6010707047000010B5FDF7D3
:1041B000FBF90A494FF000030A69541C06D0821A21
:1041C000B2F5FA6F02D20B73002010BD08610B73B9
:1041D000887888720120C87210BD00000800002095
:1041E00010B50A210648FBF7C6FF05480821817271
:1041F00000210173C1724A1E0261017510BD0000E9
:104200000800002010B5064C207D401CC0B220756F
:10421000032803D300F02CF80020207510BD000007
:104220000800002070B50446002C0CD0084D287BF7
:10423000082658B1FFF7BAFF30B100F03BF8A87A72
:1042400020700020E87270BD267070BD267070BDB1
:104250000800002010B500F00BF8BDE81040052262
:1042600001490248FEF784BD080000201C0200201E
:1042700010B50B4C002210212046FDF78DF9782057
:10428000FDF760F8012210212046FDF785F94FF473
:10429000FA70FDF757F8BDE81040FFF7A1BF000026
:1042A00000080140002220210148FDF775B90000F7
:1042B000000C014010B5084C012220212046FDF7DA
:1042C0006BF94FF47A70FDF73DF820460022BDE807
:1042D00010402021FDF760B9000C01402DE9F843A2
:1042E000044602464F486946B0EB420F09D94FF0E9
:1042F000E640B0EB420F94BF00204FF0FF3000903B
:1043000030E0494B22F00040834271D947492046B2
:10431000FBF7AAFFFCF73AF98046FCF703FA00F036
:104320000300009042494046FBF79EFF0546414985
:104330004046FBF799FF06463F494046FBF794FF8E
:1043400007463E494046FBF78FFF2146FBF789FFB2
:104350003946FBF783FF3146FBF780FF2946FBF721
:104360007DFF04462546009C002C45DB294614F0C1
:10437000010F08461CD0FBF777FF06463049FBF7D4
:1043800073FF3049FBF76DFF3146FBF76DFF2E4998
:10439000FBF712FF3146FBF767FF2946FBF764FF87
:1043A0002946FBF709FF14F0020F1CD0BDE8F88383
:1043B000FBF75AFF05462549FBF756FF2449FBF753
:1043C000FBFE2946FBF750FF2249FBF7F5FE294685
:1043D000FBF74AFF4FF07E51FBF7EEFE14F0020FA1
:1043E00008BFBDE8F88380F00040BDE8F883FFE730
:1043F0001046FFF72FFDB4E76800B0F17F4F3CBFD8
:104400004FF07E50BDE8F88307D14FF00100FFF771
:10441000E5FDBDE8F843FFF718BD2846BDE8F843C1
:10442000FFF710BDB61F927E490E494683F9223F21
:104430001A61342C0020A23300A0FD390000C93FCE
:10444000336D4C39DA82083CA0AA2ABEB93AB2BA16
:10445000CA9F2A3DDDFFFFBE04494A6800EBC00049
:10446000C0004B689B1A8342FBD37047001000E0EA
:1044700010B5FFF717FFBDE8104000F025B80000A9
:1044800010B500220F49002804D0012807D00228C7
:1044900010D10CE0087801280CD10A7010BD4878C2
:1044A000012807D14A70FFF705FF012010BD887869
:1044B000012801D0002010BD8A70FFF7FBFE01200B
:1044C00010BD0000A000002010B5074C00224FF4E2
:1044D00000412046FDF760F820460122BDE810406B
:1044E0009103FDF759B80000000C01400E4B4FF44A
:1044F000004100280AD001280CD0491002280DD014
:1045000003280FD100221846FDF746B801221846AD
:10451000FDF742B800221846FDF73EB801221846C2
:10452000FDF73AB870470000000C0140002806D0A3
:1045300029B10A782AB1012A0BD001207047012045
:1045400070470068084A90420BDC0120087000F0B8
:1045500082B80068054A904203DB0020087000F032
:104560007AB8002070470000000020410000704130
:1045700010B5012000F088F80A20FCF7E3FE0220C5
:1045800000F082F80A20FCF7DDFEBDE8104000F0E4
:1045900039B8000038B504460D46002C03D015B1DB
:1045A0002078032801D9012038BD00200090022185
:1045B000684600F03FF808B1012038BD9DF80100C1
:1045C0009DF8001040EA0120FBF73CFF21780C4ADF
:1045D00001290CD01146FBF779FE286021462846B8
:1045E000FFF7A4FF8220FCF7ADFE002038BD114686
:1045F000FBF76CFE4FF0FF31FBF7A6FE2860EDE7FE
:104600009A99993F002000F03FB810B5012000F0C2
:104610003BF80A20FCF796FE022000F035F80A204D
:10462000FCF790FE102000F02FF8BDE81040782035
:10463000FCF788BE0B46024646210148FEF70EBD38
:104640002801002010B5022000F01EF8BDE810403F
:104650000A20FCF777BE10B5002807D0012807D044
:10466000022807D0032807D0012010BD102004E045
:10467000112002E0132000E0202000F005F808B12E
:10468000012010BD002010BD01B501236A4646215E
:104690000148FEF740FE08BD28010020FDF7A0FA02
:1046A000FFF7B2F8FEF796FEFEF76EFEFEF718FF74
:1046B000FEF736FFFEF78EFFFEF7A8FFFEF73CFE83
:1046C000FEF752FF00F0E2FB00F0FCFB00F010FCF4
:1046D000FCE700002DE9F04100260025114F0024E1
:1046E00007EB8400D0F800040146FBF7BDFD31461E
:1046F000FBF762FD0646641CFF2CF1DD6D1CEDB27C
:10470000032DECD308493046FBF7E0FD6FF00701BD
:10471000FBF71AFEC7F82408012087F82808BDE82F
:10472000F0810000900300200000404010B54FF4DD
:10473000806421460948FBF71EFD21460848FBF727
:104740001AFD20210748FBF716FD064800212030FE
:10475000017041600172C160016110BD90030020D1
:1047600090070020900B0020002803D00249D1F8C8
:104770003018016070470000900300200148006875
:1047800000F054F80C55000810B5FFF7CFFFBDE856
:10479000104000F001B8000010B50448FDF7FAFF22
:1047A000BDE810400248FCF711BC0000D401002015
:1047B000B400002010B5FFF7B9FF0948FDF7BEFFB0
:1047C0004FF4807207490848FCF770FB0549012047
:1047D00081F82008BDE810406420FCF7B3BD00005C
:1047E000D401002090030020B400002010B500F098
:1047F00009F800F039F808B1FFF7C0FFBDE8104034
:10480000FFF768BF70B50024074D55F82400A0F5E8
:104810000060FBF717FE05EB8401C1F80004641C7F
:10482000A4B2FF2CF1D970BD900300200821FBF742
:104830008BFD0B49FBF74AFD4FF07C51FBF7BCFCAD
:10484000FBF705FE80B2FBF7FDFD0649FBF70CFD0B
:104850006FF00701FBF778FDFFF740FDFEE7000072
:1048600000401C46DA0FC940014890F828087047FC
:10487000900300202DE9F04106460F4614461D46E0
:10488000002C0ED00E48D0F82C08FBF7E0FD70434A
:1048900042F21071B0FBF1F0C2B22270B24202D902
:1048A0002670BDE8F081BA4201D22770F9E7AA422A
:1048B000F7D202EB4200A84200D805462570F0E787
:1048C0009003002010B5FFF7D3FDFFF7C3FCFCF702
:1048D0008BF8FFF74DFEFFF757FF00F059F8BDE8E2
:1048E000104000F0F3BC00002DE9F041144C267993
:1048F0002069A5681349FBF7E9FCFBF7BCFD00F054
:1049000009FA0022104BFBF72BFDFBF7C7FD07460A
:1049100029464FF07E50FBF7A1FC3946FBF7A4FC7B
:1049200007463046FBF78EFD2946FBF79DFC3946CE
:10493000FBF742FCFBF78BFD2071BDE8F081000026
:10494000340300200000C843008066400020044A71
:10495000002142F82010401CC0B21E28F9D3704735
:10496000C40B002010B50A280ED200F099F800F010
:1049700035F900224FF480710448FCF70DFEBDE8C4
:1049800010400120FCF7DEBC10BD00000008014013
:1049900010B500224FF480710448FCF7FDFDFFF7CD
:1049A000D5FFBDE8104000F04DB800000008014000
:1049B000F8B5002000906846FFF7D6FE009810F08A
:1049C000FF4F36D01B49884202DC1B48C11C09E05E
:1049D0001A49884203DC1848801DC11C02E01648B1
:1049E0000C30C11C03780A78D21AD7B24A784478BE
:1049F000121BD6B28A788178501AC5B2104A92F842
:104A00007900474303EB1723DFB200FB06F304EB07
:104A10001323DBB2684301EB1020C4B20020190459
:104A200041EA0721214342F82010401CC0B21E2851
:104A3000F9D3F8BD000048432C5500080000FA44A3
:104A4000C40B002010B572B60024002000F00CF951
:104A5000002000F009F9002000F006F9641CE4B21F
:104A60001E2CF2D362B610BD10B503460C46FFF7FC
:104A70006DFF2146BDE810401846FFF773BF08B52B
:104A8000002000904D236A461421FF20FFF7F2FE1C
:104A9000684600F0FBF8FFF78BFF00F09FF808BDB9
:104AA00070B505460E46074805704670002432462C
:104AB0002946204600F06EF8641CE4B21E2CF6D3A2
:104AC00070BD00003C0C00200146024890F87800C0
:104AD000FFF7E6BFC40B002000280DD0017819397C
:104AE000C9B20170142901D2142101700349007860
:104AF00081F87900FFF7E8BF70470000C40B002081
:104B000000280DD001781931C9B20170B42901D93A
:104B1000B42101700349007881F87900FFF7D4BF10
:104B200070470000C40B0020002813D00178193111
:104B3000C9B20170B42903D94FF0B401017003E088
:104B400002D14FF0140101700349007881F8790017
:104B5000FFF7BABF70470000C40B0020024991F86C
:104B60007910FFF79DBF0000C40B002000280DD076
:104B70000178491CC9B201700A2901D300210170D2
:104B80000349007881F87800FFF7E8BF704700001C
:104B9000C40B002010B51E281AD2142A01D21422E8
:104BA00002E0B42A00D9B4220A4C01EB4101635C53
:104BB00053431B0A21444C785443240A89785143B7
:104BC000090A1A0442EA04220A43034941F8202050
:104BD00010BD00003E550008C40B002070B5002435
:104BE0000A4D55F82400C0F3074000F03DF835F8B1
:104BF0002400C0F3072000F037F815F8240000F077
:104C000033F8641CE4B21E2CEBD370BDC40B00203F
:104C100070B5144CC2074FF4807511D0012229469B
:104C20002046FCF7B9FC0020FFF716FC00222946BD
:104C30002046FCF7B1FCBDE870400020FFF70CBC3B
:104C4000012229462046FCF7A7FC0020FFF704FCC0
:104C5000002229462046FCF79FFCBDE8704000205A
:104C6000FFF7FABB0008014070B5054672B6002494
:104C7000C4F1070125FA01F000F00100FFF7C8FFB9
:104C8000641CE4B2082CF3D362B670BD2DE9F04188
:104C900000281DD01A4D007895F87940011B194F56
:104CA000DFF86480002915DDFBF7CCFB01461748CF
:104CB000FBF7DAFA06462046FBF7C4FB3946FBF75A
:104CC000D3FA3146FBF778FAFBF7C1FB85F8790098
:104CD000BDE8F081FBF7B6FB01460D48FBF7C4FACF
:104CE00006462046FBF7AEFB4146FBF7BDFA3146D0
:104CF000FBF762FAFBF7ABFB85F87900E8E7000009
:104D0000C40B00209A99193F9A99593FCCCCCC3EBC
:104D10009899193E2DE9F04106460F46FBF7B1FC84
:104D2000041E0D4618BF0120284320F00040C0F1AA
:104D30007F6000F1E040C00F0ED0301C18BF012092
:104D4000384320F00040C0F17F6000F1E040C00F28
:104D500004BF0120FFF742F920462946BDE8F08153
:104D600010B50220FFF78CFB0F4C10B1601DFFF750
:104D7000FDFE0D491031081FFFF70CFC58B10B4C1C
:104D80002078401CC0B22070052803D3FFF75AFCDE
:104D90000020207010BDFFF7A7FD21796079BDE8E4
:104DA0001040FFF7DFBD00003403002004000020A6
:104DB00010B500F0A5F9054801794079FFF754FED8
:104DC000FFF723FCBDE81040FFF7E6BC34030020EA
:104DD00010B50120FFF754FB084C18B1201DFFF758
:104DE000A3FE06E00220FFF74BFB10B1601DFFF7AA
:104DF000BDFEBDE81040FFF7F1BE00003403002007
:104E000010B500F07DF9054801794079FFF72CFED7
:104E1000FFF7F8FBBDE81040FFF7BEBC34030020ED
:104E200010B5FFF7E3FCBDE81040FFF728BE000017
:104E300010B500F065F9054801794079FFF714FED7
:104E4000FFF7E0FBBDE81040FFF7B4BC34030020DF
:104E500010B500F069F80C48FBF7B0FD0A4C143CA3
:104E6000207D082803D0BDE81040FEF795BC064819
:104E7000401CFFF7D7F9607D082803D0BDE810403B
:104E8000FEF78ABC10BD00004803002010B500F0FA
:104E900037F9BDE81040FFF715BD000010B508490F
:104EA000032008700120FFF721FBFFF7CBFD00F086
:104EB00049FAFFF7A7FBBDE81040FFF76DBC000003
:104EC0003403002010B50020FFF710FB00F018F9A4
:104ED00006480021017001794079FFF7C5FD00F017
:104EE00039FABDE8104000F097B800003403002004
:104EF00010B5FFF7ADFF0B48007820B1012805D0B1
:104F0000022808D105E0FFF763FF04E0FFF728FF60
:104F100001E0FFF785FFFFF79BFFBDE8104000F0C1
:104F200019B800003403002010B50020FFF7A8FADC
:104F300000280BD006480078032803D0BDE81040B5
:104F4000FFF7ACBFBDE81040FFF7BCBF10BD0000CD
:104F50003403002038B5234C2078032841D0224D5B
:104F6000297888422BD0002000F0E0F820782870C3
:104F700000214FF6FF7520B101280AD0022810D079
:104F800016E0009102212B4618A2084600F018F9FD
:104F90000EE0009102212B4618A2084600F010F9FD
:104FA00006E0009102212B4617A2084600F008F9FE
:104FB0000623F02219460220009500F033F92078EC
:104FC00038B1012809D002280BD1BDE8384000F0E3
:104FD00083B8BDE8384000F03BB8BDE8384000F089
:104FE00037B838BD34030020050000204D6F6465DC
:104FF000203A204D616E75616C0000004D6F646554
:10500000203A204175746F004D6F6465203A204D41
:10501000757369630000000038B500204FF6FF7417
:1050200002210090234606A2084600F0C9F8062394
:10503000F02219460220009400F0F4F838BD000078
:105040004D6F6465203A204D616E75616C00000003
:1050500070B5A8B0642216490FA8FBF773F8154D78
:10506000642128794843B421B0FBF1F212A107A8CA
:10507000FEF7C4FE00244FF6FF76334607AA0A2146
:105080000220009400F09CF868790FA900EB8000E2
:1050900001EB40020DA102A8FEF7B0FE334602AAC2
:1050A00014210220009400F08BF828B070BD00009D
:1050B000A8540008340300204272696768746E6562
:1050C0007373203A2025642525000000436F6C6F20
:1050D00072203A202573000008B5002000904FF69A
:1050E000FF7303A21421022000F06AF808BD00003B
:1050F000456E6A6F79204D75736963210000000069
:1051000000B587B0182101A8FBF735F8182205492A
:1051100001A8FBF717F8182201A90348FBF712F8BA
:1051200007B000BD905400083403002070B5064657
:105130007F2300211A46084600F014F900250024B8
:10514000304600F077F9641CA4B2802CF8D36D1CB3
:10515000ADB2802DF3D370BD2DE9FF5F07468A46BF
:10516000802F28D2BAF1800F25D2203A5F2A22D28E
:10517000124800EB021B00254FF080091BF8058048
:1051800000240AEB050629FA04F010EA080F05D0FE
:1051900031463819039A00F088F804E0314638198E
:1051A0000E9A00F082F8641CE4B2082CEBD36D1C5C
:1051B000EDB2102DE2D3BDE8FF9F00005C55000862
:1051C0002DE9F8430646DDF820800D46174699463E
:1051D00034461AE0A2F120005F2819D204F1080039
:1051E000802804D934461035EDB2802D10D80A2A13
:1051F00010D00D2A14D04B4629462046CDF8008009
:10520000FFF7AAFF0834E4B27F1C3A78002AE1D104
:10521000BDE8F88334461035EDB2802DF8D8F3E7B9
:105220003446F1E72DE9F84F05460E4691469A4679
:10523000A9EB050000B2002800DA404207B2AAEB51
:10524000060000B2002800DA40420FFA80F84FF062
:10525000FF3B4D4501D2012000E0584600905645E5
:1052600001D24FF0010BA7EB080004B231462846EB
:105270000A9A00F01AF84D4501D1564513D0600046
:1052800000B2C8F10001884205DDA4EB08010CB2B0
:10529000009929448DB2B842E8DAE01904B206EB6D
:1052A0000B0086B2E2E7BDE8F88F10B514468028FF
:1052B0000AD2802908D20B46024600F053F8204655
:1052C000BDE8104000F0B6B810BD000070B51C4D30
:1052D0004FF48054002221462846FCF75DF90A204D
:1052E000FCF730F8012221462846FCF755F90A2040
:1052F000FCF728F8112000F07FF87820FCF722F85E
:105300003A2000F079F8052000F058F8362000F037
:1053100073F8C02000F052F8212000F06DF813203F
:1053200000F06AF8292000F067F80020FFF7FEFE81
:105330002846BDE8704001221102FCF72DB900009B
:10534000000C014000224FF480710148FCF724B9A1
:10535000000C0140012211020148FCF71DB90000B8
:10536000000C01402DE9F04107460C4615461E464B
:10537000802F20D2802C1ED2802D1CD2802E1AD2BB
:10538000AF4218D8B44216D82A2000F035F8384673
:1053900000F050F8284600F04DF82B2000F02CF8D3
:1053A000204600F047F8304600F044F8BDE8F041F0
:1053B0002C2000F021B8BDE8F081000070B5064651
:1053C0000B4C0122D1022046FCF7E6F825150022FD
:1053D00029462046FCF7E0F831460648FEF7C8F9B2
:1053E00029462046BDE870400122FCF7D5B80000F0
:1053F000000C01407C01002070B506460B4C0022D9
:105400004FF400612046FCF7C7F825150022294615
:105410002046FCF7C1F831460548FEF7A9F92946B0
:105420002046BDE870400122FCF7B6B8000C0140F0
:105430007C01002038B5010A8DF800108DF80100BC
:105440000B4C0122D1022046FCF7A6F825150022BC
:1054500029462046FCF7A0F8022269460548FEF7D7
:105460008EF9012229462046FCF796F838BD000047
:10547000000C01407C010020000000000000000042
:1054800001020304060708090000000001020304EA
:1054900003000000500400003333333F00000000DD
:1054A0000000484200000000526564000000000057
:1054B0000000477265656E0000000000426C756573
:1054C00000000000000057686974650000000000DB
:1054D0005761726D57686974650059656C6C6F77B8
:1054E00000000000507572706C6500000000437988
:1054F000616E0000000000004F72616E6765000081
:10550000000050696E6B0000000000000000A04227
:1055100000001643000096430000164400007A4441
:105520000000FA4400C05A4500A08C45400000FF2E
:10553000A500008000FFFF0000008080008000FFC9
:1055400000FF00000000FFFFFFFFFFDFBAFFFF00CA
:1055500000FFFFFF00FF80FF003CFFB400000000E1
:10556000000000000000000000000000000000003B
:105570000000183C3C18180018180000000000003B
:105580006666242400000000000000000000000007
:1055900024247E2424247E24240000000000000013
:1055A000083E2A2A3E0818242418000000000000A3
:1055B0006064081020504C0C000000000000000047
:1055C000102828102A241A28443A0000000000005D
:1055D0000000181808100000000000000000000083
:1055E00000000C18303030180C00000000000000E3
:1055F000000030180C0C0C183000000000000000F7
:1056000000000044281028440000000000000000B2
:1056100000000010107C10100000000000000000CE
:10562000000000000000001818102000000000001A
:1056300000000000007C00000000000000000000EE
:10564000000000000000000018180000000000002A
:10565000002030180C0606020000000000000000C8
:1056600000183C666666663C1800000000000000FA
:10567000000C1C0C0C0C0C1E0000000000000000B4
:10568000003C66060C18307E0000000000000000A0
:10569000003C66061C06663C00000000000000009E
:1056A00000060E1626467E060000000000000000E0
:1056B000007E607C0606663C0000000000000000E2
:1056C000001C30607C66663C0000000000000000AA
:1056D000007E660C1818181800000000000000007A
:1056E000003C66663C66663C00000000000000006E
:1056F000003C66663E060C3800000000000000001A
:105700000000001818000018180000000000000039
:1057100000000018180000181810200000000000F9
:105720000000060C1830180C0600000000000000F5
:10573000000000007E007E0000000000000000006D
:1057400000006030180C18306000000000000000FD
:10575000003C66060C18180018000000000000004D
:10576000003C666E6A6E603C0000000000000000B5
:1057700000183C66667E66660000000000000000BF
:10578000007C66667C66667C00000000000000000D
:10579000003C66606060663C0000000000000000A5
:1057A00000786C6666666C780000000000000000FF
:1057B000007E60607C60607E0000000000000000F1
:1057C000007E60607C6060600000000000000000FF
:1057D000003C66606E66663C000000000000000051
:1057E000006666667E6666660000000000000000D7
:1057F000003C18181818183C0000000000000000B9
:10580000001E0C0C0C0C6C380000000000000000A6
:1058100000666C7870786C66000000000000000084
:10582000006060606060607E0000000000000000BA
:105830000063777F6B63636300000000000000007B
:105840000066767E7E6E6666000000000000000046
:10585000003C66666666663C0000000000000000D2
:10586000007C66667C606060000000000000000054
:10587000003C666666663C1E0000000000000000FA
:10588000007C66667C6C666600000000000000001C
:10589000003C66603C06663C000000000000000022
:1058A000007E1818181818180000000000000000EA
:1058B000006666666666663C000000000000000048
:1058C00000666666663C3C180000000000000000B0
:1058D000006363636B7F77630000000000000000DB
:1058E0000066663C183C6666000000000000000090
:1058F0000066663C18181818000000000000000040
:10590000007E060C1830607E0000000001020203D9
:105910000405060708090A0B0C0D0E0F10100000F5
:10592000000000006E83F9A22915444ED15727FCD0
:10593000C0DD34F5999562DB4190433CAB6351FE89
:105940006059000800000020B4000000BC3F0008BF
:10595000145A0008B40000208C0F0000CC3F00084F
:1059600000127A00000000000000000000000000AB
:1059700000000000FF000000000000000000000028
:10598000706F7765726F6E0000000000000000000D
:10599000706F7765726F666600000000000000009F
:1059A0006D616E75616C6D6F6465000000000000D4
:1059B0006175746F6D6F6465000000000000000089
:1059C0006D757369636D6F64650000000000000011
:1059D0006368616E6765636F6C6F72000000000042
:1059E0006C696768746F6E000000000000000000C2
:1059F0006C696768746F6666000000000000000054
:105A00000000000001000000100000000000000085
:045A10000000000092
:04000005080000ED02
:00000001FF
