:020000040800F2
:100000001011002001010008C73600087F2F0008EA
:10001000C5360008C9080008A93E00080000000015
:10002000000000000000000000000000C7370008CA
:100030002709000800000000C9360008C937000879
:100040001B0100081B0100081B0100081B01000820
:100050001B0100081B010008290900082F090008DE
:100060001B010008350900081B010008CD08000825
:10007000D90800081B010008E5080008F10800087D
:100080001B0100081B0100081B0100081B010008E0
:100090001B0100081B0100081B0100081B010008D0
:1000A0001B0100081B0100081B0100081B010008C0
:1000B0001B0100081B0100081B0100081B010008B0
:1000C0001B0100081B0100081B0100081B010008A0
:1000D0001B010008913E00089D3E00081B0100081E
:1000E0001B0100081B0100081B010008DFF80CD0F1
:1000F00000F0D8F900480047BD4600081011002064
:100100000648804706480047FEE7FEE7FEE7FEE7B1
:10011000FEE7FEE7FEE7FEE7FEE7FEE7CD38000874
:10012000ED00000840EA01039B0703D009E008C97D
:10013000121F08C0042AFAD203E011F8013B00F8AC
:10014000013B521EF9D27047D2B201E000F8012BF8
:10015000491EFBD270470022F6E710B513460A4647
:1001600004461946FFF7F0FF204610BD421C10F868
:10017000011B0029FBD1801A704730B505460020CD
:10018000034600E05B1C934205D2EC5CC85C201A7D
:1001900001D1002CF6D130BDF0B480EA0102D40FB9
:1001A0004200B2EB410F02D20246084611464A0015
:1001B00042D0C30DDDB2C1F3C752AD1A202D35DADE
:1001C000C1F3160141F4000204B15242C5F1200608
:1001D00002FA06F12A411044B3EBD05F23D0C4B138
:1001E000012DA0EBC35009DCF0BC4FF0004202EA45
:1001F000C352DBB200F5000000F0F7B8400000F198
:10020000807000EBC350A0F1807040EAD1704900CB
:1002100009E0490841EAC071A0EBC35000F50000B5
:10022000400800EBC350F0BC00F0D6B86142012298
:1002300002EB4101001BF6E7F0BC704781F0004182
:10024000AAE780F00040A7E780EA010210B502F0BB
:100250000043400022D04A001FD0010E01EB126182
:10026000C0F35600C2F3560240F4000042F400020C
:10027000A0FB022000047F39140400D0401C50EA87
:10028000124001D44000491EC2B20C0604EBD0104B
:10029000401C4008802A02D003E0002010BD20F05E
:1002A0000100002900DA0020184310BD30B480EAB4
:1002B000010202F0004530F0004221F0004013D06E
:1002C00090B1C30DD40DC2F31601C0F31600E41AA9
:1002D00041F4000140F400027D34914201D3641CDA
:1002E00000E04900002C02DA30BC002070474FF4D7
:1002F00000000023914201D3891A034340084FEACA
:100300004101F7D151B1914202D14FF0004105E0D6
:1003100002D24FF0010101E06FF0010103EBC45084
:10032000284430BC00F058B8420005D0C0F3C75292
:100330005242914201DC0020704700EBC1507047EF
:10034000C10F80EAE0700844CA079623002100F03C
:100350004CB896230022114600F047B820F0004028
:10036000C10DC0F3160040F400007F2901DA00201F
:100370007047962903DCC1F19601C8407047963951
:1003800088407047002801DBC0F10040002901DBF4
:10039000C1F1004181427047002801DBC0F10040FB
:1003A000002901DBC1F100418842704730B50B469E
:1003B000014600202022012409E021FA02F59D4295
:1003C00005D303FA02F5491B04FA02F52844151E69
:1003D000A2F10102F1DC30BD0029A8BF7047401C2A
:1003E000490008BF20F00100704710B4B0FA80FC4B
:1003F00000FA0CF050EA010404BF10BC704749B188
:10040000CCF1200421FA04F411FA0CF118BF0121F7
:1004100021430843A3EB0C01CB1D4FEA00614FEAD7
:10042000102042BF002010BC704700EBC3501044A6
:100430000029A4BF10BC7047401C490008BF20F031
:10044000010010BC7047F0B4002802DCF0BC0020B2
:100450007047C0F3C751C0F3160040F40000CA074C
:1004600001D14000491E3F2202EB610500221146E6
:100470004FF4000626FA01F31344D418844201D83D
:10048000001B1A464000491C1729F3DD5100814228
:1004900002D24FF0FF3100E0002102EBC550F0BC6A
:1004A000FFF79ABF064C074D06E0E06840F00103F5
:1004B00094E8070098471034AC42F6D3FFF71AFED1
:1004C000F46100081462000870B504460068816891
:1004D000C943C90717D1816821F00101816001F08A
:1004E00021F805460AE000BF01F01CF8401B022875
:1004F00004D920688068C043C00706D0206880689F
:10050000C043C007F0D0002070BDA06A40F01000CA
:10051000A062E06A40F00100E062012070BD10B509
:100520000146406A826A12F0500F05D0006A026BE1
:10053000BDE8104008461047816A41F400718162AD
:1005400001688968C1F3424107290CD1017B51B987
:10055000816A21F480718162816AC90403D4816A4D
:1005600041F00101816200F069FA10BD10B5406AE6
:10057000816A41F040018162C16A41F00401C162B7
:1005800000F06BFA10BD10B5406A00F065FA10BDBE
:10059000F8B500260446009600688168C943C9077B
:1005A0002DD0816841F0010181601648164900682C
:1005B000B0FBF1F000E0401E00900028FBD100F0FD
:1005C000B1FF054616E000BF00F0ACFF401B02285B
:1005D00010D920688068C043C0070BD0A06A40F0E3
:1005E0001000A062E06A40F00100E06284F824603C
:1005F0000120F8BD20688068C043C007E4D1002016
:10060000F8BD00000000002040420F0070B5064C0D
:100610000025402124F8405F0348FFF79CFDA570AA
:100620000920E070A57170BDF80300202DE9F04F9E
:100630004FF0000ADFF89480254EC1B0544606EB17
:100640000410DFF888B0B8F840708146FFF78EFDDF
:100650000546AF420ED3024649465846FFF78DFD88
:1006600040B9AF4206D188F843404FF0010A122149
:1006700018A025E0641CE4B2082CE0D36F464FF4C8
:100680008071384618A203F011FCC4B2C4F5807121
:1006900038191CA203F00AFC2044C5B25FF0000424
:1006A00006EB0413C5F5807178191CA203F0FEFB5C
:1006B000641C2844E4B2C5B2082CF1D3294668462C
:1006C00000F0F6F841B05046BDE8F08FF803002086
:1006D0001A000020436F6D6D616E6420697320768F
:1006E000616C69640D0A0000546865726520697365
:1006F000206E6F207375636820636F6D6D616E642B
:100700000D0A000056616C696420636F6D6D616E47
:100710006473206172653A0D0A00000025730A00B7
:1007200010B5164802F068F9FFF770FF144C01226B
:100730000221204600F0F0FE642000F0CFFD0022F0
:100740000221204600F0E8FE642000F0C7FD0122EF
:100750000221204600F0E0FE4FF4FA7000F0BEFDEA
:1007600040220849054802F0FFF8002805D0054856
:10077000042100F8441F0221417010BD1C03002019
:1007800000080140F803002010B50D4802F034F9CC
:10079000FFF73CFF002202210A4800F0BDFEC820FE
:1007A00000F09CFD40220849054802F0DDF80028D1
:1007B00005D00548042100F8441F0221417010BDF6
:1007C0001C03002000080140F803002070B505005C
:1007D0001CD000F0A7FE0F4C01460020A26C22B1F5
:1007E000891A41F28832914202D984F8460002E027
:1007F000012184F8461094F8421084F8420031B187
:10080000FFF714FF18B194F84300287070BD092059
:10081000FBE70000F803002010B54C210948FFF762
:100820009AFCFFF7B1FF074890F84410042906D05E
:10083000022100F8441F00214170084610BD01202C
:1008400010BD0000F8030020014890F846007047F2
:10085000F803002010B5114802F0CEF80A2000F08D
:100860003DFDFFF75DFF0E4C94F84400042811D0C5
:1008700064230A220BA1094802F030FB40F2DC504D
:1008800000F02CFDFFF780FF022004F8440F002049
:10089000607010BDBDE81040FFF776BF1C0300205C
:1008A000F803002041542B52455345540D0A0000D3
:1008B00030B129B10A4601466423024802F00EBB5A
:1008C000012070471C030020FEE70000014800F0F3
:1008D000F5BB000010010020014800F0EFBB000054
:1008E00090020020014800F0E9BB0000A8030020AE
:1008F000014800F0E3BB00006403002030B590F82D
:1009000040500124AC40C56B6C6004686360436870
:10091000102B036803D099600068C26030BD9A60F4
:100920000068C16030BD7047012000F0F9BC0220B2
:1009300000F0F6BC082000F0F3BC72B6FEE7000041
:10094000F8B50024009490F824202546012A12D0FE
:10095000012280F824204A681F23072A0DD2066846
:10096000776B521E02EB820293409F430B689340C9
:100970001F43776319E00220F8BD06680D2A0AD2EA
:10098000376BD21F02EB820293409F430B68934068
:100990001F43376309E0F76A0D3A02EB8202934086
:1009A0009F430B6893401F43F7620A68072306685A
:1009B0000A2A0AD3F7680A3A02EB420293409F439D
:1009C0008B6893401F43F76008E0376902EB4202EF
:1009D00093409F438B6893401F4337610A68102AF6
:1009E00001D0112A20D1124B02689A4217D1936884
:1009F0001B0219D4936843F400039360096810291B
:100A000012D10C490C4A0968B1FBF2F101EB8101EA
:100A1000490000E0491E00910029FBD104E0816AF1
:100A200041F020018162012480F824502046F8BD65
:100A3000002401400000002040420F0004490068EB
:100A40000968884203D10349012081F800067047F4
:100A5000B000002044040020704770470068C06C5C
:100A6000704700002DE9F0414FF0000704003D46BB
:100A70007ED0A06A002628B9E66284F82460204669
:100A800000F07EF82046FFF71FFDA16A01F010017B
:100A9000014304D0A06A40F01000A06268E0A16A9F
:100AA00021F4885141F00201A1626268E169237B6F
:100AB0000A4347EA43010A43A1684FF48077B942E9
:100AC00008D0012906D0002194F814C0BCF1010F10
:100AD00002D00AE03946F7E7F3B1A36A43F02003F6
:100AE000A362E36A43F00103E3622368D3F804C01E
:100AF0002CF4694C4CEA010CC3F804C023689968D3
:100B0000DFF870C001EA0C0111439960A168B94295
:100B10000BD0012909D00CE0DFF85CC0A3690CEB15
:100B200043330B4343F40061DFE7218A0D05A5F54C
:100B300080152168CB6A23F470032B43CB622168B4
:100B400089680E4B1940914208D1E662A16A21F0F2
:100B5000020141F00101A162BDE8F081A06A20F02C
:100B6000020040F01000A062E06A40F00100E06284
:100B70000120F1E7FDF7E1FF00E0FFFFFE0E1FFFA0
:100B800070B586B00026009601960296039605463B
:100B9000284C026828490320284BA2422FD18A6999
:100BA00042F400728A618A6902F4007204928A69CE
:100BB00042F004028A61896901F004010491012173
:100BC000CDE900106946184600F0B6FB1D4C1C48E4
:100BD000C4E900068020C4E9026040002061800072
:100BE00060612020A061C001E061204600F010FBA0
:100BF00008B1FFF7A2FE2C62656206B070BD124C10
:100C0000A242FAD18A6942F480628A618A6902F456
:100C1000806204928A6942F004028A61896901F063
:100C2000040104911021CDE900106946184600F036
:100C300083FBE2E70024014000100240000801406D
:100C40000800024010010020002801402DE9F8436F
:100C500000270D460446009700F064FC804620689B
:100C60008168C90508D5A06A40F02000A06284F818
:100C700024700120BDE8F8834168C90503D4C06A27
:100C800010F4700F2AD0022000F072FE3B49096870
:100C9000B1FBF0F62068036939490B424FEA610164
:100CA0004FEAA1121FD1C3684FEA611C13EA0C0F6F
:100CB00019D103690B4225D1C068104222D11420FA
:100CC00023E0681C0AD02DB100F02CFCA0EB08003A
:100CD000A84203D920680068800725D520680068ED
:100CE0008007EED52DE003690B4202D1C1681142A5
:100CF00006D0026923490A4206D1C068084203D1DE
:100D0000542002E0292000E0FC204643009816E031
:100D1000681C11D02DB100F005FCA0EB0800A84222
:100D20000AD90098B04207D2A06A40F00400A0623D
:100D300084F8247003209DE70098401C0090B04286
:100D4000E6D321686FF012000860A06A40F40070DA
:100D5000A06220688068C0F3424007280CD1207B45
:100D600050B9A06A20F48070A062A06AC00403D4C5
:100D7000A06A40F00100A06200207BE70000002094
:100D8000244992244992240070B5044690F8240026
:100D900001280DD0012084F824002046FFF7F8FB3D
:100DA00002004FF0000005D084F82400104670BD0A
:100DB000022070BDA16A40F20123994341F4807181
:100DC000A1621F4D23681F49AB4218D10E6816F46B
:100DD000702F14D0A66A46F48016A6620E687605B7
:100DE00005D5A66A26F4005646F48056A662A66A81
:100DF000F6040AD5E66A26F00606E66206E0A66A6A
:100E000026F48016A6625E68E9E7E06284F82400B2
:100E10006FF00200186020688368C3F34243072B19
:100E200005D1A84208D1096811F4702F04D0816857
:100E300041F480118160B9E7816841F4A001F9E7CC
:100E400000280140042401402DE9F047894604466A
:100E50003B4900683B4F0E1D9046884201D0B84286
:100E600007D1306810F4702F03D001252846BDE863
:100E7000F08794F8240001280CD0012084F8240085
:100E80002046FFF785FB05004FF0000004D084F8F2
:100E90002400EBE70220EAE7A16A40F601629143F1
:100EA00041F48071A1622168B94218D1326812F40C
:100EB000702F14D0A16A41F48011A16231684905F4
:100EC00005D5A16A21F4005141F48051A162A16AC3
:100ED000C9040AD5E16A21F00601E16206E0A26ACE
:100EE00022F48012A2624968E9E7E06284F82400F3
:100EF000216A15488862216A1448C862216A144828
:100F0000086321686FF0020008602068816841F47E
:100F100080718160216843464A464C31206A00F066
:100F2000A5F920688168C1F342410729816803D08F
:100F300041F48011816099E741F4A001FAE70000D3
:100F400000240140002801401F0500088705000813
:100F50006D05000810B5044690F82400012807D05C
:100F6000012084F824002046FFF7AEFA10B107E014
:100F7000022010BDA16A21F4885141F00101A16253
:100F8000002184F8241010BD10B5044690F8240008
:100F9000012807D0012084F824002046FFF794FAA6
:100FA00010B113E0022010BD21688A6822F480721B
:100FB0008A60216A91F82120022A07D1084600F0B0
:100FC0000EF8A16A30B141F04001A162002184F81D
:100FD000241010BD21F4885141F00101F5E710B54E
:100FE00090F821100022022905D00421816380F8A5
:100FF0002020012010BD01680B6823F00E030B6058
:1010000001680B6823F001030B6090F84030C46B5B
:10101000012101FA03F3636080F8211080F8202099
:10102000104610BD10B590F821100024022903D0FD
:101030000421816301243DE001680A6822F00E0268
:101040000A6001680A6822F001020A601A4A01680F
:10105000914201D1012121E0174A1432914201D17C
:1010600010211BE0144A2832914201D1891515E064
:10107000114A3C32914201D189140FE00E4A50329C
:10108000914202D14FF4803108E00B4A6432914220
:1010900002D14FF4801101E04FF08071064A083A06
:1010A0005160012180F82110002180F82010416B4F
:1010B00001B18847204610BD080002402DE9F05FCD
:1010C000C16B0C6801680B68D0F840C0042202FABA
:1010D0000CF2494DDFF824A1494E4A4FDFF828B100
:1010E000DFF828E122422CD05A072AD50A68920656
:1010F00003D40A6822F004020A600168A94201D1FF
:10110000042219E0514501D1402215E0B14202D13B
:101110004FF4806210E0B94202D14FF480420BE0FC
:10112000594502D14FF4802206E0714502D14FF4B7
:10113000800201E04FF080622F4908394A60C16A9D
:101140003BE04FF0020808FA0CF818EA040F4FF0E1
:1011500000094FF0010235D05FEA837832D50B6881
:101160009B0605D40B6823F00A030B6080F821204E
:101170000168A94201D1022219E0514501D1202282
:1011800015E0B14202D14FF4007210E0B94202D131
:101190004FF400520BE0594502D14FF4003206E003
:1011A000714502D14FF4001201E04FF00072124974
:1011B00008394A6080F82090816A00291AD0BDE879
:1011C000F05F0847082505FA0CF5254212D01B07E9
:1011D00010D50B6823F00E030B6090F84010C36B22
:1011E00002FA01F15960826380F8212080F8209092
:1011F000016BE2E7BDE8F09F080002401C000240DE
:101200003000024044000240580002406C0002409E
:1012100030B528B308C8134914221944B1FBF2F1C0
:101220008900C16310498163022141771A6843F63E
:10123000F0718A43D0E900142143D0E902452C43E0
:1012400021430469214344692143846921431143B3
:10125000196000214163012242770177084630BDC1
:10126000012030BDF8FFFDBF0000024070B504460C
:1012700090F82000002501280CD0012084F82000DF
:1012800094F821600020012E06D084F82000022569
:10129000284670BD022070BD022684F82160A0633C
:1012A0002068066826F0010606602046FFF726FB48
:1012B000E06A00282068016802D041F00E0106E0D3
:1012C00021F0040101602068016841F00A01016019
:1012D0002068016841F001010160D9E770B504465A
:1012E00000F020F90546601C02D004480078044450
:1012F00000F018F9401BA042FAD370BDA0000020F6
:101300000121064A012805D0022805D0082800D16D
:101310009170704711707047517070479A000020AB
:10132000044910B50A68024202D00860FFF7E8FFDE
:1013300010BD0000140401402DE9F84FDFF8B8910A
:101340000024A9F1040B23460F2709F1040AABF18D
:10135000040EC9E00125A5402A40AA427DD1674E6E
:10136000D1F804C0ACEB0608B44532D014DCBCF1B3
:10137000030F3AD009DCBCF1000F2AD0BCF1010FF9
:101380001CD0BCF1020F31D11DE0BCF1110F17D000
:10139000BCF1120F2AD119E0B8F5881F19D006DC6C
:1013A000B8F5803F15D0B8F5801F1FD111E0B8F512
:1013B000001F0ED0B8F5041F18D10AE0CB6815E065
:1013C000CB681B1D12E0CB6808330FE0CB680C33F1
:1013D0000CE08B682BB1012B4FF0080303D0456163
:1013E00004E0042302E0056100E00023FF2A01D8A5
:1013F000064601E000F104064FEA840501D9A5F193
:101400002005D6F8008007FA05FC28EA0C0803FA44
:1014100005F548EA0508C6F800804D68ED0062D57C
:10142000374DAE6946F00106AE61AD6924F00306A2
:1014300005F001050095334D06EB050CDCF808506E
:10144000A607360F07FA06F825EA0805DFF8B88080
:10145000404503D14FF0000817E044E0DFF8AC80CE
:10146000404502D14FF001080FE0DFF8A48040456D
:1014700002D14FF0020808E0DFF89880404502D121
:101480004FF0030801E04FF0040808FA06F848EAB4
:101490000508CCF808804D68D9F80060ED024D468B
:1014A00001D5164300E096432E604D68DAF80060DF
:1014B000AD02554601D5164300E096432E604D68B7
:1014C000DBF80060AD035D4601D5164300E09643AE
:1014D0002E604D68DEF80060ED03754601D51643B9
:1014E00000E096432E60641C0D682A46E5407FF4B8
:1014F00031AFBDE8F88F0000080401400000111072
:10150000001002400000014000080140000C0140B2
:1015100000100140001401400AB101617047090444
:10152000FBE700000148806870470000A000002031
:1015300070B5040025D094F83D00002520B984F84A
:101540003C50204600F04EF9242084F83D002068ED
:10155000016821F0010101602068016841F4004147
:1015600001602068016821F40041016000F05EFB29
:101570004D4A6168914201D84C4900E04C4988428B
:1015800001D2012070BD4B492368B0FBF1F15E68C8
:1015900026F03F060E435E606368934206D94FF41F
:1015A000967359434FF47A73B1FBF3F12368491CE6
:1015B0001E6A26F03F06314319626168914210D8D5
:1015C0004900401EB0FBF1F2521CC2F30B02042A88
:1015D00001D2042022E0B0FBF1F0401CC0F30B006C
:1015E0001CE0A268F2B301EBC10303EB0116431E3A
:1015F000B3FBF6F35B1C43F480431B0549D092B365
:1016000001EBC10202EB0111401EB0FBF1F0401CE6
:10161000C0F30B0040F4804040F400402168CA69E8
:101620004CF6FF739A431043C861D4E90710014395
:101630002068026822F0C00211430160D4E903016E
:1016400001432068826848F2FF339A431143816066
:10165000D4E9050108432168CA6822F0FF0210435B
:10166000C86001E00EE016E02068016841F0010169
:1016700001602564202084F83D00256384F83E50F5
:10168000002070BD01EB4106431EB3FBF6F35B1C6B
:10169000B3E70120C2E701EB4101401EB0FBF1F0CE
:1016A000401CC0F30B00B7E7A086010080841E0039
:1016B00000093D0040420F002DE9F84F1F469046BB
:1016C0008A460446DDF82890FFF72CFF054694F87B
:1016D0003D0020287FD11923012240492046009552
:1016E00001F0FAFC002876D194F83C00012872D071
:1016F000012084F83C0020680168C90703D1016813
:1017000041F0010101602068016821F4006101607D
:10171000212084F83D00102084F83E000026266435
:10172000C4F824806785608D20852D48E0622B46B3
:101730004A465146204601F055FC90B9206841695F
:101740008069009036E02A464946204601F06AFD4D
:1017500050B1206C042804D12068016841F4007164
:1017600001600120BDE8F88F606A21680078086197
:10177000606A401C6062618D491E6185218D491E31
:1017800089B2218522685369DB435B070BD451B1D1
:1017900000781061606A401C6062608D401E608548
:1017A000208D401E20852A464946204601F068FCCF
:1017B0000028CED1208D0028C5D154F83D0B0168FA
:1017C00041F400710160202004F81E09E677667775
:1017D0000020C7E7FFE70220C4E700000200100076
:1017E0000000FFFF10B586B0002100910191029129
:1017F000039100680F4988421AD10F4CA06940F04C
:101800000800A061A069694600F008000490C020AB
:10181000009012200190032003900848FFF78CFDF0
:10182000E06940F40010E061E06900F40010049009
:1018300006B010BD0054004000100240000C0140F2
:10184000024881680278114481607047A00000203E
:10185000074810B5016841F010010160032000F055
:1018600075F80F2000F006F800F024F8002010BDF5
:101870000020024070B50D4D04464FF47A7128786F
:10188000B1FBF0F00A490968B1FBF0F000F0E9FCA7
:1018900048B9102C07D200222146501E00F036F81D
:1018A00000206C6070BD012070BD0000A000002011
:1018B000000000200C4808B5816941F001018161F8
:1018C000816901F001010091C16941F08051C1615C
:1018D000C06900F0805000900448416821F0E06148
:1018E00041F00071416008BD00100240000001405D
:1018F000002809DB00F01F0201219140400980000F
:1019000000F1E020C0F8001170470000F0B40E4B69
:101910001B680C46C3F30223C3F10705042D00D94D
:101920000425191D072901D2002300E0DB1E012632
:1019300006FA05F1491E214099409E40761E164048
:101940003143F0BC02F0DABA0CED00E0064900F0D9
:10195000070208684FF6FF03184040EA0220034AD6
:1019600010430860704700000CED00E00000FA052D
:1019700010B501460020234C012922D0022939D07C
:1019800010291DD161682268D20119D51E48C1F302
:101990008342C903805C0AD561681B4AC1F3404198
:1019A000921E515C194AB2FBF1F1484301E018491B
:1019B00048436168490203D440000321B0FBF1F0C1
:1019C00010BD226AC2F30121012903D1920701D57A
:1019D000C80310BD022905D1626A920702D549F6F3
:1019E000404010BD0329FCD121688903F9D54FF28D
:1019F000244010BD00F02AF96168C1F38131491C0F
:101A00004900DBE7001002409861000800127A00EC
:101A100000093D002DE9F84305460078354CC00724
:101A200054D0E0690026C00008D4E06940F080503E
:101A3000E061E069012600F0805000902E480168C6
:101A4000C90512D40168804641F480710160FFF736
:101A500069FD074605E000BFFFF764FDC01B642871
:101A600023D8D8F80000C005F6D5206A10F44070DD
:101A700021D0A98801F4407181421CD0206A1F49FD
:101A8000012220F440700A6000220A602062C00730
:101A900011D0FFF747FD074641F2883808E000BF44
:101AA000FFF740FDC11B414502D90320BDE8F88383
:101AB000206A8007F4D5206A696820F440700843E2
:101AC00020621EB1E06920F08050E0612878800734
:101AD00005D56068A96820F4404008436060287814
:101AE000C00605D56068E96820F48000084360609E
:101AF0000020DBE70010024000700040400442423A
:101B00002DE9F0470F46050061D0434E306800F0E4
:101B10000700B84209D2306820F00700384330602F
:101B2000306800F00700B84251D128683B4C81076B
:101B300012D5400703D5606840F4E0606060287803
:101B4000000703D5606840F4605060606068A96871
:101B500020F0F000084360602878C00728D068684B
:101B6000012810D02168022810D0890700292EDA18
:101B7000616821F0030101436160FFF7D3FC8046F7
:101B800041F288390DE021688903EFE78901EDE72B
:101B9000FFF7C8FCA0EB0801494502D90320BDE8C6
:101BA000F0876068696800F00C00B0EB810FEFD13E
:101BB000306800F00700B8420BD9306820F0070009
:101BC00038433060306800F00700B84201D001208F
:101BD000E5E72878400705D56068E96820F4E0600B
:101BE000084360602878000706D56068296920F4FA
:101BF000605040EAC100606000F038F86168084A4F
:101C0000C1F30311515CC8400649086006480068EA
:101C1000FFF730FE0020C2E7002002400010024023
:101C2000B05A000800000020A40000200448054924
:101C300000684968044AC1F30221515CC8407047FA
:101C40000000002000100240C05A00080448054966
:101C500000684968044AC1F3C221515CC84070471A
:101C60000000002000100240C05A00080E4A5168CF
:101C70000E4801F00C03042B11D0082B0FD10C4897
:101C8000C1F38343C903C05C0AD55168084AC1F354
:101C90004041921E515C054A5043B0FBF1F0704741
:101CA00004494843704700000010024000127A00C7
:101CB0008661000800093D002DE9F84F040070D04E
:101CC0002078C04DC00749D06868C0F38100012862
:101CD00007D06868C0F38100022809D16868C00392
:101CE00006D52868800339D560680028E7D035E03C
:101CF0006068B0F5803F0BD010B1B0F5A02F11D0C7
:101D0000286820F480302860286820F4802002E0D1
:101D1000286840F480302860606890B1FFF702FCCA
:101D200006460AE0286840F480202860F0E700BFFB
:101D3000FFF7F8FB801B642873D828688003F7D569
:101D40000CE0FFF7EFFB064605E000BFFFF7EAFBFC
:101D5000801B6428F0D828688003F7D420789A4E36
:101D600080074FF001094FF0000839D5686810F07E
:101D70000C0F07D06868C0F38100022809D1686899
:101D8000C00306D42868800714D52069012808D12B
:101D900010E02069B0B1C6F80090FFF7C3FB07461A
:101DA00005E00AE1FFF7BEFBC01B0228C4D8286883
:101DB0008007F7D52868616920F0F80040EAC10083
:101DC00028600DE0C6F80080FFF7ACFB074604E092
:101DD000FFF7A8FBC01B022823D828688007F7D488
:101DE000207800072CD57948A169D9B1C0F80090B6
:101DF000FFF798FB074604E0FFF794FBC01B02289F
:101E00000FD8686A8007F7D571484FF4FA51006817
:101E1000B0FBF1F0009000BF0098411E0091FAD293
:101E20000EE080E0C0F80080FFF77CFB074604E08E
:101E3000FFF778FBC01B022875D8686A8007F7D4C3
:101E40002078400760D5E8690027C00008D4E86919
:101E500040F08050E861E869012700F08050009070
:101E60005C480168C90513D40168834641F4807158
:101E70000160FFF757FB824606E000BFFFF752FB09
:101E8000A0EB0A0064284ED8DBF80000C005F5D5A9
:101E9000E06801280AD008B1052813D0286A20F08C
:101EA00001002862286A20F0040002E0286A40F05D
:101EB00001002862E06841F2883B98B1FFF732FBED
:101EC00082460BE0286A40F004002862EEE700BF7B
:101ED000FFF728FBA0EB0A0159455AD8286A80076A
:101EE000F6D50CE0FFF71EFB824605E0FFF71AFB74
:101EF000A0EB0A0159454CD8286A8007F6D41FB1D7
:101F0000E86920F08050E861E06988B36968C1F34E
:101F10008101022944D00228C6F8608004D0FFF76E
:101F200001FB044638E034E0FFF7FCFA074604E022
:101F3000FFF7F8FAC01B02282BD828688001F7D4D5
:101F4000206AB0F5803F05D16868A16820F40030B0
:101F500008436860D4E908010843696821F47411F2
:101F600008436860C6F86090FFF7DCFA044606E0B4
:101F700025E000BFFFF7D6FA001B022809D8286821
:101F80008001F7D51BE000BFFFF7CCFA001B022849
:101F900002D90320BDE8F88F28688001F4D40EE050
:101FA0000128F7D06868226A00F48031914204D198
:101FB000616A00F47010884201D00120EAE7002035
:101FC000E8E7000000100240000042428004424264
:101FD000000000200070004070B5040009D0606A65
:101FE000002540B125616561A56294F8510040B1BA
:101FF0000CE0012070BD6068B0F5827FF4D0E5612F
:10200000F2E784F85050204600F040F8022084F8AF
:1020100051002068016821F040010160A0882189F9
:1020200000F4827001F404410843A18901F40061C5
:102030000843217C01F002010843217D01F00101E8
:102040000843218B01F400710843217F01F038011E
:10205000084394F8201001F080010843218D01F419
:102060000051084321680860A069042101EA10407A
:10207000216848602068C16921F40061C16165651B
:10208000012084F85100002070BD000030B585B0FB
:102090000024009401940294039400681449884237
:1020A00023D11448816941F480518161816901F42F
:1020B00080510491816941F00401816180690E4D74
:1020C00000F004000490A020009002200190032062
:1020D000039069462846FFF72FF94020CDE9000418
:1020E000694628460294FFF727F905B030BD000085
:1020F0000030014000100240000801402DE9F84F77
:10210000984616468A460446FFF70CFA814694F82C
:10211000510001281ED1BAF1000F73D0002E71D0EA
:1021200094F85000012815D0012784F8507003203E
:1021300084F8510000256565C4F830A0A686E686BF
:10214000A563A587E58765642564A068B0F5004FA1
:1021500003D00CE00220BDE8F88F2068016821F070
:10216000400101602068016841F4804101602068FD
:102170000168490603D4016841F040010160E0684C
:10218000B0F5006F606803D048B3012E27D047E058
:1021900008B1012E1FD1206B21680088C86006E0BD
:1021A00020688168890709D5216B0988C160206B87
:1021B000801C2063E08E401EE0860CE0FFF7B2F941
:1021C000A0EB0901414503D3B8F1FF3F03D035E04F
:1021D000B8F1000F32D0E08E0028E1D123E0206B6F
:1021E00021680078087306E02068816889070AD5AD
:1021F000216B09780173206B401C2063E08E401E28
:10220000E0860DE02BE0FFF78DF9A0EB09014145D9
:1022100003D3B8F1FF3F03D010E0B8F1000F0DD0A9
:10222000E08E0028E0D14A464146204601F04DFAB2
:1022300008B120206065A06830B109E084F85170D1
:1022400084F85050032086E72068C16880680090B9
:1022500084F8517004F8505F60680028F3D00120C2
:1022600079E710B5401EB0F1807F01D3012010BD89
:102270004FF0E02460610F21601701F03FFE002065
:10228000A06107202061002010BD10B590F83C200F
:10229000012A22D0012280F83C20CA688C6822F4EE
:1022A000407222434C6822F4806222430C6822F47C
:1022B000006222430C6922F4805222434C6922F4CA
:1022C00000522243C969002322F480420A43016874
:1022D0004A6480F83C30002010BD022010BD000090
:1022E00070B590F83C20012A26D0012480F83C40AB
:1022F000022280F83D2003685A689D6822F070062B
:102300000A6832435A600D4B02689A4208D0B2F113
:10231000804F05D00A4B9A4202D00A4B9A4204D110
:10232000496825F080031943916080F83D40002101
:1023300080F83C10084670BD022070BD002C0140A2
:10234000000400400008004010B5040003D094F8D9
:102350003D0010B107E0012010BD002084F83C00D2
:10236000204600F01FF8022084F83D00211D20685F
:1023700001F0AEFA012084F8460084F83E0084F8AB
:102380003F0084F8400084F8410084F8420084F85B
:10239000430084F8440084F8450084F83D000020A0
:1023A00010BD000038B505460068184A184990422B
:1023B0001FD1886940F4006088618869164C00F478
:1023C0000060009013482060102060600020802191
:1023D000C4E90201490021618900C4E90510E061F6
:1023E0002046FEF715FF08B1FEF7A7FA6C6265629A
:1023F00038BD0A4A9042FBD1C86940F00200C8616A
:10240000C86900F00200009038BD0000002C0140B7
:10241000001002401C000240900200200004004016
:1024200090F83D10012901D001207047022180F869
:102430003D1000680B49884208D0B0F1804F05D0AC
:102440000949884202D00949884204D1816801F0D3
:102450000701062903D0016841F001010160002055
:1024600070470000002C01400004004000080040BC
:1024700001680A6A41F211131A4207D10A6A9B10D5
:102480001A4203D10A6822F001020A60012180F891
:102490003D100020704770B5044690F83C000025C0
:1024A000012817D0012684F83C60022084F83D0002
:1024B0002068826822F0770222F47F4282600868F6
:1024C000502838D00DDC20284FD005DC90B31028E0
:1024D00011D14AE0022070BD302846D040280AD1F0
:1024E0003BE060282FD070280DD0B0F5805F03D07E
:1024F000B0F5005F12D0012584F83D60002084F81B
:102500003C00284670BDCB68D1E90121206801F06C
:102510009DFA2068816841F0770109E0CB68D1E934
:102520000121206801F092FA2068816841F480411D
:102530008160E1E719E0CA684968206801F03AFB68
:102540005021206806E0CA684968206801F043FB12
:102550006021206801F084FACEE7CA6849682068E3
:1025600001F028FB40212068F4E72268014610466C
:10257000F0E7704700B585B000210091019102910C
:10258000039100680B49884212D10B48816941F0E0
:10259000040181618069694600F0040004904FF4F1
:1025A000807000900220019003900448FEF7C4FE62
:1025B00005B000BD002C01400010024000080140A1
:1025C00070B5044690F83C0000260D4601280FD057
:1025D000012084F83C006AB1042A1DD0082A2FD0BB
:1025E0000C2A3FD00126002084F83C00304670BD04
:1025F000022070BD206801F03BFA2068816941F03B
:10260000080181612068816921F0040181612068ED
:1026100081692A69114311E0206801F051FA2068AC
:10262000816941F4006181612068816921F48061E0
:102630008161206881692A6941EA02218161D2E7CA
:10264000206801F069FA2068C16941F00801C161A0
:102650002068C16921F00401C1612068C1692A694B
:10266000114311E0206801F083FA2068C16941F448
:102670000061C1612068C16921F48061C161206885
:10268000C1692A6941EA0221C161ACE710B50400C1
:1026900003D094F83D0010B107E0012010BD0020E8
:1026A00084F83C00204600F01EF8022084F83D002B
:1026B000211D206801F00CF9012084F8460084F8FF
:1026C0003E0084F83F0084F8400084F8410084F81C
:1026D000420084F8430084F8440084F8450084F8FC
:1026E0003D00002010BD7047064900680968884217
:1026F00007D10549002081F86C020146014800F02D
:10270000D1B8704700020020540A00207047000032
:102710002DE9F04117460D0004464FF000060CD09D
:10272000042D11D0082D16D094F84100022819D09C
:1027300094F84100012818D07CE094F83E0002286B
:1027400010D094F83E00F5E794F83F00022809D035
:1027500094F83F00EEE794F84000022802D094F885
:102760004000E7E70220BDE8F081002F62D0002B97
:1027700060D04649464ADFF81CC102204DB1042D05
:1027800018D0082D27D084F841000C2D44D0012604
:1027900079E084F83E00606A8162606A3946C2620C
:1027A000606AC0F830C02268606A3432FEF75EFDAD
:1027B00088BB21E084F83F00A06A8162A06A3946A4
:1027C000C262A06AC0F830C02268A06A3832FEF740
:1027D0004DFD00BB15E084F84000E06A8162E06ACC
:1027E0003946C262E06AC0F830C02268E06A3C3212
:1027F000FEF73CFD78B909E02068C16841F400713A
:102800001EE02068C16841F4806119E02068C16859
:1028100041F4006114E00DE0206B8162206B3946C9
:10282000C262206BC0F830C02268206B4032FEF7D5
:102830001DFD08B1012096E72068C16841F4805170
:10284000C16001222946206801F07EF81249206803
:10285000884203D1426C42F40042426420688842BC
:1028600008D0B0F1804F05D00C49884202D00C4905
:10287000884204D1816801F00701062903D001686C
:1028800041F00101016030466DE700006339000846
:10289000C1390008F9390008002C0140000400404B
:1028A0000008004070B50D0004464FF0000607D048
:1028B000042D0CD0082D11D00C2D16D0012645E08A
:1028C0002068C16821F40071C160606A13E020686B
:1028D000C16821F48061C160A06A0CE02068C16811
:1028E00021F40061C160E06A05E02068C16821F45C
:1028F0008051C160206BFEF795FB002229462068BD
:1029000001F022F8174B41F2111120688A10984209
:1029100009D1036A0B4206D1036A134203D1436C07
:1029200023F4004343642068036A0B4206D1016A22
:10293000114203D1016821F00101016001203DB184
:10294000042D08D0082D09D084F84100304670BD10
:1029500084F83E00FAE784F83F00F7E784F8400087
:10296000F4E70000002C014018B5034690F842003F
:10297000202801D0022018BD61B15AB1012018638E
:1029800000205863184601F02FFA0028F3D1196B84
:10299000012901D0012018BD19680A684968009111
:1029A00019680C3151E8002F42F0100241E8002470
:1029B000002CF5D118BD000010B50C4A0068126853
:1029C000904211D172B6402900D94021084C012013
:1029D00024F8401FA070FEF7A5FDA0604022044926
:1029E0000248FFF7C1FF62B610BD00001C030020C3
:1029F000F80300207047000070B5044620680C30D2
:102A000050E8001F21F4907140E80012002AF5D12F
:102A10002068143050E8001F21F0010140E8001246
:102A2000002AF5D1206B012809D120680C3050E82C
:102A3000001F21F0100140E80012002AF5D12068A3
:102A400040694FF0200241064FF0000015D5216883
:102A5000143151E8003F23F0400341E80035002DD8
:102A6000F5D1E16B49B109484863E06BFEF7DAFA4A
:102A700050B1E06B416B884706E0E08584F8422066
:102A800020632046FFF7B6FF002070BD0B3C000816
:102A900070470000F8B5016804460868CA684B69C9
:102AA00010F00F0F4FF000055AD003F0010602F4AA
:102AB0009077374365D0C10705D0D10503D5616C48
:102AC00041F001016164410705D5D90703D0616C6C
:102AD00041F002016164810705D5D90703D0616C1B
:102AE00041F004016164010707D502F02001314380
:102AF00003D0616C41F008016164616C00293BD036
:102B0000800604D5900602D5204601F0B0F8206872
:102B10004069616CC0F3801001F008010143204658
:102B20002BD001F07DF820684069400621D520684F
:102B3000143050E8001F21F0400140E80012002A44
:102B4000F5D1E06BA8B16D494163E06BFEF76AFA1D
:102B5000002811D0E06B416B01B0BDE8F0400847A0
:102B600083060ED593060CD52046BDE8F84001F04B
:102B70007EB82046FFF78CFFF8BDFFF789FF65643C
:102B8000F8BD266B2023012E7CD1C6067AD5D60649
:102B900078D508684868009048694FF002064006FA
:102BA00040D5E16B086840680004000CE8D0A28DB5
:102BB0008242E5D9E085886920282DD020680C3034
:102BC00050E8001F21F4807140E80012002AF5D17E
:102BD0002168143151E8000F20F0010041E80002A3
:102BE000002AF5D12068143050E8001F21F0400180
:102BF00040E80012002AF5D184F8423025632068AD
:102C00000C3050E8001F21F0100140E80012002AAB
:102C1000F5D1E06BFEF7E3F96663A08DE18D401A14
:102C200081B22AE0A08DE18D401A81B2E08D0028AA
:102C3000A6D00029A4D022680C3252E8000F20F45C
:102C4000907042E80007002FF5D12068143050E85A
:102C5000002F22F0010240E80027002FF5D184F870
:102C60004230256320680C3050E8002F22F010021B
:102C700040E80023002BF5D166632046FFF79CFE59
:102C8000F8BDFFE705062BD5150629D594F84100B8
:102C90002128F5D1A068B0F5805F01D12069B0B1DD
:102CA000206A411C2162216800784860E08C401E47
:102CB0000004000CE084E3D12068C16821F08001A9
:102CC000C1602068C16841F04001C160D8E7206A56
:102CD0000088C0F308004860206A801C2062E5E795
:102CE0004006CDD55006CBD5CA68204622F040021A
:102CF000CA6084F8413000F041F9C1E7FB3B0008AD
:102D000070B5040004D094F84100002510B106E02D
:102D1000012070BD84F84050204600F023F82420A4
:102D200084F841002068C16821F40051C160204648
:102D300000F0FEFF2068016921F4904101612068E4
:102D4000416921F02A0141612068C16841F40051C4
:102D5000C1606564202084F8410084F84200656306
:102D6000002070BDF0B585B0002400940194029459
:102D700003940646434F0368434802210322434D10
:102D8000BB4251D1836943F480438361836903F477
:102D900080430493836943F0040383618069039251
:102DA00000F0040004900802CDE9000169462846BD
:102DB000FEF7C2FA2815CDE90004694628460294B8
:102DC000FEF7BAFA334D32488027C5E90004C5E959
:102DD000024720202C61C5E905400002E861284631
:102DE000FEF716FA08B1FDF7A8FDF5636E62294DEE
:102DF00027484435143801C5102091C5000245F814
:102E000010496C61C5E9064022484430FEF700FADB
:102E100008B1FDF792FDB5630022114625206E62D0
:102E2000FEF774FD252028E01B4EB34227D1C3696D
:102E300043F40033C361C36903F40033049383692B
:102E400043F0040383618069039200F0040004905E
:102E50000420CDE9000169462846FEF76DFA0820F6
:102E6000CDE90004694628460294FEF765FA00227F
:102E700011462620FEF74AFD2620FEF739FD05B053
:102E8000F0BD000000380140001002400008014081
:102E900058000240640300200044004090F8423093
:102EA000202B01D00220704721B11AB10023036307
:102EB00000F09ABF012070470649006809688842FF
:102EC00006D105490120022248710248FFF7E6BFFA
:102ED00070470000D4020020EC0300202DE9F843E5
:102EE000044690F84100984616460D46202802D028
:102EF0000220BDE8F88385B17EB100206064212006
:102F000084F84100FEF70EFBA6848146E684A068A3
:102F10002027B0F5805F02D003E00120E9E72069B7
:102F200010B12E4600250EE000260CE08021204640
:102F300000F075FFA8B9C6B116F8010B216848600A
:102F4000E08C401EE084E08C4B464FF00002CDF850
:102F500000800028EAD14FF04001204600F05FFFDA
:102F600040B184F841700320C3E735F8020BC0F389
:102F70000800E3E784F841700020BAE77047FEE7F5
:102F800090F83D200168202A03D18A69D243920734
:102F90000FD40A6822F001020A60202180F83D1057
:102FA00000210163418501640068016841F001016D
:102FB0000160704701684A69D24352050FD46FF42B
:102FC00080624A61002140F8301F202242738173E1
:102FD000026942F00402026101730120704700207F
:102FE00070470000F8B50446C06A1E460D461746F5
:102FF000082807D0012805D010F5803F02D0206BAB
:10300000122804D12068016841F4807101601346E0
:1030100000224FF001112046009600F05DF840B10B
:1030200020680068C00502D54FF4007020640320BA
:10303000F8BD2069B0F5804F0ED00620216800EA67
:10304000D51040F0F000086133463A460B4920465F
:1030500000F08AF878B902E005F0FE0000E0E8B27E
:1030600021680861054933463A46891F204600F029
:103070007BF80028DCD00120F8BD0000080001002A
:1030800070B516460D4604461EE02046FFF792FF37
:1030900008B1012070BD681C16D0FEF743FA801BF2
:1030A000A84200D885B920684069C04340070BD5C5
:1030B000002044F8300F20216173A073216941F092
:1030C000200121612073E4E720684069C043400784
:1030D000DBD4002070BD00002DE9F047984617466C
:1030E0000D460446C1F30746DDF820902AE000BFF4
:1030F000B8F1FF3F26D0FEF715FAA0EB09014145D4
:1031000002D8B8F1000F1DD12068012E16D08069B9
:1031100025EA00000004000C12D00020B84211D1B2
:10312000002044F8300F20216173A073216941F021
:103130002001216120730120BDE8F0874069E7E7A5
:103140000120EBE72068012E0AD0806925EA000003
:103150000004000C06D00020B842C9D00020EBE7E4
:103160004069F3E70120F7E72DE9F0479846164656
:103170000D4604464FF000094FF0200AC1F30747FF
:1031800023E020684069C043400515D420680168E9
:1031900041F40071016021686FF480604861C4F8F7
:1031A000309084F83DA084F83E90216C41F00401F9
:1031B000216484F83C9021E0701C06D0FEF7B2F93F
:1031C000A0EB0800B04203D816B1012F1FD021E0B8
:1031D0002068012F15D0806925EA00000004000C4A
:1031E00018D000BF44F8309F84F80DA084F80E90EA
:1031F000216941F02001216184F80C900120BDE893
:10320000F087406925EA00000004000CEAD120683C
:10321000406901E02068806925EA00000004000C94
:10322000AFD1ECE770B516460D4604461EE02046C9
:10323000FFF7C0FE08B1012070BD681C16D0FEF774
:1032400071F9801BA84200D885B920684069C04345
:1032500000060BD5002044F8300F20216173A073C5
:10326000216941F0200121612073E4E72068406971
:10327000C0430006DBD4002070BDF8B514460E46EE
:1032800005000FD074B16BB1FFF77AFE6420009097
:10329000224631462846FEF70FFA002803D028467A
:1032A000FFF76EFE0120F8BD3EB5002411480094E2
:1032B000019402940E498460016004730475012531
:1032C00005614FF400214460C161FDF7CBFB08B1FB
:1032D000FDF733FB07200094CDE90150694605480E
:1032E000FDF72EFB002801D0FDF727FB3EBD0000B7
:1032F00000240140B00000203EB500241148009495
:10330000019402940E4984600160012505730475DF
:1033100005614FF460214460C161FDF7A3FB08B172
:10332000FDF70BFB0420CDE9000569460294054832
:10333000FDF706FB002801D0FDF7FFFA3EBD0000B7
:1033400000280140E0000020154808B5416941F01F
:10335000010141614069002200F001000090114626
:103360000B20FEF7D3FA0B20FEF7C2FA002211461B
:103370000C20FEF7CBFA0C20FEF7BAFA0022114619
:103380000E20FEF7C3FA0E20FEF7B2FA0022114615
:103390000F20FEF7BBFABDE808400F20FEF7A8BAE1
:1033A000001002402DE9F04186B000243848009416
:1033B000019402940394816941F020018161816943
:1033C00001F020010491816941F00401816181696A
:1033D00001F004010491816941F008018161806973
:1033E0002C4F00F008000490002202213846FEF71E
:1033F00093F8DFF8A48001224FF4A0514046FEF775
:103400008BF800224CF620114046FEF785F8022585
:103410000126CDE9005669463846CDE90245FDF75B
:103420008BFF0B2000901D48CDE901066946404600
:10343000FDF782FF4DF62050CDE900066946404673
:10344000CDE90245FDF778FF2803CDE90004694680
:1034500040460294FDF770FF002211460620FEF759
:1034600055FA0620FEF744FA002211460720FEF71F
:103470004DFA0720FEF73CFA002211460920FEF71C
:1034800045FA0920FEF734FA06B0BDE8F0810000E5
:103490000010024000080140000C01400000211013
:1034A0000D4810B50B4901600C49416000214FF4F3
:1034B00080428160C0E9031241618161C1610162A2
:1034C000FEF736F8002803D0BDE81040FDF735BA06
:1034D00010BD00000054004054010020A0860100EF
:1034E000104810B50E4901604FF48271416000210F
:1034F0008160C1604FF400720161C0E905120822C9
:10350000C0E90721416281620A21C162FEF764FDC0
:10351000002803D0BDE81040FDF70FBA10BD000031
:1035200000300140A801002010B596B000240F948F
:1035300010941194129413941C2108A81494FCF76D
:103540000AFE20216846FCF706FE27482549C0E907
:1035500000145921C0E90241046144618461FEF70D
:10356000F3FE08B1FDF7E9F94FF480500F900FA971
:103570001D48FEF790FF08B1FDF7DFF91A48FFF785
:1035800085F808B1FDF7D9F9139413A916481494D6
:10359000FEF7A6FE08B1FDF7D0F96020CDE90804DA
:1035A0000A940B940C940D94002208A90E480E94D2
:1035B000FFF706F808B1FDF7C0F900944FF400508A
:1035C000CDE90440029401940394694606480794A7
:1035D000FEF75BFE08B1FDF7B0F90348FEF7CAFF3E
:1035E00016B010BD002C01400002002000B587B0CD
:1035F0000021174800910191029103910491134A0F
:10360000059102604722C0E901216322C0E903213C
:103610008161FEF799FE08B1FDF78FF94FF48050F4
:10362000009069460A48FEF736FF08B1FDF785F9B4
:10363000202004908020059004A90548FEF750FE44
:10364000002801D0FDF779F907B000BD0004004063
:10365000480200200C4810B50A4901604FF4165189
:103660004160002181600C22C160C0E904128161C7
:10367000C161FFF745FB002803D0BDE81040FDF70E
:103680005CB910BD00380140D40200200C4810B5D0
:103690000A4901604FF416514160002181600C22FB
:1036A000C160C0E904128161C161FFF729FB0028F4
:1036B00003D0BDE81040FDF740B910BD0044004004
:1036C0001C030020FEE7FEE77047F8B515460E46DE
:1036D0000B46009204460122022100F011F840B985
:1036E0003346002280212046009500F009F800288A
:1036F00004D0606D40F0200060650320F8BD00003C
:103700002DE9F8431E46914688460446089DFDF77C
:1037100009FF401B351AFDF705FF074625480068DD
:10372000C0F3CB30684338E0701C37D0FDF7FAFEA9
:10373000C01BA84203D215B1009860B32CE02068EA
:10374000416821F0E00141606068B0F5827F0BD1F3
:10375000A068B0F5004F02D0B0F5806F04D12068AA
:10376000016821F040010160A06AB0F5005F09D155
:103770002068016821F4005101602068016841F46B
:1037800000510160012084F85100002084F85000AD
:103790000320BDE8F8830025401E00902068816862
:1037A00038EA010004D000214945BDD10020F0E7EE
:1037B0000121F9E70000002013B56423012201A9CB
:1037C000FEF79CFC1CBD704710B5FEF739F800F001
:1037D000D9FDBDE8104000F0D7BE000010B51C4C6C
:1037E0002178032907D0082817D2DFE800F0160A4D
:1037F0000E12171B212700280FD1BDE8104001F041
:1038000057BDBDE8104001F03DBD01F0E5FC0020D2
:1038100002E001F0B9FC0120207010BD01F0FAFCBB
:103820000220F9E70229F8D0E01C01F009FC0AE0C7
:103830000029F2D1A01C01F0D5FB04E00029ECD155
:10384000A01C01F0BBFBBDE8104001F061BC000012
:103850001000002030B593B028216846FCF77BFCAF
:1038600014210AA8FCF777FC002501200F9510957C
:103870001195010412958DE8230004904FF4E01097
:10388000CDE90810022407946846FEF715FA08B13E
:1038900072B6FEE70AA90F2081E831004FF480607C
:1038A000CDE90D0502210AA8FEF72AF908B172B682
:1038B000FEE74FF4004011900F940FA8FEF7AAF80E
:1038C000002801D072B6FEE713B030BD704700008B
:1038D000F0B50268194B1A4C1A4D4FF080479842C8
:1038E00005D0B84203D0A04201D0A84203D122F0B3
:1038F00070064A683243984205D0B84203D0A042CD
:1039000001D0A84203D122F44074CA6822434C6912
:1039100022F08002224302608A68C2620A688262E0
:10392000984201D109690163012141610169C90717
:1039300003D0016921F001010161F0BD002C0140BB
:10394000000400400008004010B501F01F030121F1
:10395000046A99408C430462016A9A4011430162EF
:1039600010BD10B5446A0121626A824205D12177F7
:103970008069F8B984F83E101CE0A26A824206D140
:10398000022222778069A8B984F83F1012E0E26A27
:10399000824206D104222277806958B984F8401007
:1039A00008E0226B824205D108222277806908B99B
:1039B00084F841102046FEF797FE0020207710BDC6
:1039C00010B5446A616A814201D101200DE0A16A0B
:1039D000814201D1022008E0E16A814201D1042044
:1039E00003E0216B814201D1082020772046FEF7B9
:1039F0008DFE0020207710BD10B5446A0121626A57
:103A0000824203D1217784F83E1019E0A26A8242F3
:103A100004D10220207784F83F1011E0E26A82424C
:103A200004D10420207784F8401009E0226B824200
:103A300004D10820207784F8411001E084F83D107B
:103A40002046FEF796FD0020207710BD10B5846853
:103A500042EA032224F47F440A432243826010BDD9
:103A6000826822F070020A4342F0070181607047C9
:103A700030B5036A026A22F0010202624268846978
:103A800024F073050C682C4323F002058B682B434C
:103A90000A4DA8420BD123F00805CB6822F44072EE
:103AA0002B434D6923F0040315438A692A4342607E
:103AB000846149684163036230BD0000002C01400D
:103AC00030B5026A036A23F0100303624368846915
:103AD0000D6824F4E64444EA05248D6822F02002AF
:103AE00042EA05120B4DA8420ED1CD6822F08002A9
:103AF00042EA05124D6923F4406343EA85038D6968
:103B000022F0400243EA850343608461496881638F
:103B1000026230BD002C014030B5036A026A22F413
:103B2000807202624268C46923F4007324F0730552
:103B30000C682C438D6843EA05230C4DA8420ED136
:103B4000CD6823F4006343EA05234D6922F4405213
:103B500042EA05128D6923F4806342EA051242604D
:103B6000C4614968C163036230BD0000002C01409C
:103B700030B5046A026A22F4805202624268C36964
:103B80000D6823F4E64343EA05238D6824F40054CA
:103B900044EA0534064DA84204D14D6922F480421E
:103BA00042EA85124260C36149680164046230BD23
:103BB000002C014010B5036A046A24F00104046279
:103BC000846924F0F00444EA021423F00A020A4350
:103BD0008461026210BD10B5036A046A24F0100407
:103BE0000462846923F0A00324F4704444EA02329E
:103BF00043EA01118261016210BD10B5406A0021E3
:103C0000C185C184FEF744FF10BD10B5406A002194
:103C1000C185202280F842200163FEF7EBFE10BD33
:103C200001680C3151E8002F22F4907241E8002322
:103C3000002BF5D10168143151E8002F22F0010268
:103C400041E80023002BF5D1016B012909D101685E
:103C50000C3151E8002F22F0100241E80023002B24
:103C6000F5D1202180F8421000210163704708B58A
:103C700090F84210222901D0022008BD82684FF43A
:103C800080539A4201D1016921B1816A9A421BD0C5
:103C90004AB10AE00268816A5268C2F308020A80E7
:103CA000816A891C08E0026972B10268526802F0F8
:103CB0007F020A70816A491C8162C18D491E090414
:103CC000090CC18503D01BE002685268F1E7016866
:103CD000CA6822F02002CA600168CA6822F48072B1
:103CE000CA6001684A6922F001024A61202180F815
:103CF000421000214163026B012A03D0FFF7DCF878
:103D0000002008BD016301680C3151E8002F22F04A
:103D1000100241E80023002BF5D101680A68D206A1
:103D200002D50A6849680091818DFEF745FEE7E7F4
:103D300070B5044600680169E26821F440511143FE
:103D400001612169A0680843616908432168CA6864
:103D500041F20C639A430243CA6020684169A26938
:103D600021F44071114341611E492068884202D10B
:103D7000FDF76CFF01E0FDF759FF00EBC00101EB1F
:103D80000012606864218000B2FBF0F3B3FBF1F332
:103D90006FF018067343B2FBF0F5B2FBF0F605EBDB
:103DA0008305322303EB0515B5FBF1F5B6FBF1F600
:103DB00005F0F00505EB0615B2FBF0F6B2FBF0F0EE
:103DC000B0FBF1F06FF01802504306EB800003EBFC
:103DD0000010B0FBF1F0216800F00F00284488606B
:103DE00070BD00000038014081628285C2850021DB
:103DF0004164222180F84210016921B10168CA683A
:103E000042F48072CA6001684A6942F001024A6164
:103E10000068C16841F02001C160002070472DE9B1
:103E2000F843984617460D460446089E24E0701C49
:103E300022D0FDF777FBA0EB0800B0421AD8CEB134
:103E40002068C168490717D5802D15D0402D13D0A3
:103E50000168C94309070FD4016800254068009034
:103E60002046FFF7DDFE0820606484F84050012002
:103E7000BDE8F8830320FBE72068006835EA00000E
:103E800004D00020B842D2D00020F1E70120F9E7A9
:103E90000148FEF7FFBD0000D40200200148FEF7F4
:103EA000F9BD00001C030020FEE700000FB41CB5A4
:103EB0000A46521ECDE9000207A9054B6A4606983C
:103EC00000F042F8009A002111701CBC5DF814FB50
:103ED0008B4200080FB4084B10B504A902AA03983E
:103EE00000F032F8044602A9002000F0D9F920467B
:103EF00010BC5DF814FB0000A14200080907090E80
:103F0000002804DB00F1E02080F80014704700F086
:103F10000F0000F1E02080F8141D704702E008C88F
:103F2000121F08C1002AFAD170477047002001E033
:103F300001C1121F002AFBD170470000014908602F
:103F400070470000AC0000202DE9FF4F8BB0884681
:103F50000546002606E025280BD0DDE90D12904726
:103F60006D1C761C28780028F5D10FB03046BDE8CE
:103F7000F08F0024A146A2460122AE4900E004438E
:103F800015F8013F203B02FA03F00842F7D12878E8
:103F90002A2810D06FF02F022878A0F130010929CB
:103FA00015D809EB890102EB410144F0020400EB52
:103FB00001096D1CF0E758F8041B5FEA010903D5FD
:103FC00044F40054C9F1000944F002046D1C28783F
:103FD0002E2817D115F8010F44F004042A280ED01A
:103FE0006FF02F022878A0F1300109290AD80AEBD6
:103FF0008A0102EB410100EB010A6D1CF2E758F85F
:1040000004AB6D1C28786C280FD006DC4C2817D028
:1040100068280DD06A2814D104E0742810D07A28BA
:104020000FD10DE044F400140AE044F4801401E0E0
:1040300044F440146978814202D104F580146D1C67
:104040006D1C2878692865D006DC00288DD063288F
:1040500027D0642806D15DE06E2808D073282AD0C6
:10406000752877D0DDE90D129047761CE0E0C4F3A7
:104070000250022809D003280DD0D8F800100428D7
:104080000DD00E6008F10408D2E0D8F80010F21745
:10409000C1E90062F6E7D8F800100E80F2E70E7072
:1040A000F0E718F8041B8DF8001000208DF80100CF
:1040B000EB46012003E058F804BB4FF0FF306107E6
:1040C0004FF0000701D40AE07F1C57450DDA874204
:1040D000FADB1BF807100029F6D106E07F1C8742A7
:1040E000FCDB1BF807100029F8D1DDE90D23A9EB53
:1040F00007008146214600F0B1F83044C61904E0BB
:10410000DDE90D121BF8010B90477F1EF8D2214606
:10411000484688E058F8040BC4F302514FF00A0BEC
:10412000032900D100B2042900D140B2002802DAEC
:1041300040422D2102E0210505D52B218DF82410C8
:10414000012104E006E0E10710D02021F6E708AFE6
:10415000089113E058F8040BC4F302514FF00A0B16
:10416000032900D180B2042900D1C0B20021EEE7BA
:104170005946FCF71BF9303107F8011D0028F7D12B
:10418000ADEB070000F1200B600702D524F480346A
:1041900001E04FF0010ADA4502DDAAEB0B0000E076
:1041A0000020824600EB0B0108980144A9EB0100B6
:1041B0000A90E00306D4DDE90D2321460A9800F0B9
:1041C0004DF806444FF0000908E009A911F809006C
:1041D000DDE90D12904709F10109761C089989451E
:1041E000F3DBE0030CD5DDE90D2321460A9800F04E
:1041F00035F8064404E0DDE90D1230209047761CC6
:10420000BAF10001AAF1010AF5DC05E0DDE90D12C1
:1042100017F8010B9047761CBBF10001ABF1010BC5
:10422000F4DC0A982146DDE90D2300F005F8064488
:104230006D1C97E6092801002DE9F0410446002590
:104240001E461746880404D405E039462020B047AE
:104250006D1C641EF9D52846BDE8F0812DE9F041BA
:10426000044600251E469046C80301D5302700E0CD
:104270002027880404D505E041463846B0476D1C28
:10428000641EF9D52846BDE8F0814A68002A06D0A8
:104290000A68531C0B6010704868401E48607047E5
:1042A0000A68531C0B6010707047000010B5FDF7D2
:1042B00039F9074900228B6833B1C31AB3F5FA6F95
:1042C00002D84A71002010BD88604A71012010BDDB
:1042D000EC0300201049092801D3092019E009281E
:1042E00018D2DFE800F00507090B0D0F11131500B8
:1042F00008200EE000200CE001200AE0022008E087
:10430000032006E0042004E0052002E0062000E08F
:104310000720087108797047EC03002070B504008D
:104320000BD0074D0926687940B1FFF7BFFF28B1D0
:10433000288840BAFFF7CEFF207070BD267070BD90
:10434000EC030020022202490248FEF7A7BD00004C
:10435000EC030020D4020020002220210148FDF7B8
:10436000DBB80000000C014004480178044809B1A2
:10437000012200E000222021FDF7CEB89E0000209F
:10438000000C014006480178002908D04178491CFA
:10439000C9B24170322902D30021417001707047C7
:1043A0009E000020024801210170002141707047E9
:1043B0009E00002008B50020622380221E2100906C
:1043C00001F03AFA08BD000030B591B00546282248
:1043D0002B4901A8FBF7A6FE01A82AA150F8252029
:1043E0000BA8FFF777FD00204FF6FF7400902346DF
:1043F0000BAA4621042001F091F94FF6E0714FF627
:104400001F000A2D16D2DFE805F005080B15161659
:10441000130D10134FF478410DE04FF4FC610AE0E6
:104420001F2108E040F2FF7105E04FF6205102E045
:10443000014600E02146192300911A4644216220DA
:1044400001F0FAF944237A2219466220009401F01F
:1044500097F95D237A2219466220009401F090F9C1
:1044600062225D2344211046009401F089F97A22EA
:104470005D2344211046009401F082F911B030BD53
:10448000D05A0008434F4C3A2025730038B50546F2
:104490004FF6FF7401237D2219460220009401F09B
:1044A0006FF90020009023462A460C21042001F0D9
:1044B00035F91B237D2219460220009401F060F992
:1044C00038BD38B5044647F6EF3000900823642223
:1044D0003421022001F0B0F964204443B4FBF0F22F
:1044E000642A01D9642201E0002A07D04FF6FF7048
:1044F000009008233421022001F09EF938BD10B548
:10450000FFF72AFFBDE8104000F020B810B50E49B3
:10451000002220B1012807D002280DD109E0087837
:10452000012809D10A700CE04878012804D14A70AA
:1045300005E08878012801D0002010BD8A70FFF7BF
:1045400031FF012010BD00009A00002010B5074C7B
:1045500000224FF400412046FCF7DEFF20460122F6
:10456000BDE810409103FCF7D7BF0000000C0140EC
:1045700001490020087070479D000020014901207A
:10458000087070479D00002070B5164D28780028EF
:1045900026D02C1F208828B9687801281ED0032037
:1045A00000F032F82088401C80B22080642817D3A5
:1045B000697801208843687000262680FCF7B2FFE6
:1045C0006968401A43F69821884209D32E70FFF794
:1045D000CFFFBDE87040032000F016B80220DFE7EF
:1045E00070BD00000800002010B5092809D2054C54
:1045F00001202070FCF796FF6060BDE81040FFF7D7
:10460000BDBF10BD08000020084B4FF4004150B161
:10461000012804D04910022805D0032805D1002222
:104620001846FCF779BF0122FAE77047000C0140F9
:1046300010B5002000F004F8002800D0012010BDC3
:1046400001B501236A4646210148FEF716FE08BD62
:10465000540100200148FCF77DBC0000E000002070
:104660000148FCF777BC0000E00000200148FCF79F
:104670008BBB0000E00000200148B0F8400070470C
:10468000CC0C002070B500250A4E2C460A210A48A1
:10469000FCF7DCFA0848FCF7E1F980B226F81400D0
:1046A000641CE4B20544202CF0D36809A6F840004D
:1046B00070BD0000CC0C0020E0000020FDF7C8F821
:1046C000FFF7C8F8FEF76EFEFEF73EFEFEF7E8FEC7
:1046D000FEF706FFFEF7BEFFFEF7D8FFFEF7E4FD8C
:1046E000FEF784FFFEF720FFFEF706FE00F0C0FD98
:1046F00000F0DEFD00F0EEFDFCE7000010B5FFF776
:10470000BBFFA0F5C870FBF71BFE1049FBF7CEFD01
:104710000F49FBF799FD0F49FBF73EFDFBF71EFE26
:1047200080B2FBF716FE0C49FBF78EFD04460B48E2
:104730008078FBF70EFE0A49FBF786FD2146FBF762
:104740002BFDFBF70BFE80B210BD000000006145A1
:10475000000020430000A0417C142E3E10000020E9
:10476000E17A543F2DE9F041DFF85C80174D0026D7
:1047700095F800060028FDD000F018F900273C4607
:1047800005EB8400D0F800020146FBF75DFD3946D9
:10479000FBF702FD641CA4B20746FF2CF0D96FF0B2
:1047A0000701FBF7C1FD00F0B5FC04464146FBF7ED
:1047B000E9FD00D2A046761CF6B2052ED8D3C5F886
:1047C0000486BDE8F0810000003C1C464404002043
:1047D000002803D00249D1F80C1601607047000090
:1047E00044040020002803D00249D1F808160160D3
:1047F000704700004404002070B50026134D344675
:1048000005EB8400D0F800020146FBF71DFD3146A0
:10481000FBF7C2FC641CA4B20646FF2CF0D96FF073
:104820000701FBF781FD00F075FC0446D5F804167E
:10483000FBF7B2FD05D22046D5F80416FBF7FEFCC7
:1048400000E00020C5F8080670BD00004404002008
:1048500010B500F02BF8C820FCF740FDFFF782FFF1
:10486000BDE81040AFF300800D4810B590F8011678
:10487000002913D0002180F8011680F8001609489D
:10488000FDF7F6FD08B1FCF758F80748FCF77CFB8C
:10489000002803D0BDE81040FCF74FB810BD000061
:1048A0004404002048020020B000002010B5144C41
:1048B00094F80106002822D184F80006C4F80C06FA
:1048C000C4F808064FF400712046FBF744FC4FF48F
:1048D000806104F50070FBF73EFC0A48FDF7A0FD7F
:1048E00008B1FCF72AF84FF4807205490648FCF736
:1048F000ABFA08B1FCF721F8012084F8010610BDDD
:104900004404002048020020B00000202DE9FC5F94
:10491000224D95F8000600283ED0002485F8004678
:1049200000F044F8FFF768FF01941D49D5F8080628
:10493000884230DD4FF000080094DFF868A0DFF80F
:1049400068B0E946474646464446204600F092F89D
:104950000546504500D3002529463046FBF71CFC90
:10496000064641462846FBF717FD04D204EB4401F6
:10497000A8465BF82170641CE4B2072CE5D3B9F1BA
:10498000000F00D0009600980197B0F17E5F02DD25
:1049900001A800F021F80120BDE8FC9F440400209C
:1049A0000000A04100008080105B000870B5094D38
:1049B000002400BF35F81400A0F50060FBF7C0FC30
:1049C00005EB8401641CA4B2C1F80002FF2CF1D9EC
:1049D00070BD00004404002070B5002824D01C4C99
:1049E0000068D4F80C6605463146FBF727FC194AE7
:1049F00020F00041914206DA17492846FBF724FCD3
:104A00000546164908E010F1FF4F0ED31449284619
:104A1000FBF71AFC134905463046FBF715FC2946FF
:104A2000FBF7BAFBC4F80C0670BD0F49884206DCE0
:104A30000E492846FBF708FC05460D49ECE76FF0E8
:104A400001012846FBF770FC05464FF07D51E3E776
:104A50004404002000002041D0CC4C3D3333733F50
:104A600008D7A33D1F856B3F0000C8429899193EA7
:104A70009A99593F2DE9F0411B4900EB400001EBA9
:104A800080000024194FD0F808802646254621468C
:104A90004046FBF7D9FB3146FBF7D0FB07EB85011E
:104AA000D1F80012FBF778FB6D1C2646ADB2044628
:104AB000FF2DECD901464046FBF7C6FB3146FBF71C
:104AC000C3FB054631460846FBF7BEFB06462146BA
:104AD0000846FBF7B9FB3146FBF75EFB2946BDE80C
:104AE000F041FBF7ABBB0000105B00084404002062
:104AF0002DE9F0411E46150088464CD0FBF729FCF5
:104B0000074626483C462649D0F80806FBF79CFB9A
:104B10002146FBF799FB2349FBF7C8FB04463846BF
:104B20002146FBF72FFC07D34046FBF712FC074654
:104B30002146FBF731FC00D23C463046FBF709FC2E
:104B40002146FBF729FC22D2A6EB0800FBF7F8FB75
:104B500007464046FBF7FDFB06462146FBF771FB87
:104B60003946FBF7A3FB01464FF07E542046FBF786
:104B700065FB0146FBF768FB2146FBF762FB394604
:104B8000FBF762FB01463046FBF706FB0446204676
:104B9000FBF7E4FB2870BDE8F0810000440400202E
:104BA0000000C0400000FA4410B5FFF7A8FCFFF772
:104BB000C9FBFBF731FE08B1FBF74CFEFFF74AFDDE
:104BC000FFF746FE00F01AF8BDE8104000F070BE96
:104BD0000020064A014600BF42F82010401CC0B227
:104BE0000A28F9D382F86C1270470000540A00209A
:104BF0000A2801D200F0C4B97047000010B50022A5
:104C00004FF480710448FCF787FCFFF7E1FFBDE833
:104C1000104000F04DB90000000801402DE9F04FB0
:104C20008DB0002707A80797FFF7D2FD07984FF030
:104C30007E56B0427EDB944ADFF85082DFF8509215
:104C4000904203DC934D1146EC1C10E0494688422B
:104C500007DC904D1146AD1DEC1CFBF7EFFA8E49B9
:104C600005E08C4D0C35EC1CFBF7E8FA8B49FBF7A3
:104C70001DFB4146FBF7E8FAFBF770FB217895F83E
:104C80000080C0B2A1EB0801CAB2617895F801C0FA
:104C9000A378A1EB0C01AC78C9B241431B1B424382
:104CA000DBB243430CEB112104EB132008EB12227F
:104CB000C9B200F0FF0A02F0FF0808A808970591A2
:104CC000FFF790FD76490898FBF7BEFA4946FBF7D7
:104CD000EDFA0546B04200DD35464046FBF739FBAC
:104CE000DFF8C08183464146FBF7AEFA04460598DB
:104CF000FBF72FFB41460590FBF7A6FA0746504607
:104D0000FBF727FB82464146FBF79EFA8146584651
:104D10002146FBF793FA2946FBF796FA2146FBF763
:104D20003BFAFBF71BFB604CC0B2804684F86F0275
:104D3000039000E08AE0394604F26F240598FBF7FF
:104D40007DFA2946FBF780FA3946FBF725FAFBF78F
:104D500005FBC7B26770504649460297FBF76EFAEB
:104D60002946FBF771FA4946FBF716FAFBF7F6FA04
:104D7000C5B2A570E1784D4B8946884521790A91E5
:104D80006279A7EB01019346A5EB02024FF07C5735
:104D9000A4F26F2401D4384600E01846804600296A
:104DA00001DB384600E018468246002A00DA1F463A
:104DB0000398FBF7CEFA069041464FF07E50FBF782
:104DC0003DFA0699FBF740FA06464846FBF7C1FA5A
:104DD0004146FBF739FA3146FBF7DEF9FBF7BEFA3D
:104DE00084F8720204F272240298FBF7B2FA0646C3
:104DF00051464FF07E50FBF721FA3146FBF724FA7B
:104E000006460A98FBF7A5FA5146FBF71DFA31460C
:104E1000FBF7C2F9FBF7A2FA60702846FBF799FA94
:104E2000054639464FF07E50FBF708FA2946FBF756
:104E30000BFA05465846FBF78CFA3946FBF704FA9D
:104E40002946FBF7A9F9FBF789FAA070164890F8F4
:104E50006E1290F8722290F874424A43130A90F846
:104E600073224C434A43120A0021120442EA0322ED
:104E700042EA142240F82120491CC9B20A29F9D378
:104E80000DB0BDE8F08F00000000964300007F43A6
:104E90000000FA44645B00080080D44400002F4501
:104EA0000000C0409A99993E540A0020AE47613FE5
:104EB00010B528210348FBF74EF9BDE8104000F07B
:104EC00021B80000540A002010B50B460446FFF735
:104ED0007FFE19462046FFF78BFEBDE8104000F02C
:104EE00011B808B500208DF800004D236A460A214C
:104EF000FF20FFF7FDFD684600F0DAF8FFF78EFEB1
:104F000008BD0000F0B41C4890F86C12002931D1A3
:104F1000002301243C271A461E25172150F822C0E1
:104F200004FA01F61CEA060F00EB430601D03785B0
:104F300000E035855B1C491E49B29BB20029EDDAC1
:104F4000521CD2B20A2AE8D300210A4600EB4306DB
:104F50005B1C491C32859BB23229F7DB80F86C421E
:104F6000064800684563044AF0BC28320021034823
:104F7000FDF7CEBBF0BC7047540A002000020020B1
:104F800070B5064608480D46002480F86D6280F82A
:104F90006E122A463146204600F066F8641CE4B2E0
:104FA0000A2CF6D370BD0000540A002001460248C6
:104FB00090F86D02FFF7E4BF540A002000280DD0DE
:104FC000027807493C2A01D8142200E0283A81F8E7
:104FD0006E22027091F86E02FFF7E8BF7047000082
:104FE000540A002000280DD001782831C9B2017080
:104FF000B42901D9B4210170C8B2034981F86E0205
:10500000FFF7D4BF70470000540A002000280CD0DE
:105010000178B42901D3142100E028310170C8B20D
:10502000024981F86E02FFF7C1BF7047540A0020A1
:10503000024991F86E12FFF7A3BF0000540A002046
:1050400000280DD00178491CC9B201700A2901D38A
:1050500000210170C8B2034981F86D02FFF7E8BF73
:1050600070470000540A002010B50A281AD2142AEA
:1050700001D2142202E0B42A00D9B4220A4B01EB77
:105080004104195D1C4451436378A478534354434D
:10509000090A1B0A0904054A41EA032141EA1421CD
:1050A00042F8201010BD0000765B0008540A002072
:1050B0002DE9F041002822D0124E007896F86E7249
:1050C000C11B002901DD104C00E0104CFBF741F939
:1050D000054621464FF07E50FBF7B0F82946FBF716
:1050E000B3F805463846FBF734F92146FBF7ACF830
:1050F0002946FBF751F8FBF731F986F86E02BDE857
:10510000F0810000540A0020CDCCCC3ECDCC4C3FE9
:10511000FFF7F8BE70B50546FBF795F9044620F099
:105120000040C0F1FF40C00F08D025F00040C0F1A2
:10513000FF40C00F04BF0120FEF700FF204670BDF6
:1051400010B50220FFF7E2F90D4C10B1E01CFFF79B
:1051500077FF0C490878401CC0B2087014280ED3A1
:1051600000200870FFF78EFAFFF7C8FAC1B2A170ED
:10517000E078FFF73DFDBDE81040FFF7C9BF10BD67
:105180001000002016000020054810B58178C07876
:10519000FFF79AFEFFF76AFABDE81040FFF764BB1D
:1051A0001000002010B50120FFF7B0F9094C18B12C
:1051B000A01CFFF72BFF07E00220FFF7A7F900284C
:1051C00006D0E01CFFF73CFFBDE81040FFF7A0BF92
:1051D00010BD00001000002010B500F017FA0648BE
:1051E0008178C078FFF770FEFFF73AFAFFF73CFBD3
:1051F000BDE81040FFF78CBF1000002010B5FFF78E
:1052000085FB002805D0FFF76CFEBDE81040FFF7D6
:105210007FBF10BD10B500F0F9F905488178C0785E
:10522000FFF752FEFFF71CFABDE81040FFF73EBB48
:105230001000002010B500F073F80C4C201DFBF797
:10524000C5FA2079092803D0BDE81040FEF7C6BA98
:10525000601DFFF763F86079092806D0FEF7BEFAF3
:105260006079BDE81040FFF7BFB910BD1000002005
:1052700010B500F0CBF9FFF797FCBDE8104000F047
:1052800001B80000094910B5032008700120FFF79C
:10529000BBF90320FFF7B8F9FFF70AFE00F040FB67
:1052A000FFF7C6F9BDE81040FFF7DEBA1000002096
:1052B00010B50020FFF7A8F9FFF78EFF0449002082
:1052C000087000F035FBBDE8104000F08DB800001C
:1052D0001000002010B5FFF7ADFF104C207820B172
:1052E000012805D0022808D105E0FFF75BFF04E0A4
:1052F000FFF726FF01E0FFF781FFFFF735F8FFF723
:1053000099FF00F023F861782078814200D0607026
:10531000BDE810400A20FBF7E1BF000010000020AC
:1053200010B50020FFF7F2F800280BD006480078EF
:10533000032803D0BDE81040FFF7A4BFBDE810402C
:10534000FFF7B6BF10BD00001000002070B5164C6E
:105350002078032827D0154DA97888420FD0002047
:1053600000F068F92078A87098B1012813D00228BD
:1053700013D00FA0FFF78AF8FF20287068702078FC
:1053800068B101280BD002280DD1BDE8704000F0B3
:10539000F3B80AA0EEE70DA0ECE70FA0EAE7BDE83E
:1053A000704000F089B870BD100000201700002088
:1053B000204D4F44453A202D2D2D2D00204D4F449A
:1053C000453A204D414E55414C000000204D4F4480
:1053D000453A204155544F00204D4F44453A204D09
:1053E000555349430000000010B5002000F022F999
:1053F00003A0FFF74BF80648FF210170417010BD74
:10540000204D4F44453A204D414E55414C0000003F
:10541000170000202DE9F8430446FBF715FA18B1F0
:105420004FF4FC6020A102E04FF478401FA18846B1
:105430000826102300904FF01C091A4621463046DA
:1054400000F0FAF94FF6FF75234617221946304649
:10545000009500F095F904F10F07BBB2B9B217221D
:105460003046009500F08CF93246BBB2214610461A
:10547000009500F085F91722BBB221461046009531
:1054800000F07EF90026E1B22B4609A248460096BC
:1054900000F044F9E1B244202B464246009600F069
:1054A0003DF9BDE8F8830000590000004E000000FF
:1054B0004254203A20000000F0B52A48642289B006
:1054C0008178C5785143B422B1FBF2F1CCB26920A6
:1054D000FFF7A0FF244801788C4202D14278954220
:1054E0001CD0427800264FF6FF77954218D1047001
:1054F000252380221C210020009600F09DF92246E1
:105500001AA105A8FEF7E6FC3B4605AA23210420C4
:10551000009600F003F92046FEF7D3FF09B0F0BD76
:105520008C4208D14570232380224121002000961F
:1055300000F082F912E004704570FEF73BFF22464E
:105540000AA101A8FEF7C6FC3B4601AA23210420BC
:10555000009600F0E3F82046FEF7B3FF2846FEF77A
:1055600033FFDBE710000020170000204252493AC9
:1055700020256425250000002DE9F0431E4887B052
:1055800041780078814234D0FEF714FF002000906B
:105590004FF6FF7319A220211C2000F0BFF8322023
:1055A000FFF738FF184801AC0DF110090EC884E868
:1055B0000E0007C889E807000025A04640F2FF76E4
:1055C00039F8150038F81540C0F1730087B222464B
:1055D000722339461046009600F0D2F8641CA2B23D
:1055E000A0B272233946009600F0CAF86D1C052D52
:1055F000E6DB07B0BDE8F08310000020454E4A4FBF
:1056000059204D5553494300F85A00080CB5002065
:1056100001900648016800918088ADF804000448B4
:105620000160BDF8041081800CBD0000C85A00085C
:105630001000002038B5010A8DF800108DF8010027
:105640007F2300211A46084600F07AF900244FF41F
:1056500080456423022269460648FCF74FFD641C1E
:10566000A4B2AC42F5D3012291020348FBF754FFE8
:1056700038BD0000A8010020000C01402DE9FC47C6
:1056800080460A988A46B8F1800F3ED2BAF1800F60
:105690003BD2A2F120015F2937D21D49002401EB42
:1056A0000211A1F50079190A8DF80010010A8DF890
:1056B00004108DF801308DF8050080260AEB0403F4
:1056C00019F80470194608F10702404600F038F94D
:1056D0005FF0000526FA05F038424FF064034FF002
:1056E000020201D0694600E001A90A48FCF706FD64
:1056F0006D1CEDB2082DEDD3012291020648FBF797
:105700000BFF641CE4B2102CD8D3BDE8FC8700006A
:10571000945B0008A8010020000C01402DE9F8432B
:1057200099461746064605460C46DDF820801AE0E5
:10573000A2F120005F2819D205F10800802804D9C1
:105740001034E4B23546802C10D80A2A10D00D2A25
:1057500014D04B4621462846CDF80080FFF78EFF37
:105760000835EDB27F1C3A78002AE1D1BDE8F88314
:105770001034E4B23546802CF8D8F3E73546F1E72B
:105780002DE9FC5F07469A4690460E46D41B00D58D
:105790006442BAEB060000D54042C0F100094FF068
:1057A000FF30474501D2012100E0014601915645F5
:1057B00000D201208346C9F1000004EB09050090E6
:1057C000314638460C9A00F017F8474501D1564546
:1057D0000FD000996800884204DD0199A5EB090506
:1057E00039448FB2A042EBDA06EB0B00254486B2B7
:1057F000E6E7BDE8FC9F000038B51446802815D2C6
:10580000802913D20B46024600F09AF8200A8DF840
:1058100000008DF801406423022269460448FCF729
:105820006DFC012291020348FBF776FE38BD0000B3
:10583000A8010020000C0140F8B51D46069E144644
:1058400080282FD280292DD20219802A02D9C0F1B6
:10585000800294B24A19802A02D9C1F1800295B21D
:10586000002C1FD0002D1DD04A19521E93B20219D0
:10587000521E92B200F064F8300A8DF800008DF8E4
:10588000016000266C4306E0642302226946064854
:10589000FCF734FC761CB442F6D80122910203488E
:1058A000FBF73AFEF8BD0000A8010020000C014003
:1058B00070B51A4D4FF48054002221462846FBF75C
:1058C0002BFE1420FBF70AFD012221462846FBF798
:1058D00023FE7820FBF702FD112000F0CBF87820A2
:1058E000FBF7FCFC3A2000F0C5F8052000F0A4F816
:1058F000362000F0BFF8C82000F09EF8132000F01A
:10590000B9F8292000F0B6F80020FFF793FE2846EA
:10591000BDE8704001221102FBF7FEBD000C014002
:1059200000224FF480710148FBF7F6BD000C0140E6
:10593000012211020148FBF7EFBD0000000C0140FD
:105940002DE9F8431C4615460E46074680286CD2C2
:10595000802E6AD2802D68D2802C66D2AF4264D865
:10596000A64262D8DFF8C88000224FF4806140462A
:10597000FBF7D2FD4FF40069002249464046FBF791
:10598000CBFD2A208DF800006423012269462948B6
:10599000FCF7B4FB012249464046FBF7BDFD380A3F
:1059A0008DF800008DF80170280A8DF802008DF83E
:1059B00003506423042269461E48FCF79FFB002223
:1059C00049464046FBF7A8FD2B208DF800006423D4
:1059D000012269461748FCF791FB012249464046DF
:1059E000FBF79AFD300A8DF800008DF80160200A5F
:1059F0008DF802008DF803406423042269460D48A7
:105A0000FCF77CFB002249464046FBF785FD2C2035
:105A10008DF800006423012269460648FCF76EFBFE
:105A2000012249464046FBF777FDBDE8F8830000B8
:105A3000000C0140A801002070B50C4D0446012265
:105A4000D1022846FBF768FD2E1500223146284674
:105A5000FBF762FD21460648FDF7AEFE31462846BB
:105A6000BDE870400122FBF757BD0000000C01406B
:105A7000A801002070B50C4D044600224FF40061CF
:105A80002846FBF749FD2E15002231462846FBF734
:105A900043FD21460548FDF78FFE31462846BDE807
:105AA00070400122FBF738BD000C0140A801002026
:105AB00000000000000000000102030406070809BE
:105AC00000000000010203040303140000000000B2
:105AD000A8610008E4610008C4610008BC61000816
