:020000040800F2
:10000000D812002001010008F73A000873320008F6
:10001000F53A0008910C0008D942000800000000E1
:10002000000000000000000000000000F73B000896
:10003000EF0C000800000000F93A0008F93B000846
:100040001B0100081B0100081B0100081B01000820
:100050001B0100081B010008F10C0008F70C000848
:100060001B010008FD0C00081B010008950C00088E
:10007000A10C00081B010008AD0C0008B90C000819
:100080001B0100081B0100081B0100081B010008E0
:100090001B0100081B0100081B0100081B010008D0
:1000A0001B0100081B0100081B0100081B010008C0
:1000B0001B0100081B0100081B0100081B010008B0
:1000C0001B0100081B0100081B0100081B010008A0
:1000D0001B010008C1420008CD4200081B010008B6
:1000E0001B0100081B0100081B010008DFF80CD0F1
:1000F00000F0B2FB00480047B94D0008D8120020BC
:100100000648804706480047FEE7FEE7FEE7FEE7B1
:10011000FEE7FEE7FEE7FEE7FEE7FEE7FD3C000840
:10012000ED000008202A04DB203A21FA02F0002129
:10013000704721FA02F3D040C2F1200291400843F7
:100140001946704740EA01039B0703D009E008C93C
:10015000121F08C0042AFAD203E011F8013B00F88C
:10016000013B521EF9D27047D2B201E000F8012BD8
:10017000491EFBD270470022F6E710B513460A4627
:1001800004461946FFF7F0FF204610BD421C10F848
:10019000011B0029FBD1801A704730B505460020AD
:1001A000034600E05B1C934205D2EC5CC85C201A5D
:1001B00001D1002CF6D130BDF0B480EA0102D40F99
:1001C0004200B2EB410F02D20246084611464A00F5
:1001D00042D0C30DDDB2C1F3C752AD1A202D35DABE
:1001E000C1F3160141F4000204B15242C5F12006E8
:1001F00002FA06F12A411044B3EBD05F23D0C4B118
:10020000012DA0EBC35009DCF0BC4FF0004202EA24
:10021000C352DBB200F5000000F0DCB9400000F191
:10022000807000EBC350A0F1807040EAD1704900AB
:1002300009E0490841EAC071A0EBC35000F5000095
:10024000400800EBC350F0BC00F0BBB96142012292
:1002500002EB4101001BF6E7F0BC704781F0004162
:10026000AAE780F00040A7E780EA010210B502F09B
:100270000043400022D04A001FD0010E01EB126162
:10028000C0F35600C2F3560240F4000042F40002EC
:10029000A0FB022000047F39140400D0401C50EA67
:1002A000124001D44000491EC2B20C0604EBD0102B
:1002B000401C4008802A02D003E0002010BD20F03E
:1002C0000100002900DA0020184310BD30B480EA94
:1002D000010202F0004530F0004221F0004013D04E
:1002E00090B1C30DD40DC2F31601C0F31600E41A89
:1002F00041F4000140F400027D34914201D3641CBA
:1003000000E04900002C02DA30BC002070474FF4B6
:1003100000000023914201D3891A034340084FEAA9
:100320004101F7D151B1914202D14FF0004105E0B6
:1003300002D24FF0010101E06FF0010103EBC45064
:10034000284430BC00F03DB9420005D0C0F3C7528C
:100350005242914201DC0020704700EBC1507047CF
:100360002DE9FE4F804681EA0300C00F0C46009045
:1003700021F0004123F00045B8EB0200A94105D26D
:100380004046214690461C460B46024623F000405C
:10039000104347D0270DC7F30A00C3F30A51029058
:1003A000401A019040286BDAC3F3130040F4801B1D
:1003B0000098924620B10023D2EB030A63EB0B0BAB
:1003C00001985946C0F14002504600F0D9F806465F
:1003D0000D4650465946019A00F0E1F810EB08002E
:1003E0006141002487EA115284EAE7731A4340D03E
:1003F000009A62B3019A012A4FEA075215DC001BEA
:1004000061EB02014FF0004202EA0752CDE90042DF
:10041000001C41F5801132462B4600F065F903B00F
:10042000BDE8F08F40462146F9E7001B61EB020171
:10043000001C41F5801300185B412018A2F500173D
:1004400047EB030140EAD570B6196D4111E06D0824
:100450004FEA360645EAC0754FEA0752001B61EBCA
:100460000201001C41F5801149084FEA30000019D3
:10047000514132462B4603B0BDE8F04F00F025B99C
:100480000098012240000023D0EB020263EBE073EE
:10049000009821464FEAE074B8EB000061EB0401DC
:1004A000E9E783F000435BE781F0004158E79623DA
:1004B0000022114600F08EB820F00040C10DC0F3BC
:1004C000160040F400007F2901DA002070479629C9
:1004D00003DCC1F19601C8407047963988407047E7
:1004E00000F0004230F000400AD0C10D01F560710B
:1004F000C0F3160042EA0151C20840071143704799
:1005000000200146704701F0004330B421F0004163
:1005100050EA010206D00A0DA2F56072C1F3130180
:10052000002A02DC30BC00207047440F44EAC104BA
:10053000C100E01830BC00EBC25000F042B800002F
:10054000002801DBC0F10040002901DBC1F10041BE
:100550008842704730B50B46014600202022012416
:1005600009E021FA02F59D4205D303FA02F5491B81
:1005700004FA02F52844151EA2F10102F1DC30BD97
:10058000202A04DB203A00FA02F100207047914053
:10059000C2F1200320FA03F3194390407047202A48
:1005A00006DBCB17203A41FA02F043EAE07306E09B
:1005B00041FA02F3D040C2F12002914008431946AB
:1005C00070470029A8BF7047401C490008BF20F0B1
:1005D0000100704710B4B0FA80FC00FA0CF050EA49
:1005E000010404BF10BC704749B1CCF1200421FACA
:1005F00004F411FA0CF118BF012121430843A3EBC5
:100600000C01CB1D4FEA00614FEA102042BF0020D1
:1006100010BC704700EBC35010440029A4BF10BCAD
:100620007047401C490008BF20F0010010BC704713
:10063000F0B4002802DCF0BC00207047C0F3C751C2
:10064000C0F3160040F40000CA0701D14000491E63
:100650003F2202EB6105002211464FF4000626FA04
:1006600001F31344D418844201D8001B1A464000F9
:10067000491C1729F3DD5100814202D24FF0FF31AE
:1006800000E0002102EBC550F0BCFFF79ABF10B5A7
:1006900041000CD0C0F3C751962908DC7E2909DC43
:1006A00006DB410204D000F0004040F07E5010BD57
:1006B000002010BDC1F19604C4F1200100FA01F13F
:1006C000E040FFF77EFFA04010BD10B5141E73F18F
:1006D000000408DA401C41F1000192185B411A4302
:1006E00001D120F0010010BD2DE9F04D92469B464E
:1006F00011B1B1FA81F202E0B0FA80F220329046F4
:10070000FFF73EFF04460F4640EA0A0041EA0B01AC
:1007100053465A46084313D0114653EA010019D0F4
:10072000C8F140025046FFF7FDFC05460E46504614
:1007300059464246FFF724FF084305D0012004E054
:1007400020463946BDE8F08D0020054346EAE076B4
:100750002C4337430A986305E40AA0EB0800002203
:10076000FD0A44EA47540A3002D500200146E9E771
:10077000010510196941DDE9084500196941BDE825
:10078000F04DA2E72DE9F04D00231A461B1A8A41CD
:1007900003DB00200146BDE8F08DC1F30A52C1F32E
:1007A000130141F480154FF0000BD10702D100185E
:1007B0006D41521E0027044640F2FF11384601EBFE
:1007C000620A3E468046024600204FF48011FFF741
:1007D000A9FCC2197141BB1846EB0100B4EB030C34
:1007E00075EB000C04D3E41A65EB000517460E46C2
:1007F000241908F101006D4180463428E3DDF91920
:1008000046EB0600091BA84103D24FF0FF32134606
:1008100001E0002213461BEB070046EB0A51BDE83E
:10082000F04DFFF752BF00F0004220F00040C10D34
:10083000C0F3160040F400007F2901DA0020704761
:10084000962903DCC1F19601C84001E09639884041
:10085000002AF4D040427047064C074D06E0E0689D
:1008600040F0010394E8070098471034AC42F6D3F7
:10087000FFF740FC7867000898670008C10F80EA1E
:10088000E0700844CA0796230021FFF7A3BE0000CA
:1008900070B5044600688168C943C90717D18168EB
:1008A00021F00101816000F0DBFE05460AE000BF97
:1008B00000F0D6FE401B022804D920688068C0439F
:1008C000C00706D020688068C043C007F0D0002071
:1008D00070BDA06A40F01000A062E06A40F0010024
:1008E000E062012070BD10B50146406A826A12F0D4
:1008F000500F05D0006A026BBDE810400846104753
:10090000816A41F40071816201688968C1F34241E2
:1009100007290CD1017B51B9816A21F48071816270
:10092000816AC90403D4816A41F00101816200F047
:1009300069FA10BD10B5406A816A41F040018162D8
:10094000C16A41F00401C16200F05EFA10BD10B549
:10095000406A00F058FA10BDF8B50026044600962B
:1009600000688168C943C9072DD0816841F0010141
:100970008160164816490068B0FBF1F000E0401EA7
:1009800000900028FBD100F06BFE054616E000BF8A
:1009900000F066FE401B022810D920688068C04322
:1009A000C0070BD0A06A40F01000A062E06A40F0DF
:1009B0000100E06284F824600120F8BD20688068AE
:1009C000C043C007E4D10020F8BD000000000020B3
:1009D00040420F0070B5064C0025402124F8405FCE
:1009E0000348FFF7C8FBA5700920E070A57170BD32
:1009F000E80300202DE9F04F4FF0000ADFF8948063
:100A0000254EC1B0544606EB0410DFF888B0B8F8A4
:100A100040708146FFF7BAFB0546AF420ED302464F
:100A200049465846FFF7B9FB40B9AF4206D188F8AE
:100A300043404FF0010A122118A025E0641CE4B2E3
:100A4000082CE0D36F464FF48071384618A203F0AB
:100A500045FCC4B2C4F5807138191CA203F03EFCF9
:100A60002044C5B25FF0000406EB0413C5F58071A5
:100A700078191CA203F032FC641C2844E4B2C5B20D
:100A8000082CF1D32946684600F0F6F841B05046EC
:100A9000BDE8F08FE80300201F000020436F6D6D5C
:100AA000616E642069732076616C69640D0A0000D0
:100AB0005468657265206973206E6F207375636872
:100AC00020636F6D6D616E640D0A000056616C6984
:100AD0006420636F6D6D616E6473206172653A0DA1
:100AE0000A00000025730A0010B5164802F0F8F855
:100AF000FFF770FF144C01220221204600F0AAFDEE
:100B0000642000F089FC00220221204600F0A2FDB2
:100B1000642000F081FC01220221204600F09AFDB1
:100B20004FF4FA7000F078FC40220849054802F0C2
:100B30008FF8002805D00548042100F8441F022141
:100B4000417010BDF002002000080140E8030020C1
:100B500010B50D4802F0C4F8FFF73CFF0022022157
:100B60000A4800F077FDC82000F056FC40220849F2
:100B7000054802F06DF8002805D00548042100F86A
:100B8000441F0221417010BDF00200200008014006
:100B9000E803002070B505001CD000F061FD0F4C8B
:100BA00001460020A26C22B1891A41F2883291429A
:100BB00002D984F8460002E0012184F8461094F836
:100BC000421084F8420031B1FFF714FF18B194F8D5
:100BD0004300287070BD0920FBE70000E8030020F7
:100BE00010B54C210948FFF7C6FAFFF7B1FF0748D7
:100BF00090F84410042906D0022100F8441F002177
:100C00004170084610BD012010BD0000E80300201F
:100C1000014890F846007047E803002010B51148DD
:100C200002F05EF80A2000F0F7FBFFF75DFF0E4CC4
:100C300094F84400042811D064230A220BA1094827
:100C400002F0C6FA40F2DC5000F0E6FBFFF780FF4E
:100C5000022004F8440F0020607010BDBDE8104071
:100C6000FFF776BFF0020020E803002041542B522A
:100C7000455345540D0A000030B129B10A460146DA
:100C80006423024802F0A4BA01207047F002002059
:100C9000FEE70000014800F0AFBA0000E4000020C9
:100CA000014800F0A9BA000064020020014800F0E9
:100CB000A3BA00007C030020014800F09DBA0000A8
:100CC0003803002030B590F840500124AC40C56B8B
:100CD0006C60046863604368102B036803D09960FC
:100CE0000068C26030BD9A600068C16030BD704766
:100CF000012000F0B3BB022000F0B0BB082000F0E0
:100D0000ADBB72B6FEE70000F8B50024009490F881
:100D100024202546012A12D0012280F824204A6886
:100D20001F23072A0DD20668776B521E02EB820240
:100D300093409F430B6893401F43776319E0022061
:100D4000F8BD06680D2A0AD2376BD21F02EB820269
:100D500093409F430B6893401F43376309E0F76A52
:100D60000D3A02EB820293409F430B6893401F436E
:100D7000F7620A68072306680A2A0AD3F7680A3A5C
:100D800002EB420293409F438B6893401F43F760FE
:100D900008E0376902EB420293409F438B6893401F
:100DA0001F4337610A68102A01D0112A20D1124B43
:100DB00002689A4217D193681B0219D4936843F4CE
:100DC000000393600968102912D10C490C4A096884
:100DD000B1FBF2F101EB8101490000E0491E0091F5
:100DE0000029FBD104E0816A41F0200181620124E5
:100DF00080F824502046F8BD002401400000002067
:100E000040420F0070477047704700002DE9F041E5
:100E10004FF0000704003D467ED0A06A002628B9A6
:100E2000E66284F82460204600F07EF82046FFF752
:100E30002FFDA16A01F01001014304D0A06A40F027
:100E40001000A06268E0A16A21F4885141F002011B
:100E5000A1626268E169237B0A4347EA43010A43CE
:100E6000A1684FF48077B94208D0012906D000214B
:100E700094F814C0BCF1010F02D00AE03946F7E73C
:100E8000F3B1A36A43F02003A362E36A43F00103D2
:100E9000E3622368D3F804C02CF4694C4CEA010CDB
:100EA000C3F804C023689968DFF870C001EA0C0138
:100EB00011439960A168B9420BD0012909D00CE017
:100EC000DFF85CC0A3690CEB43330B4343F40061D0
:100ED000DFE7218A0D05A5F580152168CB6A23F48B
:100EE00070032B43CB62216889680E4B19409142F5
:100EF00008D1E662A16A21F0020141F00101A1627C
:100F0000BDE8F081A06A20F0020040F01000A0626D
:100F1000E06A40F00100E0620120F1E7FDF7E1FF47
:100F200000E0FFFFFE0E1FFF70B586B000260546ED
:100F3000009601960296039600681A4988422FD1BE
:100F40001949886940F400708861886900F400706C
:100F50000490886940F0040088618869694600F05F
:100F60000400049001200090032001900F4800F03D
:100F700081FA104C0E48C4E900068020C4E90260E2
:100F800040002061800060612020A061C001E0611C
:100F9000204600F0DBF908B1FFF7B3FE2C62656272
:100FA00006B070BD0024014000100240000801405E
:100FB00008000240E40000202DE9F047894604467D
:100FC0003B4900683B4F0E1D9046884201D0B84215
:100FD00007D1306810F4702F03D001252846BDE8F2
:100FE000F08794F8240001280CD0012084F8240014
:100FF0002046FFF7B1FC05004FF0000004D084F854
:101000002400EBE70220EAE7A16A40F6016291437F
:1010100041F48071A1622168B94218D1326812F49A
:10102000702F14D0A16A41F48011A1623168490582
:1010300005D5A16A21F4005141F48051A162A16A51
:10104000C9040AD5E16A21F00601E16206E0A26A5C
:1010500022F48012A2624968E9E7E06284F8240081
:10106000216A15488862216A1448C862216A1448B6
:10107000086321686FF0020008602068816841F40D
:1010800080718160216843464A464C31206A00F0F5
:101090008BF920688168C1F342410729816803D038
:1010A00041F48011816099E741F4A001FAE7000062
:1010B0000024014000280140E70800084F0900080B
:1010C0003509000810B5044690F82400012807D01F
:1010D000012084F824002046FFF7DAFB10B113E06A
:1010E000022010BD21688A6822F480728A60216A19
:1010F00091F82120022A07D1084600F00EF8A16AD3
:1011000030B141F04001A162002184F8241010BDEB
:1011100021F4885141F00101F5E710B590F8211054
:101120000022022905D00421816380F820200120BB
:1011300010BD01680B6823F00E030B6001680B689B
:1011400023F001030B6090F84030C46B012101FAD9
:1011500003F3636080F8211080F82020104610BD52
:1011600010B590F821100024022903D004218163D6
:1011700001243DE001680A6822F00E020A6001685D
:101180000A6822F001020A601A4A0168914201D1FC
:10119000012121E0174A1432914201D110211BE0B4
:1011A000144A2832914201D1891515E0114A3C3286
:1011B000914201D189140FE00E4A5032914202D17E
:1011C0004FF4803108E00B4A6432914202D14FF46F
:1011D000801101E04FF08071064A083A5160012108
:1011E00080F82110002180F82010416B01B1884760
:1011F000204610BD080002402DE9F05FC16B0C686D
:1012000001680B68D0F840C0042202FA0CF2494D84
:10121000DFF824A1494E4A4FDFF828B1DFF828E172
:1012200022422CD05A072AD50A68920603D40A68AB
:1012300022F004020A600168A94201D1042219E0E7
:10124000514501D1402215E0B14202D14FF48062F4
:1012500010E0B94202D14FF480420BE0594502D16F
:101260004FF4802206E0714502D14FF4800201E084
:101270004FF080622F4908394A60C16A3BE04FF065
:10128000020808FA0CF818EA040F4FF000094FF0B2
:10129000010235D05FEA837832D50B689B0605D40E
:1012A0000B6823F00A030B6080F821200168A94233
:1012B00001D1022219E0514501D1202215E0B142AD
:1012C00002D14FF4007210E0B94202D14FF4005243
:1012D0000BE0594502D14FF4003206E0714502D1CE
:1012E0004FF4001201E04FF00072124908394A60D1
:1012F00080F82090816A00291AD0BDE8F05F084785
:10130000082505FA0CF5254212D01B0710D50B68ED
:1013100023F00E030B6090F84010C36B02FA01F14A
:101320005960826380F8212080F82090016BE2E709
:10133000BDE8F09F080002401C000240300002405F
:1013400044000240580002406C00024030B528B30F
:1013500008C8134914221944B1FBF2F18900C16392
:1013600010498163022141771A6843F6F0718A437C
:10137000D0E900142143D0E902452C4321430469FC
:1013800021434469214384692143114319600021A9
:101390004163012242770177084630BD012030BD0C
:1013A000F8FFFDBF0000024070B5044690F8200031
:1013B000002501280CD0012084F8200094F8216039
:1013C0000020012E06D084F820000225284670BD9A
:1013D000022070BD022684F82160A06320680668A0
:1013E00026F0010606602046FFF76CFCE06A002844
:1013F0002068016802D041F00E0106E021F00401EE
:1014000001602068016841F00A01016020680168FC
:1014100041F001010160D9E770B5044600F020F900
:101420000546601C02D004480078044400F018F916
:10143000401BA042FAD370BDA40000200121064A3F
:10144000012805D0022805D0082800D191707047E6
:1014500011707047517070479F000020044910B50B
:101460000A68024202D00860FFF7E8FF10BD0000E2
:10147000140401402DE9F84FDFF8B8910024A9F1D8
:10148000040B23460F2709F1040AABF1040EC9E04F
:101490000125A5402A40AA427DD1674ED1F804C05B
:1014A000ACEB0608B44532D014DCBCF1030F3AD0E3
:1014B00009DCBCF1000F2AD0BCF1010F1CD0BCF13B
:1014C000020F31D11DE0BCF1110F17D0BCF1120F8A
:1014D0002AD119E0B8F5881F19D006DCB8F5803F8D
:1014E00015D0B8F5801F1FD111E0B8F5001F0ED040
:1014F000B8F5041F18D10AE0CB6815E0CB681B1DB6
:1015000012E0CB6808330FE0CB680C330CE08B683B
:101510002BB1012B4FF0080303D0456104E00423F5
:1015200002E0056100E00023FF2A01D8064601E041
:1015300000F104064FEA840501D9A5F12005D6F88B
:10154000008007FA05FC28EA0C0803FA05F548EACA
:101550000508C6F800804D68ED0062D5374DAE69CC
:1015600046F00106AE61AD6924F0030605F0010501
:101570000095334D06EB050CDCF80850A607360F36
:1015800007FA06F825EA0805DFF8B880404503D1D8
:101590004FF0000817E044E0DFF8AC80404502D18E
:1015A0004FF001080FE0DFF8A480404502D14FF072
:1015B000020808E0DFF89880404502D14FF00308A8
:1015C00001E04FF0040808FA06F848EA0508CCF8EC
:1015D00008804D68D9F80060ED024D4601D51643EC
:1015E00000E096432E604D68DAF80060AD02554683
:1015F00001D5164300E096432E604D68DBF800608D
:10160000AD035D4601D5164300E096432E604D685C
:10161000DEF80060ED03754601D5164300E0964301
:101620002E60641C0D682A46E5407FF431AFBDE8AA
:10163000F88F000008040140000011100010024063
:101640000000014000080140000C01400010014072
:10165000001401400AB1016170470904FBE7000072
:101660000148806870470000A400002070B50400A5
:1016700025D094F83D00002520B984F83C50204640
:1016800000F076FA242084F83D002068016821F0FB
:10169000010101602068016841F400410160206897
:1016A000016821F40041016000F034FC4D4A61689A
:1016B000914201D84C4900E04C49884201D20120B6
:1016C00070BD4B492368B0FBF1F15E6826F03F0620
:1016D0000E435E606368934206D94FF49673594394
:1016E0004FF47A73B1FBF3F12368491C1E6A26F0AC
:1016F0003F06314319626168914210D84900401E8B
:10170000B0FBF1F2521CC2F30B02042A01D20420F6
:1017100022E0B0FBF1F0401CC0F30B001CE0A2681B
:10172000F2B301EBC10303EB0116431EB3FBF6F367
:101730005B1C43F480431B0549D092B301EBC1020B
:1017400002EB0111401EB0FBF1F0401CC0F30B0096
:1017500040F4804040F400402168CA694CF6FF73B1
:101760009A431043C861D4E9071001432068026816
:1017700022F0C00211430160D4E903010143206853
:10178000826848F2FF339A4311438160D4E905012E
:1017900008432168CA6822F0FF021043C86001E0D4
:1017A0000EE016E02068016841F001010160256447
:1017B000202084F83D00256384F83E50002070BD51
:1017C00001EB4106431EB3FBF6F35B1CB3E70120BC
:1017D000C2E701EB4101401EB0FBF1F0401CC0F339
:1017E0000B00B7E7A086010080841E0000093D00C1
:1017F00040420F002DE9F84F0025DDF8289098466B
:1018000017468A4604460095FFF72AFF064694F8D5
:101810003D0020287AD119230122864920460096CE
:1018200001F05CFE0028F5D194F83C0001286DD051
:10183000012084F83C0020680168C90703D10168D1
:1018400041F0010101602068016821F4006101603C
:10185000222084F83D00102084F83E002564676251
:10186000A4F82A80608D20857348E06233464A469A
:101870005146204601F02AFD00287CD1208DDFF85A
:10188000BC81202768B1012814D002282068016893
:101890001ED041F480610160206841698069009038
:1018A000BBE02068416981690091016841F40071E1
:1018B0000160B2E02068016821F48061016072B6C5
:1018C0002068416981690091016841F400710AE072
:1018D00041F40061016072B620684169816900913C
:1018E000016821F48061016062B696E0032865D842
:1018F00001280CD002284B464FF0000241462046FA
:1019000000960BD001F0EAFDA8BB0CE090E0324657
:101910004946204601F088FE68BB71E001F0DEFD1B
:1019200048BB72B633E02068016821F48061016031
:1019300072B620680069616A0870606A401C606263
:10194000208D401E2085608D401E60853C4846F2FB
:10195000A8110068B0FBF1F0C0EBC00000EB800004
:101960000090401E009007D020684069C0434007A7
:101970000DD50098F5E727E044F8305F6773A5734D
:10198000206940F02000206162B625731CE02068C9
:10199000016841F40071016020680069616A0870A3
:1019A000606A401C6062218D491E2185618D491E3F
:1019B000618562B621680969017025E032464946B1
:1019C000204601F031FE10B10120BDE8F88F2068FB
:1019D0000069616A0870606A401C6062208D401E68
:1019E00081B22185608D401E608520684269D243A6
:1019F000520712D4032903D1016821F480610160E8
:101A000020680069616A0870606A401C6062208D0D
:101A1000401E2085608D401E6085208D00287FF44B
:101A200065AF84F83D7084F83E5084F83C50CCE7B4
:101A30000220CAE7020010000000FFFF04000100BE
:101A4000000000202DE9F84F1F4690468A460446C4
:101A5000DDF82890FFF704FE054694F83D002028A5
:101A60007FD11923012240492046009501F036FD1F
:101A7000002876D194F83C00012872D0012084F827
:101A80003C0020680168C90703D1016841F00101E9
:101A900001602068016821F400610160212084F860
:101AA0003D00102084F83E0000262664C4F82480FF
:101AB0006785608D20852D48E0622B464A46514659
:101AC000204601F079FC90B9206841698069009056
:101AD00036E02A464946204601F0DEFD50B1206C32
:101AE000042804D12068016841F4007101600120DC
:101AF000BDE8F88F606A216800780861606A401C60
:101B00006062618D491E6185218D491E89B22185E2
:101B100022685369DB435B070BD451B10078106135
:101B2000606A401C6062608D401E6085208D401E92
:101B300020852A464946204601F0A5FC0028CED142
:101B4000208D0028C5D154F83D0B016841F4007187
:101B50000160202004F81E09E67766770020C7E7B9
:101B6000FFE70220C4E70000020010000000FFFFB2
:101B700010B586B000210091019102910391006897
:101B80000F4988421AD10F4CA06940F00800A061AB
:101B9000A069694600F008000490C020009012205F
:101BA0000190032003900848FFF764FCE06940F4CB
:101BB0000010E061E06900F40010049006B010BD70
:101BC0000054004000100240000C014002488168AF
:101BD0000278114481607047A4000020074810B5C6
:101BE000016841F010010160032000F075F80F203A
:101BF00000F006F800F024F8002010BD002002409C
:101C000070B50D4D04464FF47A712878B1FBF0F0B1
:101C10000A490968B1FBF0F000F097FC48B9102CB4
:101C200007D200222146501E00F036F800206C60DA
:101C300070BD012070BD0000A40000200000002045
:101C40000C4808B5816941F001018161816901F0A9
:101C500001010091C16941F08051C161C06900F08A
:101C6000805000900448416821F0E06141F000712B
:101C7000416008BD0010024000000140002809DB5F
:101C800000F01F02012191404009800000F1E02096
:101C9000C0F8001170470000F0B40E4B1B680C46F2
:101CA000C3F30223C3F10705042D00D90425191D30
:101CB000072901D2002300E0DB1E012606FA05F108
:101CC000491E214099409E40761E16403143F0BC8B
:101CD00002F02CBB0CED00E0064900F0070208689A
:101CE0004FF6FF03184040EA0220034A1043086001
:101CF000704700000CED00E00000FA052DE9F84304
:101D000005460078354CC00754D0E0690026C00075
:101D100008D4E06940F08050E061E069012600F0FD
:101D2000805000902E480168C90512D40168804691
:101D300041F480710160FFF793FC074605E000BFA6
:101D4000FFF78EFCC01B642823D8D8F80000C0051C
:101D5000F6D5206A10F4407021D0A98801F44071B2
:101D600081421CD0206A1F49012220F440700A6081
:101D700000220A602062C00711D0FFF771FC0746FD
:101D800041F2883808E000BFFFF76AFCC11B4145FB
:101D900002D90320BDE8F883206A8007F4D5206AC1
:101DA000696820F44070084320621EB1E06920F0A9
:101DB0008050E0612878800705D56068A96820F424
:101DC0004040084360602878C00605D56068E9682F
:101DD00020F48000084360600020DBE70010024030
:101DE00000700040400442422DE9F0470F460500D4
:101DF00061D0434E306800F00700B84209D2306825
:101E000020F0070038433060306800F00700B84227
:101E100051D128683B4C810712D5400703D5606833
:101E200040F4E06060602878000703D5606840F403
:101E3000605060606068A96820F0F000084360604E
:101E40002878C00728D06868012810D021680228A7
:101E500010D0890700292EDA616821F003010143BF
:101E60006160FFF7FDFB804641F288390DE0216893
:101E70008903EFE78901EDE7FFF7F2FBA0EB08012B
:101E8000494502D90320BDE8F0876068696800F021
:101E90000C00B0EB810FEFD1306800F00700B842C2
:101EA0000BD9306820F0070038433060306800F00C
:101EB0000700B84201D00120E5E72878400705D5A2
:101EC0006068E96820F4E0600843606028780007F3
:101ED00006D56068296920F4605040EAC10060605E
:101EE00000F038F86168084AC1F30311515CC8403A
:101EF0000649086006480068FFF782FE0020C2E736
:101F0000002002400010024048600008000000204D
:101F1000A80000200448054900684968044AC1F344
:101F20000221515CC84070470000002000100240B0
:101F3000586000080448054900684968044AC1F32C
:101F4000C221515CC84070470000002000100240D0
:101F5000586000080E4A51680E4801F00C03042B2B
:101F600011D0082B0FD10C48C1F38343C903C05CC7
:101F70000AD55168084AC1F34041921E515C054A96
:101F80005043B0FBF1F070470449484370470000EC
:101F90000010024000127A00FA66000800093D00B5
:101FA0002DE9F84F040070D02078C04DC00749D00B
:101FB0006868C0F38100012807D06868C0F3810019
:101FC000022809D16868C00306D52868800339D57E
:101FD00060680028E7D035E06068B0F5803F0BD03E
:101FE00010B1B0F5A02F11D0286820F480302860FF
:101FF000286820F4802002E0286840F480302860BF
:10200000606890B1FFF72CFB06460AE0286840F4B0
:1020100080202860F0E700BFFFF722FB801B6428C8
:1020200073D828688003F7D50CE0FFF719FB064644
:1020300005E000BFFFF714FB801B6428F0D8286878
:102040008003F7D420789A4E80074FF001094FF0B3
:10205000000839D5686810F00C0F07D06868C0F325
:102060008100022809D16868C00306D42868800767
:1020700014D52069012808D110E02069B0B1C6F854
:102080000090FFF7EDFA074605E00AE1FFF7E8FAEE
:10209000C01B0228C4D828688007F7D52868616962
:1020A00020F0F80040EAC10028600DE0C6F800808A
:1020B000FFF7D6FA074604E0FFF7D2FAC01B022862
:1020C00023D828688007F7D4207800072CD57948D2
:1020D000A169D9B1C0F80090FFF7C2FA074604E041
:1020E000FFF7BEFAC01B02280FD8686A8007F7D531
:1020F00071484FF4FA510068B0FBF1F0009000BF56
:102100000098411E0091FAD20EE080E0C0F80080F5
:10211000FFF7A6FA074604E0FFF7A2FAC01B022861
:1021200075D8686A8007F7D42078400760D5E869D9
:102130000027C00008D4E86940F08050E861E869F1
:10214000012700F0805000905C480168C90513D455
:102150000168834641F480710160FFF781FA82468D
:1021600006E000BFFFF77CFAA0EB0A0064284ED817
:10217000DBF80000C005F5D5E06801280AD008B1F9
:10218000052813D0286A20F001002862286A20F070
:10219000040002E0286A40F001002862E06841F291
:1021A000883B98B1FFF75CFA82460BE0286A40F062
:1021B00004002862EEE700BFFFF752FAA0EB0A0125
:1021C00059455AD8286A8007F6D50CE0FFF748FA37
:1021D000824605E0FFF744FAA0EB0A0159454CD8C6
:1021E000286A8007F6D41FB1E86920F08050E861C2
:1021F000E06988B36968C1F38101022944D00228EB
:10220000C6F8608004D0FFF72BFA044638E034E0CB
:10221000FFF726FA074604E0FFF722FAC01B022860
:102220002BD828688001F7D4206AB0F5803F05D10B
:102230006868A16820F4003008436860D4E90801A8
:102240000843696821F4741108436860C6F8609017
:10225000FFF706FA044606E025E000BFFFF700FAA4
:10226000001B022809D828688001F7D51BE000BFB1
:10227000FFF7F6F9001B022802D90320BDE8F88F0A
:1022800028688001F4D40EE00128F7D06868226A3B
:1022900000F48031914204D1616A00F470108842E8
:1022A00001D00120EAE70020E8E70000001002402A
:1022B00000004242800442420000002000700040C2
:1022C00070B5040009D0606A002540B125616561E0
:1022D000A56294F8510040B10CE0012070BD606827
:1022E000B0F5827FF4D0E561F2E784F850502046E3
:1022F00000F040F8022084F851002068016821F0C5
:1023000040010160A088218900F4827001F4044139
:102310000843A18901F400610843217C01F0020116
:102320000843217D01F001010843218B01F4007174
:102330000843217F01F03801084394F8201001F090
:1023400080010843218D01F4005108432168086091
:10235000A069042101EA1040216848602068C16931
:1023600021F40061C1616565012084F851000020FD
:1023700070BD000030B585B0002400940194029433
:10238000039400681449884223D11448816941F4B8
:1023900080518161816901F480510491816941F02A
:1023A0000401816180690E4D00F004000490A020BA
:1023B0000090022001900320039069462846FFF711
:1023C00059F84020CDE90004694628460294FFF7F9
:1023D00051F805B030BD000000300140001002404F
:1023E000000801402DE9F84F984616468A460446F3
:1023F000FFF736F9814694F8510001281ED1BAF151
:10240000000F73D0002E71D094F85000012815D021
:10241000012784F85070032084F851000025656579
:10242000C4F830A0A686E686A563A587E58765641F
:102430002564A068B0F5004F03D00CE00220BDE891
:10244000F88F2068016821F0400101602068016870
:1024500041F48041016020680168490603D40168A5
:1024600041F040010160E068B0F5006F606803D0A2
:1024700048B3012E27D047E008B1012E1FD1206BB1
:1024800021680088C86006E020688168890709D54E
:10249000216B0988C160206B801C2063E08E401E88
:1024A000E0860CE0FFF7DCF8A0EB0901414503D31F
:1024B000B8F1FF3F03D035E0B8F1000F32D0E08E25
:1024C0000028E1D123E0206B21680078087306E042
:1024D0002068816889070AD5216B09780173206B10
:1024E000401C2063E08E401EE0860DE02BE0FFF7ED
:1024F000B7F8A0EB0901414503D3B8F1FF3F03D082
:1025000010E0B8F1000F0DD0E08E0028E0D14A466F
:102510004146204601F0F1FA08B120206065A0682C
:1025200030B109E084F8517084F85050032086E7F8
:102530002068C1688068009084F8517004F8505F8A
:1025400060680028F3D0012079E710B5401EB0F193
:10255000807F01D3012010BD4FF0E02460610F2186
:10256000601701F0E3FE0020A06107202061002039
:1025700010BD10B590F83C20012A22D0012280F82D
:102580003C20CA688C6822F4407222434C6822F4D2
:10259000806222430C6822F4006222430C6922F418
:1025A000805222434C6922F400522243C96900231D
:1025B00022F480420A4301684A6480F83C300020DB
:1025C00010BD022010BD000070B590F83C20012A1B
:1025D00026D0012480F83C40022280F83D20036888
:1025E0005A689D6822F070060A6832435A600D4BA3
:1025F00002689A4208D0B2F1804F05D00A4B9A4245
:1026000002D00A4B9A4204D1496825F0800319434D
:10261000916080F83D40002180F83C10084670BD74
:10262000022070BD002C0140000400400008004062
:1026300010B5040003D094F83D0010B107E001206C
:1026400010BD002084F83C00204600F01FF8022056
:1026500084F83D00211D206801F052FB012084F820
:10266000460084F83E0084F83F0084F8400084F877
:10267000410084F8420084F8430084F8440084F860
:10268000450084F83D00002010BD000038B5054627
:102690000068184A184990421FD1886940F40060C8
:1026A00088618869164C00F400600090134820602F
:1026B0001020606000208021C4E9020149002161EE
:1026C0008900C4E90510E0612046FEF73FFE08B12D
:1026D000FEF717FB6C62656238BD0A4A9042FBD177
:1026E000C86940F00200C861C86900F002000090AB
:1026F00038BD0000002C0140001002401C000240C8
:10270000640200200004004090F83D10012901D02F
:1027100001207047022180F83D1000680B49884273
:1027200008D0B0F1804F05D00949884202D009494C
:10273000884204D1816801F00701062903D00168AD
:1027400041F001010160002070470000002C0140B1
:10275000000400400008004001680A6A41F21113B9
:102760001A4207D10A6A9B101A4203D10A6822F062
:1027700001020A60012180F83D100020704770B509
:10278000044690F83C000025012817D0012684F863
:102790003C60022084F83D002068826822F07702C5
:1027A00022F47F4282600868502838D00DDC20284F
:1027B0004FD005DC90B3102811D14AE0022070BD43
:1027C000302846D040280AD13BE060282FD070281E
:1027D0000DD0B0F5805F03D0B0F5005F12D00125B9
:1027E00084F83D60002084F83C00284670BDCB682A
:1027F000D1E90121206801F041FB2068816841F0A6
:10280000770109E0CB68D1E90121206801F036FBAE
:102810002068816841F480418160E1E719E0CA687D
:102820004968206801F0DEFB5021206806E0CA6894
:102830004968206801F0E7FB6021206801F028FB6F
:10284000CEE7CA684968206801F0CCFB40212068C7
:10285000F4E7226801461046F0E7704700B585B0FE
:102860000021009101910291039100680B49884277
:1028700012D10B48816941F0040181618069694688
:1028800000F0040004904FF480700090022001904A
:1028900003900448FEF7EEFD05B000BD002C01409A
:1028A000001002400008014070B5044690F83C005A
:1028B00000260D4601280FD0012084F83C006AB1A3
:1028C000042A1DD0082A2FD00C2A3FD00126002030
:1028D00084F83C00304670BD022070BD206801F0D5
:1028E000DFFA2068816941F008018161206881690F
:1028F00021F004018161206881692A69114311E096
:10290000206801F0F5FA2068816941F40061816175
:102910002068816921F480618161206881692A6968
:1029200041EA02218161D2E7206801F00DFB2068B5
:10293000C16941F00801C1612068C16921F0040149
:10294000C1612068C1692A69114311E0206801F062
:1029500027FB2068C16941F40061C1612068C16939
:1029600021F48061C1612068C1692A6941EA0221BC
:10297000C161ACE710B5040003D094F83D0010B17C
:1029800007E0012010BD002084F83C00204600F044
:102990001EF8022084F83D00211D206801F0B0F9E6
:1029A000012084F8460084F83E0084F83F0084F853
:1029B000400084F8410084F8420084F8430084F821
:1029C000440084F8450084F83D00002010BD7047A5
:1029D000064900680968884207D10549002081F846
:1029E0006C020146014800F0D1B87047D4010020C4
:1029F000680C0020704700002DE9F04117460D00DB
:102A000004464FF000060CD0042D11D0082D16D02E
:102A100094F84100022819D094F84100012818D0F8
:102A20007CE094F83E00022810D094F83E00F5E7D0
:102A300094F83F00022809D094F83F00EEE794F89C
:102A40004000022802D094F84000E7E70220BDE8E9
:102A5000F081002F62D0002B60D04649464ADFF853
:102A60001CC102204DB1042D18D0082D27D084F8A8
:102A700041000C2D44D0012679E084F83E00606AC4
:102A80008162606A3946C262606AC0F830C02268FA
:102A9000606A3432FEF788FC88BB21E084F83F008E
:102AA000A06A8162A06A3946C262A06AC0F830C0DA
:102AB0002268A06A3832FEF777FC00BB15E084F884
:102AC0004000E06A8162E06A3946C262E06AC0F8AA
:102AD00030C02268E06A3C32FEF766FC78B909E053
:102AE0002068C16841F400711EE02068C16841F4AB
:102AF000806119E02068C16841F4006114E00DE0D4
:102B0000206B8162206B3946C262206BC0F830C0F6
:102B10002268206B4032FEF747FC08B1012096E79F
:102B20002068C16841F48051C160012229462068B3
:102B300001F022F912492068884203D1426C42F424
:102B4000004242642068884208D0B0F1804F05D02E
:102B50000C49884202D00C49884204D1816801F0B6
:102B60000701062903D0016841F0010101603046E8
:102B70006DE70000933D0008F13D0008293E000884
:102B8000002C0140000400400008004070B50D001A
:102B900004464FF0000607D0042D0CD0082D11D0AC
:102BA0000C2D16D0012645E02068C16821F4007183
:102BB000C160606A13E02068C16821F48061C1606F
:102BC000A06A0CE02068C16821F40061C160E06A7D
:102BD00005E02068C16821F48051C160206BFEF7D8
:102BE000BFFA00222946206801F0C6F8174B41F2CF
:102BF000111120688A10984209D1036A0B4206D14C
:102C0000036A134203D1436C23F4004343642068F6
:102C1000036A0B4206D1016A114203D1016821F017
:102C20000101016001203DB1042D08D0082D09D01B
:102C300084F84100304670BD84F83E00FAE784F81D
:102C40003F00F7E784F84000F4E70000002C014063
:102C500018B5034690F84200202801D0022018BD84
:102C600061B15AB10120186300205863184601F081
:102C7000D3FA0028F3D1196B012901D0012018BD26
:102C800019680A684968009119680C3151E8002FE9
:102C900042F0100241E80024002CF5D118BD0000DC
:102CA00010B50C4A00681268904211D172B64029E2
:102CB00000D94021084C012024F8401FA070FEF7E5
:102CC000CFFCA060402204490248FFF7C1FF62B672
:102CD00010BD0000F0020020E80300207047000053
:102CE00070B5044620680C3050E8001F21F4907144
:102CF00040E80012002AF5D12068143050E8001F87
:102D000021F0010140E80012002AF5D1206B0128D2
:102D100009D120680C3050E8001F21F0100140E874
:102D20000012002AF5D1206840694FF020024106C8
:102D30004FF0000015D52168143151E8003F23F011
:102D4000400341E80035002DF5D1E16B49B1094858
:102D50004863E06BFEF704FA50B1E06B416B8847C3
:102D600006E0E08584F8422020632046FFF7B6FFA6
:102D7000002070BD3B40000870470000F8B50168B6
:102D800004460868CA684B6910F00F0F4FF0000541
:102D90005AD003F0010602F49077374365D0C1079B
:102DA00005D0D10503D5616C41F001016164410793
:102DB00005D5D90703D0616C41F002016164810738
:102DC00005D5D90703D0616C41F0040161640107A6
:102DD00007D502F02001314303D0616C41F00801B6
:102DE0006164616C00293BD0800604D5900602D551
:102DF000204601F054F920684069616CC0F38010EE
:102E000001F00801014320462BD001F021F9206890
:102E10004069400621D52068143050E8001F21F099
:102E2000400140E80012002AF5D1E06BA8B16D49DD
:102E30004163E06BFEF794F9002811D0E06B416B21
:102E400001B0BDE8F040084783060ED593060CD5C7
:102E50002046BDE8F84001F022B92046FFF78CFF7C
:102E6000F8BDFFF789FF6564F8BD266B2023012EAE
:102E70007CD1C6067AD5D60678D508684868009011
:102E800048694FF00206400640D5E16B086840688B
:102E90000004000CE8D0A28D8242E5D9E085886963
:102EA00020282DD020680C3050E8001F21F48071BC
:102EB00040E80012002AF5D12168143151E8000FD2
:102EC00020F0010041E80002002AF5D1206814300A
:102ED00050E8001F21F0400140E80012002AF5D11F
:102EE00084F84230256320680C3050E8001F21F040
:102EF000100140E80012002AF5D1E06BFEF70DF951
:102F00006663A08DE18D401A81B22AE0A08DE18D2B
:102F1000401A81B2E08D0028A6D00029A4D02268F2
:102F20000C3252E8000F20F4907042E80007002FA6
:102F3000F5D12068143050E8002F22F0010240E85B
:102F40000027002FF5D184F84230256320680C302B
:102F500050E8002F22F0100240E80023002BF5D1AA
:102F600066632046FFF79CFEF8BDFFE705062BD5FC
:102F7000150629D594F841002128F5D1A068B0F5AF
:102F8000805F01D12069B0B1206A411C21622168B3
:102F900000784860E08C401E0004000CE084E3D11F
:102FA0002068C16821F08001C1602068C16841F0DB
:102FB0004001C160D8E7206A0088C0F3080048607B
:102FC000206A801C2062E5E74006CDD55006CBD5AF
:102FD000CA68204622F04002CA6084F8413000F0FE
:102FE00047F9C1E72B40000870B5040004D094F8FD
:102FF0004100002510B106E0012070BD84F840506A
:10300000204600F023F8242084F841002068C1689D
:1030100021F40051C160204601F0A2F82068016946
:1030200021F4904101612068416921F02A01416148
:103030002068C16841F40051C1606564202084F8B3
:10304000410084F842006563002070BDF0B585B092
:10305000002400940194029403940646434F0368AD
:10306000434802210322434DBB4251D1836943F4BB
:1030700080438361836903F480430493836943F04D
:10308000040383618069039200F004000490080245
:10309000CDE9000169462846FEF7ECF92815CDE98F
:1030A0000004694628460294FEF7E4F9334D32489D
:1030B0008027C5E90004C5E9024720202C61C5E945
:1030C00005400002E8612846FEF740F908B1FDF727
:1030D00018FEF5636E62294D27484435143801C542
:1030E000102091C5000245F810496C61C5E9064001
:1030F00022484430FEF72AF908B1FDF702FEB56315
:103100000022114625206E62FEF7C6FD252028E02C
:103110001B4EB34227D1C36943F40033C361C36973
:1031200003F400330493836943F0040383618069EB
:10313000039200F0040004900420CDE900016946E8
:103140002846FEF797F90820CDE90004694628468D
:103150000294FEF78FF9002211462620FEF79CFD0F
:103160002620FEF78BFD05B0F0BD000000380140C1
:1031700000100240000801405800024038030020BF
:103180000044004090F84230202B01D002207047CC
:1031900021B11AB10023036301F03EB8012070474A
:1031A00010B509490068096888420CD1074C012014
:1031B0002072FEF755FAE0602146BDE81040022279
:1031C0000148FFF7DFBF10BDA8020020D803002090
:1031D0002DE9F843044690F84100984616460D46FE
:1031E000202802D00220BDE8F88385B17EB10020FE
:1031F0006064212084F84100FEF732FAA6848146FB
:10320000E684A0682027B0F5805F02D003E00120AB
:10321000E9E7206910B12E4600250EE000260CE0FB
:103220008021204601F013F8A8B9C6B116F8010BA9
:1032300021684860E08C401EE084E08C4B464FF0F3
:103240000002CDF800800028EAD14FF0400120466E
:1032500000F0FDFF40B184F841700320C3E735F86A
:10326000020BC0F30800E3E784F841700020BAE7DE
:103270007047FEE701688A69D24392070ED40A6854
:1032800022F001020A60202180F83D100021016334
:1032900041850068016841F00101016070470168E3
:1032A0004A69D24352050FD46FF480624A6100210B
:1032B00040F8301F202242738173026942F00402F9
:1032C0000261017301207047002070472DE9F84F1B
:1032D0000446C06A1E4693460D4621680A6842F4B9
:1032E00080620A60082807D0012805D010F5803FC9
:1032F00002D0206B112804D12068016841F480714C
:1033000001604FF001195B460022494620460096B5
:1033100000F0E4F84FF4007840B120680068C00580
:1033200001D5C4F840800320BDE8F88F2069DFF89C
:1033300084A0B0F5804F0FD00620216800EAD51791
:1033400047F0F000086133465A460AF1060120466C
:1033500000F00CF958BB03E0E8B240F001001CE0BB
:103360002168E8B2086133465A465146204600F0CB
:10337000FDF8E0B92068416981690091016841F474
:10338000807101605B46002249462046009600F0AD
:10339000A5F80028C1D147F0F10021680861334643
:1033A0005A465146204600F0E1F80028BCD00120E2
:1033B000BAE7000002000100F8B50446C06A1E46E4
:1033C0000D461746082807D0012805D010F5803F84
:1033D00002D0206B122804D12068016841F480716A
:1033E0000160134600224FF001112046009600F0C4
:1033F00075F840B120680068C00502D54FF4007030
:1034000020640320F8BD2069B0F5804F0ED006205F
:10341000216800EAD51040F0F000086133463A46D2
:103420000B49204600F0A2F878B902E005F0FE0052
:1034300000E0E8B221680861054933463A46891F31
:10344000204600F093F80028DCD00120F8BD0000F1
:1034500008000100F8B51C4615460F46060010D0BE
:103460007DB174B1FFF706FF6420009023462A4621
:1034700039463046FEF7BEF9002803D03046FFF744
:10348000F9FE0120F8BD70B516460D4604461EE053
:103490002046FFF704FF08B1012070BD681C16D05C
:1034A000FEF7DEF8801BA84200D885B92068406985
:1034B000C04340070BD5002044F8300F2021617332
:1034C000A073216941F0200121612073E4E72068A5
:1034D0004069C0434007DBD4002070BD2DE9F047B0
:1034E000984617460D460446C1F30746DDF820907E
:1034F0002AE000BFB8F1FF3F26D0FEF7B1F8A0EBFD
:103500000901414502D8B8F1000F1DD12068012EF4
:1035100016D0806925EA00000004000C12D00020BB
:10352000B84211D1002044F8300F20216173A073FC
:10353000216941F02001216120730120BDE8F0875D
:103540004069E7E70120EBE72068012E0AD0806997
:1035500025EA00000004000C06D00020B842C9D0C3
:103560000020EBE74069F3E70120F7E72DE9F0479A
:10357000984616460D4604464FF000094FF0200AC3
:10358000C1F3074723E020684069C043400515D4D4
:103590002068016841F40071016021686FF4806067
:1035A0004861C4F8309084F83DA084F83E90216CC6
:1035B00041F00401216484F83C9021E0701C06D0A5
:1035C000FEF74EF8A0EB0800B04203D816B1012F69
:1035D0001FD021E02068012F15D0806925EA000066
:1035E0000004000C18D000BF44F8309F84F80DA0F0
:1035F00084F80E90216941F02001216184F80C903B
:103600000120BDE8F087406925EA00000004000CB5
:10361000EAD12068406901E02068806925EA00005D
:103620000004000CAFD1ECE72DE9F04100259046F5
:103630000E460446202728E04069C043C0060CD44B
:1036400054F8301B6FF01000486144F81059677748
:10365000A577206A2062257714E0FEF701F8A0EB39
:103660000800B04200D886B920684069C0434006CF
:103670000BD544F8305F6773A573206940F02000D4
:10368000206125730120BDE8F08120684169C943AC
:103690004906D1D40020F6E770B516460D4604461B
:1036A0001EE02046FFF7FBFD08B1012070BD681C3D
:1036B00016D0FDF7D5FF801BA84200D885B9206839
:1036C0004069C04300060BD5002044F8300F20218C
:1036D0006173A073216941F0200121612073E4E747
:1036E00020684069C0430006DBD4002070BDF8B5F7
:1036F0001C4615460F4606000DD065B15CB1FFF7BC
:10370000B9FD6420009023462A4639463046FEF72C
:1037100099F9002800D00120F8BD00003EB5002432
:1037200011480094019402940E498460016004736E
:103730000475012505614FF400214460C161FDF766
:1037400065FB08B1FDF7DDFA07200094CDE90150D3
:1037500069460548FDF7D8FA002801D0FDF7D1FAEF
:103760003EBD000000240140B4000020154808B50B
:10377000416941F0010141614069002200F001000E
:10378000009011460B20FEF787FA0B20FEF776FA21
:10379000002211460C20FEF77FFA0C20FEF76EFA8D
:1037A000002211460E20FEF777FA0E20FEF766FA89
:1037B000002211460F20FEF76FFABDE808400F20E7
:1037C000FEF75CBA001002402DE9F04186B00024FB
:1037D0003B480094019402940394816941F02001D4
:1037E0008161816901F020010491816941F0040146
:1037F0008161816901F004010491816941F008014E
:10380000816180692F4F00F008000490002202219E
:103810003846FDF71FFF012210213846FDF71AFF39
:10382000DFF8A48001224FF4A0514046FDF712FFBB
:1038300000224CF620114046FDF70CFF1220012516
:103840000226CDE90005CDE9024669463846FDF776
:1038500011FE0B2000901D48CDE901056946404648
:10386000FDF708FE4DF62050CDE90005CDE90246F2
:1038700069464046FDF7FEFD4FF40850CDE90004CF
:10388000694640460294FDF7F5FD002211460620E8
:10389000FEF702FA0620FEF7F1F900221146072092
:1038A000FEF7FAF90720FEF7E9F900221146092090
:1038B000FEF7F2F90920FEF7E1F906B0BDE8F08164
:1038C0000010024000080140000C014000002110DF
:1038D0000D4810B50B4901600C49416000214FF4BF
:1038E00080428160C0E9031241618161C16101626E
:1038F000FDF7BCFE002803D0BDE81040FDF701BA7B
:1039000010BD00000054004028010020A0860100E6
:10391000104810B50E4901604FF4827141600021DA
:103920008160C1604FF400720161C0E90512082294
:10393000C0E90721416281620A21C162FEF7C0FC31
:10394000002803D0BDE81040FDF7DBB910BD000032
:10395000003001407C01002010B596B000240F9487
:1039600010941194129413941C2108A81494FCF739
:1039700002FC20216846FCF7FEFB27482549C0E9E8
:1039800000145921C0E90241046144618461FEF7D9
:103990004FFE08B1FDF7B5F94FF480500F900FA915
:1039A0001D48FEF7ECFE08B1FDF7ABF91A48FEF72B
:1039B000E1FF08B1FDF7A5F9139413A91648149473
:1039C000FEF702FE08B1FDF79CF96020CDE908047E
:1039D0000A940B940C940D94002208A90E480E949E
:1039E000FEF762FF08B1FDF78CF900944FF4005028
:1039F000CDE9044002940194039469460648079473
:103A0000FEF7B7FD08B1FDF77CF90348FEF726FF86
:103A100016B010BD002C0140D401002000B587B0C5
:103A20000021174800910191029103910491134ADA
:103A3000059102604722C0E901216322C0E9032108
:103A40008161FEF7F5FD08B1FDF75BF94FF4805099
:103A5000009069460A48FEF792FE08B1FDF751F959
:103A6000202004908020059004A90548FEF7ACFDB5
:103A7000002801D0FDF745F907B000BD0004004063
:103A80001C0200200C4810B50A4901604FF4165181
:103A90004160002181600C22C160C0E90412816193
:103AA000C161FFF7A1FA002803D0BDE81040FDF77F
:103AB00028B910BD00380140A80200200C4810B5FC
:103AC0000A4901604FF416514160002181600C22C7
:103AD000C160C0E904128161C161FFF785FA002865
:103AE00003D0BDE81040FDF70CB910BD0044004004
:103AF000F0020020FEE7FEE77047F8B515460E46D7
:103B00000B46009204460122022100F011F840B950
:103B10003346002280212046009500F009F8002855
:103B200004D0606D40F0200060650320F8BD000007
:103B30002DE9F8431E46914688460446089DFDF748
:103B40008FFD401B351AFDF78BFD074625480068A1
:103B5000C0F3CB30684338E0701C37D0FDF780FDF0
:103B6000C01BA84203D215B1009860B32CE02068B6
:103B7000416821F0E00141606068B0F5827F0BD1BF
:103B8000A068B0F5004F02D0B0F5806F04D1206876
:103B9000016821F040010160A06AB0F5005F09D121
:103BA0002068016821F4005101602068016841F437
:103BB00000510160012084F85100002084F8500079
:103BC0000320BDE8F8830025401E0090206881682E
:103BD00038EA010004D000214945BDD10020F0E7BA
:103BE0000121F9E70000002013B56423012201A997
:103BF000FEF7F8FB1CBD704710B5FDF7E7FF00F0BE
:103C000097FEBDE8104000F0C7BF000010B51C4C87
:103C10002178032907D0082817D2DFE800F0160A18
:103C20000E12171B222900280FD1BDE8104001F009
:103C3000BFBDBDE8104001F0A7BD01F047FD002069
:103C400002E001F017FD0120207010BD01F064FDBD
:103C50000220F9E70229F8D0601DBDE8104001F00C
:103C600021BC0029F1D1201DBDE8104001F0ECBBC2
:103C70000029EAD1201DBDE8104001F0D1BB0000B1
:103C8000C003002030B593B028216846FCF773FAD2
:103C900014210AA8FCF76FFA002501200F95109552
:103CA0001195010412958DE8230004904FF4E01063
:103CB000CDE90810022407946846FEF771F908B1AF
:103CC00072B6FEE70AA90F2081E831004FF4806048
:103CD000CDE90D0502210AA8FEF786F808B172B6F3
:103CE000FEE74FF4004011900F940FA8FEF706F87E
:103CF000002801D072B6FEE713B030BD7047000057
:103D0000F0B50268194B1A4C1A4D4FF08047984293
:103D100005D0B84203D0A04201D0A84203D122F07E
:103D200070064A683243984205D0B84203D0A04298
:103D300001D0A84203D122F44074CA6822434C69DE
:103D400022F08002224302608A68C2620A688262AC
:103D5000984201D109690163012141610169C907E3
:103D600003D0016921F001010161F0BD002C014087
:103D7000000400400008004010B501F01F030121BD
:103D8000046A99408C430462016A9A4011430162BB
:103D900010BD10B5446A0121626A824205D12177C3
:103DA0008069F8B984F83E101CE0A26A824206D10C
:103DB000022222778069A8B984F83F1012E0E26AF3
:103DC000824206D104222277806958B984F84010D3
:103DD00008E0226B824205D108222277806908B967
:103DE00084F841102046FEF7F3FD0020207710BD37
:103DF00010B5446A616A814201D101200DE0A16AD7
:103E0000814201D1022008E0E16A814201D104200F
:103E100003E0216B814201D1082020772046FEF784
:103E2000E9FD0020207710BD10B5446A0121626AC7
:103E3000824203D1217784F83E1019E0A26A8242BF
:103E400004D10220207784F83F1011E0E26A824218
:103E500004D10420207784F8401009E0226B8242CC
:103E600004D10820207784F8411001E084F83D1047
:103E70002046FEF7F2FC0020207710BD10B58468C4
:103E800042EA032224F47F440A432243826010BDA5
:103E9000826822F070020A4342F007018160704795
:103EA00030B5036A026A22F0010202624268846944
:103EB00024F073050C682C4323F002058B682B4318
:103EC0000A4DA8420BD123F00805CB6822F44072BA
:103ED0002B434D6923F0040315438A692A4342604A
:103EE000846149684163036230BD0000002C0140D9
:103EF00030B5026A036A23F01003036243688469E1
:103F00000D6824F4E64444EA05248D6822F020027A
:103F100042EA05120B4DA8420ED1CD6822F0800274
:103F200042EA05124D6923F4406343EA85038D6933
:103F300022F0400243EA850343608461496881635B
:103F4000026230BD002C014030B5036A026A22F4DF
:103F5000807202624268C46923F4007324F073051E
:103F60000C682C438D6843EA05230C4DA8420ED102
:103F7000CD6823F4006343EA05234D6922F44052DF
:103F800042EA05128D6923F4806342EA0512426019
:103F9000C4614968C163036230BD0000002C014068
:103FA00030B5046A026A22F4805202624268C36930
:103FB0000D6823F4E64343EA05238D6824F4005496
:103FC00044EA0534064DA84204D14D6922F48042EA
:103FD00042EA85124260C36149680164046230BDEF
:103FE000002C014010B5036A046A24F00104046245
:103FF000846924F0F00444EA021423F00A020A431C
:104000008461026210BD10B5036A046A24F01004D2
:104010000462846923F0A00324F4704444EA023269
:1040200043EA01118261016210BD10B5406A0021AE
:10403000C185C184FEF7A0FE10BD10B5406A002105
:10404000C185202280F842200163FEF747FE10BDA3
:1040500001680C3151E8002F22F4907241E80023EE
:10406000002BF5D10168143151E8002F22F0010234
:1040700041E80023002BF5D1016B012909D101682A
:104080000C3151E8002F22F0100241E80023002BF0
:10409000F5D1202180F8421000210163704708B556
:1040A00090F84210222901D0022008BD82684FF406
:1040B00080539A4201D1016921B1816A9A421BD091
:1040C0004AB10AE00268816A5268C2F308020A80B3
:1040D000816A891C08E0026972B10268526802F0C4
:1040E0007F020A70816A491C8162C18D491E0904E0
:1040F000090CC18503D01BE002685268F1E7016832
:10410000CA6822F02002CA600168CA6822F480727C
:10411000CA6001684A6922F001024A61202180F8E0
:10412000421000214163026B012A03D0FFF738F8E7
:10413000002008BD016301680C3151E8002F22F016
:10414000100241E80023002BF5D101680A68D2066D
:1041500002D50A6849680091818DFEF7A1FDE7E765
:1041600070B5044600680169E26821F440511143CA
:1041700001612169A0680843616908432168CA6830
:1041800041F20C639A430243CA6020684169A26904
:1041900021F44071114341611E492068884202D1D7
:1041A000FDF7C8FE01E0FDF7B5FE00EBC00101EB35
:1041B0000012606864218000B2FBF0F3B3FBF1F3FE
:1041C0006FF018067343B2FBF0F5B2FBF0F605EBA7
:1041D0008305322303EB0515B5FBF1F5B6FBF1F6CC
:1041E00005F0F00505EB0615B2FBF0F6B2FBF0F0BA
:1041F000B0FBF1F06FF01802504306EB800003EBC8
:104200000010B0FBF1F0216800F00F002844886036
:1042100070BD00000038014081628285C2850021A6
:104220004164222180F84210016921B10168CA6805
:1042300042F48072CA6001684A6942F001024A6130
:104240000068C16841F02001C160002070472DE97D
:10425000F843984617460D460446089E24E0701C15
:1042600022D0FDF7FDF9A0EB0800B0421AD8CEB17C
:104270002068C168490717D5802D15D0402D13D06F
:104280000168C94309070FD4016800254068009000
:104290002046FFF7DDFE0820606484F840500120CE
:1042A000BDE8F8830320FBE72068006835EA0000DA
:1042B00004D00020B842D2D00020F1E70120F9E775
:1042C0000148FEF75BBD0000A80200200148FEF790
:1042D00055BD0000F0020020FEE700000FB41CB541
:1042E0000A46521ECDE9000207A9054B6A46069808
:1042F00000F0FEF8009A002111701CBC5DF814FB60
:10430000334800080FB4084B10B504A902AA03985B
:1043100000F0EEF8044602A9002000F095FA2046CD
:1043200010BC5DF814FB0000494800080907090E9D
:10433000002804DB00F1E02080F80014704700F052
:104340000F0000F1E02080F8141D70470121FBF7F9
:10435000FBBF00210846FBF7B9BF00002DE9F04D77
:104360000D4614464FF07F41B1EB440F9EBF4FF016
:10437000FF312960BDE8F08D4FF0004040EA042194
:10438000C4F3C750783810F01F024A4B4FEA601C44
:10439000C2F120067B44C4F3C750A0F178004FEA75
:1043A000601003EB800053F82C3008BFD0E901C641
:1043B00012D0D0F804C093402CFA06F73B4387682C
:1043C0000CFA02FC27FA06F8C06807FA02F2F0407D
:1043D0004CEA080C42EA0006A3FB0132ACFB01C028
:1043E000A6FB016101EB0C068E4234BF4FF0010CBD
:1043F0004FF0000CC1186144BCF1000F02D08142A3
:1044000002D903E0814201D2012000E000201044E3
:1044100000F120024FEA92188006CA0C40EA4230AE
:104420004F03C5F80080FCF729FA82463846FCF7AE
:104430003EF86FF01201FBF787FF07463046FCF7A6
:1044400036F86FF02501FBF77FFF8346394650466B
:10445000FBF7B2FE5946FBF7AFFE00F500666FF3BF
:104460000B0651463046FBF7F9FE3946FBF7F6FEE0
:104470005946FBF7F6FE1049FBF7F6FE07460F49D3
:104480003046FBF7F1FE3946FBF796FE07460C492E
:104490003046FBF7E9FE3946FBF78EFE14F0004F7D
:1044A00008BFBDE8F08DC8F1805180F00040296060
:1044B000BDE8F08D74230000DB0FC92F22AAFD296F
:1044C0000000C92F02E008C8121F08C1002AFAD153
:1044D00070477047002001E001C1121F002AFBD184
:1044E000704700000149086070470000B0000020DC
:1044F0002DE9FF4F8BB088460546002606E02528AB
:104500000BD0DDE90D1290476D1C761C2878002831
:10451000F5D10FB03046BDE8F08F0024A146A24689
:104520000122AE4900E0044315F8013F203B02FAA6
:1045300003F00842F7D128782A2810D06FF02F0214
:104540002878A0F13001092915D809EB890102EB7F
:10455000410144F0020400EB01096D1CF0E758F83A
:10456000041B5FEA010903D544F40054C9F10009B2
:1045700044F002046D1C28782E2817D115F8010F7D
:1045800044F004042A280ED06FF02F022878A0F1FE
:10459000300109290AD80AEB8A0102EB410100EB3C
:1045A000010A6D1CF2E758F804AB6D1C28786C28E2
:1045B0000FD006DC4C2817D068280DD06A2814D1FB
:1045C00004E0742810D07A280FD10DE044F40014D0
:1045D0000AE044F4801401E044F440146978814214
:1045E00002D104F580146D1C6D1C2878692865D0F3
:1045F00006DC00288DD0632827D0642806D15DE032
:104600006E2808D073282AD0752877D0DDE90D12DE
:104610009047761CE0E0C4F30250022809D003283A
:104620000DD0D8F8001004280DD00E6008F1040851
:10463000D2E0D8F80010F217C1E90062F6E7D8F826
:1046400000100E80F2E70E70F0E718F8041B8DF8EA
:10465000001000208DF80100EB46012003E058F81F
:1046600004BB4FF0FF3061074FF0000701D40AE0B0
:104670007F1C57450DDA8742FADB1BF8071000292B
:10468000F6D106E07F1C8742FCDB1BF807100029EF
:10469000F8D1DDE90D23A9EB07008146214600F0A2
:1046A000B1F83044C61904E0DDE90D121BF8010B26
:1046B00090477F1EF8D22146484688E058F8040B00
:1046C000C4F302514FF00A0B032900D100B20429B0
:1046D00000D140B2002802DA40422D2102E021053B
:1046E00005D52B218DF82410012104E006E0E10717
:1046F00010D02021F6E708AF089113E058F8040B1A
:10470000C4F302514FF00A0B032900D180B20429EF
:1047100000D1C0B20021EEE75946FBF71BFF303154
:1047200007F8011D0028F7D1ADEB070000F1200BC1
:10473000600702D524F4803401E04FF0010ADA4525
:1047400002DDAAEB0B0000E00020824600EB0B012B
:1047500008980144A9EB01000A90E00306D4DDE9C2
:104760000D2321460A9800F04DF806444FF0000949
:1047700008E009A911F80900DDE90D12904709F1D7
:104780000109761C08998945F3DBE0030CD5DDE9C6
:104790000D2321460A9800F035F8064404E0DDE9CF
:1047A0000D1230209047761CBAF10001AAF1010ADF
:1047B000F5DC05E0DDE90D1217F8010B9047761CDA
:1047C000BBF10001ABF1010BF4DC0A982146DDE9F5
:1047D0000D2300F005F806446D1C97E6092801003A
:1047E0002DE9F041044600251E461746880404D4EE
:1047F00005E039462020B0476D1C641EF9D52846D7
:10480000BDE8F0812DE9F041044600251E469046A2
:10481000C80301D5302700E02027880404D505E02F
:1048200041463846B0476D1C641EF9D52846BDE8A0
:10483000F0814A68002A06D00A68531C0B60107089
:104840004868401E486070470A68531C0B6010702F
:104850007047000010B5FCF703FF08490022CB6841
:1048600033B1C31AB3F5FA6F02D80A72002010BD33
:10487000C8600A728878C871012010BDD803002072
:104880001049092801D3092019E0092818D2DFE8C6
:1048900000F00507090B0D0F1113150008200EE09D
:1048A00000200CE001200AE0022008E0032006E0DE
:1048B000042004E0052002E0062000E00720C87183
:1048C000C8797047D803002070B504000BD0074D9D
:1048D0000926287A40B1FFF7BDFF28B1288840BAE1
:1048E000FFF7CEFF207070BD267070BDD80300208A
:1048F000022202490248FEF745BC0000D80300200E
:10490000A8020020002220210148FCF7A3BE0000DD
:10491000000C014004480178044809B1012200E07C
:1049200000222021FCF796BEA2000020000C0140CE
:1049300006480178002908D04178491CC9B2417065
:10494000322902D30021417001707047A20000207B
:10495000024801210170002141707047A20000202F
:1049600008B50020622380221E21009001F030FA59
:1049700008BD00002DE9F843044602464F48694649
:10498000B0EB420F09D94FF0E640B0EB420F94BFB5
:1049900000204FF0FF30009030E0494B22F0004003
:1049A000834271D947492046FBF75EFCFBF76FFE57
:1049B0008046FBF738FF00F0030000904249404674
:1049C000FBF752FC054641494046FBF74DFC0646C5
:1049D0003F494046FBF748FC07463E494046FBF747
:1049E00043FC2146FBF73DFC3946FBF737FC3146DB
:1049F000FBF734FC2946FBF731FC04462546009CB6
:104A0000002C45DB294614F0010F08461CD0FBF7AB
:104A10002BFC06463049FBF727FC3049FBF721FC0D
:104A20003146FBF721FC2E49FBF7C6FB3146FBF76D
:104A30001BFC2946FBF718FC2946FBF7BDFB14F0CD
:104A4000020F1CD0BDE8F883FBF70EFC0546254994
:104A5000FBF70AFC2449FBF7AFFB2946FBF704FCF4
:104A60002249FBF7A9FB2946FBF7FEFB4FF07E51DD
:104A7000FBF7A2FB14F0020F08BFBDE8F88380F03B
:104A80000040BDE8F883FFE71046FFF767FCB4E796
:104A90006800B0F17F4F3CBF4FF07E50BDE8F88317
:104AA00007D14FF00100FFF71DFDBDE8F843FFF708
:104AB00050BC2846BDE8F843FFF748BCB61F927EBD
:104AC000490E494683F9223F1A61342C0020A23353
:104AD00000A0FD390000C93F336D4C39DA82083C33
:104AE000A0AA2ABEB93AB2BACA9F2A3DDDFFFFBECC
:104AF00038B505464FF6FF7401237D221946022082
:104B0000009401F009F90020009023462A460C2168
:104B1000042001F0CFF81B237D22194602200094C7
:104B200001F0FAF838BD10B5FFF7ECFEBDE8104013
:104B300000F020B810B50E49002220B1012807D09E
:104B400002280DD109E00878012809D10A700CE08B
:104B50004878012804D14A7005E08878012801D0FE
:104B6000002010BD8A70FFF7F3FE012010BD000089
:104B70009F00002010B5074C00224FF40041204652
:104B8000FCF768FD20460122BDE810409103FCF7C8
:104B900061BD0000000C014070B5174DA5F108047F
:104BA000287800B3608828B96878012819D00320D4
:104BB00000F036F86088401C80B26080B0F5967FC7
:104BC00017D3697801208843687000266680FCF757
:104BD00047FD6968401A43F69821884209D32E7030
:104BE00004E00220E4E72078012802D1032000F04D
:104BF00017F82878207070BD0C00002010B5092827
:104C000004D2064C082802D00020207010BD0120DC
:104C10002070FCF725FD606010BD00000C00002036
:104C2000084B4FF4004150B1012804D0491002282C
:104C300005D0032805D100221846FCF70BBD012240
:104C4000FAE77047000C014010B530B129B10B787C
:104C50002BB10022012B0DD010E0012010BD006807
:104C60000C4A904213DC012008707820FCF7D4FB3A
:104C7000012008E00068084B984208DB0A707820A1
:104C8000FCF7CAFB0020BDE8104000F075B800201A
:104C900010BD0000000020410000704110B501204F
:104CA00000F080F868B90A20FCF7B6FB072000F096
:104CB00079F830B90A20FCF7AFFB00F031F8002892
:104CC00000D0012010BD000038B50C4605001CD0F6
:104CD000DCB12878032818D800200090022168460B
:104CE00000F040F888B9BDF8000040BAFBF7DFFBE0
:104CF0002A780A49012A0AD0FBF7E8FA20602946F7
:104D00002046FFF7A1FF002800D0012038BDFBF7A7
:104D1000DDFA4FF0FF31FBF717FBEFE79A99993F68
:104D200010B5002000F03EF8002800D0012010BD92
:104D300010B5012000F036F868B90A20FCF76CFBCA
:104D4000072000F02FF830B90A20FCF765FB10208F
:104D500000F028F808B1012010BD7820FCF75CFBBA
:104D6000002010BD0B46024646210148FEF772BBEB
:104D700028010020FFF7DCBF10B530B1012806D0B4
:104D8000022806D0032806D00AE0102004E01120F3
:104D900002E0132000E0202000F004F8002800D0FA
:104DA000012010BD01B501236A4646210148FEF7E6
:104DB0009EFC08BD28010020FCF710FFFEF762FFF3
:104DC000FEF702FDFEF7D2FCFEF782FDFEF7A0FD26
:104DD000FEF758FEFEF772FEFEF7A0FCFEF71EFE81
:104DE000FEF7BAFD00F0C8FC00F0E2FC00F0F4FCB5
:104DF000FCE700002DE9F0410027124D3E4600245B
:104E000005EB8400D0F800040146FBF72DFA394683
:104E1000FBF7D2F9641CA4B20746FF2CF0D9761C2C
:104E2000F6B2032EEBD30849FBF750FA6FF00701F7
:104E3000FBF78AFAC5F82408012085F82808BDE8A0
:104E4000F0810000340400200000404010B54FF411
:104E5000806421460B48FBF78EF921460A48FBF790
:104E60008AF920210948FBF786F90649002081F8D4
:104E70002008C1F8240881F82808C1F82C08C1F8D6
:104E8000300810BD3404002034080020340C002009
:104E9000002803D00249D1F83018016070470000A3
:104EA000340400202DE9F0470026DFF838900E4F3B
:104EB000B046344657F8240000F0F8F8054609EBF0
:104EC00084003146C0F800582846FBF739FB02D26F
:104ED00057F824802E46641CE4B2082CEAD34046DE
:104EE000BDE8F08734040020B86000082DE9F041E7
:104EF0000026154D344600BF05EB8400D0F80004B1
:104F00000146FBF7B1F93146FBF756F9641CA4B230
:104F10000646FF2CF0D9D5F82408FBF7E1FA07463E
:104F20000C466FF007013046FBF70EFAFBF7D8FA94
:104F300000F030FB3A462346FBF7B3FAFBF7E3FAFF
:104F4000C5F82C08BDE8F0813404002010B5FFF747
:104F50007DFFBDE8104000F001B8000010B5044826
:104F6000FDF7FAFBBDE810400248FCF7ABB80000C3
:104F70001C020020B400002010B5FFF767FF0948AD
:104F8000FDF7C2FB4FF4807207490848FCF714F89C
:104F90000549012081F82008BDE810406420FCF795
:104FA0003BBA00001C02002034040020B4000020A2
:104FB00008B500F017F80A4890F8280858B1FFF72C
:104FC00071FF0090684600F023F8FFF78FFF0A207A
:104FD000FCF722FA08BDBDE80840FFF70BBF000050
:104FE0003404002070B5094D002400BF55F824009A
:104FF000A0F50060FBF75BFA05EB8401641CA4B22A
:10500000C1F80004FF2CF1D970BD00003404002069
:1050100070B5002826D01C4C0068D4F830680546CE
:105020003146FBF71BF9194A20F00041914206DA9C
:1050300017492846FBF718F9054616490AE010F10A
:10504000FF4F10D36FF001012846FBF77DF90546AD
:105050004FF07D513046FBF707F92946FBF7ACF8D6
:10506000C4F8300870BD0C49884206DC0B4928465C
:10507000FBF7FAF805460A49ECE70A492846FBF728
:10508000F3F805460849E5E7340400200000204114
:10509000D0CCCC3D6666663F0000C8429A99993EE6
:1050A0003333333F6666E63ECDCC0C3F2DE9F0410D
:1050B000002426460821FBF747F92349FBF706F9A8
:1050C0004FF07C51FBF778F8FBF7F6F980B2FBF76D
:1050D000EEF91E49FBF7C8F86FF00701FBF734F94A
:1050E000FFF748FC0121FBF72FF9194F80460025F7
:1050F00021464046FBF7B8F83146FBF7AFF807EB1F
:105100008501D1F80014FBF757F86D1C2646ADB2A7
:105110000446FF2DECD901464046FBF7A5F8314681
:10512000FBF7A2F8054631460846FBF79DF8064610
:1051300021460846FBF798F83146FBF73DF829462B
:10514000BDE8F041FBF78AB800401C46DA0FC940C1
:10515000340400202DE9F0411C4615000E46074698
:1051600010D0FBF7A4F90F49D1F82C18FBF77CF805
:105170000D49FBF7ABF8FBF79FF9C0B22870B842B6
:1051800002D92F70BDE8F081B04201D22E70F9E74C
:10519000A042F7D200EB4000A04200D804462C7099
:1051A000F0E700003404002000401C4610B5FFF773
:1051B000BAFCFFF79DFBFBF713FD08B1FBF72EFDD3
:1051C000FFF76CFD08B1FFF7D5FDFFF7BFFE00F05C
:1051D00049F8BDE8104000F037BE00002DE9F0416D
:1051E000114C1249A5682069FBF770F800F0F8F936
:1051F0000F49FBF739F8064629464FF07E50FBF77A
:105200002DF83146FBF730F80A4F064628467968F4
:10521000FBF72AF83146FAF7CFFF7860FBF74CF935
:105220002071BDE8F0810000C00300200000C843E9
:1052300000003443040000200020064A014600BF5D
:1052400042F82010401CC0B20A28F9D382F86C1230
:1052500070470000680C00200A2801D200F0C2B894
:105260007047000010B500224FF480710448FCF72D
:10527000F1F9FFF7E1FFBDE8104000F04DB8000084
:1052800000080140F8B5002000906846FFF700FED6
:10529000009810F0FF4F35D01B49884202DC1B49B3
:1052A000C81C09E01A49884203DC1849891DC81C3A
:1052B00002E016490C31C81C0D7802784B78521B5D
:1052C000D4B2427880788F78D21A1249C01BC6B205
:1052D00091F86E02D2B24443424303EB1222704370
:1052E00005EB1424120607EB1020E4B2C3B2120A35
:1052F000002042EA04221A4341F82020401CC0B298
:105300000A28F9D3F8BD000000004843D86000081F
:105310000000FA44680C002010B528210348FAF771
:105320002AFFBDE8104000F021B80000680C002002
:1053300010B50B460446FFF77FFF19462046FFF7DE
:105340008BFFBDE8104000F011B808B500208DF8C3
:1053500000004D236A461421FF20FFF7FBFE68463C
:1053600000F0D8F8FFF78EFF08BD0000F0B41B482E
:1053700090F86C1200292ED1002301243C261A46F5
:105380001E27172150F822C004FA01F51CEA050F68
:1053900000EB430501D02E8500E02F855B1C491EE4
:1053A00049B29BB20029EDDA521CD2B20A2AE8D3E4
:1053B00000210A4600EB43055B1C491C2A859BB271
:1053C0003229F7DB80F86C42044AF0BC2832002115
:1053D0000348FDF711BBF0BC70470000680C0020CB
:1053E000D401002070B5064608480D46002480F818
:1053F0006D6280F86E122A463146204600F066F84B
:10540000641CE4B20A2CF6D370BD0000680C0020C6
:105410000146024890F86D02FFF7E4BF680C0020D7
:1054200000280DD0027807493C2A01D8142200E058
:10543000283A81F86E22027091F86E02FFF7E8BFF9
:1054400070470000680C002000280DD0017828313A
:10545000C9B20170B42901D9B4210170C8B203499D
:1054600081F86E02FFF7D4BF70470000680C00207F
:1054700000280CD00178B42901D3142100E0283190
:105480000170C8B2024981F86E02FFF7C1BF7047D0
:10549000680C0020024991F86E12FFF7A3BF0000CC
:1054A000680C002000280DD00178491CC9B2017099
:1054B0000A2901D300210170C8B2034981F86D02A5
:1054C000FFF7E8BF70470000680C002010B50A28FD
:1054D0001AD2142A01D2142202E0B42A00D9B4222A
:1054E0000A4B01EB4104195D1C4451436378A478D5
:1054F00053435443090A1B0A0904054A41EA03219C
:1055000041EA142142F8201010BD0000EA600008B2
:10551000680C00202DE9F04100282CD0174C0078B1
:10552000174D94F86E72174EC11B11F0FF0F0ED07D
:10553000FAF7BDFF01461448FAF796FE06463846CC
:10554000FAF7B5FF2946FAF78FFE31460DE0FAF774
:10555000AEFF01460D48FAF787FE05463846FAF7D2
:10556000A6FF3146FAF780FE2946FAF725FEFAF73C
:10557000A3FF84F86E02BDE8F0810000680C0020F3
:105580009A99193F9A99593FCCCCCC3E9899193E9B
:10559000FFF7ECBE2DE9F04106460F46FBF7F2F8A7
:1055A000041E0D4618BF0120284320F00040C0F122
:1055B0007F6000F1E040C00F0ED0301C18BF01200A
:1055C000384320F00040C0F17F6000F1E040C00FA0
:1055D00004BF0120FEF786FF20462946BDE8F08182
:1055E00070B50546FBF724F8044620F00040C0F1F2
:1055F000FF40C00F08D025F00040C0F1FF40C00FB1
:1056000004BF0120FEF76EFF204670BD70B502207A
:10561000FFF790FA154D20B1681DFFF743FFFFF724
:10562000B7FF134C6078401CC0B26070142813D3CD
:105630000E49002610316670081FFFF745FB60B168
:105640002078401CC0B22070052805D3FFF792FBDC
:1056500008B1FFF765FB267070BDFFF7BFFD297924
:105660006879FFF7F9FDFFF793FFF4E7C003002027
:1056700014000020064810B500210173054901619E
:1056800001794079FFF754FEBDE81040FFF766BC92
:10569000C00300200000484210B50120FFF74AFA7D
:1056A000094C18B1201DFFF7E3FE07E00220FFF7C9
:1056B00041FA002806D0601DFFF7F4FEBDE8104057
:1056C000FFF766BF10BD0000C003002010B500F05A
:1056D00067FA054801794079FFF72AFEFFF720FBBA
:1056E000BDE81040FFF73ABCC003002010B5FBF73F
:1056F000B7FF084C6168401A32280AD3FBF7B0FFA5
:105700006060FFF755FCFFF720FEBDE81040FFF793
:105710003FBF10BD1400002010B500F041FA05484D
:1057200001794079FFF704FEFFF7FAFABDE810406F
:10573000FFF722BCC003002010B500F073F80D483D
:10574000FBF728FA0B4C143C207D092803D0BDE858
:105750001040FEF75BBA0748401CFFF7B5F8607DC4
:10576000092806D0FEF752FA607DBDE81040FFF729
:1057700045BA10BDD403002010B500F011FABDE801
:105780001040FFF713BD0000084910B50320087052
:105790000120FFF745FAFFF7BFFD00F08DFBFFF793
:1057A000BFFABDE81040FFF7D9BB0000C0030020DE
:1057B00010B50020FFF734FA0320FFF731FAFFF7A6
:1057C00085FF04490020087000F07EFBBDE8104012
:1057D00000F08CB8C003002010B5FFF7ADFF104CEF
:1057E000207820B1012805D0022808D105E0FFF774
:1057F00053FF04E0FFF70AFF01E0FFF777FFFFF731
:1058000089F8FFF799FF00F023F86178207881424A
:1058100000D06070BDE810400A20FBF7FDBD00001D
:10582000C003002010B50020FFF784F900280BD03A
:1058300006480078032803D0BDE81040FFF7A4BF56
:10584000BDE81040FFF7B4BF10BD0000C00300204A
:1058500070B5164C2078032827D0154DA9788842BA
:105860000FD0002000F0B2F92078A87098B101287C
:1058700013D0022813D00FA0FFF73AF9FF202870A9
:105880006870207868B101280BD002280DD1BDE8DE
:10589000704000F03BB90AA0EEE70DA0ECE70FA0C6
:1058A000EAE7BDE8704000F089B870BDC003002091
:1058B0001C000020204D4F44453A202D2D2D2D0059
:1058C000204D4F44453A204D414E55414C0000007B
:1058D000204D4F44453A204155544F00204D4F44F0
:1058E000453A204D555349430000000010B50020B3
:1058F00000F06CF903A0FFF7FBF80648FF210170E8
:10590000417010BD204D4F44453A204D414E554108
:105910004C0000001C0000202DE9F8430446FBF772
:1059200077F918B14FF4FC6020A102E04FF4784001
:105930001FA188460826102300904FF01C091A4624
:105940002146304600F044FA4FF6FF7523461722F1
:1059500019463046009500F0DFF904F10F07BBB29D
:10596000B9B217223046009500F0D6F93246BBB2E4
:1059700021461046009500F0CFF91722BBB2214610
:105980001046009500F0C8F90026E1B22B4609A2A6
:105990004846009600F08EF9E1B244202B4642467C
:1059A000009600F087F9BDE8F88300005900000078
:1059B0004E0000004254203A20000000F0B54B4851
:1059C000642295B0017945795143B422B1FBF2F1DB
:1059D0004748CCB201788C4207D141788D4204D13E
:1059E0006920FFF799FF15B0F0BD04704570FEF710
:1059F000B7FF22463FA110A8FEF784FC00274FF610
:105A0000FF76334610AA23210420009700F052F9B4
:105A100047F6EF300090082364223421022000F082
:105A2000D7F964204443B4FBF0F2642A01D964221C
:105A300000E02AB1082334210220009600F0C8F9C2
:105A400028222F4901A8FAF77DFB01A82DA150F8C3
:105A500025200BA8FEF756FC344633460BAA4621F8
:105A60000420009700F026F94FF6E0704FF61F0172
:105A70000A2D16D2DFE805F005080B151616130DD2
:105A800010134FF478400DE04FF4FC600AE01F2043
:105A900008E040F2FF7005E04FF6205002E00846B3
:105AA00000E02046192300901A464421622000F0AD
:105AB0008FF944237A2219466220009400F02CF9D1
:105AC0005D237A2219466220009400F025F96222B3
:105AD0005D2344211046009400F01EF97A225D23D4
