:020000040800F2
:10000000F81000200101000847380008C32F00083D
:1000100045380008C5090008194000080000000024
:100020000000000000000000000000004739000848
:10003000230A000800000000493800084939000878
:100040001B0100081B0100081B0100081B01000820
:100050001B0100081B010008250A00082B0A0008E4
:100060001B010008310A00081B010008C90900082B
:10007000D50900081B010008E1090008ED09000886
:100080001B0100081B0100081B0100081B010008E0
:100090001B0100081B0100081B0100081B010008D0
:1000A0001B0100081B0100081B0100081B010008C0
:1000B0001B0100081B0100081B0100081B010008B0
:1000C0001B0100081B0100081B0100081B010008A0
:1000D0001B010008014000080D4000081B0100083A
:1000E0001B0100081B0100081B010008DFF80CD0F1
:1000F00000F02CFA00480047A54B0008F81000203B
:100100000648804706480047FEE7FEE7FEE7FEE7B1
:10011000FEE7FEE7FEE7FEE7FEE7FEE73D3A000802
:10012000ED000008202A04DB203A21FA02F0002129
:10013000704721FA02F3D040C2F1200291400843F7
:100140001946704740EA01039B0703D009E008C93C
:10015000121F08C0042AFAD203E011F8013B00F88C
:10016000013B521EF9D27047D2B201E000F8012BD8
:10017000491EFBD270470022F6E710B513460A4627
:1001800004461946FFF7F0FF204610BD421C10F848
:10019000011B0029FBD1801A704730B505460020AD
:1001A000034600E05B1C934205D2EC5CC85C201A5D
:1001B00001D1002CF6D130BDF0B480EA0102D40F99
:1001C0004200B2EB410F02D20246084611464A00F5
:1001D00042D0C30DDDB2C1F3C752AD1A202D35DABE
:1001E000C1F3160141F4000204B15242C5F12006E8
:1001F00002FA06F12A411044B3EBD05F23D0C4B118
:10020000012DA0EBC35009DCF0BC4FF0004202EA24
:10021000C352DBB200F5000000F004B9400000F169
:10022000807000EBC350A0F1807040EAD1704900AB
:1002300009E0490841EAC071A0EBC35000F5000095
:10024000400800EBC350F0BC00F0E3B8614201226B
:1002500002EB4101001BF6E7F0BC704781F0004162
:10026000AAE780F00040A7E780EA010210B502F09B
:100270000043400022D04A001FD0010E01EB126162
:10028000C0F35600C2F3560240F4000042F40002EC
:10029000A0FB022000047F39140400D0401C50EA67
:1002A000124001D44000491EC2B20C0604EBD0102B
:1002B000401C4008802A02D003E0002010BD20F03E
:1002C0000100002900DA0020184310BD30B480EA94
:1002D000010202F0004530F0004221F0004013D04E
:1002E00090B1C30DD40DC2F31601C0F31600E41A89
:1002F00041F4000140F400027D34914201D3641CBA
:1003000000E04900002C02DA30BC002070474FF4B6
:1003100000000023914201D3891A034340084FEAA9
:100320004101F7D151B1914202D14FF0004105E0B6
:1003300002D24FF0010101E06FF0010103EBC45064
:10034000284430BC00F065B8420005D0C0F3C75265
:100350005242914201DC0020704700EBC1507047CF
:1003600096230022114600F05DB820F00040C10D38
:10037000C0F3160040F400007F2901DA0020704726
:10038000962903DCC1F19601C84070479639884030
:1003900070472DE9F05F0546002092469B4688464F
:1003A0000646814640241BE02846414647462246F1
:1003B000FFF7B8FE53465A46C01A914110D3114672
:1003C0001846224600F016F82D1A67EB01084F4632
:1003D00022460120002100F00DF817EB00094E41E4
:1003E000201EA4F10104DFDC484631462A4643467C
:1003F000BDE8F09F202A04DB203A00FA02F1002039
:1004000070479140C2F1200320FA03F31943904052
:1004100070470029A8BF7047401C490008BF20F062
:100420000100704710B4B0FA80FC00FA0CF050EAFA
:10043000010404BF10BC704749B1CCF1200421FA7B
:1004400004F411FA0CF118BF012121430843A3EB76
:100450000C01CB1D4FEA00614FEA102042BF002083
:1004600010BC704700EBC35010440029A4BF10BC5F
:100470007047401C490008BF20F0010010BC7047C5
:10048000F0B4002802DCF0BC00207047C0F3C75174
:10049000C0F3160040F40000CA0701D14000491E15
:1004A0003F2202EB6105002211464FF4000626FAB6
:1004B00001F31344D418844201D8001B1A464000AB
:1004C000491C1729F3DD5100814202D24FF0FF3160
:1004D00000E0002102EBC550F0BCFFF79ABF10B559
:1004E00041000CD0C0F3C751962908DC7E2909DCF5
:1004F00006DB410204D000F0004040F07E5010BD09
:10050000002010BDC1F19604C4F1200100FA01F1F0
:10051000E040FFF77EFFA04010BD00F0004220F059
:100520000040C10DC0F3160040F400007F2901DA3D
:1005300000207047962903DCC1F19601C84001E014
:1005400096398840002AF4D040427047064C074D47
:1005500006E0E06840F0010394E807009847103493
:10056000AC42F6D3FFF7C6FD3862000858620008B7
:10057000C10F80EAE0700844CA0796230021FFF704
:1005800051BF000070B5044600688168C943C907BF
:1005900017D1816821F00101816000F0FBFE054662
:1005A0000AE000BF00F0F6FE401B022804D92068D4
:1005B0008068C043C00706D020688068C043C00779
:1005C000F0D0002070BDA06A40F01000A062E06A88
:1005D00040F00100E062012070BD10B50146406AA4
:1005E000826A12F0500F05D0006A026BBDE810401D
:1005F00008461047816A41F4007181620168896888
:10060000C1F3424107290CD1017B51B9816A21F420
:1006100080718162816AC90403D4816A41F0010159
:10062000816200F089FA10BD10B5406A816A41F01C
:1006300040018162C16A41F00401C16200F07EFAAA
:1006400010BD10B5406A00F078FA10BDF8B500266C
:100650000446009600688168C943C9072DD08168A7
:1006600041F001018160164816490068B0FBF1F0C5
:1006700000E0401E00900028FBD100F08BFE0546F4
:1006800016E000BF00F086FE401B022810D920684B
:100690008068C043C0070BD0A06A40F01000A06281
:1006A000E06A40F00100E06284F824600120F8BDB7
:1006B00020688068C043C007E4D10020F8BD000076
:1006C0000000002040420F0070B5064C002540217C
:1006D00024F8405F0348FFF74EFDA5700820E07046
:1006E00070BD0000E40300202DE9F04F4FF0000B37
:1006F000DFF89C90274EC1B05C4606EB0410DFF893
:100700009080B9F840708246FFF740FD0546AF4241
:100710000BD3024651464046FFF73FFD28B9AF4292
:100720002ED018F805000A282AD0641CE4B2082C40
:10073000E3D36F464FF48071384617A203F06EFC86
:10074000C4B2C4F5807138191AA203F067FC2044C2
:10075000C5B2002406EB0413C5F5807178191BA2FD
:1007600003F05CFC641C2844E4B2C5B2082CF1D34D
:100770002946684600F01AF941B05846BDE8F08FA6
:1007800089F843404FF0010B122111A0F2E700005D
:10079000E403002028000020546865726520697316
:1007A000206E6F207375636820636F6D6D616E647A
:1007B0000D0A000056616C696420636F6D6D616E97
:1007C0006473206172653A0D0A00000025730A0007
:1007D000436F6D6D616E642069732076616C69642E
:1007E0000D0A000070B504000CD0084D002195F8EA
:1007F000420085F8421030B1FFF776FF18B195F846
:100800004300207070BD0820FBE70000E4030020D7
:1008100070B5C8242F4802F0F9F8FFF755FF2E4DA8
:1008200000220221284600F0AFFD642000F08EFC7B
:1008300040222A49274802F0A5F800283CD101228D
:100840000221284600F0A0FD642000F07FFC214634
:1008500023A000F07BF800282ED1214622A000F032
:1008600075F8002828D1214625A000F06FF818BBA4
:10087000214628A000F06AF8F0B9214628A000F02F
:1008800065F8C8B921462BA000F060F8A0B911485E
:1008900002F0BCF8FFF718FF64230A2228A10D48D4
:1008A00002F03EFB4FF47A7000F050FC40220B49FE
:1008B000084802F067F808B1012070BD002202214B
:1008C000284600F061FD642000F040FCFFF7FCFECC
:1008D000002070BDFC02002000080140E40300205D
:1008E00041540D0A0000000041542B4E414D453D3E
:1008F00042545F4445534B5F4C414D500D0A00003C
:1009000041542B505357443D3132333435360D0A60
:100910000000000041542B524F4C453D300D0A0061
:1009200041542B554152543D393630302C302C3007
:100930000D0A000041542B50534156450D0A00004A
:1009400041542B52455345540D0A000070B50E46D4
:100950000446FFF7B9FE2046FFF718FC81B2204697
:1009600000F024F8104CD8B903E00A2000F0EEFBA8
:100970000A3594F8420020B1B4F840100020491E16
:100980000CE0B542F1D3032070BD225C4F2A03D1A5
:10099000221852784B2A05D0401CC0B28142F4DCA8
:1009A000012070BD002070BDE403002030B129B1EA
:1009B0000A4601466423024802F0B2BA0120704799
:1009C000FC020020FEE70000014800F0AFBA000082
:1009D000F0000020014800F0A9BA000070020020D9
:1009E000014800F0A3BA000088030020014800F08D
:1009F0009DBA00004403002030B590F84050012417
:100A0000AC40C56B6C60046863604368102B03687E
:100A100003D099600068C26030BD9A600068C16010
:100A200030BD7047012000F0B3BB022000F0B0BB26
:100A3000082000F0ADBB72B6FEE70000F8B5002458
:100A4000009490F824202546012A12D0012280F833
:100A500024204A681F23072A0DD20668776B521E8E
:100A600002EB820293409F430B6893401F437763DE
:100A700019E00220F8BD06680D2A0AD2376BD21F92
:100A800002EB820293409F430B6893401F433763FE
:100A900009E0F76A0D3A02EB820293409F430B682C
:100AA00093401F43F7620A68072306680A2A0AD39D
:100AB000F7680A3A02EB420293409F438B689340E7
:100AC0001F43F76008E0376902EB420293409F43FF
:100AD0008B6893401F4337610A68102A01D0112A9E
:100AE00020D1124B02689A4217D193681B0219D485
:100AF000936843F4000393600968102912D10C49EC
:100B00000C4A0968B1FBF2F101EB8101490000E0F8
:100B1000491E00910029FBD104E0816A41F02001C7
:100B20008162012480F824502046F8BD0024014051
:100B30000000002040420F007047704770470000DF
:100B40002DE9F0414FF0000704003D467ED0A06A39
:100B5000002628B9E66284F82460204600F07EF87A
:100B60002046FFF70FFDA16A01F01001014304D0F8
:100B7000A06A40F01000A06268E0A16A21F48851E8
:100B800041F00201A1626268E169237B0A4347EAFE
:100B900043010A43A1684FF48077B94208D0012984
:100BA00006D0002194F814C0BCF1010F02D00AE075
:100BB0003946F7E7F3B1A36A43F02003A362E36A7F
:100BC00043F00103E3622368D3F804C02CF4694CBA
:100BD0004CEA010CC3F804C023689968DFF870C0C0
:100BE00001EA0C0111439960A168B9420BD00129B7
:100BF00009D00CE0DFF85CC0A3690CEB43330B4376
:100C000043F40061DFE7218A0D05A5F58015216811
:100C1000CB6A23F470032B43CB62216889680E4BA7
:100C20001940914208D1E662A16A21F0020141F027
:100C30000101A162BDE8F081A06A20F0020040F04D
:100C40001000A062E06A40F00100E0620120F1E7DC
:100C5000FDF7E1FF00E0FFFFFE0E1FFF70B586B05D
:100C600000260546009601960296039600681A49EA
:100C700088422FD11949886940F4007088618869D9
:100C800000F400700490886940F00400886188696D
:100C9000694600F0040004900120009003200190B8
:100CA0000F4800F081FA104C0E48C4E9000680207D
:100CB000C4E9026040002061800060612020A061E2
:100CC000C001E061204600F0DBF908B1FFF7B3FE98
:100CD0002C62656206B070BD002401400010024025
:100CE0000008014008000240F00000202DE9F04714
:100CF000894604463B4900683B4F0E1D904688429A
:100D000001D0B84207D1306810F4702F03D001250C
:100D10002846BDE8F08794F8240001280CD0012073
:100D200084F824002046FFF791FC05004FF00000F6
:100D300004D084F82400EBE70220EAE7A16A40F639
:100D40000162914341F48071A1622168B94218D1D6
:100D5000326812F4702F14D0A16A41F48011A1629C
:100D60003168490505D5A16A21F4005141F480514B
:100D7000A162A16AC9040AD5E16A21F00601E16213
:100D800006E0A26A22F48012A2624968E9E7E06202
:100D900084F82400216A15488862216A1448C862D0
:100DA000216A1448086321686FF002000860206817
:100DB000816841F480718160216843464A464C3124
:100DC000206A00F08BF920688168C1F3424107294D
:100DD000816803D041F48011816099E741F4A0015A
:100DE000FAE700000024014000280140DB0500086C
:100DF000430600082906000810B5044690F82400B0
:100E0000012807D0012084F824002046FFF7BAFB10
:100E100010B113E0022010BD21688A6822F48072AC
:100E20008A60216A91F82120022A07D1084600F041
:100E30000EF8A16A30B141F04001A162002184F8AE
:100E4000241010BD21F4885141F00101F5E710B5DF
:100E500090F821100022022905D00421816380F836
:100E60002020012010BD01680B6823F00E030B60E9
:100E700001680B6823F001030B6090F84030C46BED
:100E8000012101FA03F3636080F8211080F820202B
:100E9000104610BD10B590F821100024022903D08F
:100EA0000421816301243DE001680A6822F00E02FA
:100EB0000A6001680A6822F001020A601A4A0168A1
:100EC000914201D1012121E0174A1432914201D10E
:100ED00010211BE0144A2832914201D1891515E0F6
:100EE000114A3C32914201D189140FE00E4A50322E
:100EF000914202D14FF4803108E00B4A64329142B2
:100F000002D14FF4801101E04FF08071064A083A97
:100F10005160012180F82110002180F82010416BE0
:100F200001B18847204610BD080002402DE9F05F5E
:100F3000C16B0C6801680B68D0F840C0042202FA4B
:100F40000CF2494DDFF824A1494E4A4FDFF828B191
:100F5000DFF828E122422CD05A072AD50A689206E7
:100F600003D40A6822F004020A600168A94201D190
:100F7000042219E0514501D1402215E0B14202D1CD
:100F80004FF4806210E0B94202D14FF480420BE08E
:100F9000594502D14FF4802206E0714502D14FF449
:100FA000800201E04FF080622F4908394A60C16A2F
:100FB0003BE04FF0020808FA0CF818EA040F4FF073
:100FC00000094FF0010235D05FEA837832D50B6813
:100FD0009B0605D40B6823F00A030B6080F82120E0
:100FE0000168A94201D1022219E0514501D1202214
:100FF00015E0B14202D14FF4007210E0B94202D1C3
:101000004FF400520BE0594502D14FF4003206E094
:10101000714502D14FF4001201E04FF00072124905
:1010200008394A6080F82090816A00291AD0BDE80A
:10103000F05F0847082505FA0CF5254212D01B077A
:1010400010D50B6823F00E030B6090F84010C36BB3
:1010500002FA01F15960826380F8212080F8209023
:10106000016BE2E7BDE8F09F080002401C0002406F
:101070003000024044000240580002406C00024030
:1010800030B528B308C8134914221944B1FBF2F152
:101090008900C16310498163022141771A6843F6D0
:1010A000F0718A43D0E900142143D0E902452C4372
:1010B0002143046921434469214384692143114345
:1010C000196000214163012242770177084630BD53
:1010D000012030BDF8FFFDBF0000024070B504469E
:1010E00090F82000002501280CD0012084F8200071
:1010F00094F821600020012E06D084F820000225FB
:10110000284670BD022070BD022684F82160A063CD
:101110002068066826F0010606602046FFF76CFC92
:10112000E06A00282068016802D041F00E0106E064
:1011300021F0040101602068016841F00A010160AA
:101140002068016841F001010160D9E770B50446EB
:1011500000F020F90546601C02D0044800780444E1
:1011600000F018F9401BA042FAD370BDB000002077
:101170000121064A012805D0022805D0082800D1FF
:10118000917070471170704751707047A80000202F
:10119000044910B50A68024202D00860FFF7E8FF70
:1011A00010BD0000140401402DE9F84FDFF8B8919C
:1011B0000024A9F1040B23460F2709F1040AABF11F
:1011C000040EC9E00125A5402A40AA427DD1674E00
:1011D000D1F804C0ACEB0608B44532D014DCBCF145
:1011E000030F3AD009DCBCF1000F2AD0BCF1010F8B
:1011F0001CD0BCF1020F31D11DE0BCF1110F17D092
:10120000BCF1120F2AD119E0B8F5881F19D006DCFD
:10121000B8F5803F15D0B8F5801F1FD111E0B8F5A3
:10122000001F0ED0B8F5041F18D10AE0CB6815E0F6
:10123000CB681B1D12E0CB6808330FE0CB680C3382
:101240000CE08B682BB1012B4FF0080303D04561F4
:1012500004E0042302E0056100E00023FF2A01D836
:10126000064601E000F104064FEA840501D9A5F124
:101270002005D6F8008007FA05FC28EA0C0803FAD6
:1012800005F548EA0508C6F800804D68ED0062D50E
:10129000374DAE6946F00106AE61AD6924F0030634
:1012A00005F001050095334D06EB050CDCF8085000
:1012B000A607360F07FA06F825EA0805DFF8B88012
:1012C000404503D14FF0000817E044E0DFF8AC8060
:1012D000404502D14FF001080FE0DFF8A4804045FF
:1012E00002D14FF0020808E0DFF89880404502D1B3
:1012F0004FF0030801E04FF0040808FA06F848EA46
:101300000508CCF808804D68D9F80060ED024D461C
:1013100001D5164300E096432E604D68DAF8006070
:10132000AD02554601D5164300E096432E604D6848
:10133000DBF80060AD035D4601D5164300E096433F
:101340002E604D68DEF80060ED03754601D516434A
:1013500000E096432E60641C0D682A46E5407FF449
:1013600031AFBDE8F88F0000080401400000111003
:10137000001002400000014000080140000C014044
:1013800000100140001401400AB1016170470904D6
:10139000FBE700000148806870470000B0000020B3
:1013A00070B5040025D094F83D00002520B984F8DC
:1013B0003C50204600F076FA242084F83D00206856
:1013C000016821F0010101602068016841F40041D9
:1013D00001602068016821F40041016000F034FCE4
:1013E0004D4A6168914201D84C4900E04C4988421D
:1013F00001D2012070BD4B492368B0FBF1F15E685A
:1014000026F03F060E435E606368934206D94FF4B0
:10141000967359434FF47A73B1FBF3F12368491C77
:101420001E6A26F03F06314319626168914210D866
:101430004900401EB0FBF1F2521CC2F30B02042A19
:1014400001D2042022E0B0FBF1F0401CC0F30B00FD
:101450001CE0A268F2B301EBC10303EB0116431ECB
:10146000B3FBF6F35B1C43F480431B0549D092B3F6
:1014700001EBC10202EB0111401EB0FBF1F0401C78
:10148000C0F30B0040F4804040F400402168CA697A
:101490004CF6FF739A431043C861D4E90710014327
:1014A0002068026822F0C00211430160D4E9030100
:1014B00001432068826848F2FF339A4311438160F8
:1014C000D4E9050108432168CA6822F0FF021043ED
:1014D000C86001E00EE016E02068016841F00101FB
:1014E00001602564202084F83D00256384F83E5087
:1014F000002070BD01EB4106431EB3FBF6F35B1CFD
:10150000B3E70120C2E701EB4101401EB0FBF1F05F
:10151000401CC0F30B00B7E7A086010080841E00CA
:1015200000093D0040420F002DE9F84F0025DDF88D
:101530002890984617468A4604460095FFF72AFFEA
:10154000064694F83D0020287AD1192301228649C5
:101550002046009601F06AFE0028F5D194F83C0080
:1015600001286DD0012084F83C0020680168C9077B
:1015700003D1016841F0010101602068016821F494
:1015800000610160222084F83D00102084F83E00B4
:1015900025646762A4F82A80608D20857348E06224
:1015A00033464A465146204601F038FD00287CD19A
:1015B000208DDFF8BC81202768B1012814D00228D3
:1015C000206801681ED041F4806101602068416993
:1015D00080690090BBE020684169816900910168E1
:1015E00041F400710160B2E02068016821F480617B
:1015F000016072B62068416981690091016841F417
:1016000000710AE041F40061016072B6206841692E
:1016100081690091016821F48061016062B696E001
:10162000032865D801280CD002284B464FF0000251
:101630004146204600960BD001F0F8FDA8BB0CE017
:1016400090E032464946204601F096FE68BB71E0C4
:1016500001F0ECFD48BB72B633E02068016821F46C
:101660008061016072B620680069616A0870606A12
:10167000401C6062208D401E2085608D401E60856C
:101680003C4846F2A8110068B0FBF1F0C0EBC00086
:1016900000EB80000090401E009007D02068406959
:1016A000C04340070DD50098F5E727E044F8305FC8
:1016B0006773A573206940F02000206162B625732E
:1016C0001CE02068016841F4007101602068006935
:1016D000616A0870606A401C6062218D491E218524
:1016E000618D491E618562B621680969017025E036
:1016F00032464946204601F03FFE10B10120BDE8C8
:10170000F88F20680069616A0870606A401C606236
:10171000208D401E81B22185608D401E608520682D
:101720004269D243520712D4032903D1016821F43C
:101730008061016020680069616A0870606A401C0D
:101740006062208D401E2085608D401E6085208D4A
:1017500000287FF465AF84F83D7084F83E5084F82B
:101760003C50CCE70220CAE7020010000000FFFF57
:1017700004000100000000202DE9F84F1F469046AC
:101780008A460446DDF82890FFF704FE054694F8E3
:101790003D0020287FD11923012240492046009591
:1017A00001F044FD002876D194F83C00012872D065
:1017B000012084F83C0020680168C90703D1016852
:1017C00041F0010101602068016821F400610160BD
:1017D000212084F83D00102084F83E000026266475
:1017E000C4F824806785608D20852D48E0622B46F3
:1017F0004A465146204601F087FC90B9206841696D
:101800008069009036E02A464946204601F0ECFD0A
:1018100050B1206C042804D12068016841F40071A3
:1018200001600120BDE8F88F606A216800780861D6
:10183000606A401C6062618D491E6185218D491E70
:1018400089B2218522685369DB435B070BD451B110
:1018500000781061606A401C6062608D401E608587
:10186000208D401E20852A464946204601F0B3FCC3
:101870000028CED1208D0028C5D154F83D0B016839
:1018800041F400710160202004F81E09E6776677B4
:101890000020C7E7FFE70220C4E7000002001000B5
:1018A0000000FFFF10B586B0002100910191029168
:1018B000039100680F4988421AD10F4CA06940F08B
:1018C0000800A061A069694600F008000490C020EB
:1018D000009012200190032003900848FFF764FC59
:1018E000E06940F40010E061E06900F40010049049
:1018F00006B010BD0054004000100240000C014032
:10190000024881680278114481607047B00000206D
:10191000074810B5016841F010010160032000F094
:1019200075F80F2000F006F800F024F8002010BD34
:101930000020024070B50D4D04464FF47A712878AE
:10194000B1FBF0F00A490968B1FBF0F000F097FC38
:1019500048B9102C07D200222146501E00F036F85C
:1019600000206C6070BD012070BD0000B000002040
:10197000000000200C4808B5816941F00101816137
:10198000816901F001010091C16941F08051C1619B
:10199000C06900F0805000900448416821F0E06187
:1019A00041F00071416008BD00100240000001409C
:1019B000002809DB00F01F0201219140400980004E
:1019C00000F1E020C0F8001170470000F0B40E4BA9
:1019D0001B680C46C3F30223C3F10705042D00D98D
:1019E0000425191D072901D2002300E0DB1E012672
:1019F00006FA05F1491E214099409E40761E164088
:101A00003143F0BC02F032BB0CED00E0064900F0BF
:101A1000070208684FF6FF03184040EA0220034A15
:101A200010430860704700000CED00E00000FA056C
:101A30002DE9F84305460078354CC00754D0E069DD
:101A40000026C00008D4E06940F08050E061E06901
:101A5000012600F0805000902E480168C90512D47C
:101A60000168804641F480710160FFF793FC0746EE
:101A700005E000BFFFF78EFCC01B642823D8D8F810
:101A80000000C005F6D5206A10F4407021D0A98866
:101A900001F4407181421CD0206A1F49012220F4C8
:101AA00040700A6000220A602062C00711D0FFF770
:101AB00071FC074641F2883808E000BFFFF76AFC76
:101AC000C11B414502D90320BDE8F883206A800785
:101AD000F4D5206A696820F44070084320621EB182
:101AE000E06920F08050E0612878800705D56068C3
:101AF000A96820F44040084360602878C00605D5F6
:101B00006068E96820F48000084360600020DBE73B
:101B10000010024000700040400442422DE9F047AE
:101B20000F46050061D0434E306800F00700B84210
:101B300009D2306820F0070038433060306800F088
:101B40000700B84251D128683B4C810712D54007A5
:101B500003D5606840F4E06060602878000703D532
:101B6000606840F4605060606068A96820F0F00030
:101B7000084360602878C00728D06868012810D022
:101B80002168022810D0890700292EDA616821F027
:101B9000030101436160FFF7FDFB804641F2883994
:101BA0000DE021688903EFE78901EDE7FFF7F2FB1C
:101BB000A0EB0801494502D90320BDE8F087606821
:101BC000696800F00C00B0EB810FEFD1306800F0D5
:101BD0000700B8420BD9306820F007003843306066
:101BE000306800F00700B84201D00120E5E728780E
:101BF000400705D56068E96820F4E060084360604C
:101C00002878000706D56068296920F4605040EA0A
:101C1000C100606000F038F86168084AC1F3031140
:101C2000515CC8400649086006480068FFF782FE1C
:101C30000020C2E70020024000100240085B0008BC
:101C400000000020B40000200448054900684968ED
:101C5000044AC1F30221515CC840704700000020D3
:101C600000100240185B00080448054900684968F4
:101C7000044AC1F3C221515CC840704700000020F3
:101C800000100240185B00080E4A51680E4801F02F
:101C90000C03042B11D0082B0FD10C48C1F3834344
:101CA000C903C05C0AD55168084AC1F34041921E7D
:101CB000515C054A5043B0FBF1F07047044948437A
:101CC000704700000010024000127A00BA6100085C
:101CD00000093D002DE9F84F040070D02078C04D78
:101CE000C00749D06868C0F38100012807D0686840
:101CF000C0F38100022809D16868C00306D52868AE
:101D0000800339D560680028E7D035E06068B0F519
:101D1000803F0BD010B1B0F5A02F11D0286820F46F
:101D200080302860286820F4802002E0286840F491
:101D300080302860606890B1FFF72CFB06460AE00F
:101D4000286840F480202860F0E700BFFFF722FBFE
:101D5000801B642873D828688003F7D50CE0FFF750
:101D600019FB064605E000BFFFF714FB801B642843
:101D7000F0D828688003F7D420789A4E80074FF077
:101D800001094FF0000839D5686810F00C0F07D032
:101D90006868C0F38100022809D16868C00306D4CE
:101DA0002868800714D52069012808D110E020692F
:101DB000B0B1C6F80090FFF7EDFA074605E00AE17A
:101DC000FFF7E8FAC01B0228C4D828688007F7D5B7
:101DD0002868616920F0F80040EAC10028600DE041
:101DE000C6F80080FFF7D6FA074604E0FFF7D2FAFC
:101DF000C01B022823D828688007F7D42078000762
:101E00002CD57948A169D9B1C0F80090FFF7C2FA82
:101E1000074604E0FFF7BEFAC01B02280FD8686A25
:101E20008007F7D571484FF4FA510068B0FBF1F024
:101E3000009000BF0098411E0091FAD20EE080E0B1
:101E4000C0F80080FFF7A6FA074604E0FFF7A2FA01
:101E5000C01B022875D8686A8007F7D4207840072D
:101E600060D5E8690027C00008D4E86940F08050D8
:101E7000E861E869012700F0805000905C48016843
:101E8000C90513D40168834641F480710160FFF7EE
:101E900081FA824606E000BFFFF77CFAA0EB0A0059
:101EA00064284ED8DBF80000C005F5D5E0680128AD
:101EB0000AD008B1052813D0286A20F00100286252
:101EC000286A20F0040002E0286A40F0010028623D
:101ED000E06841F2883B98B1FFF75CFA82460BE07C
:101EE000286A40F004002862EEE700BFFFF752FACC
:101EF000A0EB0A0159455AD8286A8007F6D50CE0AC
:101F0000FFF748FA824605E0FFF744FAA0EB0A0122
:101F100059454CD8286A8007F6D41FB1E86920F0EB
:101F20008050E861E06988B36968C1F381010229E2
:101F300044D00228C6F8608004D0FFF72BFA04468C
:101F400038E034E0FFF726FA074604E0FFF722FA0C
:101F5000C01B02282BD828688001F7D4206AB0F56E
:101F6000803F05D16868A16820F4003008436860AC
:101F7000D4E908010843696821F4741108436860D2
:101F8000C6F86090FFF706FA044606E025E000BFB9
:101F9000FFF700FA001B022809D828688001F7D54E
:101FA0001BE000BFFFF7F6F9001B022802D903204F
:101FB000BDE8F88F28688001F4D40EE00128F7D03E
:101FC0006868226A00F48031914204D1616A00F4A9
:101FD0007010884201D00120EAE70020E8E7000005
:101FE00000100240000042428004424200000020F3
:101FF0000070004070B5040009D0606A002540B14F
:1020000025616561A56294F8510040B10CE00120A2
:1020100070BD6068B0F5827FF4D0E561F2E784F8C6
:102020005050204600F040F8022084F8510020680B
:10203000016821F040010160A088218900F48270CC
:1020400001F404410843A18901F400610843217CA3
:1020500001F002010843217D01F001010843218BB9
:1020600001F400710843217F01F03801084394F81E
:10207000201001F080010843218D01F40051084334
:1020800021680860A069042101EA104021684860C5
:102090002068C16921F40061C1616565012084F88F
:1020A0005100002070BD000030B585B000240094C0
:1020B00001940294039400681449884223D114487F
:1020C000816941F480518161816901F480510491F9
:1020D000816941F00401816180690E4D00F00400C6
:1020E0000490A020009002200190032003906946F4
:1020F0002846FFF759F84020CDE9000469462846F4
:102100000294FFF751F805B030BD000000300140E7
:1021100000100240000801402DE9F84F984616468D
:102120008A460446FFF736F9814694F851000128A3
:102130001ED1BAF1000F73D0002E71D094F8500068
:10214000012815D0012784F85070032084F851002D
:1021500000256565C4F830A0A686E686A563A58738
:10216000E58765642564A068B0F5004F03D00CE0F6
:102170000220BDE8F88F2068016821F0400101606D
:102180002068016841F480410160206801684906C7
:1021900003D4016841F040010160E068B0F5006FD0
:1021A000606803D048B3012E27D047E008B1012E64
:1021B0001FD1206B21680088C86006E02068816814
:1021C000890709D5216B0988C160206B801C2063B9
:1021D000E08E401EE0860CE0FFF7DCF8A0EB090182
:1021E000414503D3B8F1FF3F03D035E0B8F1000F0C
:1021F00032D0E08E0028E1D123E0206B2168007806
:10220000087306E02068816889070AD5216B097880
:102210000173206B401C2063E08E401EE0860DE0C1
:102220002BE0FFF7B7F8A0EB0901414503D3B8F164
:10223000FF3F03D010E0B8F1000F0DD0E08E002872
:10224000E0D14A464146204601F0FFFA08B120207D
:102250006065A06830B109E084F8517084F850508E
:10226000032086E72068C1688068009084F8517078
:1022700004F8505F60680028F3D0012079E710B5BA
:10228000401EB0F1807F01D3012010BD4FF0E0244B
:1022900060610F21601701F0E9FE0020A0610720B6
:1022A0002061002010BD10B590F83C20012A22D0FA
:1022B000012280F83C20CA688C6822F440722243D4
:1022C0004C6822F4806222430C6822F400622243AC
:1022D0000C6922F4805222434C6922F400522243BA
:1022E000C969002322F480420A4301684A6480F8E5
:1022F0003C30002010BD022010BD000070B590F8E9
:102300003C20012A26D0012480F83C40022280F89B
:102310003D2003685A689D6822F070060A683243BF
:102320005A600D4B02689A4208D0B2F1804F05D036
:102330000A4B9A4202D00A4B9A4204D1496825F0CE
:1023400080031943916080F83D40002180F83C10E3
:10235000084670BD022070BD002C01400004004002
:102360000008004010B5040003D094F83D0010B1FF
:1023700007E0012010BD002084F83C00204600F05A
:102380001FF8022084F83D00211D206801F058FB51
:10239000012084F8460084F83E0084F83F0084F869
:1023A000400084F8410084F8420084F8430084F837
:1023B000440084F8450084F83D00002010BD000072
:1023C00038B505460068184A184990421FD18869F7
:1023D00040F4006088618869164C00F40060009049
:1023E000134820601020606000208021C4E90201B1
:1023F000490021618900C4E90510E0612046FEF72B
:102400003FFE08B1FEF717FB6C62656238BD0A4AF1
:102410009042FBD1C86940F00200C861C86900F071
:102420000200009038BD0000002C01400010024066
:102430001C000240700200200004004090F83D1093
:10244000012901D001207047022180F83D10006869
:102450000B49884208D0B0F1804F05D00949884225
:1024600002D00949884204D1816801F00701062998
:1024700003D0016841F001010160002070470000B5
:10248000002C0140000400400008004001680A6A76
:1024900041F211131A4207D10A6A9B101A4203D162
:1024A0000A6822F001020A60012180F83D10002034
:1024B000704770B5044690F83C000025012817D0FD
:1024C000012684F83C60022084F83D002068826880
:1024D00022F0770222F47F4282600868502838D0C8
:1024E0000DDC20284FD005DC90B3102811D14AE034
:1024F000022070BD302846D040280AD13BE0602839
:102500002FD070280DD0B0F5805F03D0B0F5005FFC
:1025100012D0012584F83D60002084F83C00284654
:1025200070BDCB68D1E90121206801F047FB20682C
:10253000816841F0770109E0CB68D1E90121206889
:1025400001F03CFB2068816841F480418160E1E753
:1025500019E0CA684968206801F0E4FB502120684E
:1025600006E0CA684968206801F0EDFB6021206838
:1025700001F02EFBCEE7CA684968206801F0D2FB63
:1025800040212068F4E7226801461046F0E77047D2
:1025900000B585B00021009101910291039100687E
:1025A0000B49884212D10B48816941F004018161D5
:1025B0008069694600F0040004904FF48070009038
:1025C0000220019003900448FEF7EEFD05B000BD27
:1025D000002C0140001002400008014070B5044684
:1025E00090F83C0000260D4601280FD0012084F809
:1025F0003C006AB1042A1DD0082A2FD00C2A3FD0F3
:102600000126002084F83C00304670BD022070BDD9
:10261000206801F0E5FA2068816941F008018161D4
:102620002068816921F004018161206881692A693B
:10263000114311E0206801F0FBFA2068816941F440
:10264000006181612068816921F480618161206875
:1026500081692A6941EA02218161D2E7206801F09B
:1026600013FB2068C16941F00801C1612068C1699C
:1026700021F00401C1612068C1692A69114311E098
:10268000206801F02DFB2068C16941F40061C1613F
:102690002068C16921F48061C1612068C1692A692B
:1026A00041EA0221C161ACE710B5040003D094F8FF
:1026B0003D0010B107E0012010BD002084F83C006F
:1026C000204600F01EF8022084F83D00211D2068FD
:1026D00001F0B6F9012084F8460084F83E0084F841
:1026E0003F0084F8400084F8410084F8420084F8F8
:1026F000430084F8440084F8450084F83D0000203D
:1027000010BD7047064900680968884207D105492D
:10271000002081F898000146014800F0D1B87047C8
:10272000E00100205C0C0020704700002DE9F04122
:1027300017460D0004464FF000060CD0042D11D0B2
:10274000082D16D094F84100022819D094F84100C1
:10275000012818D07CE094F83E00022810D094F8AC
:102760003E00F5E794F83F00022809D094F83F00B6
:10277000EEE794F84000022802D094F84000E7E722
:102780000220BDE8F081002F62D0002B60D04649C6
:10279000464ADFF81CC102204DB1042D18D0082D87
:1027A00027D084F841000C2D44D0012679E084F82C
:1027B0003E00606A8162606A3946C262606AC0F83F
:1027C00030C02268606A3432FEF788FC88BB21E0A2
:1027D00084F83F00A06A8162A06A3946C262A06A9A
:1027E000C0F830C02268A06A3832FEF777FC00BB20
:1027F00015E084F84000E06A8162E06A3946C2620E
:10280000E06AC0F830C02268E06A3C32FEF766FC3D
:1028100078B909E02068C16841F400711EE02068C1
:10282000C16841F4806119E02068C16841F4006129
:1028300014E00DE0206B8162206B3946C262206B90
:10284000C0F830C02268206B4032FEF747FC08B168
:10285000012096E72068C16841F48051C1600122DF
:102860002946206801F028F912492068884203D1DE
:10287000426C42F4004242642068884208D0B0F1C1
:10288000804F05D00C49884202D00C49884204D1BF
:10289000816801F00701062903D0016841F00101B8
:1028A000016030466DE70000D33A0008313B000874
:1028B000693B0008002C0140000400400008004073
:1028C00070B50D0004464FF0000607D0042D0CD063
:1028D000082D11D00C2D16D0012645E02068C168C6
:1028E00021F40071C160606A13E02068C16821F4BE
:1028F0008061C160A06A0CE02068C16821F40061B9
:10290000C160E06A05E02068C16821F48051C160BF
:10291000206BFEF7BFFA00222946206801F0CCF8B0
:10292000174B41F2111120688A10984209D1036AAD
:102930000B4206D1036A134203D1436C23F40043D4
:1029400043642068036A0B4206D1016A114203D135
:10295000016821F00101016001203DB1042D08D082
:10296000082D09D084F84100304670BD84F83E003F
:10297000FAE784F83F00F7E784F84000F4E7000046
:10298000002C014018B5034690F84200202801D0E1
:10299000022018BD61B15AB10120186300205863AC
:1029A000184601F0D9FA0028F3D1196B012901D09A
:1029B000012018BD19680A684968009119680C312E
:1029C00051E8002F42F0100241E80024002CF5D11C
:1029D00018BD000010B50A4A0068126890420ED176
:1029E00072B6402900D940210648402220F8401FF5
:1029F0000121817003490248FFF7C4FF62B610BD90
:102A0000FC020020E40300207047000070B504467B
:102A100020680C3050E8001F21F4907140E800124B
:102A2000002AF5D12068143050E8001F21F0010180
:102A300040E80012002AF5D1206B012809D1206856
:102A40000C3050E8001F21F0100140E80012002A6D
:102A5000F5D1206840694FF0200241064FF0000098
:102A600015D52168143151E8003F23F0400341E8B7
:102A70000035002DF5D1E16B49B109484863E06BA1
:102A8000FEF708FA50B1E06B416B884706E0E0853D
:102A900084F8422020632046FFF7B6FF002070BD77
:102AA0007B3D000870470000F8B5016804460868DF
:102AB000CA684B6910F00F0F4FF000055AD003F0B1
:102AC000010602F49077374365D0C10705D0D105E0
:102AD00003D5616C41F001016164410705D5D90757
:102AE00003D0616C41F002016164810705D5D9070B
:102AF00003D0616C41F004016164010707D502F065
:102B00002001314303D0616C41F008016164616CC4
:102B100000293BD0800604D5900602D5204601F05E
:102B20005EF920684069616CC0F3801001F0080113
:102B3000014320462BD001F02BF920684069400664
:102B400021D52068143050E8001F21F0400140E8F2
:102B50000012002AF5D1E06BA8B16D494163E06B2A
:102B6000FEF798F9002811D0E06B416B01B0BDE889
:102B7000F040084783060ED593060CD52046BDE8E5
:102B8000F84001F02CB92046FFF78CFFF8BDFFF7A5
:102B900089FF6564F8BD266B2023012E7CD1C60613
:102BA0007AD5D60678D508684868009048694FF00D
:102BB0000206400640D5E16B086840680004000C3E
:102BC000E8D0A28D8242E5D9E085886920282DD001
:102BD00020680C3050E8001F21F4807140E800129A
:102BE000002AF5D12168143151E8000F20F00100CE
:102BF00041E80002002AF5D12068143050E8001F97
:102C000021F0400140E80012002AF5D184F842305A
:102C1000256320680C3050E8001F21F0100140E8C7
:102C20000012002AF5D1E06BFEF711F96663A08D62
:102C3000E18D401A81B22AE0A08DE18D401A81B267
:102C4000E08D0028A6D00029A4D022680C3252E8DA
:102C5000000F20F4907042E80007002FF5D12068A3
:102C6000143050E8002F22F0010240E80027002F26
:102C7000F5D184F84230256320680C3050E8002FED
:102C800022F0100240E80023002BF5D166632046B5
:102C9000FFF7A0FEF8BDFFE705062BD5150629D5E1
:102CA00094F841002128F5D1A068B0F5805F01D1EA
:102CB0002069B0B1206A411C216221680078486017
:102CC000E08C401E0004000CE084E3D12068C16861
:102CD00021F08001C1602068C16841F04001C160FD
:102CE000D8E7206A0088C0F308004860206A801C8A
:102CF0002062E5E74006CDD55006CBD5CA68204610
:102D000022F04002CA6084F8413000F059F9C1E76E
:102D10006B3D000870B5040004D094F84100002514
:102D200010B106E0012070BD84F84050204600F04C
:102D300023F8242084F841002068C16821F4005160
:102D4000C160204601F0ACF82068016921F490418F
:102D500001612068416921F02A0141612068C16850
:102D600041F40051C1606564202084F8410084F87A
:102D700042006563002070BDF0B585B0002400946A
:102D80000194029403940646434F0368434802218A
:102D90000322434DBB4251D1836943F48043836195
:102DA000836903F480430493836943F004038361DC
:102DB0008069039200F0040004900802CDE900014C
:102DC00069462846FEF7F0F92815CDE90004694662
:102DD00028460294FEF7E8F9334D32488027C5E9CA
:102DE0000004C5E9024720202C61C5E90540000226
:102DF000E8612846FEF744F908B1FDF71CFEF563CB
:102E00006E62294D27484435143801C5102091C5FC
:102E1000000245F810496C61C5E90640224844307B
:102E2000FEF72EF908B1FDF706FEB5630022114644
:102E300025206E62FEF7CAFD252028E01B4EB34216
:102E400027D1C36943F40033C361C36903F400337A
:102E50000493836943F0040383618069039200F063
:102E6000040004900420CDE9000169462846FEF7DD
:102E70009BF90820CDE90004694628460294FEF734
:102E800093F9002211462620FEF7A0FD2620FEF72A
:102E90008FFD05B0F0BD0000003801400010024079
:102EA0000008014058000240440300200044004054
:102EB00090F84230202B01D00220704721B11AB186
:102EC0000023036301F048B80120704710B5124990
:102ED0000068096888421DD172B610480178AA2995
:102EE0000ED1417855290BD101790D2908D181786E
:102EF000C278491EC9B28A4202D10121017301E0A0
:102F000001F004FC62B60522BDE810400349024806
:102F1000FFF7CEBF10BD0000B4020020100000205B
:102F20002DE9F843044690F84100984616460D46B0
:102F3000202802D00220BDE8F88385B17EB10020B0
:102F40006064212084F84100FEF724FAA6848146BB
:102F5000E684A0682027B0F5805F02D003E001205E
:102F6000E9E7206910B12E4600250EE000260CE0AE
:102F70008021204601F00BF8A8B9C6B116F8010B64
:102F800021684860E08C401EE084E08C4B464FF0A6
:102F90000002CDF800800028EAD14FF04001204621
:102FA00000F0F5FF40B184F841700320C3E735F825
:102FB000020BC0F30800E3E784F841700020BAE791
:102FC0007047FEE701688A69D24392070ED40A6807
:102FD00022F001020A60202180F83D1000210163E7
:102FE00041850068016841F0010101607047016896
:102FF0004A69D24352050FD46FF480624A610021BE
:1030000040F8301F202242738173026942F00402AB
:103010000261017301207047002070472DE9F84FCD
:103020000446C06A1E4693460D4621680A6842F46B
:1030300080620A60082807D0012805D010F5803F7B
:1030400002D0206B112804D12068016841F48071FE
:1030500001604FF001195B46002249462046009668
:1030600000F0E4F84FF4007840B120680068C00533
:1030700001D5C4F840800320BDE8F88F2069DFF84F
:1030800084A0B0F5804F0FD00620216800EAD51744
:1030900047F0F000086133465A460AF1060120461F
:1030A00000F00CF958BB03E0E8B240F001001CE06E
:1030B0002168E8B2086133465A465146204600F07E
:1030C000FDF8E0B92068416981690091016841F427
:1030D000807101605B46002249462046009600F060
:1030E000A5F80028C1D147F0F100216808613346F6
:1030F0005A465146204600F0E1F80028BCD0012095
:10310000BAE7000002000100F8B50446C06A1E4696
:103110000D461746082807D0012805D010F5803F36
:1031200002D0206B122804D12068016841F480711C
:103130000160134600224FF001112046009600F076
:1031400075F840B120680068C00502D54FF40070E2
:1031500020640320F8BD2069B0F5804F0ED0062012
:10316000216800EAD51040F0F000086133463A4685
:103170000B49204600F0A2F878B902E005F0FE0005
:1031800000E0E8B221680861054933463A46891FE4
:10319000204600F093F80028DCD00120F8BD0000A4
:1031A00008000100F8B51C4615460F46060010D071
:1031B0007DB174B1FFF706FF6420009023462A46D4
:1031C00039463046FEF7B0F9002803D03046FFF705
:1031D000F9FE0120F8BD70B516460D4604461EE006
:1031E0002046FFF704FF08B1012070BD681C16D00F
:1031F000FEF7D0F8801BA84200D885B92068406946
:10320000C04340070BD5002044F8300F20216173E4
:10321000A073216941F0200121612073E4E7206857
:103220004069C0434007DBD4002070BD2DE9F04762
:10323000984617460D460446C1F30746DDF8209030
:103240002AE000BFB8F1FF3F26D0FEF7A3F8A0EBBD
:103250000901414502D8B8F1000F1DD12068012EA7
:1032600016D0806925EA00000004000C12D000206E
:10327000B84211D1002044F8300F20216173A073AF
:10328000216941F02001216120730120BDE8F08710
:103290004069E7E70120EBE72068012E0AD080694A
:1032A00025EA00000004000C06D00020B842C9D076
:1032B0000020EBE74069F3E70120F7E72DE9F0474D
:1032C000984616460D4604464FF000094FF0200A76
:1032D000C1F3074723E020684069C043400515D487
:1032E0002068016841F40071016021686FF480601A
:1032F0004861C4F8309084F83DA084F83E90216C79
:1033000041F00401216484F83C9021E0701C06D057
:10331000FEF740F8A0EB0800B04203D816B1012F29
:103320001FD021E02068012F15D0806925EA000018
:103330000004000C18D000BF44F8309F84F80DA0A2
:1033400084F80E90216941F02001216184F80C90ED
:103350000120BDE8F087406925EA00000004000C68
:10336000EAD12068406901E02068806925EA000010
:103370000004000CAFD1ECE72DE9F04100259046A8
:103380000E460446202728E04069C043C0060CD4FE
:1033900054F8301B6FF01000486144F810596777FB
:1033A000A577206A2062257714E0FDF7F3FFA0EBF4
:1033B0000800B04200D886B920684069C043400682
:1033C0000BD544F8305F6773A573206940F0200087
:1033D000206125730120BDE8F08120684169C9435F
:1033E0004906D1D40020F6E770B516460D460446CE
:1033F0001EE02046FFF7FBFD08B1012070BD681CF0
:1034000016D0FDF7C7FF801BA84200D885B92068F9
:103410004069C04300060BD5002044F8300F20213E
:103420006173A073216941F0200121612073E4E7F9
:1034300020684069C0430006DBD4002070BDF8B5A9
:103440001C4615460F4606000DD065B15CB1FFF76E
:10345000B9FD6420009023462A4639463046FEF7DF
:103460008BF9002800D00120F8BD00003EB50024F3
:1034700011480094019402940E4984600160047321
:103480000475012505614FF400214460C161FDF719
:1034900057FB08B1FDF7CFFA07200094CDE90150A2
:1034A00069460548FDF7CAFA002801D0FDF7C3FABE
:1034B0003EBD000000240140C0000020154808B5B2
:1034C000416941F0010141614069002200F00100C1
:1034D000009011460B20FEF779FA0B20FEF768FAF0
:1034E000002211460C20FEF771FA0C20FEF760FA5C
:1034F000002211460E20FEF769FA0E20FEF758FA58
:10350000002211460F20FEF761FABDE808400F20A7
:10351000FEF74EBA001002402DE9F04186B00024BB
:103520003B480094019402940394816941F0200186
:103530008161816901F020010491816941F00401F8
:103540008161816901F004010491816941F0080100
:10355000816180692F4F00F0080004900022022151
:103560003846FDF711FF012210213846FDF70CFF08
:10357000DFF8A48001224FF4A0514046FDF704FF7C
:1035800000224CF620114046FDF7FEFE12200125D8
:103590000226CDE90005CDE9024669463846FDF729
:1035A00003FE0B2000901D48CDE901056946404609
:1035B000FDF7FAFD4DF62050CDE90005CDE90246B4
:1035C00069464046FDF7F0FD4FF40850CDE9000490
:1035D000694640460294FDF7E7FD002211460620A9
:1035E000FEF7F4F90620FEF7E3F900221146072062
:1035F000FEF7ECF90720FEF7DBF90022114609205F
:10360000FEF7E4F90920FEF7D3F906B0BDE8F08132
:103610000010024000080140000C01400000211091
:103620000D4810B50B4901600C49416000214FF471
:1036300080428160C0E9031241618161C161016220
:10364000FDF7AEFE002803D0BDE81040FDF7F3B94A
:1036500010BD00000054004034010020A08601008D
:10366000104810B50E4901604FF48271416000218D
:103670008160C1604FF400720161C0E90512082247
:10368000C0E90721416281620A21C162FEF7B2FCF2
:10369000002803D0BDE81040FDF7CDB910BD0000F3
:1036A000003001408801002010B596B000240F942E
:1036B00010941194129413941C2108A81494FCF7EC
:1036C0005AFD20216846FCF756FD27482549C0E9E8
:1036D00000145921C0E90241046144618461FEF78C
:1036E00041FE08B1FDF7A7F94FF480500F900FA9E4
:1036F0001D48FEF7DEFE08B1FDF79DF91A48FEF7FA
:10370000D3FF08B1FDF797F9139413A91648149441
:10371000FEF7F4FD08B1FDF78EF96020CDE908044D
:103720000A940B940C940D94002208A90E480E9450
:10373000FEF754FF08B1FDF77EF900944FF40050F6
:10374000CDE9044002940194039469460648079425
:10375000FEF7A9FD08B1FDF76EF90348FEF718FF63
:1037600016B010BD002C0140E001002000B587B06C
:103770000021174800910191029103910491134A8D
:10378000059102604722C0E901216322C0E90321BB
:103790008161FEF7E7FD08B1FDF74DF94FF4805068
:1037A000009069460A48FEF784FE08B1FDF743F928
:1037B000202004908020059004A90548FEF79EFD76
:1037C000002801D0FDF737F907B000BD0004004024
:1037D000280200200C4810B50A4901604FF4165128
:1037E0004160002181600C22C160C0E90412816146
:1037F000C161FFF78FFA002803D0BDE81040FDF744
:103800001AB910BD00380140B40200200C4810B5B0
:103810000A4901604FF416514160002181600C2279
:10382000C160C0E904128161C161FFF773FA002829
:1038300003D0BDE81040FDF7FEB810BD00440040C5
:10384000FC020020FEE7FEE77047F8B515460E467D
:103850000B46009204460122022100F011F840B903
:103860003346002280212046009500F009F8002808
:1038700004D0606D40F0200060650320F8BD0000BA
:103880002DE9F8431E46914688460446089DFDF7FB
:1038900081FD401B351AFDF77DFD07462548006870
:1038A000C0F3CB30684338E0701C37D0FDF772FDB1
:1038B000C01BA84203D215B1009860B32CE0206869
:1038C000416821F0E00141606068B0F5827F0BD172
:1038D000A068B0F5004F02D0B0F5806F04D1206829
:1038E000016821F040010160A06AB0F5005F09D1D4
:1038F0002068016821F4005101602068016841F4EA
:1039000000510160012084F85100002084F850002B
:103910000320BDE8F8830025401E009020688168E0
:1039200038EA010004D000214945BDD10020F0E76C
:103930000121F9E70000002013B56423012201A949
:10394000FEF7EAFB1CBD704710B5FDF7D9FFBDE8D7
:10395000104000F031BF000010B5194C2178032948
:1039600007D0082817D2DFE800F0160A0E12171B3E
:10397000202500280FD1BDE8104001F0D9BCBDE8DA
:10398000104001F0C1BC01F073FC002002E001F026
:1039900041FC0120207010BD01F084FC0220F9E7F9
:1039A000601DBDE8104001F077BB201DBDE8104050
:1039B00001F044BB201DBDE8104001F02BBB00000E
:1039C000CC03002030B593B028216846FCF7D3FB28
:1039D00014210AA8FCF7CFFB002501200F951095B4
:1039E0001195010412958DE8230004904FF4E01026
:1039F000CDE90810022407946846FEF76BF908B178
:103A000072B6FEE70AA90F2081E831004FF480600A
:103A1000CDE90D0502210AA8FEF780F808B172B6BB
:103A2000FEE74FF4004011900F940FA8FEF700F846
:103A3000002801D072B6FEE713B030BD7047000019
:103A4000F0B50268194B1A4C1A4D4FF08047984256
:103A500005D0B84203D0A04201D0A84203D122F041
:103A600070064A683243984205D0B84203D0A0425B
:103A700001D0A84203D122F44074CA6822434C69A1
:103A800022F08002224302608A68C2620A6882626F
:103A9000984201D109690163012141610169C907A6
:103AA00003D0016921F001010161F0BD002C01404A
:103AB000000400400008004010B501F01F03012180
:103AC000046A99408C430462016A9A40114301627E
:103AD00010BD10B5446A0121626A824205D1217786
:103AE0008069F8B984F83E101CE0A26A824206D1CF
:103AF000022222778069A8B984F83F1012E0E26AB6
:103B0000824206D104222277806958B984F8401095
:103B100008E0226B824205D108222277806908B929
:103B200084F841102046FEF7EDFD0020207710BDFF
:103B300010B5446A616A814201D101200DE0A16A99
:103B4000814201D1022008E0E16A814201D10420D2
:103B500003E0216B814201D1082020772046FEF747
:103B6000E3FD0020207710BD10B5446A0121626A90
:103B7000824203D1217784F83E1019E0A26A824282
:103B800004D10220207784F83F1011E0E26A8242DB
:103B900004D10420207784F8401009E0226B82428F
:103BA00004D10820207784F8411001E084F83D100A
:103BB0002046FEF7ECFC0020207710BD10B584688D
:103BC00042EA032224F47F440A432243826010BD68
:103BD000826822F070020A4342F007018160704758
:103BE00030B5036A026A22F0010202624268846907
:103BF00024F073050C682C4323F002058B682B43DB
:103C00000A4DA8420BD123F00805CB6822F440727C
:103C10002B434D6923F0040315438A692A4342600C
:103C2000846149684163036230BD0000002C01409B
:103C300030B5026A036A23F01003036243688469A3
:103C40000D6824F4E64444EA05248D6822F020023D
:103C500042EA05120B4DA8420ED1CD6822F0800237
:103C600042EA05124D6923F4406343EA85038D69F6
:103C700022F0400243EA850343608461496881631E
:103C8000026230BD002C014030B5036A026A22F4A2
:103C9000807202624268C46923F4007324F07305E1
:103CA0000C682C438D6843EA05230C4DA8420ED1C5
:103CB000CD6823F4006343EA05234D6922F44052A2
:103CC00042EA05128D6923F4806342EA05124260DC
:103CD000C4614968C163036230BD0000002C01402B
:103CE00030B5046A026A22F4805202624268C369F3
:103CF0000D6823F4E64343EA05238D6824F4005459
:103D000044EA0534064DA84204D14D6922F48042AC
:103D100042EA85124260C36149680164046230BDB1
:103D2000002C014010B5036A046A24F00104046207
:103D3000846924F0F00444EA021423F00A020A43DE
:103D40008461026210BD10B5036A046A24F0100495
:103D50000462846923F0A00324F4704444EA02322C
:103D600043EA01118261016210BD10B5406A002171
:103D7000C185C184FEF796FE10BD10B5406A0021D2
:103D8000C185202280F842200163FEF73DFE10BD70
:103D900001680C3151E8002F22F4907241E80023B1
:103DA000002BF5D10168143151E8002F22F00102F7
:103DB00041E80023002BF5D1016B012909D10168ED
:103DC0000C3151E8002F22F0100241E80023002BB3
:103DD000F5D1202180F8421000210163704708B519
:103DE00090F84210222901D0022008BD82684FF4C9
:103DF00080539A4201D1016921B1816A9A421BD054
:103E00004AB10AE00268816A5268C2F308020A8075
:103E1000816A891C08E0026972B10268526802F086
:103E20007F020A70816A491C8162C18D491E0904A2
:103E3000090CC18503D01BE002685268F1E70168F4
:103E4000CA6822F02002CA600168CA6822F480723F
:103E5000CA6001684A6922F001024A61202180F8A3
:103E6000421000214163026B012A03D0FFF72EF8B4
:103E7000002008BD016301680C3151E8002F22F0D9
:103E8000100241E80023002BF5D101680A68D20630
:103E900002D50A6849680091818DFEF79BFDE7E72E
:103EA00070B5044600680169E26821F4405111438D
:103EB00001612169A0680843616908432168CA68F3
:103EC00041F20C639A430243CA6020684169A269C7
:103ED00021F44071114341611E492068884202D19A
:103EE000FDF7C2FE01E0FDF7AFFE00EBC00101EB04
:103EF0000012606864218000B2FBF0F3B3FBF1F3C1
:103F00006FF018067343B2FBF0F5B2FBF0F605EB69
:103F10008305322303EB0515B5FBF1F5B6FBF1F68E
:103F200005F0F00505EB0615B2FBF0F6B2FBF0F07C
:103F3000B0FBF1F06FF01802504306EB800003EB8A
:103F40000010B0FBF1F0216800F00F0028448860F9
:103F500070BD00000038014081628285C285002169
:103F60004164222180F84210016921B10168CA68C8
:103F700042F48072CA6001684A6942F001024A61F3
:103F80000068C16841F02001C160002070472DE940
:103F9000F843984617460D460446089E24E0701CD8
:103FA00022D0FDF7F7F9A0EB0800B0421AD8CEB145
:103FB0002068C168490717D5802D15D0402D13D032
:103FC0000168C94309070FD40168002540680090C3
:103FD0002046FFF7DDFE0820606484F84050012091
:103FE000BDE8F8830320FBE72068006835EA00009D
:103FF00004D00020B842D2D00020F1E70120F9E738
:104000000148FEF751BD0000B40200200148FEF750
:104010004BBD0000FC020020FEE700000FB41CB501
:104020000A46521ECDE9000207A9054B6A460698CA
:1040300000F0FEF8009A002111701CBC5DF814FB22
:10404000934600080FB4084B10B504A902AA0398C0
:1040500000F0EEF8044602A9002000F025FB2046FF
:1040600010BC5DF814FB0000A94600080907090E02
:10407000002804DB00F1E02080F80014704700F015
:104080000F0000F1E02080F8141D70470121FCF7BB
:104090005BB900210846FCF719B900002DE9F04D85
:1040A0000D4614464FF07F41B1EB440F9EBF4FF0D9
:1040B000FF312960BDE8F08D4FF0004040EA042157
:1040C000C4F3C750783810F01F024A4B4FEA601C07
:1040D000C2F120067B44C4F3C750A0F178004FEA38
:1040E000601003EB800053F82C3008BFD0E901C604
:1040F00012D0D0F804C093402CFA06F73B438768EF
:104100000CFA02FC27FA06F8C06807FA02F2F0403F
:104110004CEA080C42EA0006A3FB0132ACFB01C0EA
:10412000A6FB016101EB0C068E4234BF4FF0010C7F
:104130004FF0000CC1186144BCF1000F02D0814265
:1041400002D903E0814201D2012000E000201044A6
:1041500000F120024FEA92188006CA0C40EA423071
:104160004F03C5F80080FCF703FA82463846FCF797
:10417000F7F86FF01201FCF7E7F807463046FCF756
:10418000EFF86FF02501FCF7DFF88346394650461B
:10419000FCF712F85946FCF70FF800F500666FF3CC
:1041A0000B0651463046FCF759F83946FCF756F8ED
:1041B0005946FCF756F81049FCF756F807460F49E0
:1041C0003046FCF751F83946FBF7F6FF07460C4935
:1041D0003046FCF749F83946FBF7EEFF14F0004F84
:1041E00008BFBDE8F08DC8F1805180F00040296023
:1041F000BDE8F08DF4200000DB0FC92F22AAFD29B5
:104200000000C92F02E008C8121F08C1002AFAD115
:1042100070477047002001E001C1121F002AFBD146
:10422000704700000149086070470000BC00002092
:104230002DE9FF4F8DB00F460546002606E02528E4
:104240000BD0DDE90F1290476D1C761C28780028F2
:10425000F5D111B03046BDE8F08F0024A246A1464A
:104260000122EC4900E0044315F8013F203B02FA2B
:1042700003F00842F7D128782A2810D06FF02F02D7
:104280002878A0F13001092914D80AEB8A0102EB41
:10429000410144F0020400EB010A6D1CF0E701CF7C
:1042A0005FEA000A03D544F40054CAF1000A44F05E
:1042B00002046D1C28782E2817D115F8010F44F040
:1042C00004042A280ED06FF02F022878A0F13001C4
:1042D00009290AD809EB890102EB410100EB010928
:1042E0006D1CF2E757F8049B6D1C28786C280FD0E2
:1042F00006DC4C2817D068280DD06A2814D104E0B9
:10430000742810D07A280FD10DE044F400140AE08C
:1043100044F4801401E044F440146978814202D1ED
:1043200004F580146D1C6D1C2A786E2A1FD00CDCDD
:10433000632A31D004DC002A8BD0582A11D1A3E0A3
:10434000642A68D0692A0CD165E0732A2ED004DC77
:104350006F2A73D0702A04D19BE0752A6FD0782A17
:104360006ED01046DDE90F129047761C50E1C4F381
:104370000250022806D0032809D0042801CF09D012
:10438000066045E101CFF117C0E9006140E101CFCE
:1043900006803DE106703BE117F8040B8DF8000044
:1043A00000208DF80100EB46012003E057F804BB24
:1043B0004FF0FF3061074FF0000102D40DE008F12B
:1043C0000101884649450FDA8045F8DB1BF80810E3
:1043D0000029F4D108E008F1010188468142FADBA6
:1043E0001BF808100029F6D1DDE90F23AAEB08001D
:1043F0008146214600F036F9304400EB080604E01F
:10440000DDE90F121BF8010B9047B8F10108F7D254
:1044100021464846F7E00A21C4F302534FF0000B4F
:104420000891022B04D001CFC117032B09D00AE059
:10443000FF1D27F00707F7E8020108E032E01FE060
:1044400020E000B2C117042B01D140B2C117031EF6
:1044500071F1000307DA4FF0000CD0EB0C006CEBAD
:1044600001012D2302E0230504D52B238DF82430F0
:10447000012303E0E30701D02023F7E7984658E043
:104480000A2110E010210EE010204FF0000B0890E0
:104490000CE010214FF0000B44F004044FF0080929
:1044A000089103E008214FF0000B0891C4F3025378
:1044B000022B04D001CF0021032B06D006E0FF1D04
:1044C00027F00707F7E8020103E080B2042B00D1D0
:1044D000C0B24FF0000823072BD5702A07D0DDF8B3
:1044E00020C08CF0100C5CEA0B0C05D00EE04023D1
:1044F0008DF82430012308E050EA010306D0302370
:104500008DF824308DF8252002239846DDF820C050
:104510008CF0080C5CEA0B0C0BD150EA010301D1C2
:10452000630706D530238DF824304FF00108A9F138
:104530000109582A04D038A20B9208AA0A920BE06B
:104540003AA2F9E75B46089AFBF723FF0B9B9B5CBB
:104550000A9A521E0A92137050EA0102F2D10A9886
:10456000ADEB000000F1200B600702D524F480348D
:1045700001E04FF00109D94502DDA9EB0B0000E095
:10458000002000EB0B0141440890AAEB010AE00374
:1045900006D4DDE90F232146504600F063F80644B7
:1045A0004FF0000908E009A911F80900DDE90F1230
:1045B000904709F10109761CC145F4DBE0030CD5F5
:1045C000DDE90F232146504600F04CF8064404E094
:1045D000DDE90F1230209047761C0899481E08909C
:1045E0000029F5DC08E00A980A990078491C0A912C
:1045F000DDE90F129047761CBBF10001ABF1010B16
:10460000F1DC21465046DDE90F2300F019F806449D
:104610006D1C1BE609280100303132333435363742
:1046200038396162636465660000000030313233FE
:10463000343536373839414243444546000000009E
:104640002DE9F041044600251E461746880404D48F
:1046500005E039462020B0476D1C641EF9D5284678
:10466000BDE8F0812DE9F041044600251E46904644
:10467000C80301D5302700E02027880404D505E0D1
:1046800041463846B0476D1C641EF9D52846BDE842
:10469000F0814A68002A06D00A68531C0B6010702B
:1046A0004868401E486070470A68531C0B601070D1
:1046B0007047000010B5FCF76DFE0A494FF000038B
:1046C0000A69541C06D0821AB2F5FA6F02D20B7333
:1046D000002010BD08610B73887888720120C872B1
:1046E00010BD00001000002010B50A210648FBF79D
:1046F00042FD05480821817200210173C1724A1EE2
:104700000261017510BD00001000002010B5064CBC
:10471000207D401CC0B22075032803D300F01CF894
:104720000020207510BD00001000002070B50400AE
:104730000CD0084D0826287B48B1FFF7BBFF30B1ED
:1047400000F04AF8A87A20700020E87270BD267048
:1047500070BD00001000002010B50B4C002210218D
:104760002046FCF711FE7820FCF7F0FC0122102116
:104770002046FCF709FE4FF4FA70FCF7E7FCBDE8B1
:104780001040FFF7B1BF00000008014000222021C7
:104790000148FCF7F9BD0000000C01400448017815
:1047A000044809B1012200E000222021FCF7ECBD01
:1047B000AB000020000C014006480178002908D019
:1047C0004178491CC9B24170322902D3002141709D
:1047D00001707047AB0000200248012101700021E8
:1047E00041707047AB00002008B500206223802292
:1047F0001E21009001F04CF808BD00002DE9F8439F
:10480000044602464F486946B0EB420F09D94FF0C3
:10481000E640B0EB420F94BF00204FF0FF30009015
:1048200030E0494B22F00040834271D9474920468D
:10483000FBF71AFDFBF753FE8046FBF76EFE00F018
:104840000300009042494046FBF70EFD05464149F2
:104850004046FBF709FD06463F494046FBF704FD8D
:1048600007463E494046FBF7FFFC2146FBF7F9FCB3
:104870003946FBF7F3FC3146FBF7F0FC2946FBF722
:10488000EDFC04462546009C002C45DB294614F02F
:10489000010F08461CD0FBF7E7FC06463049FBF742
:1048A000E3FC3049FBF7DDFC3146FBF7DDFC2E492C
:1048B000FBF782FC3146FBF7D7FC2946FBF7D4FC1B
:1048C0002946FBF779FC14F0020F1CD0BDE8F883F1
:1048D000FBF7CAFC05462549FBF7C6FC2449FBF754
:1048E0006BFC2946FBF7C0FC2249FBF765FC294617
:1048F000FBF7BAFC4FF07E51FBF75EFC14F0020FA1
:1049000008BFBDE8F88380F00040BDE8F883FFE70A
:104910001046FFF7C3FBB4E76800B0F17F4F3CBF20
:104920004FF07E50BDE8F88307D14FF00100FFF74C
:1049300079FCBDE8F843FFF7ACBB2846BDE8F84377
:10494000FFF7A4BBB61F927E490E494683F9223F6A
:104950001A61342C0020A23300A0FD390000C93FA9
:10496000336D4C39DA82083CA0AA2ABEB93AB2BAF1
:10497000CA9F2A3DDDFFFFBE38B505464FF6FF74DE
:1049800001237D2219460220009400F025FF00201B
:10499000009023462A460C21042000F0EBFE1B2346
:1049A0007D2219460220009400F016FF38BD10B594
:1049B000FFF7ECFEBDE8104000F020B810B50E493E
:1049C000002220B1012807D002280DD109E0087883
:1049D000012809D10A700CE04878012804D14A70F6
:1049E00005E08878012801D0002010BD8A70FFF70B
:1049F000F3FE012010BD0000A800002010B5074CF8
:104A000000224FF400412046FCF7BEFC2046012264
:104A1000BDE810409103FCF7B7BC0000000C01405A
:104A2000084B4FF4004150B1012804D0491002282E
:104A300005D0032805D100221846FCF7A5BC0122A9
:104A4000FAE77047000C014010B520B119B10A789F
:104A50001AB1012A0CD0012010BD00680C4A904206
:104A600014DC012008707820FCF770FB012009E0BD
:104A70000068084A904209DB002008707820FCF7A3
:104A800065FB0020BDE8104000F06BB8002010BDB1
:104A9000000020410000704138B50C4605001CD0D4
:104AA000DCB12878032818D800200090022168463D
:104AB00000F040F888B9BDF8000040BAFBF750FCA0
:104AC0002A780A49012A0AD0FBF700FC206029460F
:104AD0002046FFF7B9FF002800D0012038BDFBF7C2
:104AE000F5FB4FF0FF31FBF72FFCEFE79A99993F69
:104AF00010B5002000F04CF8002800D0012010BDB7
:104B000010B5012000F044F868B90A20FCF71EFB3C
:104B1000072000F03DF830B90A20FCF717FB102001
:104B200000F036F808B1012010BD7820FCF70EFB2C
:104B3000002010BD0B46024646210148FEF732BB5D
:104B40003401002010B5072000F022F80A20FCF7FD
:104B5000FDFA102000F01CF8BDE810407820FCF7AA
:104B6000F5BA10B530B1012806D0022806D00328C6
:104B700006D00AE0102004E0112002E0132000E03B
:104B8000202000F005F8002800D0012010BD000012
:104B900001B501236A4646210148FEF750FC08BDD5
:104BA00034010020FCF7B4FEFEF70CFFFEF7B4FC66
:104BB000FEF784FCFEF734FDFEF752FDFEF70AFE19
:104BC000FEF724FEFEF752FCFEF7D0FDFEF76CFD6B
:104BD00000F092FB00F0ACFB00F0C2FBFCE7000031
:104BE0002DE9F0410027114D3E46002405EB8400DD
:104BF000D0F800040146FBF737FB3946FBF7DCFA37
:104C0000641C0746FF2CF1DD761CF6B2032EECD3B4
:104C10000749FBF75BFB6FF00701FBF795FBC5F856
:104C20002408012085F82808BDE8F0812804002028
:104C30000000404010B54FF4806421460B48FBF75C
:104C40009AFA21460A48FBF796FA20210948FBF711
:104C500092FA0649002081F82008C1F8240881F85A
:104C60002808C1F82C08C1F8300810BD280400201D
:104C700028080020280C0020002803D00249D1F881
:104C800030180160704700002804002001480068C7
:104C900000F052F8785B000810B50448FDF7F6FB09
:104CA000BDE810400248FCF7A7B800002802002029
:104CB000C000002010B5FFF7BDFF0948FDF7BEFB9F
:104CC0004FF4807207490848FCF710F805490120A5
:104CD00081F82008BDE810406420FCF737BA0000D6
:104CE0002802002028040020C000002010B500F099
:104CF0000DF8054890F8280808B1FFF7C7FFBDE890
:104D00001040FFF76DBF00002804002070B5094D6A
:104D1000002400BF55F82400A0F50060FBF720FB3D
:104D200005EB8401641CA4B2C1F80004FF2CF1D986
:104D300070BD0000280400200821FBF705FB0B498B
:104D4000FBF7C4FA4FF07C51FBF736FAFBF70DFB8B
:104D500080B2FBF705FB0649FBF786FA6FF0070107
:104D6000FBF7F2FAFFF74AFDFEE7000000401C46A1
:104D7000DA0FC9402DE9F0411C4615000E460746E2
:104D800010D0FBF7EDFA0F49D1F82C18FBF76CFAAD
:104D90000D49FBF79BFAFBF7E8FAC0B22870B8425E
:104DA00002D92F70BDE8F081B04201D22E70F9E730
:104DB000A042F7D200EB4000A04200D804462C707D
:104DC000F0E700002804002000401C4610B5FFF763
:104DD000EEFDFBF71DFD00F049F8BDE8104000F0C6
:104DE00093BD00002DE9F041114C1249A5682069DE
:104DF000FBF76CFA00F0C6F90F49FBF735FA0646E7
:104E000029464FF07E50FBF729FA3146FBF72CFA82
:104E10000A4F064628463968FBF726FA3146FBF763
:104E2000CBF93860FBF7A1FA2071BDE8F0810000F2
:104E3000CC0300200000C8430000344304000020DD
:104E40000020064A014600BF42F82010401C10F026
:104E5000FF00F9D082F89810704700005C0C002029
:104E60000A2801D200F0BAB87047000010B500223D
:104E70004FF480710448FCF787FAFFF7E1FFBDE8C3
:104E8000104000F04DB8000000080140F8B50020C7
:104E900000906846FFF7F0FE009810F0FF4F35D005
:104EA0001B49884202DC1B49C81C09E01A49884298
:104EB00003DC1849891DC81C02E016490C31C81CC6
:104EC0000D7802784B78521BD4B2427880788F7874
:104ED000D21A1249C01BC6B291F89A00D2B244430A
:104EE000424303EB1222704305EB1424120607EB36
:104EF0001020E4B2C3B2120A002042EA04221A438C
:104F000041F82020401C10F0FF00F9D0F8BD00004F
:104F100000004843985B00080000FA445C0C002045
:104F200002480021016000F021B800005C0C002064
:104F300010B50B460446FFF783FF19462046FFF7DE
:104F40008FFFBDE8104000F011B808B500208DF8C3
:104F500000004D236A461421FF20FFF70BFF68462F
:104F600000F0D0F8FFF792FF08BD0000F0B4002376
:104F700001243C26174A19461E27172052F821C043
:104F800004FA00F51CEA050F02EB430501D0AE80E0
:104F900000E0AF805B1C401E40B29BB20028EDDAFF
:104FA000491C11F0FF01E8D00020014602EB430547
:104FB0005B1C401CA9809BB23228F7DB92F898005A
:104FC0000028FDD182F89840F0BC00210248121D53
:104FD000FDF7ACBB5C0C0020E001002070B506467C
:104FE00007480D46002400F8996F41702A46314663
:104FF000204600F065F8641C14F0FF04F6D070BD84
:105000005C0C00200146024890F89900FFF7E6BFCB
:105010005C0C002000280DD001782839C9B201703D
:10502000142901D214210170C8B2034981F89A00F1
:10503000FFF7E8BF704700005C0C002000280DD08F
:1050400001782831C9B20170B42901D9B4210170A5
:10505000C8B2034981F89A00FFF7D4BF7047000037
:105060005C0C002000280CD00178B42901D3142155
:1050700000E028310170C8B2024981F89A00FFF7B8
:10508000C1BF70475C0C0020024991F89A10FFF7ED
:10509000A5BF00005C0C002000280DD00178491C41
:1050A000C9B201700A2901D300210170C8B20349B5
:1050B00081F89900FFF7E8BF704700005C0C002002
:1050C000002819D1142A01D2142202E0B42A00D9EE
:1050D000B42201EB41030949C85C0B4450435978A1
:1050E0009B785143000A090A5343000440EA012017
:1050F000034940EA1320086070470000AA5B0008DB
:105100005C0C00202DE9F04100282CD0174C0078D1
:10511000174D94F89A70174EC11B11F0FF0F0ED067
:10512000FBF71EF901461448FBF79EF80646384681
:10513000FBF716F92946FBF797F831460DE0FBF728
:105140000FF901460D48FBF78FF805463846FBF787
:1051500007F93146FBF788F82946FBF72DF8FBF7EE
:1051600004F984F89A00BDE8F08100005C0C00208E
:105170009A99193F9A99593FCCCCCC3E9899193EAF
:10518000FFF7F4BE70B50546FBF77AF9044620F048
:105190000040C0F1FF40C00F08D025F00040C0F132
:1051A000FF40C00F04BF0120FFF73CF8204670BD50
:1051B00070B50220FFF702FC144D20B1681DFFF707
:1051C0006BFFFFF7DDFF124C6078401CC0B26070CF
:1051D000142810D30D49002610316670081FFFF700
:1051E0005BFC48B12078401CC0B22070052802D377
:1051F000FFF7A8FC267070BDFFF7F4FD29796879E8
:10520000FFF72EFEFFF7BCFFF4E70000CC03002001
:1052100008000020074810B500210173064901610C
:1052200001794079FFF784FEFFF76AFCBDE8104082
:10523000FFF732BDCC0300200000484210B501202A
:10524000FFF7BCFB094C18B1201DFFF70BFF07E06F
:105250000220FFF7B3FB002806D0601DFFF71CFFFC
:10526000BDE81040FFF78CBF10BD0000CC0300204C
:1052700010B500F0F5F9054801794079FFF758FEBF
:10528000FFF736FCBDE81040FFF706BDCC03002059
:1052900010B5FFF72BFDFFF758FEBDE81040FFF7F4
:1052A0006FBF000010B500F0DBF9054801794079C7
:1052B000FFF73EFEFFF71CFCBDE81040FFF7FABC0D
:1052C000CC03002010B500F06BF80A48FBF78AFA0F
:1052D000084C143C207D082806D104F11500FFF786
:1052E00025FA607D082803D0BDE81040FEF734BBE6
:1052F00010BD0000E003002010B500F0B1F9BDE8DA
:105300001040FFF763BD0000084910B50320087086
:105310000120FFF785FBFFF703FE00F02DFBFFF7F1
:10532000E7FBBDE81040FFF7B7BC0000CC0300204E
:1053300010B50020FFF774FB0320FFF771FB00F0AE
:105340008FF906480021017001794079FFF7F0FDDF
:1053500000F01AFBBDE8104000F086B8CC03002036
:1053600010B5FFF7AFFF0D48007820B1012805D038
:10537000022808D105E0FFF761FF04E0FFF718FFFE
:1053800001E0FFF785FFFFF709FAFFF79BFF00F049
:105390001DF8BDE810400A20FBF7D8BECC03002062
:1053A00010B50020FFF70AFB00280BD00648007854
:1053B000032803D0BDE81040FFF7A6BFBDE81040AA
:1053C000FFF7B6BF10BD0000CC03002070B5164C2F
:1053D0002078032827D0154DA97888420FD00020C7
:1053E00000F054F92078A87098B1012813D0022851
:1053F00013D00FA0FFF7C0FAFF2028706870207844
:1054000068B101280BD002280DD1BDE8704000F032
:10541000E7B80AA0EEE70DA0ECE70FA0EAE7BDE8C9
:10542000704000F037B870BDCC0300200A000020A7
:10543000204D4F44453A202D2D2D2D00204D4F4419
:10544000453A204D414E55414C000000204D4F44FF
:10545000453A204155544F00204D4F44453A204D88
:10546000555349430000000010B5002000F00EF92C
:1054700003A0FFF781FA0648FF210170417010BDBB
:10548000204D4F44453A204D414E55414C000000BF
:105490000A000020F0B54A48642295B001794579A8
:1054A0005143B422B1FBF2F14648CCB201788C42B0
:1054B00002D141788D427DD004704570FFF794F998
:1054C000224641A110A8FEF7BDFD00274FF6FF764A
:1054D000334610AA23210420009700F04BF947F629
:1054E000EF300090082364223421022000F0D0F92C
:1054F00064204443B4FBF0F2642A01D9642200E042
:105500002AB1082334210220009600F0C1F9282294
:10551000304901A8FAF716FE01A82FA150F825205E
:105520000BA8FEF78FFD344633460BAA4621042014
:10553000009700F01FF94FF6E0704FF61F010A2D9B
:1055400016D2DFE805F005080B151616130D10131B
:105550004FF478400DE04FF4FC600AE01F2008E0B3
:1055600040F2FF7005E04FF6205002E0084600E0F0
:105570002046192300901A464421622000F088F941
:1055800044237A2219466220009400F025F95D2315
:105590007A2219466220009400F01EF962225D23EF
:1055A00044211046009400F017F97A225D2344212B
:1055B000104600E002E0009400F00EF915B0F0BDD6
:1055C000CC0300200A0000204252493A20256425DD
:1055D00025000000385B0008434F4C3A202573003B
:1055E0002DE9F04387B0FFF7FFF8002000904FF659
:1055F000FF7317A22D211C2000F0BCF8174801AC46
:105600000DF110090EC884E80E0007C889E80700EC
:105610000025A04640F2FF7639F8150038F815400D
:10562000C0F1640087B222466323394610460096D3
:1056300000F0D2F8641CA2B2A0B2632339460096EF
:1056400000F0CAF86D1C052DE6DB07B0BDE8F0835D
:10565000454E4A4F59204D5553494300605B000861
:1056600000B587B018216846FAF785FD182205496C
:105670006846FAF767FD182269460348FAF762FDA3
:1056800007B000BD205B0008CC03002038B5010A3C
:105690008DF800108DF801007F2300211A4608467E
:1056A00000F07AF900244FF4804564230222694611
:1056B0000648FCF731FD641CA4B2AC42F5D30122CC
:1056C00091020348FBF760FE38BD0000880100200E
:1056D000000C01402DE9FC4780460A988A46B8F143
:1056E000800F3ED2BAF1800F3BD2A2F120015F2998
:1056F00037D21D49002401EB0211A1F50079190AE6
:105700008DF80010010A8DF804108DF801308DF825
:10571000050080260AEB040319F80470194608F105
:105720000702404600F038F95FF0000526FA05F060
:1057300038424FF064034FF0020201D0694600E0A6
:1057400001A90A48FCF7E8FC6D1CEDB2082DEDD369
:10575000012291020648FBF717FE641CE4B2102CEC
:10576000D8D3BDE8FC870000C85B00088801002092
:10577000000C01402DE9F8439946174606460546B8
:105780000C46DDF820801AE0A2F120005F2819D233
:1057900005F10800802804D91034E4B23546802C85
:1057A00010D80A2A10D00D2A14D04B46214628467C
:1057B000CDF80080FFF78EFF0835EDB27F1C3A78F8
:1057C000002AE1D1BDE8F8831034E4B23546802CDC
:1057D000F8D8F3E73546F1E72DE9FC5F07469A462E
:1057E00090460E46D41B00D56442BAEB060000D5A5
:1057F0004042C0F100094FF0FF30474501D201217E
:1058000000E001460191564500D201208346C9F1CE
:10581000000004EB09050090314638460C9A00F070
:1058200017F8474501D156450FD0009968008842C6
:1058300004DD0199A5EB090539448FB2A042EBDAEA
:1058400006EB0B00254486B2E6E7BDE8FC9F0000AE
:1058500038B51446802815D2802913D20B4602464B
:1058600000F09AF8200A8DF800008DF801406423BA
:10587000022269460448FCF74FFC012291020348CA
:10588000FBF782FD38BD000088010020000C0140BC
:10589000F8B51D46069E144680282FD280292DD2A9
:1058A0000219802A02D9C0F1800294B24A19802AD2
:1058B00002D9C1F1800295B2002C1FD0002D1DD05D
:1058C0004A19521E93B20219521E92B200F064F8A5
:1058D000300A8DF800008DF8016000266C4306E068
:1058E0006423022269460648FCF716FC761CB44283
:1058F000F6D8012291020348FBF746FDF8BD0000EF
:1059000088010020000C014070B51A4D4FF48054FE
:10591000002221462846FBF737FD1420FBF716FC32
:10592000012221462846FBF72FFD7820FBF70EFCCD
:10593000112000F0CBF87820FBF708FC3A2000F0AB
:10594000C5F8052000F0A4F8362000F0BFF8C82004
:1059500000F09EF8132000F0B9F8292000F0B6F806
:105960000020FFF793FE2846BDE870400122110297
:10597000FBF70ABD000C014000224FF48071014882
:10598000FBF702BD000C0140012211020148FBF7A8
:10599000FBBC0000000C01402DE9F8431C461546F5
:1059A0000E46074680286CD2802E6AD2802D68D29F
:1059B000802C66D2AF4264D8A64262D8DFF8C88095
:1059C00000224FF480614046FBF7DEFC4FF4006993
:1059D000002249464046FBF7D7FC2A208DF80000FC
:1059E0006423012269462948FCF796FB01224946B7
:1059F0004046FBF7C9FC380A8DF800008DF80170AD
:105A0000280A8DF802008DF80350642304226946A9
:105A10001E48FCF781FB002249464046FBF7B4FCD8
:105A20002B208DF800006423012269461748FCF7FB
:105A300073FB012249464046FBF7A6FC300A8DF86D
:105A400000008DF80160200A8DF802008DF80340F7
:105A50006423042269460D48FCF75EFB0022494698
:105A60004046FBF791FC2C208DF8000064230122B6
:105A700069460648FCF750FB012249464046FBF7C1
:105A800083FCBDE8F8830000000C01408801002081
:105A900070B50C4D04460122D1022846FBF774FC78
:105AA0002E15002231462846FBF76EFC214606489B
:105AB000FDF742FF31462846BDE870400122FBF762
:105AC00063BC0000000C01408801002070B50C4D43
:105AD000044600224FF400612846FBF755FC2E15C2
